:020000040800F2
:10000000C0B802205502000823700008293C0008EF
:100010001F70000847080008558B0008000000000A
:10002000000000000000000000000000DD73000878
:1000300011160008000000006D700008D974000857
:100040006F0200086F0200086F0200086F020008CC
:100050006F0200086F0200086F0200086F020008BC
:100060006F020008BF160008C91600086F020008DA
:100070006F0200086F0200086F0200086F0200089C
:100080006F0200086F0200086F0200086F0200088C
:100090006F0200086F0200086F020008D316000804
:1000A0006F0200086F0200086F0200086F0200086C
:1000B0006F020008457500086F0200086F02000813
:1000C0006F0200086F0200086F0200086F0200084C
:1000D0006F0200086F020008D1790008717A0008E9
:1000E000B31600086F0200086F0200086F020008D4
:1000F0006F0200086F0200086F0200086F0200081C
:100100006F0200086F0200086F0200086F0200080B
:100110006F0200086F0200086F0200086F020008FB
:100120006F0200086F0200086F0200086F020008EB
:100130006F0200086F0200086F0200086F020008DB
:100140006F0200086F0200086F0200085D7000086F
:100150006F0200086F0200086F0200086F020008BB
:100160006F0200086F0200086F0200086F020008AB
:100170006F0200086F0200086F0200080000000014
:100180006F0200086F0200086F0200086F0200088B
:100190006F0200086F0200086F0200086F0200087B
:1001A0006F0200086F0200086F02000800F002F8FA
:1001B00000F041F80AA090E8000C82448344AAF1C0
:1001C0000107DA4501D100F036F8AFF2090EBAE8BE
:1001D0000F0013F0010F18BFFB1A43F0010318477B
:1001E0002891000048910000103A24BF78C878C1D7
:1001F000FAD8520724BF30C830C144BF04680C602D
:10020000704700000023002400250026103A28BF74
:1002100078C1FBD8520728BF30C148BF0B60704778
:10022000782900F04580002070471FB508F0F0FFE6
:100230001FBD10B510BD00F0ABFA1146FFF7F5FF7A
:1002400008F0AAFD00F0C9FA03B4FFF7F2FF03BCFF
:1002500008F021FD0948804709480047FEE7FEE70E
:10026000FEE7FEE7FEE7FEE7FEE7FEE7FEE7FEE766
:1002700004480549054A064B70470000E174000830
:10028000AD010008C0B20220C0B80220C0B40220F4
:10029000C0B40220704700000FB4044910B503AA8F
:1002A000029800F047FA10BC5DF814FB1C00002017
:1002B00070B504460D4621461068AFF300802188D2
:1002C000090502D50F4A7A4402E00E4A7A440E32FA
:1002D000002104F1240305E000F00F060009965DFB
:1002E0005E54491C0028F7D120780023000704D56C
:1002F000702D02D009B1022311322046BDE87040B2
:1003000000F0BEB9868F00002DE9F05F89460446F3
:100310004FF0000ADFF824B1FB44C0F820A02046CB
:10032000E168884700287DD0252806D0D4E901213E
:100330009047206A401C2062F1E700255F46204676
:10034000E16888472028064607DB312E05D2B81918
:1003500010F8200C08B10543F1E7A80701D525F0F6
:100360000405C4F81CA00027C4F818A02A2E09D040
:10037000304608F089FC38B304EB8708303EC8F8F3
:10038000186019E059F8041B204604EB87029161BC
:10039000E1688847012F064618D1E069002820DA75
:1003A00025F020051DE0D8F8180000EB800006EBD2
:1003B00040003038C8F818002046E16888470646F3
:1003C00008F062FC0028EED1012F0AD02E2E08D1B1
:1003D0002046E16888477F1C0646022F45F020052D
:1003E000C4DBA069002803DA404245F00105A061A2
:1003F000E80701D025F01005A6B1A6F141001928A3
:1004000002D8203645F400654A463146204625602C
:100410004D46FFF705FF60B1012807D0ED1D25F01F
:10042000070000E007E000F1080978E705F104099A
:1004300075E730467AE7206ABDE8F09F5C8F0000E0
:1004400010B5431E13F8014F002CFBD105E011F845
:10045000014B002C03F8014B03D0521EF7D20021B0
:10046000197010BD10B5431C02E010F8011B71B1EA
:100470008107FAD14FF0013202C88C1A8C4314EA7A
:10048000C211F9D0C01A0A0603D0C01E10BDC01A8E
:1004900010BD0A0401D0801E10BD0902FCD0401E10
:1004A00010BD032A40F2308010F0030C00F01580DC
:1004B00011F8013BBCF1020F624498BF11F801CB67
:1004C00000F8013B38BF11F8013BA2F1040298BFCC
:1004D00000F801CB38BF00F8013B11F0030300F036
:1004E0002580083AC0F0088051F8043B083A51F8DA
:1004F00004CBA0E80810F5E7121D5CBF51F8043BDF
:1005000040F8043BAFF30080D20724BF11F8013B51
:1005100011F801CB48BF11F8012B24BF00F8013BB3
:1005200000F801CB48BF00F8012B704710B5203A06
:10053000C0F00B80B1E81850203AA0E81850B1E89C
:100540001850A0E81850BFF4F5AF5FEA027C24BF52
:10055000B1E81850A0E8185044BF18C918C0BDE849
:1005600010405FEA827C24BF51F8043B40F8043B12
:1005700008BF7047D20728BF31F8023B48BF11F8C7
:10058000012B28BF20F8023B48BF00F8012B704721
:100590004FF000020429C0F0128010F0030C00F0AC
:1005A0001B80CCF1040CBCF1020F18BF00F8012B2A
:1005B000A8BF20F8022BA1EB0C0100F00DB85FEAF8
:1005C000C17C24BF00F8012B00F8012B48BF00F8C4
:1005D000012B70474FF0000200B513469446964633
:1005E000203922BFA0E80C50A0E80C50B1F1200146
:1005F000BFF4F7AF090728BFA0E80C5048BF0CC0F4
:100600005DF804EB890028BF40F8042B08BF704751
:1006100048BF20F8022B11F0804F18BF00F8012BC3
:10062000704710B5044610F0030F08BF11F0030F18
:1006300040F015804FF0013E121FC0F20E8051F8BD
:10064000043BA3EB0E0C2CEA030C1CEACE1C08BFE7
:1006500040F8043BF0D0A1F1040102F10402521E63
:1006600008DB11F8013B002B00F8013BF7D11146E4
:10067000FFF78EFF204610BD7047704770477047E8
:100680002DE9F0470D4699469246044600F12408AC
:100690000168880604D5E06921F01001216000E0BE
:1006A0000120A84201DD471B00E00027A1697A195B
:1006B00002EB0900081AA0612078C00602D4204687
:1006C000AFF30080002608E0D4E901211AF8060003
:1006D0009047206A401C761C20624E45F4DB20784F
:1006E000C0060AD52046AFF3008006E0D4E9012118
:1006F00030209047206A401C2062381EA7F1010775
:10070000F4DC07E0D4E9012118F805009047206ADD
:10071000401C2062281EA5F10105F3DC2046AFF342
:1007200000802078000602D50220BDE8F087012075
:10073000FBE70000074B70B50D467B4400F011F855
:100740000446284600F020F810B14FF0FF3070BD8D
:10075000204670BD3F86000001694A1C026108788E
:10076000704700B58FB0CDE90131002105910549F1
:100770007944CDE9031011466846FFF7C5FD0FB077
:1007800000BD0000E5FFFFFF007B00F08000704728
:10079000754600F02BF8AE4605006946534620F03A
:1007A0000700854618B020B5FFF762FDBDE8204080
:1007B0004FF000064FF000074FF000084FF0000B1D
:1007C00021F00701AC46ACE8C009ACE8C009ACE8D0
:1007D000C009ACE8C0098D46704710B50446AFF3B8
:1007E00000802046BDE81040FFF72EBD004870474E
:1007F00060B202201CB5014600200AA418CCCDE945
:10080000003408220AE00B78312B04D1531E1DF866
:1008100003300344D8B2491C531EDAB2012AF2DA7B
:100820001CBD0000010204081020408070B5054680
:100830000E46144622463146284606F018FC20464D
:1008400000F0F8F970BD00BFFEE7000010B500220F
:100850001021064801F05EFA0A2008F029FA012268
:100860001021024801F056FA10BD0000002002409D
:1008700000B587B01748184908604FF4E130486068
:10088000002115488160C160016181610C214161D5
:1008900002F0EEFF00BF002001901048006840F415
:1008A00080700E4908600846006800F4807001906E
:1008B00000BF00BF1020029001200390049002208E
:1008C000059002A9064801F00FF9FFF7BFFF07B036
:1008D00000BD000000480040E00700203038024022
:1008E0000020024008B500200090FD208DF8000097
:1008F00000208DF8010001208DF8020021208DF8E4
:1009000003004FF47A7304226946064803F013F992
:1009100000BF044800680068C0F380100028F8D0C9
:1009200008BD0000E0070020F0B5B3B006460F4652
:100930001546C82101A8FFF74DFE2846FFF792FD96
:10094000C4B2601DC82801DD33B0F0BDFD208DF8B4
:10095000040000208DF80500A01CC0B28DF8060030
:100960008DF807608DF80870224629460DF10900C0
:10097000FFF797FD4FF47A73621D01A9064803F053
:10098000DAF800BF044800680068C0F3801000284F
:10099000F8D000BFD8E70000E00700202DE9FE43B3
:1009A00004460F464FF00008C14600200090019019
:1009B0000290002584E02E4623E0C6EBC6002044CA
:1009C00090F80290C6EBC600205CC6EBC60121443D
:1009D0008870C6EBC60004F80090C6EBC600204441
:1009E00090F80590C6EBC6002044C078C6EBC6015F
:1009F00021444871C6EBC600204480F80390701C67
:100A0000C6B2281D8642D8DBC5EBC50001190622F7
:100A10006846FFF706FE681CC0EBC0000119022201
:100A20006846FFF70DFD00208DF808006846FFF7C7
:100A3000E1FE07F808000020009001900290681C79
:100A4000C0EBC0002044811C04226846FFF7E9FD8A
:100A5000A81CC0EBC000011904226846FFF7F0FC97
:100A600000208DF808006846FFF7C4FE08F1010178
:100A700078540020009001900290A81CC0EBC000A8
:100A80002044011D02226846FFF7CBFDE81CC0EBA5
:100A9000C000011906226846FFF7D2FC00208DF83D
:100AA00008006846FFF7A6FE08F10201785400200E
:100AB000009001900290481C00F0FF08281DC5B26C
:100AC000142DFFF678AFBDE8FE83000000B587B0B7
:100AD00000BF002001904F48006840F002004D49DF
:100AE00008600846006800F00200019000BF00BFE7
:100AF00000BF002001900846006840F00400086034
:100B00000846006800F00400019000BF00BF00BF6D
:100B1000002001900846006840F008000860084680
:100B2000006800F00800019000BF00BF00BF002077
:100B300001900846006840F08000086008460068A0
:100B400000F08000019000BF00BF00BF00200190B6
:100B50000846006840F0400008600846006800F061
:100B60004000019000BF00BF00BF00200190084678
:100B7000006840F4807008600846006800F48070E7
:100B8000019000BF00BF00BF002001900846006830
:100B900040F4007008600846006800F4007001909E
:100BA00000BF00BF4FF2404002900120039003209D
:100BB000059002A9184800F097FFA720029002A90B
:100BC000164800F091FF4FF4E140029002A914484A
:100BD00000F08AFF8820029002A9124800F084FFEA
:100BE0008820029002A9104800F07EFF4FF4407068
:100BF000029002A90D4800F077FF4FF420400290C8
:100C000002A90B4800F070FF002000F03FFD07B084
:100C100000BD000030380240001C024000200240AD
:100C20000024024000180240000C0240000802406C
:100C30000004024001B582B006F046FA0120FE49E8
:100C40000860029800780821019000F0E2FCFB495E
:100C5000C1F88802029800780721019000F0D9FCC1
:100C6000F649C1F88402029800780621019000F04C
:100C7000D0FCF249C1F88002029800780521019069
:100C800000F0C7FCEE49C1F8BC02029800780421CC
:100C9000019000F0BEFCEA49C1F8B8020298007861
:100CA0000321019000F0B5FCE549C1F8B4020298B7
:100CB00000780221019000F0ACFCE249C1F8A402E6
:100CC000029800780121019000F0A3FCDE49086041
:100CD0000020D949086006F0F7F90120D749C1F88A
:100CE0009402029840780821019000F092FCD349C8
:100CF000C1F88802029840780721019000F089FC31
:100D0000CE49C1F88402029840780621019000F093
:100D100080FCCA49C1F88002029840780521019000
:100D200000F077FCC649C1F8BC0202984078042163
:100D3000019000F06EFCC249C1F8B80202984078F8
:100D40000321019000F065FCBD49C1F8B40202988E
:100D500040780221019000F05CFCBA49C1F8A4027D
:100D6000029840780121019000F053FCB6490860D8
:100D70000020B1490839086006F0A6F90120B349FE
:100D8000C1F8B802029880780821019000F041FC77
:100D9000AA49C1F88802029880780721019000F0E2
:100DA00038FCA649C1F88402029880780621019097
:100DB00000F02FFCA149C1F880020298807805213B
:100DC000019000F026FC9E49C1F8BC020298807890
:100DD0000421019000F01DFC9949C1F8B802029865
:100DE00080780321019000F014FC9549C1F8B40209
:100DF000029880780221019000F00BFC9149C1F823
:100E0000A402029880780121019000F002FC8E4932
:100E1000086000208E49086006F056F901208B49D1
:100E2000C1F8B0020298C0780821019000F0F1FBEF
:100E30008249C1F888020298C0780721019000F029
:100E4000E8FB7E49C1F884020298C078062101902F
:100E500000F0DFFB7949C1F880020298C0780521D3
:100E6000019000F0D6FB7649C1F8BC020298C07828
:100E70000421019000F0CDFB7149C1F8B80202983D
:100E8000C0780321019000F0C4FB6D49C1F8B402A1
:100E90000298C0780221019000F0BBFB6949C1F8BB
:100EA000A4020298C0780121019000F0B2FB6649CB
:100EB0000860002066490839086006F005F901203D
:100EC0006249C1F8B402029800790821019000F04B
:100ED000A0FB5A49C1F888020298007907210190C5
:100EE00000F097FB5549C1F8840202980079062169
:100EF000019000F08EFB5149C1F880020298007900
:100F00000521019000F085FB5249086002980079A4
:100F10000421019000F07DFB4E49091F08600298F2
:100F200000790321019000F074FB4549C1F8B40237
:100F3000029800790221019000F06BFB4149C1F851
:100F4000A402029800790121019000F062FB3E4961
:100F5000086000203E49091F086006F0B5F801202E
:100F60003D49C1F89C02029840790821019000F0A7
:100F700050FB3249C1F8880202984079072101905C
:100F800000F047FB2D49C1F8840202984079062100
:100F9000019000F03EFB2949C1F880020298407997
:100FA0000521019000F035FB2549C1F8BC020298EB
:100FB00040790421019000F02CFB2149C1F8B802CE
:100FC000029840790321019000F023FB1C49C1F8ED
:100FD000B402029840790221019000F01AFB1949ED
:100FE000C1F8A402029840790121019000F011FBA0
:100FF0001549086000201949086006F065F80120CD
:101000001549C1F88C02029880790821019000F0FE
:1010100000FB0A49C1F888020298807907210190F3
:1010200000F0F7FA0549C1F8840202988079062198
:10103000019000F0EEFA13E09C02444200004442AA
:101040000080434200004142A002414200804442ED
:10105000B8824442BC824342008041429C82414269
:10106000FE49C1F88002029880790521019000F0C4
:10107000D0FAFB49C1F8BC020298807904210190A2
:1010800000F0C7FAF649C1F8B80202988079032146
:10109000019000F0BEFAF249C1F8B40202988079DA
:1010A0000221019000F0B5FAEE49C1F8A4020298BD
:1010B00080790121019000F0ACFAEB490860002032
:1010C000EA49086006F000F80120E949C1F89C02ED
:1010D0000298C0790821019000F09BFADF49C1F81D
:1010E00088020298C0790721019000F092FADB494A
:1010F000C1F884020298C0790621019000F089FAB3
:10110000D649C1F880020298C0790521019000F00B
:1011100080FAD349C1F8BC020298C0790421019039
:1011200000F077FACE49C1F8B8020298C0790321DD
:10113000019000F06EFACA49C1F8B4020298C07971
:101140000221019000F065FAC649C1F8A402029894
:10115000C0790121019000F05CFAC34908600020C9
:10116000C449086005F0B0FF0120C149C1F88C02F4
:101170000298007A0821019000F04BFAB749C1F8B3
:1011800088020298007A0721019000F042FAB349E0
:10119000C1F884020298007A0621019000F039FA21
:1011A000AE49C1F880020298007A0521019000F052
:1011B00030FAAB49C1F8BC020298007A04210190D0
:1011C00000F027FAA649C1F8B8020298007A032174
:1011D000019000F01EFAA249C1F8B4020298007A08
:1011E0000221019000F015FA9E49C1F8A40202986C
:1011F000007A0121019000F00CFA9B490860002060
:101200009C491039086005F05FFF01209A49086089
:101210000298407A0821019000F0FBF98F49C1F84B
:1012200088020298407A0721019000F0F2F98B4978
:10123000C1F884020298407A0621019000F0E9F991
:101240008649C1F880020298407A0521019000F099
:10125000E0F98349C1F8BC020298407A0421019068
:1012600000F0D7F97E49C1F8B8020298407A03210C
:10127000019000F0CEF97A49C1F8B4020298407AA0
:101280000221019000F0C5F97649C1F8A402029844
:10129000407A0121019000F0BCF9734908600020F8
:1012A0007549086005F010FF01207449C1F8B402C7
:1012B0000298807A0821019000F0ABF96749C1F8E3
:1012C00088020298807A0721019000F0A2F9634910
:1012D000C1F884020298807A0621019000F099F901
:1012E0005E49C1F880020298807A0521019000F0E1
:1012F00090F95B49C1F8BC020298807A0421019000
:1013000000F087F95649C1F8B8020298807A0321A3
:10131000019000F07EF95249C1F8B4020298807A37
:101320000221019000F075F94E49C1F8A40202981B
:10133000807A0121019000F06CF94B49086000208F
:101340004F49086005F0C0FE01204C49C1F8BC02BD
:101350000298C07A0821019000F05BF93F49C1F87A
:1013600088020298C07A0721019000F052F93B49A7
:10137000C1F884020298C07A0621019000F049F970
:101380003649C1F880020298C07A0521019000F028
:1013900040F93349C1F8BC020298C07A0421019097
:1013A00000F037F92E49C1F8B8020298C07A03213B
:1013B000019000F02EF92A49C1F8B4020298C07ACF
:1013C0000221019000F025F92649C1F8A4020298F3
:1013D000C07A0121019000F01CF923490860002027
:1013E00027490831086005F06FFE01201C49C1F84B
:1013F000B0020298007B0821019000F00AF9174919
:10140000C1F888020298007B0721019000F001F9E1
:101410001249C1F884020298007B0621019000F075
:10142000F8F80E49C1F880020298007B052101906E
:1014300000F0EFF80A49C1F8BC020298007B0421D1
:10144000019000F0E6F80649C1F8B8020298007B66
:101450000321019000F0DDF8014913E0000044424F
:101460000080434200004142A00241428C8241423E
:10147000000043429C0243429C824442008040421E
:10148000B4824042C1F8B4020298007B022101906C
:1014900000F0BFF85949C1F8A4020298007B01216D
:1014A000019000F0B6F856490860002055490860E0
:1014B00005F00AFE01205449C1F8A8020298407BB9
:1014C0000821019000F0A5F85049C1F8880202985F
:1014D000407B0721019000F09CF84C49C1F8840240
:1014E0000298407B0621019000F093F84749C1F82B
:1014F00080020298407B0521019000F08AF8424961
:10150000C1F8BC020298407B0421019000F081F8F0
:101510003D49C1F8B8020298407B0321019000F0D8
:1015200078F83849091D08600298407B0221019033
:1015300000F06FF83149C1F8A4020298407B012104
:10154000019000F066F82E49086000202E49C1F88D
:10155000A80205F0B9FD01202B49C1F898020298B4
:10156000807B0821019000F054F82849C1F88802D6
:101570000298807B0721019000F04BF82349C1F8C5
:1015800084020298807B0621019000F042F81F49F6
:10159000C1F880020298807B0521019000F039F8A3
:1015A0001949C1F8BC020298807B0421019000F027
:1015B00030F81549C1F8B8020298807B03210190E8
:1015C00000F027F81049C1F8B4020298807B02218C
:1015D000019000F01EF80949C1F8A4020298807B2E
:1015E0000121019000F015F8054908600020064926
:1015F000C1F8980205F068FD0EBD000000004142F0
:10160000A0024142B0824342008043420000444273
:1016100070470246481E42FA00F000F00100704791
:101620000020134908601349C1F894021249086068
:10163000114908390860091D0860104908600F4900
:10164000103908600E4908600D49103908600A49D0
:101650001C3908600B4908600A49083108600A49CA
:101660000860094908390860074918390860704757
:101670009C02444200004442B88244429C8241425F
:101680009C024342B4824042B082434200B50246CB
:1016900000F028F812B1012A06D102E005F014FD8D
:1016A00003E005F09DFE00E000BF00BFFFF7B8FFBC
:1016B00000BD10B54FF4806000F008FA10BD10B501
:1016C000082000F003FA10BD10B5102000F0FEF95C
:1016D00010BD10B5202000F0F9F9402000F0F6F917
:1016E00010BD00000120134908601349C1F894029D
:1016F00012490860114908390860091D086010493D
:1017000008600F49103908600E4908600D4910390A
:1017100008600A491C3908600B4908600A49083109
:1017200008600A49086009490839086007491839FA
:10173000086070479C02444200004442B882444220
:101740009C8241429C024342B4824042B082434266
:1017500070B504461D460023B5F5804F13D154F8EB
:1017600022300C480340D1E9000640EA06108E689A
:1017700040EA06208E8940EA06408E6930430343E2
:1017800044F8223003E06FF0704044F8220000205B
:1017900070BD00000000F0CF10B5024600230868BD
:1017A00052F820301B480340D1E901042043CC68A3
:1017B00020430C6920434C6920438C692043CC6949
:1017C00020430C6A20434C6A20438C6A2043CC6A35
:1017D0002043CC6B20430C6B20434C6B20430343D2
:1017E0008868082801D143F04003086842F8203097
:1017F000486BB0F5801F0AD1086840B14FF4807083
:1018000008614C6B08692043146820431060002075
:1018100010BD00008000E0FF30B5034614460022F2
:10182000601C53F8202002F04042D1E9000540EA54
:1018300005108D6840EA05208D8940EA0545088A33
:10184000401E45EA0055087D801E45EA00608D690E
:1018500028430243601C43F82020186800F48010DD
:1018600038B1586820F47002088A401E42EA0052DB
:101870005A60002030BD30B50246002300240868BD
:10188000012816D013686FF30E03D1E90105284330
:10189000CD6828430D6928434D6928438D69284345
:1018A000CD6928430D6A28434D6A284303431360DA
:1018B00019E013686FF30E03D1E9070528434D6A59
:1018C0002843034354686FF30E04D1E9010528430C
:1018D000CD6828430D6928434D6928438D69284305
:1018E000044313605460002030BD0246506940EA52
:1018F0004100506100207047F8B506460C46154679
:10190000002000900027D4E900010843A168491E87
:1019100040EA4110E16840EA4120009000983061BF
:1019200000F0FEF9074609E0681C38B125B100F067
:10193000F7F9C01BA84201D90320F8BDB06900F037
:1019400020000028F0D100BFF7E770B50346154628
:1019500000220024012D1FD09A6802F0704208680E
:10196000401E4E68761E40EA06168868401E46EA0B
:101970000026C868401E46EA0036088A401E46EA2D
:101980000046888A401E46EA0056087E401E46EA07
:10199000006002439A6022E0DA6802F07042086850
:1019A000401E4E68761E40EA06168868401E46EACB
:1019B0000026088A401E46EA0046087E401E46EA87
:1019C000006002439C6804F07044C868401E06032F
:1019D000888A401E46EA00500443DA609C6000207A
:1019E00070BD000010B50446202C21D004DC082C6A
:1019F00008D0102C40D10DE0402C24D0B4F5806FDD
:101A00003AD12CE00A2007F053F908211B4800F0D6
:101A100079F931E00A2007F04BF91021174800F05E
:101A200071F920B916A201210846FEF77DFF23E0D7
:101A30000A2007F03DF92021104800F063F908B9A9
:101A4000FEF750FF18E00A2007F032F940210B485A
:101A500000F058F910B911A0FEF71EFC0CE00A20A6
:101A600007F026F94FF48061114800F04BF910B9E6
:101A700010A0FEF711FC00BF00BF10BD0010024017
:101A8000C4E368656C6C6F2C206D79206E616D65A8
:101A9000206973204A6F686E000000004B45595F53
:101AA0004E45585420505245535345440D0A0000AA
:101AB000002002404B45595F424F4F4B4D41524B26
:101AC00020505245535345440D0A000010B50446BA
:101AD00004480068204020B1024804602046FFF717
:101AE00081FF10BD143C0140F8B502460B460025AD
:101AF000002400200021E6E0012606FA01F51E6818
:101B000006EA0504AC4273D15E68022E02D05E681C
:101B1000122E13D1CF0802F1200656F827004E07E7
:101B2000F70E0F26BE40B0434F07FF0E1E69BE40A2
:101B30003043CF0802F1200646F8270010684F0016
:101B40000326BE40B0431E7906F003064F00BE4098
:101B5000304310605E68012E08D05E68022E05D00A
:101B60005E68112E02D05E68122E13D190684F006D
:101B70000326BE40B0434F00DE68BE403043906055
:101B8000506801268E40B0431E79C6F300168E4081
:101B900030435060D0684F000326BE40B0434F0032
:101BA0009E68BE403043D0605E6806F08056B6F155
:101BB000805FA8D100BF00260096454E366846F4E7
:101BC0008046434F3E603E46366806F480460096A7
:101BD00000BF00BF3F4E8F0856F827008E07370F13
:101BE0000F26BE40B0433C4EB24202D100262EE04A
:101BF00068E03A4EB24201D1012628E0384EB242A6
:101C000001D1022623E0374EB24201D103261EE065
:101C1000354EB24201D1042619E0344EB24201D110
:101C2000052614E0324EB24201D106260FE0314EB5
:101C3000B24201D107260AE02F4EB24201D1082656
:101C400005E02E4EB24201D1092600E00A268F0798
:101C50003F0FBE4030431F4E8F0846F82700284EE6
:101C60003068A0435E6806F48036B6F5803F00D148
:101C70002043234E3060361D3068A0435E6806F472
:101C80000036B6F5003F00D120431D4E361D3060B2
:101C9000361D3068A0435E6806F48016B6F5801FD6
:101CA00000D12043164E08363060361D3068A04300
:101CB0005E6806F40016B6F5001F00D12043104EF2
:101CC0000C363060491C1029FFF416AFF8BD000037
:101CD000443802400838014000000240000402403D
:101CE00000080240000C02400010024000140240B4
:101CF00000180240001C0240002002400024024064
:101D0000003C0140024613690B400BB1012000E08A
:101D1000002070470AB1816101E00B0483617047C4
:101D20000148006870470000140000200248006865
:101D3000401C0149086070471400002010B50D4890
:101D4000006840F400700B4908600846006840F4E1
:101D5000806008600846006840F4807008600520D4
:101D600000F034FA0F2000F007F800F0DFF900204F
:101D700010BD0000003C024070B5044600F098FD24
:101D80004FF47A71B0FBF1F5284601F0DDFB00223B
:101D90002146501E00F0DCF9002070BD70B50446ED
:101DA0000E46154600BF94F8A000012801D102207C
:101DB00070BD012084F8A00000BF022084F8A100BB
:101DC00005EB850101EBC50204F1380101EB82004E
:101DD00034223146FEF7AAFB2A463146204605F05A
:101DE00015F801202168486284F8A10000BF002096
:101DF00084F8A00000BF00BFDAE7000070B5044619
:101E0000002500260CB9012070BD94F8A10028B966
:101E1000002084F8A000204600F084F8022084F816
:101E2000A1002068806920F0704021688861D4E9B1
:101E300001010843E1680843216908432168896971
:101E40000843216888612068806835490840216816
:101E50008860A08A050420688068A1692943084336
:101E6000216888602068C0682D4908402168C860E2
:101E7000A08B05042068C068216A294308432168B3
:101E8000C860206800692649084021680861A08C64
:101E9000050420680069A16A294308432168086194
:101EA000206840691E49084021684861A08D0504EA
:101EB00020684069216B294308432168486194F8F0
:101EC0003500050294F8360006042068C06A00F068
:101ED0007F402168C86246EA050094F83410084340
:101EE0002168C96A08432168C8622068406B40F0D5
:101EF0000400216848632068406B40F002002168BC
:101F000048632068806940F00100216888610020F2
:101F1000C4F8A400012084F8A100002074E70000A8
:101F200000F800F010B586B0044600BF0020009015
:101F30004148006840F080603F49086008460068FA
:101F400000F08060009000BF00BF00BF0020009044
:101F500039481438006840F40000374914390860E3
:101F60000846006800F40000009000BF00BF00BFFA
:101F7000002000900846006840F002000860084613
:101F8000006800F00200009000BF00BF00BF00200A
:101F900000900846006840F4007008600846006839
:101FA00000F40070009000BF00BF00BF0020009050
:101FB0000846006840F4806008600846006800F445
:101FC0008060009000BF00BF00BF00200090084666
:101FD000006840F4807008600846006800F4807073
:101FE000009000BF00BF48150190012002900390AF
:101FF0000320049001A91148FFF776FD48F67C60A4
:1020000001900220029000200390032004900E20F3
:10201000059001A90A48FFF767FDFF20019001A97B
:102020000848FFF761FD4FF4E040019001A9064820
:10203000FFF75AFD06B010BD4438024000040240CC
:102040000024024000280240002002402DE9F04117
:1020500004460E461746984600BF94F8A000012893
:1020600002D10220BDE8F081012084F8A00000BF69
:10207000022084F8A10008EB880000EBC80104F1FD
:10208000380000EB81052E60A86A30446860AF60BC
:10209000E86A3844E86042462946204604F0B6FE25
:1020A00001202168486284F8A10000BF002084F864
:1020B000A00000BF00BFD5E72DE9F04105460E4660
:1020C0001746984600BF95F8A000012802D10220CB
:1020D000BDE8F081012085F8A00000BF022085F84E
:1020E000A10008EB880000EBC80105F1380000EB07
:1020F0008104002020602068304460600020A060DF
:10210000A0683844E060A662E7624246214628465D
:1021100004F07CFE01202968486285F8A10000BF18
:10212000002085F8A00000BF00BFD1E708B500205F
:10213000009000BF08BD00BF00F01F0201219140C8
:102140004209920002F1E022C2F8001100BF70477C
:102150002DE9F05F80460D461646002704F062FF29
:10216000074639462A46334601F00700C0F1070A00
:10217000BAF1040F02D94FF0040A01E0C0F1070AD6
:10218000D14600F1040ABAF1070F02D24FF0000A5B
:1021900001E0A0F1030AD4464FF0010A0AFA09FA55
:1021A000AAF1010A0AEA020A0AFA0CFA4FF0010B34
:1021B0000BFA0CFBABF1010B0BEA030B4AEA0B0425
:1021C0002146404604F036FFBDE8F09F00BF00F016
:1021D0000702064B19684FF6FF031940044B0B43E7
:1021E00043EA0221014B196000BF70470CED00E08B
:1021F0000000FA0538B5002400BF002000902348F5
:10220000006840F08050214908600846006800F0EE
:102210008050009000BF00BF0120010491FAA1F19D
:10222000B1FA81F11A4A42F82100FFF779FD04461C
:1022300007E0FFF775FD001BB0F57A7F01D9032099
:1022400038BD1448406800F48030B0F5803FF0D1CC
:102250000120410491FAA1F1B1FA81F10C4A42F84E
:102260002100FFF75DFD044607E0FFF759FD001B65
:10227000B0F57A7F01D90320E2E70648406800F410
:102280000030B0F5003FF0D10020D9E740380240DF
:1022900000000E4200700040F8B5044600250026FC
:1022A000207800F0010020B9207800F00200022818
:1022B00066D10020CC498866FFF732FD054606E06E
:1022C000FFF72EFD401B642801D90320F8BDC74845
:1022D0000068C0F3C0600028F2D1207800F001004F
:1022E00098B147F6C07191FAA1F1B1FA81F1606835
:1022F00088404FF0E04292FAA2F2B2FA82F2A1686C
:1023000091400843B94984310860207800F0020008
:10231000022821D1B5488430006800F0E0404FF039
:10232000E04191FAA1F1B1FA81F120FA01F6606879
:102330008101207B41EA006040EA0670AB498431AC
:102340000860AA488C30006820F01F00E169491E2F
:102350000843A6498C3108600120A3498866FFF72D
:10236000DFFC054606E0FFF7DBFC401B642801D9D3
:102370000320ABE79D480068C0F3C0600028F2D09E
:10238000207800F00400042804D0207800F0080031
:1023900008287DD1002094490867FFF7C1FC054655
:1023A00006E0FFF7BDFC401B642801D903208DE740
:1023B0008E480068C0F340700028F2D1207800F009
:1023C0000400042834D189488830006800F0E040D7
:1023D0004FF0E04191FAA1F1B1FA81F120FA01F652
:1023E00047F6C07191FAA1F1B1FA81F120698840F4
:1023F0004FF0706292FAA2F2B2FA82F261699140F1
:1024000008434FF0E04191FAA1F1B1FA81F106FAE7
:1024100001F10843754988310860081D006820F4FF
:10242000F851206A401E41EA002070498C31086052
:10243000207800F00800082834D16C488830006803
:1024400000F070604FF0706191FAA1F1B1FA81F182
:1024500020FA01F647F6C07191FAA1F1B1FA81F1C3
:10246000206988404FF0706191FAA1F1B1FA81F1D1
:1024700006FA01F108434FF0E04292FAA2F2B2FAF2
:1024800082F2A1699140084358498831086000E010
:102490001CE0081D006820F44030616A084353497D
:1024A0008C310860012050490867FFF739FC054668
:1024B00006E0FFF735FC401B642801D9032005E73F
:1024C0004A480068C0F340700028F2D0207800F03D
:1024D000200020287DD100BF0020009043484030DC
:1024E000006840F08050414940310860084600686B
:1024F00000F08050009000BF00BF3D48006840F4ED
:1025000080703B490860FFF70BFC054606E0FFF7CB
:1025100007FC401B642801D90320D7E63448006833
:1025200000F480700028F2D030487030006800F469
:102530004070218D01F4407188424AD02B487030A0
:10254000006820F4407601202A49086000200860D5
:1025500026487030066006F0020098B1FFF7E0FBF5
:10256000054608E0FFF7DCFB401B41F2883188425A
:1025700001D90320AAE61D4870300068C0F340006E
:102580000028EFD000BF208D00F44070B0F5407FF0
:102590000CD116480830006820F4F810164AA16AD9
:1025A0001140084311490831086007E00F4808301E
:1025B000006820F4F8100D49083108600B487030AD
:1025C0000068218DC1F30B01084308497031086090
:1025D00000BF207800F01000102803D194F82C00E0
:1025E00006490860002071E60000474200380240BA
:1025F00000700040400E4742FFFCFF0FE0114742D1
:1026000070B504460E460025A748006800F00F008C
:10261000B0426FD2A4490E700846006800F00F0067
:10262000B04201D0012070BD207800F002000228E5
:1026300007D19E48006820F0F000A16808439B493C
:102640000860207800F0010000283ED06068012872
:1026500007D1964808380068C0F34040B8B9012057
:10266000E1E76068022802D06068032807D18F483C
:1026700008380068C0F3406048B90120D3E78B48B0
:1026800008380068C0F3400008B90120CBE787484C
:10269000006820F003006168084384490860FFF780
:1026A0003FFB05466068012810D108E0FFF738FBC2
:1026B000401B41F28831884201D90320B3E77B48AF
:1026C000006800F00C000428F0D1CDE0606802281A
:1026D00011D108E0FFF724FB401B41F2883188420A
:1026E00001D903209FE77148006800F00C0008281A
:1026F000F0D1B9E024E06068032810D108E0FFF7CA
:102700000FFB401B41F28831884201D903208AE740
:102710006648006800F00C000328F0D1A4E008E04F
:10272000FFF7FEFA401B41F28831884201D90320AD
:1027300079E75E48006800F00C000028F0D193E0D3
:10274000207800F00200022807D15848006820F0E5
:10275000F000A168084355490860207800F00100A6
:10276000002877D06068012807D1504808380068F1
:10277000C0F34040B8B9012055E76068022802D094
:102780006068032807D1494808380068C0F34060F2
:1027900048B9012047E7454808380068C0F34000C1
:1027A00008B901203FE74148006820F00300616854
:1027B00008433E490860FFF7B3FA05466068012800
:1027C00010D108E0FFF7ACFA401B41F28831884293
:1027D00001D9032027E73548006800F00C000428E1
:1027E000F0D137E06068022810D108E0FFF798FACE
:1027F000401B41F28831884201D9032013E72B485E
:10280000006800F00C000828F0D123E0606803287D
:1028100010D108E0FFF784FA401B41F2883188426A
:1028200001D90320FFE62148006800F00C000328CE
:10283000F0D10FE008E0FFF773FA401B41F2883156
:10284000884201D90320EEE61848006800F00C0029
:102850000028F0D114490E700846006800F00F00FF
:10286000B04201D00120DEE6207800F00400042808
:1028700007D10E48006820F4E050E16808430B4996
:102880000860207800F00800082808D10748006890
:1028900020F46040216940EAC100044908600F202B
:1028A000FFF76AFA0020BEE6003C0240083802400A
:1028B00010B500F045F80949096801F0F001F0226F
:1028C00092FAA2F2B2FA82F2D140054A515CC840B3
:1028D000044908600846006810BD0000083802403E
:1028E0001A9200080000002010B5FFF7E1FF074929
:1028F000096801F4E0514FF4E05292FAA2F2B2FA00
:1029000082F2D140024A515CC84010BD08380240F2
:102910001A92000810B5FFF7CBFF0749096801F4C8
:1029200060414FF4604292FAA2F2B2FA82F2D140D0
:10293000024A515CC84010BD083802401A92000893
:1029400070B50021002200230020274C246804F0E9
:102950000C0424B1042C04D0082C41D103E02348FA
:1029600040E023483EE0204C241F246804F03F014F
:102970001D4C241F246804F4800484B11C4CB4FB57
:10298000F1F5194C241F246847F6C076344096FAB6
:10299000A6F6B6FA86F6F44005FB04F20FE0134CF7
:1029A000B4FBF1F5104C241F246847F6C076344080
:1029B00096FAA6F6B6FA86F6F44005FB04F20A4C3F
:1029C000241F246804F440344FF4403595FAA5F5EB
:1029D000B5FA85F5EC40641C6300B2FBF3F001E04E
:1029E000024800BF00BF70BD083802400024F40058
:1029F00000127A0038B504460025207800F0010066
:102A0000002866D0F748006800F00C0004280DD0BC
:102A1000F448006800F00C00082813D1F148001FAA
:102A2000006800F48000B0F5800F0BD1ED48083845
:102A30000068C0F3404000284BD06068002848D1AF
:102A4000012038BD0020E749891F0870FFF768F9A9
:102A5000054608E0FFF764F9401B41F288318842DF
:102A600001D90320EDE7DF4808380068C0F3404093
:102A70000028EFD12079DB49891F08706068A0B178
:102A8000FFF74EF9054608E0FFF74AF9401B41F20F
:102A90008831884201D90320D3E7D248083800683A
:102AA000C0F340400028EFD013E0FFF739F90546A6
:102AB00008E0FFF735F9401B41F28831884201D91F
:102AC0000320BEE7C74808380068C0F3404000282C
:102AD000EFD1207800F00200022869D1C1480068D7
:102AE00000F00C0058B1BF48006800F00C00082846
:102AF00021D1BC48001F006800F48000D8B9B94853
:102B000008380068C0F3400020B1E068012801D017
:102B1000012096E7B3480838006820F0F800F82252
:102B200092FAA2F2B2FA82F2216991400843AD49C9
:102B3000083908603CE0E06828B30120AA49086031
:102B4000FFF7EEF8054606E0FFF7EAF8401B6428B9
:102B500001D9032075E7A34808380068C0F3400096
:102B60000028F1D09F480838006820F0F800F822CB
:102B700092FAA2F2B2FA82F221699140084399498D
:102B80000839086014E0002097490860FFF7C8F88A
:102B9000054606E0FFF7C4F8401B642801D903206E
:102BA0004FE7904808380068C0F340000028F1D192
:102BB000207800F0080008282CD16069A8B1012015
:102BC0008A490860FFF7ACF8054606E0FFF7A8F869
:102BD000401B642801D9032033E782486C30006829
:102BE000C0F340000028F1D014E000207F490860C5
:102BF000FFF796F8054606E0FFF792F8401B6428B9
:102C000001D903201DE777486C300068C0F340000D
:102C10000028F1D1207800F0040004286FD100BF13
:102C2000002000906F483830006840F080506D49B7
:102C3000383108600846006800F08050009000BFFE
:102C400000BF6B48006840F4807069490860FFF776
:102C500067F8054606E0FFF763F8401B642801D9D2
:102C60000320EEE66248006800F480700028F2D08D
:102C700000205C4968310870FFF752F8054608E00B
:102C8000FFF74EF8401B41F28831884201D90320FA
:102C9000D7E6544868300068C0F340000028EFD100
:102CA000207A504968310870A068A0B1FFF738F861
:102CB000054608E0FFF734F8401B41F288318842AE
:102CC00001D90320BDE6474868300068C0F34000E2
:102CD0000028EFD013E0FFF723F8054608E0FFF7E0
:102CE0001FF8401B41F28831884201D90320A8E631
:102CF0003C4868300068C0F340000028EFD1A0696C
:102D0000F0B33848006800F00C00082872D0A069C1
:102D1000022850D1002034490866FFF701F8054623
:102D200006E0FEF7FDFF401B642801D9032088E67A
:102D30002C4808380068C0F340600028F1D1D4E97D
:102D40000701084347F6C07292FAA2F2B2FA82F281
:102D5000616A914008430122A16AC2EB51014FF41C
:102D6000403292FAA2F2B2FA82F2914008434FF056
:102D7000706292FAA2F2B2FA82F2E16A914000E045
:102D80003AE008431749091F086001201649086600
:102D9000FEF7C6FF054606E0FEF7C2FF401B6428AB
:102DA00001D903204DE60F4808380068C0F34060A1
:102DB0000028F1D020E000200B490866FEF7B0FFA4
:102DC000054606E0FEF7ACFF401B642801D903204E
:102DD00037E6044808380068C0F340600028F1D1A5
:102DE0000AE007E00838024000004742800E4742F0
:102DF00000700040012024E6002022E670B5044661
:102E00000D460CB9012070BD94F82C0028B90020A3
:102E100084F82D00204600F011F8022084F82C00E0
:102E2000211D2068FEF727FD2946D4E90002FEF7A0
:102E30008CFD012084F82C000020E4E710B586B05A
:102E4000044600BF002000904348006840F00100A5
:102E5000414908600846006800F00100009000BF8A
:102E600000BF00BF002000903B480838006840F0D9
:102E700004003949083908600846006800F0040079
:102E8000009000BF00BF00BF00200090084600680F
:102E900040F0080008600846006800F00800009054
:102EA00000BF00BF00BF002000900846006840F04F
:102EB000100008600846006800F01000009000BF95
:102EC00000BF00BF002000900846006840F02000CE
:102ED00008600846006800F02000009000BF00BFB6
:102EE00000BF002000900846006840F040000860E5
:102EF0000846006800F04000009000BF00BF0D20B1
:102F000001900220029001200390032004900C20E5
:102F1000059001A91148FEF7E7FD4CF203700190FE
:102F200001A90F48FEF7E0FD4FF68370019001A95B
:102F30000C48FEF7D9FD4FF63F00019001A90A4861
:102F4000FEF7D2FD48F23710019001A90748FEF7BD
:102F5000CBFD06B010BD000038380240000802402A
:102F6000000C024000100240001402400018024011
:102F700070B504460D4694F82C00022800D170BDAF
:102F8000022084F82C0029462068FEF7AEFC0120C0
:102F900084F82C000020F2E770B504460D46164672
:102FA00094F82C00022800D170BD022084F82C0077
:102FB000324629462068FEF79FFC2868022803D184
:102FC000052084F82C0002E0012084F82C00002069
:102FD000EAE710B504460CB9012010BD94F8510081
:102FE00028B9002084F85000204600F037F802206D
:102FF00084F851002068006820F0400021680860D3
:10300000D4E901010843E168084321690843616983
:103010000843218B01F400710843E1690843216AE8
:103020000843A16A0843216808600421A06901EAF5
:103030001040616A0843216848602168E06A0861BD
:103040002068C06920F400602168C86100206065C4
:10305000012084F851000020BFE7000010B586B0C1
:10306000044600BF002000901748006840F0200090
:10307000154908600846006800F02000009000BF75
:1030800000BF00BF002000900F481430006840F4DB
:1030900080100D49143108600846006800F4801063
:1030A000009000BF00BF4FF46070019002200290BA
:1030B00001200390022004900520059001A90348F7
:1030C000FEF712FD06B010BD303802400014024079
:1030D0002DE9F84F04460E4617461D46DDF82890A8
:1030E0004FF00008C24694F85180B8F1010F02D0A9
:1030F000B8F1220F76D10EB107B115B90120BDE8A4
:10310000F88F00BF94F85000012801D10220F6E7A3
:10311000012084F8500000BF94F85100012802D12A
:10312000322084F8510000206065A763A587E587F9
:103130002663A586E586A064E064A06AB0F5005F1A
:103140000DD100BF2068006820F40050216808609D
:103150002068006840F400502168086000BF2068C3
:10316000006800F04000402805D02068006840F06A
:10317000400021680860E068B0F5006F75D16068B4
:1031800030B16068B0F5827F0CD1E08E012809D1A2
:10319000206B00882168C860206B801C2063E08E53
:1031A000401EE086E08EF0B9A06AB0F5005F05D160
:1031B0002068006840F48050216808604B46002277
:1031C0000121204604F080F808B1032097E7206829
:1031D000C068A16B0880A06B801CA063E08F401EBC
:1031E000E087C7E01BE131E04B4600220221204688
:1031F00004F06AF808B1032081E7206B0088216899
:10320000C860206B801C2063E08E401EE086E08E4C
:1032100048B9A06AB0F5005F05D12068006840F4A5
:103220008050216808604B4600220121204604F0AE
:103230004BF808B1032062E72068C068A16B0880E2
:10324000A06B801CA063E08F401EE087E08E00280A
:10325000CADC60680028C4D14B4600220121204608
:1032600004F032F810B1032049E70AE02068C06892
:10327000A16B0880A06B801CA063E08F401EE087DC
:1032800078E0606830B16068B0F5827F0BD1E08E85
:10329000012808D1216B481C206308782168C86088
:1032A000E08E401EE086E08ED0B9A06AB0F5005FE7
:1032B00005D12068006840F48050216808604B46C2
:1032C00000220121204603F0FFFF08B1032016E78A
:1032D0002068C068A16B0870E08F401EE08749E05D
:1032E00030E04B4600220221204603F0EDFF08B1FA
:1032F000032004E7216B481C206308782168C8601C
:10330000E08E401EE086E08E48B9A06AB0F5005F0E
:1033100005D12068006840F48050216808604B4661
:1033200000220121204603F0CFFF08B10320E6E68A
:103330002068C068C1B2A26B501CA0631170E08FFE
:10334000401EE087E08E0028CBDC606890B94B46D9
:1033500000220121204603F0B7FF08B10320CEE68A
:103360002068C068C1B2A26B501CA0631170E08FCE
:10337000401EE087A06AB0F5005F12D14B460022E4
:103380000121204603F0A0FF28B1606D40F002004B
:1033900060650320B3E62068C06880B20090BDF885
:1033A00000004B4601228021204603F08DFF28B10A
:1033B000606D40F0200060650320A0E6012084F8E5
:1033C000510020688068C0F3001AA06AB0F5005F61
:1033D0001FD1BAF1000F1CD0606D40F00200606593
:1033E000A06AB0F5005F0DD100BF2068006820F42E
:1033F0000050216808602068006840F4005021688F
:10340000086000BF00BF002084F8500000BF01200A
:1034100075E600BF002084F8500000BF6FE6022070
:103420006DE670B504460E4615460CB9012070BD18
:1034300094F8490028B9002084F84800204600F09C
:103440001DF804F108012068FEF7A6F93146A268CC
:103450002068FEF7E1F92946236BD4E90102FEF763
:1034600077F9A168206850F8210040F00100A268B7
:10347000216841F822000020D9E7000010B586B08D
:10348000044600BF002000902248006840F0010080
:10349000204908600846006800F00100009000BF65
:1034A00000BF00BF002000901A480838006840F0B4
:1034B00008001849083908600846006800F008004C
:1034C000009000BF00BF00BF0020009008460068C9
:1034D00040F0100008600846006800F010000090FE
:1034E00000BF00BF4EF2B370019002200290012095
:1034F0000390032004900C20059001A90648FEF7D4
:10350000F3FA4FF68070019001A90448FEF7ECFA37
:1035100006B010BD38380240000C024000100240D6
:10352000042808D14FF0E021096941F004014FF06F
:10353000E022116107E04FF0E021096921F0040168
:103540004FF0E0221161704770B504462546681EB1
:10355000B0F1807F01D301200FE0681E4FF0E02121
:1035600048610F214FF0FF3003F064FD00204FF061
:10357000E021886107200861002070BD7047704716
:10358000704710B5044620680069C0F34000D8B108
:103590002068C068C0F34000B0B16FF0020021683D
:1035A0000861012020762068806900F0030018B1CE
:1035B0002046FFF7E5FF05E0204600F0ADF8204685
:1035C00000F0ABF80020207620680069C0F380008E
:1035D000D8B12068C068C0F38000B0B16FF00400BB
:1035E00021680861022020762068806900F440701C
:1035F00018B12046FFF7C4FF05E0204600F08CF824
:10360000204600F08AF80020207620680069C0F388
:10361000C000D8B12068C068C0F3C000B0B16FF07E
:10362000080021680861042020762068C06900F045
:10363000030018B12046FFF7A3FF05E0204600F085
:103640006BF8204600F069F80020207620680069B9
:10365000C0F30010D8B12068C068C0F30010B0B14A
:103660006FF0100021680861082020762068C0698A
:1036700000F4407018B12046FFF782FF05E02046B5
:1036800000F04AF8204600F048F800202076206834
:10369000006900F0010058B12068C06800F0010026
:1036A00030B16FF0010021680861204600F036F863
:1036B00020680069C0F3C01058B12068C068C0F32A
:1036C000C01030B16FF08000216808612046FFF71C
:1036D00055FF20680069C0F3801058B12068C068A9
:1036E000C0F3801030B16FF04000216808612046BF
:1036F00000F024F820680069C0F3401058B1206839
:10370000C068C0F3401030B16FF02000216808613C
:103710002046FFF734FF10BD7047704710B50446D0
:103720000348844202D103A0FCF7B6FD10BD00009F
:103730002008002068656C6C6F0D0A0070477047A8
:10374000F8B50446002500262068006800F0010551
:103750002068C06800F480767DB176B100BF00209B
:10376000009020680068009020684068009000BFCA
:1037700000BFE06B40F00100E06320680068C0F328
:1037800040052068406900F001067DB176B100BFB8
:103790000020009020680068009020684068009039
:1037A00000BF00BFE06B40F00400E06320680068E9
:1037B000C0F380052068406900F001067DB176B154
:1037C00000BF0020009020680068009020684068DA
:1037D000009000BF00BFE06B40F00200E063206893
:1037E0000068C0F3C0052068406900F001067DB1A3
:1037F00076B100BF0020009020680068009020682B
:103800004068009000BF00BFE06B40F00800E0633C
:1038100020680068C0F340152068C06800F02006EA
:103820001DB116B1204603F0ADFE20680068C0F35C
:10383000C0152068C06800F080061DB116B1204692
:1038400004F010F820680068C0F380152068C06894
:1038500000F040061DB116B1204603F07BFEE06B80
:1038600028B1012084F839002046FFF768FFF8BD31
:1038700010B504460CB9012010BDA06900B100E0EC
:1038800000BF94F8390028B9002084F83800204699
:1038900000F026F8022084F839002068C06820F47F
:1038A00000502168C860204603F0CAFE2068006905
:1038B00020F49040216808612068406920F02A00C7
:1038C000216848612068C06840F400502168C860E1
:1038D0000020E063012084F839000020CCE70000DC
:1038E00010B586B004465049206888424AD100BFCE
:1038F000002000904D48006840F001004B490860EE
:103900000846006800F00100009000BF00BF00BF43
:103910000020009045481030006840F400304349D2
:10392000103108600846006800F40030009000BFC5
:1039300000BF042001900220029001200390022089
:1039400004900720059001A93948FEF7CDF808201A
:10395000019001A93648FEF7C7F82068C06820F03A
:1039600040002168C8602068C06840F020002168DD
:10397000C8602620FEF7DFFB032211462620FEF753
:10398000E7FB4EE02B49206888424AD100BF002067
:1039900000902648006840F002002449086008466C
:1039A000006800F00200009000BF00BF00BF0020D0
:1039B00000901E481030006840F480201B491031F0
:1039C00008600846006800F48020009000BF00BF37
:1039D000081501900220029001200390022004901B
:1039E0000720059001A91448FEF77EF84FF4006007
:1039F000019001A91048FEF777F82068C06820F010
:103A000040002168C8602068C06840F0200021683C
:103A1000C8602720FEF78FFB022203212720FEF734
:103A200097FB06B010BD0000004400403038024053
:103A30000000024000480040000402402DE9F04729
:103A400004460D46164699464FF0000894F8398012
:103A5000B8F1010F02D0B8F1120F69D105B116B952
:103A60000120BDE8F08700BF94F83800012801D19B
:103A70000220F6E7012084F8380000BF0020E06350
:103A800094F83900122803D1322084F8390002E07A
:103A9000222084F83900A685E68535E0E08D401EB9
:103AA000E085A068B0F5805F18D14B460022202148
:103AB000204603F00FFF08B10320D2E72F4620690C
:103AC00030B920684068C0F308003880AD1C1BE0A6
:103AD00020684068C0B238806D1C15E04B4600225B
:103AE0002021204603F0F6FE08B10320B9E7206943
:103AF00020B92068406805F8010B05E0206840689F
:103B000000F07F0005F8010BE08D0028C6DC94F87A
:103B10003900322803D1122084F8390002E0012054
:103B200084F8390000BF002084F8380000BF98E70F
:103B3000022096E770472DE9F04704460D461646E9
:103B400099464FF0000894F83980B8F1010F02D07F
:103B5000B8F1220F65D105B116B90120BDE8F08793
:103B600000BF94F83800012801D10220F6E70120B7
:103B700084F8380000BF0020E06394F83900222860
:103B800003D1322084F8390002E0122084F8390091
:103B9000A684E68428E0E08C401EE084A068B0F5AE
:103BA000805F14D14B4600228021204603F092FE14
:103BB00008B10320D2E72F463888C0F308002168F7
:103BC0004860206908B9AD1C0EE06D1C0CE04B4646
:103BD00000228021204603F07DFE08B10320BDE7CE
:103BE00015F8010B21684860E08C0028D3DC4B46B7
:103BF00000224021204603F06DFE08B10320ADE70E
:103C000094F83900322803D1222084F8390002E0E8
:103C1000012084F8390000BF002084F8380000BF7C
:103C20009CE702209AE7704700BFFEE730B50246E6
:103C30000021002300201BE0002115E0C0EBC004A0
:103C40001444635CC0F11304C4EBC4041444645C06
:103C5000C0EBC00515446C54C0F11304C4EBC4049C
:103C6000144463544C1CE1B20629E7DB441CE0B267
:103C70000A28E1DB30BD000000B587B000BF00209E
:103C800001901B48006840F0100019490860084680
:103C9000006800F01000019000BF00BF00BF0020CE
:103CA00001900846006840F480700860084600688B
:103CB00000F48070019000BF00BF782002900020C7
:103CC0000390012004900320059002A90948FDF704
:103CD0000BFF4FF4C060029000200390012004907D
:103CE0000320059002A90448FDF7FEFE07B000BDC1
:103CF00030380240001002400020024000B587B07A
:103D000000BF002001900D48006840F080000B4982
:103D100008600846006800F08000019000BF00BF06
:103D2000102002900120039004900320059002A926
:103D30000348FDF7D9FE07B000BD0000303802404F
:103D4000001C024070B5044600260D4805880D4849
:103D5000006818B1204602F045FD0FE00848408891
:103D600045430021084602F077FC02F029FD0026B9
:103D700002E005490C80761CAE42FAD370BD00000B
:103D8000E8090020780900200000086010B504460A
:103D90005C4884715C48006850B1204602F048FDE0
:103DA0005948C08A574908805748008B488010BD41
:103DB000002C51D1F020534908804FF4A070488066
:103DC0000846808849F24131884205D04D488088B4
:103DD00045F21031884214D12C204A4908812A200A
:103DE00048812B2088810846808845F2103188421E
:103DF00006D14FF4A070434908804FF4F07048801A
:103E00007BE04048808845F21051884210D14FF441
:103E100030503C4908814FF4285048814FF42C50D1
:103E200088814FF4F07008804FF44870488064E057
:103E30003448808841F6631188425ED12C20314994
:103E400008812B2048812A2088814FF4F070088057
:103E50004FF44870488050E04FF4A0702949088022
:103E6000F02048800846808849F24131884205D0D8
:103E70002448808845F21031884207D12C202149FE
:103E800008812A2048812B20888129E01D488088CC
:103E900045F21051884210D14FF430501949088131
:103EA0004FF4285048814FF42C5088814FF44870CB
:103EB00008804FF4F070488012E01248808841F684
:103EC000631188420CD12C200E4908812A20488198
:103ED0002B2088814FF4487008804FF4F0704880A0
:103EE0000848808845F21031884206D14FF4F070BE
:103EF000044908804FF4A0704880002002F072FA54
:103F000000BF54E7E80900207809002000B595B00B
:103F100002F00AFFFE4988800846808818B102F046
:103F20004FFD02F0F0B900BF00200190F948006891
:103F300040F00200F74908600846006800F00200FF
:103F4000019000BF00BF202010900120119012901E
:103F50000320139010A9F048FDF7C6FD4FF0204054
:103F6000EE490860EE484860002088600021EB4878
:103F7000C16001611021416100218161C161416223
:103F80004FF4805181620021C1624FF4804101638E
:103F90000021416381634FF48011C1630F200990B8
:103FA00000200A9046200B9000200F900F200290D6
:103FB000002003900F2004900020089002AA09A975
:103FC000D648FFF72EFA322004F072FED32002F01A
:103FD000EBFB02F0CDF9CE49888002F0C9F9CC495B
:103FE000888002F0C5F9CA498880084680884FF663
:103FF000FF7101EA0020C649888002F0B9F9C4497E
:1040000089880843C24988800846808849F241313E
:10401000884278D0D42002F0C7FB02F0A9F9BC494D
:10402000888002F0A5F9BA49888002F0A1F9B84960
:104030008880084680884FF6FF7101EA0020B44965
:10404000888002F095F9B24989880843B049888090
:104050000846808845F21031884254D04FF45A40C7
:1040600002F0A2FB02F084F9A94988804FF45B407A
:1040700002F09AFB02F07CF9A54988800846808806
:104080004FF6FF7101EA0020A14988804FF45C409F
:1040900002F08AFB02F06CF99D49898808439C492B
:1040A000888008468088B0F5004F02D145F2105054
:1040B00088809748808845F21051884223D0A120FB
:1040C00002F072FB02F054F99149888002F050F935
:1040D0008F498880084680884FF6FF7101EA0020EA
:1040E0008B49888002F044F98949898808438849C6
:1040F00088800846808845F26171884203D141F684
:104100006310834988808248818886A0FCF7C4F8C0
:104110007F48808849F2413188427CD1CF2002F02B
:1041200043FB002002F034FBC12002F031FB3020C1
:1041300002F02EFBED2002F037FB642002F028FB9A
:10414000032002F025FB122002F022FB812002F066
:104150001FFBE82002F028FB852002F019FB10204D
:1041600002F016FB7A2002F013FBCB2002F01CFBBE
:10417000392002F00DFB2C2002F00AFB002002F097
:1041800007FB342002F004FB022002F001FBF720C1
:1041900002F00AFB202002F0FBFAEA2002F004FB06
:1041A000002002F0F5FA002002F0F2FAC02002F03E
:1041B000FBFA1B2002F0ECFAC12002F0F5FA012014
:1041C00002F0E6FAC52002F0EFFA302002F0E0FA41
:1041D000302002F0DDFAC72002F0E6FAB72002F044
:1041E000D7FA362002F0E0FA482002F0D1FA3A205D
:1041F00002F0DAFA552002F0CBFAB12002F0D4FA3C
:10420000002002F0C5FA1A2002F0C2FAB62002F02D
:10421000CBFA0A2000E0ABE002F0BAFAA22002F0EA
:10422000B7FAF22002F0C0FA002002F0B1FA26201C
:1042300002F0BAFA012002F0ABFAE02002F0B4FA80
:104240000F2002F0A5FA2A2002F0A2FA282002F09C
:104250009FFA082002F09CFA0E2002F099FA08203A
:1042600002F096FA542002F093FAA92002F090FA94
:10427000432002F08DFA0A2002F08AFA0F2002F0A1
:1042800087FA002002F084FA002002F081FA002070
:1042900002F07EFA002002F07BFAE12002F084FABC
:1042A000002002F075FA152002F072FA172002F0D1
:1042B0006FFA072002F06CFA112002F069FA06206A
:1042C00002F066FA2B2002F063FA562002F060FA40
:1042D0003C2002F05DFA052002F05AFA102002F0AC
:1042E00057FA0F2002F054FA3F2002F051FA3F2013
:1042F00002F04EFA0F2002F04BFA2B2002F054FA93
:10430000002002F045FA002002F042FA012011E0FC
:10431000E8090020303802400004024098090020DB
:10432000040100A0204C43442049443A25780D0A5A
:104330000000000002F02CFA3F2002F029FA2A20A7
:1043400002F032FA002002F023FA002002F020FAF4
:10435000002002F01DFAEF2002F01AFA112002F0FC
:1043600023FA782004F0A4FC292002F01DFAD8E5F5
:10437000FE48808845F21031884240F07C87ED206D
:1043800002F012FA012002F003FAFE2002F000FA15
:10439000EE2002F009FADE2002F0FAF9212002F004
:1043A000F7F9F12002F000FA012002F0F1F9DF2024
:1043B00002F0FAF9102002F0EBF9C42002F0F4F94F
:1043C0008F2002F0E5F9C62002F0EEF9002002F09D
:1043D000DFF9E22002F0DCF9E22002F0D9F9E22074
:1043E00002F0D6F9BF2002F0DFF9AA2002F0D0F9DE
:1043F000B02002F0D9F90D2002F0CAF9002002F035
:10440000C7F90D2002F0C4F9002002F0C1F9112013
:1044100002F0BEF9002002F0BBF9192002F0B8F951
:10442000002002F0B5F9212002F0B2F9002002F0DC
:10443000AFF92D2002F0ACF9002002F0A9F93D20DF
:1044400002F0A6F9002002F0A3F95D2002F0A0F925
:10445000002002F09DF95D2002F09AF9002002F0A0
:1044600097F9B12002F0A0F9802002F091F9002024
:1044700002F08EF98B2002F08BF9002002F088F90F
:10448000962002F085F9002002F082F9B22002F0B5
:104490008BF9002002F07CF9002002F079F902206B
:1044A00002F076F9002002F073F9032002F070F9AF
:1044B000002002F06DF9B32002F076F9002002F03E
:1044C00067F9002002F064F9002002F061F9002091
:1044D00002F05EF9002002F05BF9002002F058F9CA
:1044E000002002F055F9002002F052F9002002F0FD
:1044F0004FF9002002F04CF9002002F049F90020A9
:1045000002F046F9002002F043F9002002F040F9E1
:10451000002002F03DF9002002F03AF9002002F0FC
:1045200037F9002002F034F9002002F031F90020C0
:1045300002F02EF9002002F02BF9002002F028F9F9
:10454000002002F025F9002002F022F9B42002F048
:104550002BF98B2002F01CF9002002F019F99620AB
:1045600002F016F9002002F013F9A12002F010F970
:10457000002002F00DF9B52002F016F9022002F039
:1045800007F9002002F004F9032002F001F90020ED
:1045900002F0FEF8042002F0FBF8002002F0F8F828
:1045A000B62002F001F9002002F0F2F8002002F03B
:1045B000EFF8B72002F0F8F8002002F0E9F8002048
:1045C00002F0E6F83F2002F0E3F8002002F0E0F805
:1045D0005E2002F0DDF8002002F0DAF8642002F03C
:1045E000D7F8002002F0D4F88C2002F0D1F8002097
:1045F00002F0CEF8AC2002F0CBF8002002F0C8F8B0
:10460000DC2002F0C5F8002002F0C2F8702002F0B1
:10461000BFF8002002F0BCF8902002F0B9F80020AA
:1046200002F0B6F8EB2002F0B3F8002002F0B0F888
:10463000DC2002F0ADF8002002F0AAF8B82002F069
:10464000B3F8002002F0A4F8002002F0A1F8002046
:1046500002F09EF8002002F09BF8002002F098F88B
:10466000002002F095F8002002F092F8002002F0FD
:104670008FF8BA2002F098F8242002F089F8002080
:1046800002F086F8002002F083F8002002F080F8A3
:10469000C12002F089F8202002F07AF8002002F010
:1046A00077F8542002F074F8002002F071F8FF202F
:1046B00002F06EF8002002F06BF8C22002F074F8ED
:1046C0000A2002F065F8002002F062F8042002F0EF
:1046D0005FF8002002F05CF8C32002F065F83C208F
:1046E00002F056F8002002F053F83A2002F050F899
:1046F000002002F04DF8392002F04AF8002002F0C4
:1047000047F8372002F044F8002002F041F83C203E
:1047100002F03EF8002002F03BF8362002F038F8B4
:10472000002002F035F8322002F032F8002002F0CA
:104730002FF82F2002F02CF8002002F029F82C206E
:1047400002F026F8002002F023F8292002F020F8D9
:10475000002002F01DF8262002F01AF8002002F0D6
:1047600017F8242002F014F8002001E0E8090020E6
:1047700002F00EF8242002F00BF8002002F008F8F6
:10478000232002F005F8002002F002F83C2001F09E
:10479000FFFF002001F0FCFF362001F0F9FF0020B0
:1047A00001F0F6FF322001F0F3FF002001F0F0FFEE
:1047B0002F2001F0EDFF002001F0EAFF2C2001F096
:1047C000E7FF002001F0E4FF292001F0E1FF0020D5
:1047D00001F0DEFF262001F0DBFF002001F0D8FF12
:1047E000242001F0D5FF002001F0D2FF242001F0A9
:1047F000CFFF002001F0CCFF232001F0C9FF0020F3
:1048000001F0C6FFC42001F0CFFF622001F0C0FF1D
:10481000002001F0BDFF052001F0BAFF002001F0EB
:10482000B7FF842001F0B4FF002001F0B1FFF020B9
:1048300001F0AEFF002001F0ABFF182001F0A8FF4F
:10484000002001F0A5FFA42001F0A2FF002001F04C
:104850009FFF182001F09CFF002001F099FF5020DD
:1048600001F096FF002001F093FF0C2001F090FF73
:10487000002001F08DFF172001F08AFF002001F0D9
:1048800087FF952001F084FF002001F081FFF320D5
:1048900001F07EFF002001F07BFFE62001F078FFB1
:1048A000002001F075FFC52001F07EFF322001F0ED
:1048B0006FFF002001F06CFF442001F069FF002031
:1048C00001F066FF652001F063FF002001F060FF4A
:1048D000762001F05DFF002001F05AFF882001F0F2
:1048E00057FF002001F054FFC62001F05DFF20209B
:1048F00001F04EFF002001F04BFF172001F048FFB0
:10490000002001F045FF012001F042FF002001F0EE
:104910003FFFC72001F048FF002001F039FF0020D1
:1049200001F036FF002001F033FF002001F030FFDE
:10493000C82001F039FF002001F02AFF002001F01B
:1049400027FF002001F024FF002001F021FFC920F3
:1049500001F02AFF002001F01BFF002001F018FFEA
:10496000002001F015FF002001F012FF002001F0EF
:104970000FFF002001F00CFF002001F009FF0020D4
:1049800001F006FF002001F003FF002001F000FF0E
:10499000002001F0FDFE002001F0FAFE002001F0F1
:1049A000F7FE002001F0F4FE002001F0F1FE0020EF
:1049B00001F0EEFEE02001F0F7FE162001F0E8FE27
:1049C000002001F0E5FE1C2001F0E2FE002001F0D5
:1049D000DFFE212001F0DCFE002001F0D9FE3620B0
:1049E00001F0D6FE002001F0D3FE462001F0D0FEFB
:1049F000002001F0CDFE522001F0CAFE002001F09F
:104A0000C7FE642001F0C4FE002001F0C1FE7A2040
:104A100001F0BEFE002001F0BBFE8B2001F0B8FECD
:104A2000002001F0B5FE992001F0B2FE002001F057
:104A3000AFFEA82001F0ACFE002001F0A9FEB920D5
:104A400001F0A6FE002001F0A3FEC42001F0A0FEAC
:104A5000002001F09DFECA2001F09AFE002001F026
:104A600097FED22001F094FE002001F091FED920A3
:104A700001F08EFE002001F08BFEE02001F088FEA8
:104A8000002001F085FEF32001F082FE002001F0FD
:104A90007FFEE12001F088FE162001F079FE002063
:104AA00001F076FE1C2001F073FE002001F070FE84
:104AB000222001F06DFE002001F06AFE362001F098
:104AC00067FE002001F064FE452001F061FE002039
:104AD00001F05EFE522001F05BFE002001F058FE66
:104AE000642001F055FE002001F052FE7A2001F012
:104AF0004FFE002001F04CFE8B2001F049FE00200B
:104B000001F046FE992001F043FE002001F040FE36
:104B1000A82001F03DFE002001F03AFEB92001F08E
:104B200037FE002001F034FEC42001F031FE0020E9
:104B300001F02EFECA2001F02BFE002001F028FE1D
:104B4000D22001F025FE002001F022FED82001F045
:104B50001FFE002001F01CFEE02001F019FE0020E5
:104B600001F016FEF32001F013FE002001F010FE0C
:104B7000E22001F019FE052001F00AFE002001F0FC
:104B800007FE0B2001F004FE002001F001FE1B20B7
:104B900001F0FEFD002001F0FBFD342001F0F8FDE6
:104BA000002001F0F5FD442001F0F2FD002001F0AD
:104BB000EFFD4F2001F0ECFD002001F0E9FD612048
:104BC00001F0E6FD002001F0E3FD792001F0E0FDB9
:104BD000002001F0DDFD882001F0DAFD002001F069
:104BE000D7FD972001F0D4FD002001F0D1FDA620D3
:104BF00001F0CEFD002001F0CBFDB72001F0C8FD93
:104C0000002001F0C5FDC22001F0C2FD002001F02E
:104C1000BFFDC72001F0BCFD002001F0B9FDD1208F
:104C200001F0B6FD002001F0B3FDD62001F0B0FD8B
:104C3000002001F0ADFDDD2001F0AAFD002001F013
:104C4000A7FDF32001F0A4FD002001F0A1FDE32069
:104C500001F0AAFD052001F09BFD002001F098FD68
:104C60000A2001F095FD002001F092FD1C2001F0CA
:104C70008FFD002001F08CFD332001F089FD002024
:104C800001F086FD442001F083FD002001F080FD4D
:104C9000502001F07DFD002001F07AFD622001F03E
:104CA00077FD002001F074FD782001F071FD0020F7
:104CB00001F06EFD882001F06BFD002001F068FD21
:104CC000972001F065FD002001F062FDA62001F0B3
:104CD0005FFD002001F05CFDB72001F059FD0020D0
:104CE00001F056FDC22001F053FD002001F050FDFF
:104CF000C72001F04DFD002001F04AFDD12001F058
:104D000047FD002001F044FDD52001F041FD0020C9
:104D100001F03EFDDD2001F03BFD002001F038FDFB
:104D2000F32001F035FD002001F032FDE42001F018
:104D30003BFD012001F02CFD002001F029FD0120A8
:104D400001F026FD002001F023FD022001F020FDEE
:104D5000002001F01DFD2A2001F01AFD002001F0C5
:104D600017FD3C2001F014FD002001F011FD4B2047
:104D700001F00EFD002001F00BFD5D2001F008FDAB
:104D8000002001F005FD742001F002FD002001F07B
:104D9000FFFC842001F0FCFC002001F0F9FC9320D2
:104DA00001F0F6FC002001F0F3FCA22001F0F0FC81
:104DB000002001F0EDFCB32001F0EAFC002001F03E
:104DC000E7FCBE2001F0E4FC002001F0E1FCC4207F
:104DD00001F0DEFC002001F0DBFCCD2001F0D8FC6E
:104DE000002001F0D5FCD32001F0D2FC002001F01E
:104DF000CFFCDD2001F0CCFC002001F0C9FCF32049
:104E000001F0C6FC002001F0C3FCE52001F0CCFC61
:104E1000002001F0BDFC002001F0BAFC002001F0F0
:104E2000B7FC002001F0B4FC022001F0B1FC00202E
:104E300001F0AEFC292001F0ABFC002001F0A8FC41
:104E40003C2001F0A5FC002001F0A2FC4B2001F069
:104E50009FFC002001F09CFC5D2001F099FC0020EB
:104E600001F096FC742001F093FC002001F090FC0E
:104E7000842001F08DFC002001F08AFC932001F0D9
:104E800087FC002001F084FCA22001F081FC0020BE
:104E900001F07EFCB32001F07BFC002001F078FCE7
:104EA000BE2001F075FC002001F072FCC42001F06E
:104EB0006FFC002001F06CFCCD2001F069FC0020AB
:104EC00001F066FCD32001F063FC002001F060FCDF
:104ED000DC2001F05DFC002001F05AFCF32001F021
:104EE00057FC002001F054FCE62001F05DFC11208D
:104EF00001F04EFC002001F04BFC342001F048FC96
:104F0000002001F045FC562001F042FC002001F099
:104F10003FFC762001F03CFC002001F039FC7720BA
:104F200001F036FC002001F033FC662001F030FC7B
:104F3000002001F02DFC882001F02AFC002001F067
:104F400027FC992001F024FC002001F021FCBB206B
:104F500001F01EFC002001F01BFC992001F018FC60
:104F6000002001F015FC662001F012FC002001F089
:104F70000FFC552001F00CFC002001F009FC55202D
:104F800001F006FC002001F003FC452001F000FCCC
:104F9000002001F0FDFB432001F0FAFB002001F0AE
:104FA000F7FB442001F0F4FB002001F0F1FBE720C7
:104FB00001F0FAFB322001F0EBFB002001F0E8FBEE
:104FC000552001F0E5FB002001F0E2FB762001F026
:104FD000DFFB002001F0DCFB662001F0D9FB0020A4
:104FE00001F0D6FB672001F0D3FB002001F0D0FBDD
:104FF000672001F0CDFB002001F0CAFB872001F003
:10500000C7FB002001F0C4FB992001F0C1FB002088
:1050100001F0BEFBBB2001F0BBFB002001F0B8FBA0
:10502000992001F0B5FB002001F0B2FB772001F0E0
:10503000AFFB002001F0ACFB442001F0A9FB0020F5
:1050400001F0A6FB562001F0A3FB002001F0A0FB1D
:10505000232001F09DFB002001F09AFB332001F09A
:1050600097FB002001F094FB452001F091FB00200C
:1050700001F08EFBE82001F097FB002001F088FB97
:10508000002001F085FB992001F082FB002001F057
:105090007FFB872001F07CFB002001F079FB88205A
:1050A00001F076FB002001F073FB772001F070FB2C
:1050B000002001F06DFB662001F06AFB002001F08A
:1050C00067FB882001F064FB002001F061FBAA204F
:1050D00001F05EFB002001F05BFBBB2001F058FB00
:1050E000002001F055FB992001F052FB002001F057
:1050F0004FFB662001F04CFB002001F049FB5520DE
:1051000001F046FB002001F043FB552001F040FB7D
:10511000002001F03DFB442001F03AFB002001F0AB
:1051200037FB442001F034FB002001F031FB552017
:1051300001F02EFB002001F02BFBE92001F034FBF5
:10514000AA2001F025FB002001F022FB002001F045
:105150001FFB002001F01CFB002001F025FBAA2012
:1051600001F016FBCF2001F01FFB002001F010FB27
:10517000002001F00DFB002001F00AFB002001F0EF
:1051800007FB002001F004FB002001F001FB0020E0
:1051900001F0FEFA002001F0FBFA002001F0F8FA1D
:1051A000002001F0F5FA002001F0F2FA002001F0F1
:1051B000EFFA002001F0ECFA002001F0E9FA0020FB
:1051C00001F0E6FA002001F0E3FA002001F0E0FA35
:1051D000F02001F0E9FA002001F0DAFA502001F0A5
:1051E000D7FA002001F0D4FA002001F0D1FA002013
:1051F00001F0CEFAF32001F0D7FA002001F0C8FA4E
:10520000F92001F0D1FA062001F0C2FA102001F0D5
:10521000BFFA292001F0BCFA002001F0B9FA3A20C7
:1052200001F0C2FA552001F0B3FA112001F0BCFAE6
:10523000642003F03DFD292001F0B6FA352001F08D
:10524000B3FA002001F0A4FA512001F0ADFAFF20DA
:1052500001F09EFA532001F0A7FA2C2001F098FAF1
:10526000552001F0A1FA822001F092FA2C2001F0E1
:105270009BFA01F048B8FE48808845F210518842F8
:105280007ED155214FF4704001F0A4FAAA214FF2CB
:10529000010001F09FFA52214FF2020001F09AFA48
:1052A00008214FF2030001F095FA01214FF20400AA
:1052B00001F090FA0D214FF4304001F08BFA0D21EE
:1052C0004BF2010001F086FA0D214BF2020001F0D1
:1052D00081FA34214FF4364001F07CFA34214BF24C
:1052E000016001F077FA34214BF2026001F072FAAA
:1052F0000D214FF4314001F06DFA0D214BF20110F8
:1053000001F068FA0D214BF2021001F063FA34212A
:105310004FF4374001F05EFA34214BF2017001F096
:1053200059FA34214BF2027001F054FA00214FF483
:10533000324001F04FFA00214BF2012001F04AFA0D
:1053400000214BF2022001F045FA24214FF43840AD
:1053500001F040FA24214BF6010001F03BFA242130
:105360004BF6020001F036FA01214FF43F4001F004
:1053700031FA0F214FF4334001F02CFA0F2100E0F5
:10538000FEE34BF2013001F025FA0F214BF202301F
:1053900001F020FA34214FF4394001F01BFA342196
:1053A0004BF6011001F016FA34214BF6021001F011
:1053B00011FA08214FF4354001F00CFA08214BF2A4
:1053C000015001F007FA08214BF2025001F002FAF5
:1053D00003214FF4424001F0FDF924214FF43A40FB
:1053E00001F0F8F924214BF6012001F0F3F9242112
:1053F0004BF6022001F0EEF900214FF43C4001F0A1
:10540000E9F978214BF6014001F0E4F900214BF66F
:10541000024001F0DFF900214FF43D4001F0DAF9DC
:1054200078214BF6015001F0D5F900214BF60250DE
:1054300001F0D0F900214FF43E4001F0CBF9642196
:105440004BF6016001F0C6F900214FF4514001F024
:10545000C1F933214DF2011001F0BCF900214DF2E8
:10546000021001F0B7F934214DF2031001F0B2F946
:1054700000214DF2041001F0ADF93A214DF2051072
:1054800001F0A8F900214DF2061001F0A3F94A211C
:105490004DF2071001F09EF900214DF2081001F0C5
:1054A00099F95C214DF2091001F094F900214DF2B7
:1054B0000A1001F08FF981214DF20B1001F08AF9E9
:1054C00000214DF20C1001F085F9A6214DF20D10CE
:1054D00001F080F900214DF20E1001F07BF9E52179
:1054E0004DF20F1001F076F901214DF2101001F08C
:1054F00071F913214DF2111001F06CF901214DF2F7
:10550000121001F067F954214DF2131001F062F905
:1055100001214DF2141001F05DF982214DF21510B8
:1055200001F058F901214DF2161001F053F9CA218A
:105530004DF2171001F04EF902214DF2181001F052
:1055400049F900214DF2191001F044F902214DF200
:105550001A1001F03FF901214DF21B1001F03AF948
:1055600002214DF21C1001F035F934214DF21D10CD
:1055700001F030F902214DF21E1001F02BF96721E4
:105580004DF21F1001F026F902214DF2201001F01A
:1055900021F984214DF2211001F01CF902214DF274
:1055A000221001F017F9A4214DF2231001F012F995
:1055B00002214DF2241001F00DF9B7214DF2251012
:1055C00001F008F902214DF2261001F003F9CF2174
:1055D0004DF2271001F0FEF802214DF2281001F0E3
:1055E000F9F8DE214DF2291001F0F4F802214DF214
:1055F0002A1001F0EFF8F2214DF22B1001F0EAF839
:1056000002214DF22C1001F0E5F8FE214DF22D1093
:1056100001F0E0F803214DF22E1001F0DBF810212B
:105620004DF22F1001F0D6F803214DF2301001F0A9
:10563000D1F833214DF2311001F0CCF803214DF2B5
:10564000321001F0C7F86D214DF2331001F0C2F8AD
:1056500000214FF4524001F0BDF833214DF20120FA
:1056600001F0B8F800214DF2022001F0B3F801E09A
:10567000E809002034214DF2032001F0ABF80021AD
:105680004DF2042001F0A6F83A214DF2052001F078
:10569000A1F800214DF2062001F09CF84A214DF2BC
:1056A000072001F097F800214DF2082001F092F850
:1056B0005C214DF2092001F08DF800214DF20A2005
:1056C00001F088F881214DF20B2001F083F80021D0
:1056D0004DF20C2001F07EF8A6214DF20D2001F0D4
:1056E00079F800214DF20E2001F074F8E5214DF219
:1056F0000F2001F06FF801214DF2102001F06AF83F
:1057000013214DF2112001F065F801214DF2122014
:1057100001F060F854214DF2132001F05BF80121F3
:105720004DF2142001F056F882214DF2152001F0BF
:1057300051F801214DF2162001F04CF8CA214DF22A
:10574000172001F047F802214DF2182001F042F82D
:1057500000214DF2192001F03DF802214DF21A20EE
:1057600001F038F801214DF21B2001F033F802213D
:105770004DF21C2001F02EF834214DF21D2001F0D5
:1057800029F802214DF21E2001F024F867214DF284
:105790001F2001F01FF802214DF2202001F01AF81D
:1057A00084214DF2212001F015F802214DF2222032
:1057B00001F010F8A4214DF2232001F00BF8022192
:1057C0004DF2242001F006F8B7214DF2252001F01A
:1057D00001F802214DF2262000F0FCFFCF214DF20E
:1057E000272000F0F7FF02214DF2282000F0F2FF01
:1057F000DE214DF2292000F0EDFF02214DF22A209A
:1058000000F0E8FFF2214DF22B2000F0E3FF02212F
:105810004DF22C2000F0DEFFFE214DF22D2000F095
:10582000D9FF03214DF22E2000F0D4FF10214DF2BC
:105830002F2000F0CFFF03214DF2302000F0CAFFEF
:1058400033214DF2312000F0C5FF03214DF232200B
:1058500000F0C0FF6D214DF2332000F0BBFF0021AE
:105860004FF4534000F0B6FF33214DF2013000F009
:10587000B1FF00214DF2023000F0ACFF34214DF2B7
:10588000033000F0A7FF00214DF2043000F0A2FF2A
:105890003A214DF2053000F09DFF00214DF2063017
:1058A00000F098FF4A214DF2073000F093FF0021ED
:1058B0004DF2083000F08EFF5C214DF2093000F00F
:1058C00089FF00214DF20A3000F084FF81214DF262
:1058D0000B3000F07FFF00214DF20C3000F07AFF1A
:1058E000A6214DF20D3000F075FF00214DF20E3073
:1058F00000F070FFE5214DF20F3000F06BFF012149
:105900004DF2103000F066FF13214DF2113000F01F
:1059100061FF01214DF2123000F05CFF54214DF285
:10592000133000F057FF01214DF2143000F052FF08
:1059300082214DF2153000F04DFF01214DF216305D
:1059400000F048FFCA214DF2173000F043FF02215A
:105950004DF2183000F03EFF00214DF2193000F0FA
:1059600039FF02214DF21A3000F034FF01214DF2CF
:105970001B3000F02FFF02214DF21C3000F02AFFF7
:1059800034214DF21D3000F025FF02214DF21E3072
:1059900000F020FF67214DF21F3000F01BFF0221B5
:1059A0004DF2203000F016FF84214DF2213000F03E
:1059B00011FF02214DF2223000F00CFFA4214DF224
:1059C000233000F007FF02214DF2243000F002FFE7
:1059D000B7214DF2253000F0FDFE02214DF22630B8
:1059E00000F0F8FECF214DF2273000F0F3FE022147
:1059F0004DF2283000F0EEFEDE214DF2293000F0AD
:105A0000E9FE02214DF22A3000F0E4FEF2214DF2CF
:105A10002B3000F0DFFE02214DF22C3000F0DAFED8
:105A2000FE214DF22D3000F0D5FE03214DF22E3037
:105A300000F0D0FE10214DF22F3000F0CBFE0321FC
:105A40004DF2303000F0C6FE33214DF2313000F01F
:105A5000C1FE03214DF2323000F0BCFE6D214DF24B
:105A6000333000F0B7FE00214FF4544000F0B2FE96
:105A700033214DF2014000F0ADFE00214DF2024015
:105A800000F0A8FE34214DF2034000F0A3FE0021F7
:105A90004DF2044000F09EFE3A214DF2054000F028
:105AA00099FE00214DF2064000F094FE4A214DF28D
:105AB000074000F08FFE00214DF2084000F08AFE02
:105AC0005C214DF2094000F085FE00214DF20A40B4
:105AD00000F080FE81214DF20B4000F07BFE0021A2
