:020000040800F2
:1000000000C90220CD020008857400085F3800088E
:10001000776A0008990B00088D870008000000002F
:100020000000000000000000000000000B8000083D
:10003000C90C000800000000A774000891800008A7
:10004000E7020008E7020008E7020008E7020008EC
:10005000E7020008E7020008E7020008E7020008DC
:10006000E7020008E7020008E7020008E7020008CC
:10007000E7020008E7020008E7020008E7020008BC
:10008000E7020008E7020008E7020008E7020008AC
:10009000E7020008E7020008E7020008E70200089C
:1000A000E7020008E7020008E7020008E70200088C
:1000B000E7020008E7020008E9800008E7020008FC
:1000C000E7020008E7020008E7020008E70200086C
:1000D000E702000821870008E7020008E70200089D
:1000E000E7020008E7020008E7020008E70200084C
:1000F000E7020008E7020008E7020008E70200083C
:10010000E7020008E7020008E7020008E70200082B
:10011000E7020008E7020008E7020008E70200081B
:10012000E7020008E7020008E7020008E70200080B
:10013000E7020008E7020008E7020008E7020008FB
:10014000E7020008E7020008E7020008E7020008EB
:10015000E7020008E7020008E7020008E7020008DB
:10016000E7020008E7020008E7020008E7020008CB
:10017000E7020008E7020008E702000800000000AC
:10018000E7020008E7020008E7020008E7020008AB
:10019000E7020008E7020008E7020008E70200089B
:1001A000E7020008E7020008E702000800F002F892
:1001B00000F075F80AA090E8000C82448344AAF18C
:1001C0000107DA4501D100F06AF8AFF2090EBAE88A
:1001D0000F0013F0010F18BFFB1A43F0010318477B
:1001E00048D7030068D703000A444FF0000C10F80A
:1001F000013B13F0070408BF10F8014B1D1108BFA5
:1002000010F8015B641E05D010F8016B641E01F844
:10021000016BF9D113F0080F1EBF10F8014BAD1C94
:100220000C1B09D16D1E58BF01F801CBFAD505E0B2
:1002300014F8016B01F8016B6D1EF9D59142D6D30C
:10024000704700000023002400250026103A28BF34
:1002500078C1FBD8520728BF30C148BF0B60704738
:1002600003681B0A28BF41F08001642900F0228145
:10027000752900F01F81782900F09681E42900F0AB
:100280005581632900F01C84732900F0218400202B
:1002900070471FB50DF04AFF1FBD10B510BD00F02F
:1002A00049FC1146FFF7F5FF0BF08CFD00F067FCF1
:1002B00003B4FFF7F2FF03BC08F01FFC30BF72B6B7
:1002C000704762B6704780F30888704709488047D6
:1002D00009480047FEE7FEE7FEE7FEE7FEE7FEE728
:1002E000FEE7FEE7FEE7FEE704480549054A064B40
:1002F0007047000095800008AD01000800C302208F
:1003000000C9022000C5022000C50220704753EA40
:10031000020C00F069802DE9F04B4FF00006002B35
:100320001FBFB3FA83F503FA05F424FA05F65E401D
:1003300012BF1643B2FA82F502FA05F4C5F12005A0
:100340001EBF22FA05FC44EA0C04203556EA044C90
:100350004FEA144418BF641C4FF000084FF0000926
:10036000904271EB030C39D3002919BFB1FA81F720
:1003700001FA07F6B0FA80F700FA07F6C7F120078E
:100380001EBF20FA07FC46EA0C062037B6FBF4FC39
:10039000A7EB0507103F07F01F0BCBF120060CFA67
:1003A0000BFB2CFA06F644BFB3460026202FA4BF51
:1003B0005E464FF0000B5BEA060C08BF4FF0010BE6
:1003C00019EB0B09ABFB027C48EB0608C01B06FBD4
:1003D00002CC0BFB03CC71EB0C01C1E70B460246D0
:1003E00041464846BDE8F08B13B54FF000004FF092
:1003F0000001AFF30080BDE81C4070470FB4044912
:1004000010B503AA029800F067FB10BC5DF814FB5E
:100410003C00002070B5044685690068C10601D51E
:10042000302600E02026C00707D070BDD4E90121A6
:1004300030469047206A401C20626D1EF6D570BD84
:1004400070B5044685690078C00707D170BDD4E94E
:10045000012120209047206A401C20626D1EF6D5A5
:1004600070BD70B50C460546012A05D02878800677
:1004700000D5EA69002302E0012305E05B1C9342FA
:1004800002D2E05C0028F9D1A869E618C01AA86178
:10049000286A184428622846FFF7BCFF04E0D5E923
:1004A000012114F8010B9047B442F8D32846FFF716
:1004B000C7FF70BD2DE9F04106460024106875297C
:1004C000314616A510D0AFF30080002802DA404272
:1004D00013A507E031688A0701D512A502E0490794
:1004E00004D511A5012401E0AFF3008000210A2208
:1004F00006F1240709E0B0FBF2FCB0FBF2F302FBCB
:100500001C00303078541846491C0028F3D123468B
:100510002A463046BDE8F04100F06FBA0000000006
:100520002D0000002B000000200000002DE9F0410C
:100530008046D21D22F007020025D2E90002F529EB
:1005400015A614D0011E72F1000106DA0023D0EBCB
:10055000030063EB020211A608E0D8F800108B0735
:1005600001D50FA602E0490701D50EA601251146C7
:10057000002408F1240704E000F0FAF930323A557B
:10058000641C50EA0102F7D12B4632462146404610
:10059000BDE8F04100F031BA000000002D0000007D
:1005A0002B0000002000000070B504460D462146D7
:1005B0001068AFF300802188090502D50F4A7A44FC
:1005C00002E00E4A7A440E32002104F1240305E0D1
:1005D00000F00F060009965D5E54491C0028F7D113
:1005E00020780023000704D5702D02D009B1022322
:1005F00011322046BDE8704000F0FFB9EACE03009A
:100600002DE9F05F894604464FF0000ADFF874B127
:10061000FB44C0F820A02046E1688847002874D039
:10062000252806D0D4E901219047206A401C206289
:10063000F1E700265F462046E16888472028054606
:1006400007DB312D05D2781910F8200C08B10643CC
:10065000F1E7B00701D526F00406C4F81CA0002776
:10066000C4F818A02A2D09D0284608F03FFA38B35C
:1006700004EB8708303DC8F8185019E059F8041BFE
:10068000204604EB87029161E1688847012F054607
:1006900018D1E069002820DA26F020061DE0D8F8FD
:1006A000180000EB800005EB40003038C8F8180057
:1006B0002046E1688847054608F018FA0028EED180
:1006C000012F0AD02E2D08D12046E16888477F1CD3
:1006D0000546022F46F02006C4DBA069002803DA95
:1006E000404246F00106A061F00701D026F0100656
:1006F0006C2D0BD0682D09D04C2D39D06A2D35D0FA
:10070000742D35D07A2D33D016E038E0E1682F46CD
:1007100020468847B842054609D16C2F26D04FF4B1
:100720008060E168064320468847054604E06C2F58
:100730001AD04FF4807006430DB3A5F1410019287B
:1007400002D8203546F400664A46294620462660EF
:100750004E46FFF785FD80B101280BD0F61D26F02F
:10076000070000F1080956E74020E4E78020D8E7B9
:100770000020D6E706F104094DE7284652E7206A33
:10078000BDE8F09FC0CE030040EA0103024630B549
:100790009B0710D14FF0013400E008C208C91D1BAF
:1007A0009D4315EAC41FF8D013F0FF0102F8011BA6
:1007B0000DD01B0AF8E711F8013B002B02F8013BB2
:1007C00005D011F8013B002B02F8013BF3D130BDFD
:1007D000421E12F8013F002BFBD111F8013B002B08
:1007E00002F8013BF9D17047032A40F2308010F043
:1007F000030C00F0158011F8013BBCF1020F6244BC
:1008000098BF11F801CB00F8013B38BF11F8013B4C
:10081000A2F1040298BF00F801CB38BF00F8013BF9
:1008200011F0030300F02580083AC0F0088051F869
:10083000043B083A51F804CBA0E80810F5E7121D74
:100840005CBF51F8043B40F8043BAFF30080D20793
:1008500024BF11F8013B11F801CB48BF11F8012B5F
:1008600024BF00F8013B00F801CB48BF00F8012B82
:10087000704710B5203AC0F00B80B1E81850203A0C
:10088000A0E81850B1E81850A0E81850BFF4F5AF30
:100890005FEA027C24BFB1E81850A0E8185044BFBA
:1008A00018C918C0BDE810405FEA827C24BF51F827
:1008B000043B40F8043B08BF7047D20728BF31F81B
:1008C000023B48BF11F8012B28BF20F8023B48BF6C
:1008D00000F8012B70474FF000020429C0F012808D
:1008E00010F0030C00F01B80CCF1040CBCF1020FE3
:1008F00018BF00F8012BA8BF20F8022BA1EB0C01B8
:1009000000F00DB85FEAC17C24BF00F8012B00F8AD
:10091000012B48BF00F8012B70474FF0000200B5D3
:10092000134694469646203922BFA0E80C50A0E812
:100930000C50B1F12001BFF4F7AF090728BFA0E8C0
:100940000C5048BF0CC05DF804EB890028BF40F88C
:10095000042B08BF704748BF20F8022B11F0804FCE
:1009600018BF00F8012B70477047704770477047F9
:1009700030B5B0F10A024FEA900E71F100034EEA71
:10098000817EB0EB0E0061EB91014FEA101E4EEA42
:10099000017E10EB0E0041EB11114FEA102E4EEAD2
:1009A000016E10EB0E0041EB11214FEA104E4EEAA2
:1009B000014E10EB0E0041EB1141401841F10001D6
:1009C0004FEAD00040EA41704FEAD10110EB8005B8
:1009D0004FEA810444EA907444EB01046D1944EB3E
:1009E0000404521BA3414FF0000348BF0A3200D554
:1009F00030BD401C41F1000130BD2DE9F0470D46EE
:100A000099469246044600F124080168880604D5F8
:100A1000E06921F01001216000E00120A84201DD21
:100A2000471B00E00027A1697A1902EB0900081AA8
:100A3000A0612078C00602D42046FFF7EBFC002618
:100A400008E0D4E901211AF806009047206A401C0A
:100A5000761C20624E45F4DB2078C0060AD520467D
:100A6000FFF7D8FC06E0D4E9012130209047206A46
:100A7000401C2062381EA7F10107F4DC07E0D4E92E
:100A8000012118F805009047206A401C2062281EAA
:100A9000A5F10105F3DC2046FFF7D2FC2078000623
:100AA00002D50220BDE8F0870120FBE710B54369BD
:100AB00013B1AFF3008001E0FFF7D3FC012010BDBC
:100AC000127800F124010A7000224A700122EDE739
:100AD00011684FF0FF32E9E7074B70B50D467B44D4
:100AE00000F011F80446284600F020F810B14FF04D
:100AF000FF3070BD204670BDCFAD000001694A1CBB
:100B000002610878704700B58FB0CDE9013100214E
:100B1000059105497944CDE9031011466846FFF770
:100B20006FFD0FB000BD0000E5FFFFFF007B00F090
:100B300080007047754600F02BF8AE460500694608
:100B4000534620F00700854618B020B5FFF7CCFBD0
:100B5000BDE820404FF000064FF000074FF00008BE
:100B60004FF0000B21F00701AC46ACE8C009ACE83F
:100B7000C009ACE8C009ACE8C0098D46704710B5A3
:100B80000446AFF300802046BDE81040FFF790BB5D
:100B900000487047A0C20220FEE700002DE9FF4F89
:100BA00083B000278B4681461C46ADF808701F2194
:100BB00038460BF067FF0190642100200BF062FFC4
:100BC00000904FF4147100200BF05CFF82460098F7
:100BD00070B12146FFF7D8FD01225046009909F077
:100BE000F3FC38B12DA0FFF709FC07B0BDE8F08F8A
:100BF0002EA0F8E7DAF810803DE04FEAE871002512
:100C000008EBD160691E01EB60141F210198FFF70A
:100C100062FE27E0281900EBD07046107201D3174E
:100C2000504608F0FDFF254B022202A9504609F06C
:100C3000B1FE0028D9D139F81700BDF80810884254
:100C40000AD152464FF01F01019808F0C7FF0199E1
:100C50000598FFF7BDFD07E002D2A6F1010401E00F
:100C600006F10105A542D5DDA54203DD14A10598D5
:100C7000FFF7AEFD7F1C5F45BFDB504608F090FEDE
:100C8000514600200BF0F2FE002000990BF0EEFE22
:100C9000002001990BF0EAFEA7E700006F70656E77
:100CA000206572726F720D0A00000000616C6C6F3B
:100CB00063617465206572726F720A00C002002061
:100CC00030303030303000007047102A0FD0C26A08
:100CD000D1E9002342EA03220B89097B4FEA03434F
:100CE00043EA016142EA010203D1C26002E0C26844
:100CF000EEE7C2624FF000007047102A0FD0826A00
:100D0000D1E9002342EA03220B89097B4FEA03431E
:100D100043EA016142EA010203D1826002E0826893
:100D2000EEE782624FF000007047000030B50A68BD
:100D3000102A1AD0026A104B02EA0302D1E90134E8
:100D400043EA0403D1E9034544EA050443EA040302
:100D50004C69896943EA442343EA413141EA02018B
:100D600041F0080103D1016002E00268E3E701629B
:100D70004FF0000030BD00008101F0FF70B5B3F509
:100D8000804F05D06FF0704140F82210002070BDF8
:100D900050F82230084C2340D1E9004544EA0514BC
:100DA0008D688E892D0245EA064589692C430C43DE
:100DB0001C4340F82240E9E70000F0CFF0B50C6892
:100DC00050F82450194A1540D1E90123D1E90367AD
:100DD0001A433E4332434E6932438E693243CE69F1
:100DE00032430E6A32434E6A32438E6A3243CE6ACF
:100DF0003243CE6B32430E6B32434E6B32432A4347
:100E0000082B01D142F0400240F824204A6BB2F591
:100E1000801F08D10A6832B14FF480720A61044918
:100E20000268114301600020F0BD00008000E0FF77
:100E300000011000F0B500EB820253688E8903F0C8
:100E40004044D1E9003543EA05138D682D0245EA97
:100E500006452B430E8A0D4D05EB065633430E7D9A
:100E60006F0107EB066633438E69334323435360B8
:100E70000268D20207D54268098A22F4700205EBA3
:100E80000151114341600020F0BD00000000F0FF5F
:100E900030B5D1E901231A43D1E9033423431A437E
:100EA0004B690D681A438B691A43D1E90734012D48
:100EB000496A05686FF30E0505D01A4322430A43B9
:100EC0002A43026008E0234329430B43416803603F
:100ED0006FF30E010A434260002030BD426942EACE
:100EE0004101416100207047F8B514460546D1E93B
:100EF000000210438A686FF01F03C96803EB4212B7
:100F000042EA412108430090286100F027FD06468F
:100F100009E0601C07D024B100F020FD801BA04236
:100F200001D90320F8BDA8698006F2D40020F8BDDD
:100F3000F0B56FF00F05D1E9003405EB04145B1E2A
:100F40002E0123438C682F0306EB04244FEA054C43
:100F500023430D8A8E8ACC68097E4FF07F4E07EBC3
:100F600005450CEB06560EEB0161012A0CD0826898
:100F70003F1107EB043423432B43334302F0704209
:100F80000B43134383600FE0C2682B430B4302F013
:100F900070428168134301F070422103A1F5805132
:100FA00031431143C36081600020F0BD38B5044671
:100FB000094D4FF0AA300090A879042360436A4697
:100FC000002106F04FFAA879042360436A46002105
:100FD000401C06F047FA38BD781800202DE9FC4780
:100FE000254F89460646002500240DF1040810E02F
:100FF000CDF80080798870438B084A46002106F0BE
:10100000C9F87888BDF80410B1EB900F04D1641CC6
:10101000A4B2B879A042EBD8B879A04202D100209E
:10102000BDE8FC87304605F0A7FE20B1294613A095
:10103000FFF7E4F916E0B9F1FF3F13D000200AE012
:101040007A8806FB001093080022114606F0E0F9AA
:10105000BDF80400401CADF80400B879BDF80410D8
:101060008842EDD86D1CADB2032DBDD3314609A029
:10107000FFF7C4F90120D3E7781800206572726F7A
:101080007220657261736520626C6F636B3A2564D0
:101090000D0A000062616420626C6F636B206368FC
:1010A00065636B65643A25640D0A000038B5044633
:1010B000104D00208DF80000A879012360436A4696
:1010C000002106F09BF89DF80000FF2801D00220C7
:1010D00038BDA879012360436A460021401C06F010
:1010E0008DF89DF80000FF2801D0012038BD0020B8
:1010F00038BD0000781800202DE9F84F91462F4A9E
:101100008A461D469179B0FBF1F3B0FBF1F801FB83
:10111000130B404600F0B8F8284907464889B84202
:1011200002D20120BDE8F88F002428E05C4516D3E8
:10113000ADB14A88A2EB0A01A94201D28EB200E009
:10114000AEB207FB004108FB00404B4652460096FA
:1011500005F092FC4FF0000AB144AD1B05E007FB1F
:10116000004108FB004005F05BFD30B13846FFF759
:101170001DFF012000F024F8CBE7641CA4B20F4946
:101180008879A042D2D80D46A879A04214D1384619
:1011900000F028FA404605F0EFFD00206A896969F1
:1011A00008E031F81040444502D121F8107003E006
:1011B000401C80B28242F4D80020B3E778180020A7
:1011C000F8B506460021294D4FF6FF7003E06A6925
:1011D00022F81100491C6A898A42F8D80020A881A7
:1011E00004461CE0A879042360436A46002106F007
:1011F00005F89DF80000FF280CD1B6B1A8790123AD
:1012000060436A460021401C05F0F8FF9DF800008D
:10121000FF280AD0214616A0FFF7F0F8641C698960
:10122000A142DFD800206A6916E09DF802009DF80F
:10123000031000EB01206989814202D9696921F814
:101240001040A889401CA881E8E732F810308B4292
:1012500001D3E88102E0401C8142F6D8E889642885
:1012600001D20220F8BD0020F8BD0000781800204F
:1012700062616420626C6F636B20696E6465783AAA
:1012800025640D0A0000000070B5104E104C7189E5
:101290002268491E914200D2216000F001052946D2
:1012A000206800F017F8411C0AD170892168401E9F
:1012B000884207D92946206000F00CF8411C01D073
:1012C000206070BD4FF0FF3070BD00007818002026
:1012D00054000020F8B50D460021401C0091040088
:1012E00012D00C4F012626EA0400A8420AD1B87990
:1012F000611E484304236A46002105F07FFF0098E1
:10130000401C04D0641EEED14FF0FF30F8BD601ECB
:10131000F8BD000078180020F8B5254E00273C469F
:10132000B78113E02046FFF7C1FE70B9204605F0F3
:1013300023FD38B121461FA0FFF760F82046FFF7D4
:1013400035FE02E0B089401CB081641C7089A04267
:10135000E8D8B1891BA0FFF751F8B089642801D201
:101360000120F8BDC0EB4010642100EB4000B0FB51
:10137000F1F50024009710E02046FFF797FE58B9DA
:10138000B079022360436A46194606F06BF800986C
:10139000401C0090A84203D0641C7089A042EBD886
:1013A0000120FFF70DFF0028DBD00220F8BD000070
:1013B0007818002042616420626C6F636B3A256488
:1013C0000D0A0000676F6F645F626C6F636B6E7510
:1013D0006D3A25640D0A000010B505F021FD00BB33
:1013E000184C616911B100200BF040FB608941008D
:1013F00000200BF047FB606161894900FFF76BFA41
:10140000606970B10120FFF7DBFE60B10EA0FEF74E
:10141000F5FFFFF781FF90B111A0FEF7EFFF02206B
:1014200010BD012010BD618912A0FEF7E7FFA18960
:1014300016A0FEF7E3FFE18919A0FEF7DFFF002009
:1014400010BD000078180020666F726D6174206E08
:10145000616E6420666C6173682E2E2E0D0A00008A
:10146000666F726D6174206661696C6564210D0A36
:1014700000000000746F74616C20626C6F636B20FD
:101480006E756D3A25640D0A00000000676F6F6489
:1014900020626C6F636B206E756D3A25640D0A00D7
:1014A00076616C696420626C6F636B206E756D3A57
:1014B00025640D0A000000000549CA89824202D253
:1014C0004FF6FF707047496931F81000704700000F
:1014D000781800202DE9FF5F9B46154682460026BE
:1014E00079E03F4C6088B0FBF5F1A0794143019869
:1014F0008319B3FBF1F0FFF7DFFF6189814203D865
:10150000012004B0BDE8F09F354C6188A479B1FB9F
:10151000F5F26243B3FBF2F702FB17326A43B2FB08
:10152000F1F300FB0437B2FBF1F001FB1028A1EB53
:101530000800B0FBF5F084B2ABEB0600A04200D28D
:1015400084B204FB05F91FFA89F31FFA88F15246A9
:10155000384605F0FBFC032809D11FFA89F31FFA6E
:1015600088F15246384605F0F1FC032804D00428DF
:101570002ED068B30220C4E74B461FFA88F15246CA
:101580003846FFF7B9FDDFF858804FF0FF3198F883
:101590000600B7FBF0F0FFF721FD80B998F80600D0
:1015A0000021B7FBF0F0FFF719FD814698F806001F
:1015B000B7FBF0F005F0E0FBB9F1000F08D098F8A8
:1015C0000600B7FBF0F0FFF7F1FC0120FFF7F8FD94
:1015D00005FB04AA26445E4583D3002091E7000062
:1015E0007818002008B5CC218DF80010044901239B
:1015F0006A4689794843194605F034FF08BD000062
:10160000781800202DE9FF4F85B0154600274FF0D0
:10161000FF3B7BE0404C6088A179B0FBF5F048438C
:101620000699CB19B3FBF0F0FFF746FF61898046BE
:10163000414503D8012009B0BDE8F08F364A5088F3
:101640009279B0FBF5F15143B3FBF1F401FB143196
:1016500001FB05FABAFBF0F308FB0231BAFBF0F22A
:1016600000FB12A9A0EB090080B2B0FBF5F00291DB
:101670000899ADF80400C91B8CB20391844200D3D1
:10168000044601A804FB05F600901FFA89F1C6F391
:101690008F034FF0FF32029805F07CFD08B1022065
:1016A000C9E7BDF80400B0EB960F0FD1B3B21FFA33
:1016B00089F1059A029805F0FFFD38B94146C34506
:1016C00020D00846FFF78EFFC346D8B11248817973
:1016D00040884143A1EB0A00B0FBF5F0039980B2CA
:1016E0008CB2ADF80400844200D3044604FB05F636
:1016F0001FFA89F13346059A0298FFF7FDFC08B1FD
:10170000032098E7059827443044059008988742BD
:1017100080D300208FE70000781800207CB50C46AD
:10172000054613E080280BD38DF8040015F8010F4F
:101730008DF800009DF800009DF8041040EA01209B
:10174000012109F0E5FD24F8020B6D1C2878002822
:10175000E8D17CBD31B500F001F9044600F0FEF897
:101760000099001B8842F9D338BD00002DE9F84FDD
:10177000DFF8A091002209F1040A0AF1040B4FF0EE
:101780000F080BF1040E01260B6896403340B3425C
:1017900071D14C68022C01D0122C11D1D40800EB6D
:1017A00084073D6A5407E40E08FA04FC25EA0C0598
:1017B000D1F810C00CFA04FC4CEA050CC7F820C0A4
:1017C00007685400032591F804C0A5400CF0030CF1
:1017D000AF430CFA04FC4CEA070CC0F800C04F6899
:1017E000012F05D0022F03D0112F01D0122F11D1BC
:1017F0008768D1F80CC0AF430CFA04FC4CEA070C24
:10180000C0F808C04768B7430E79C6F30016964083
:101810003E434660C668AE438D68A5403543C5600B
:101820004C68E4006FD53C4C256845F48045256044
:10183000246822F0030504F480440094374C2E19E8
:10184000D6F808789407250F08FA05F4A743344C16
:10185000A04201D100242EE0324CA04201D101244B
:1018600029E0314CA04201D1022424E02F4CA042B7
:1018700002D103241FE046E02D4CA04201D10424F4
:1018800019E02C4CA04201D1052414E02A4CA042BE
:1018900001D106240FE0294CA04201D107240AE01F
:1018A000274CA04201D1082405E0264CA04201D1DA
:1018B000092400E00A24AC403C43C6F80848D9F8A3
:1018C00000404D464E689C43F60300D51C432C60F7
:1018D000DAF8004055464E689C43B60300D51C43D9
:1018E0002C60DBF800405D464E689C43F60200D554
:1018F0001C432C60DEF8004075464E689C43B602DF
:1019000000D51C432C60521C102AFFF43CAFBDE8EC
:10191000F88F0000003C0140443802400030014094
:10192000000002400004024000080240000C024097
:10193000001002400014024000180240001C024047
:1019400000200240002402400069084000D001202D
:1019500070470AB1816170470904FBE701480068DC
:10196000704700003000002002480168491C0160F7
:1019700070470000300000200B4810B5016841F4AA
:1019800000710160016841F480610160016841F407
:1019900080710160052000F049FA0F2000F006F880
:1019A00000F08AF9002010BD003C024010B504464A
:1019B00000F0EAFC4FF47A71B0FBF1F001F0B8FDF1
:1019C00000222146501E00F011FA002010BD2DE922
:1019D000F041044690F8A00015460F4601281DD09E
:1019E000012684F8A060022084F8A10005EB8500A0
:1019F00000EBC50004EB800034223830FEF739FFDD
:101A00002A463946204604F085FF2068466284F85D
:101A1000A160002084F8A000BDE8F0810220FBE76F
:101A200070B5040004D094F8A100002510B106E0C0
:101A3000012070BD84F8A050204600F06FF802200D
:101A400084F8A1002068816921F070418161D4E9A6
:101A500001100143D4E90302104301432068826965
:101A600011438161206882682B490A408260A08A04
:101A7000020420688368A6693343134383602068A7
:101A8000C2680A40C260A08B02042068C368266A4C
:101A900033431343C360206802690A400261A08C8B
:101AA000020420680369A66A334313430361206874
:101AB00042690A404261A08D010420684269236B9B
:101AC0001A430A43426194F83500020294F8360042
:101AD00001042068C36A03F07F43C3622068C36ABD
:101AE00094F83460114333430B43C3622068416B65
:101AF00041F0040141632068416B41F00201416300
:101B00002068816941F001018161C4F8A45001207D
:101B100084F8A100002070BD00F800F030B5364810
:101B200087B00025016841F080610160006800F025
:101B30008060059030481438016841F4000101606C
:101B4000016801F400010591016841F002010160A2
:101B5000016801F002010591016841F02001016076
:101B6000016801F020010591016841F04001016028
:101B7000016801F040010591016841F080010160B8
:101B8000016801F080010591016841F480710160F4
:101B90000068032400F4807005902020009001204C
:101BA000CDE90204019069461448FFF7DFFD4FF4C8
:101BB000806000900220CDE901050E20CDE90340B0
:101BC00069460F48FFF7D2FD4FF40C60009069465C
:101BD0000C48FFF7CBFD4FF47E40009069460A4861
:101BE000FFF7C4FD40F2F760009069460748FFF731
:101BF000BDFD07B030BD0000443802400004024083
:101C00000014024000180240001C02400020024064
:101C100070B5044690F8A0000E46012820D001259A
:101C200084F8A050022084F8A10003EB830000EBAD
:101C3000C30004EB800141F8386F886A3044C1E981
:101C40000102C86A1044C8601A46204604F062FEC9
:101C50002068456284F8A150002084F8A00070BD7F
:101C6000022070BD2DE9F041044690F8A0000F4617
:101C700001281FD0012584F8A050022084F8A1007B
:101C800003EB830000EBC30004EB80010026E1E9D5
:101C90000E672046C1E90262C1E90A721A4604F0E1
:101CA00039FE2068456284F8A15084F8A0600020C5
:101CB000BDE8F0810220FBE708B50020009008BDD8
:101CC00070B515460E46040003D094F8210010B1FB
:101CD00007E0012070BD002084F82000204600F0BD
:101CE00021F8211D2068FFF721F8D4E900023146D0
:101CF000FFF703F8D4E900022946FEF7E6FF606823
:101D00001028206808D0016A41F004010162012016
:101D100084F82100002070BD016841F004010160D9
:101D2000F5E7000070B5274886B00024016841F04F
:101D300001010160006800F00100059021480838A9
:101D4000016841F008010160016801F00801059196
:101D5000016841F010010160016801F01001059176
:101D6000016841F0400101600068032500F0400077
:101D700005904020CDE900040120CDE90205124E76
:101D800069463046FFF7F2FC7015009001A9022069
:101D900081E831000C20049069460C48FFF7E6FC0E
:101DA0004DF633000090694602943046FFF7DEFCA2
:101DB0004FF4F060009069460548FFF7D7FC06B085
:101DC00070BD000038380240000C0240001802408C
:101DD0000010024000F01F020121914040098000E4
:101DE00000F1E020C0F8001170470000F0B40E4B85
:101DF0001B68C3F30223C3F10704042C00D9042495
:101E00001D1D072D01D2002300E0DB1E012606FA6E
:101E100004F56D1E0D409D409E40761E164045EA1D
:101E20000601F0BC05F02FBB0CED00E0064A00F007
:101E3000070110684FF6FF03184040EA01200349EC
:101E400008431060704700000CED00E00000FA0548
:101E50002DE9F8431D48016841F080510160006898
:101E6000012700F080500090380490FAA0F0DFF8CD
:101E70006080B0FA80F048F82070FFF76FFD0446EC
:101E80004FF47A75134E04E0FFF768FD001BA8427B
:101E900013D87068C003F7D54FF4003090FAA0F063
:101EA000B0FA80F048F82070FFF758FD044607E0CC
:101EB000FFF754FD001BA84202D90320BDE8F883B8
:101EC00070688003F4D50020F8E700004038024035
:101ED00000000E42007000402DE9F84F04460068F3
:101EE000DFF878829E4DC10747F6C07A4FF0E04692
:101EF0004FF0010B4FF0000901D180074BD59949F4
:101F0000C1F86890FFF72AFD074604E0FFF726FDB9
:101F1000C01B64287ED828680001F7D42078924935
:101F2000C0070DD09AFAAAF26068B2FA82F2904025
:101F300096FAA6F3A268B3FA83F39A4010430860B6
:101F40002078800718D5086896FAA6F200F0E040DD
:101F5000B2FA82F2D0406268237B920142EA0362C5
:101F600042EA00700860D8F80010E26921F01F0111
:101F7000521E1143C8F800107A49C1F868B0FFF743
:101F8000EDFC074604E0FFF7E9FCC01B642841D8DC
:101F900028680001F7D52068410701D4000776D5ED
:101FA0007049C1F87090FFF7D9FC074604E0FFF7CD
:101FB000D5FCC01B64282DD82868C0438000F6D506
:101FC00020786A4F40074FF0706C29D5386896FA30
:101FD000A6F100F0E040B1FA81F1C8409AFAAAF205
:101FE0002169B2FA82F291409CFAACF36269B3FAC9
:101FF00083F39A40114396FAA6F2B2FA82F2904025
:1020000001433960D8F800106FF0FF0321F4F85154
:10201000226A00E079E003EB02221143C8F80010C5
:102020002078000723D538689CFAACF100F0706086
:10203000B1FA81F1C8409AFAAAF22169B2FA82F2A1
:1020400091409CFAACF2B2FA82F29040014396FAC7
:10205000A6F2A069B2FA82F2904001433960D8F842
:102060000010626A21F440311143C8F800103D4964
:10207000C1F870B0FFF772FC064604E0FFF76EFC93
:10208000801B642841D82868C0438000F6D420789B
:10209000800651D532484F464030016841F08051AA
:1020A00001600068324E00F080500090306840F4CB
:1020B00080703060FFF752FC054604E0FFF74EFCED
:1020C000401B642821D83068C005F7D5264E143E41
:1020D0003068218D00F4407001F4407188422BD0AB
:1020E0003068244920F44070C1F800B00F603060BF
:1020F000800710D5FFF732FC054641F2883707E02C
:10210000FFF72CFC401BB84202D90320BDE8F88F32
:1021100030688007F4D5A06A1149C0F30122083164
:10212000032A13D0086820F4F81008603068218D65
:10213000C1F30B01084330602078C00604D50E4976
:1021400094F82C00C1F8E0010020DFE70A680B4B8F
:1021500022F4F812184002430A60E7E78C38024084
:10216000003802400000474284380240883802406C
:1021700000700040400E474200104742FFFCFF0F36
:102180002DE9F05FDFF8F8A104460F46DAF8000009
:10219000DFF8F08100F00F02C8B27A49814641F2BF
:1021A000883608F10808BA4261D202468AF800204F
:1021B000DAF8000000F00F00B8427DD120788007E7
:1021C00007D5D8F80020A36822F0F0021A43C8F817
:1021D00000202078C0072DD0606801281AD002287E
:1021E0001BD0032819D009688907002964DAD8F8B8
:1021F0000010474621F003010143C8F80010FFF723
:10220000ADFB0546606801280FD0022818D00328CE
:102210001CD027E009688903E7E709688901E4E73A
:10222000FFF79CFB401BB04258D83868C0F38100D0
:102230000128F5D188E0FFF791FB401BB0424DD853
:102240003868C0F381000228F5D17DE03868FFF7D7
:1022500085FB401BB042F9D940E0FFF77FFB401BF4
:10226000B0423BD8386810F00C0FF6D16CE0207803
:10227000800707D5D8F80020A36822F0F0021A439F
:10228000C8F800202078C0074CD06068012828D00A
:10229000022829D0032827D009688907002949DAAC
:1022A000D8F8002022F003020243C8F80020FFF70C
:1022B00055FB0546606800E03CE001281DD002287F
:1022C00029D0032838D0B3464646306810F00C0FAA
:1022D00028D0FFF743FB411B5945F6D90320BDE841
:1022E000F09F09688903D9E709688901D6E7FFF7F4
:1022F00035FB411B594502D9F0E7B34646463068E5
:10230000C0F381000128F2D10CE0FFF727FB411B4D
:10231000594502D9E2E7B34646463068C0F381002A
:102320000228F2D18AF80090DAF8000000F00F00DD
:10233000B84209D00120D2E744462068FFF70EFBDF
:10234000401BB042F9D9C9E72078400707D5D8F833
:102350000010E26821F4E0511143C8F80010207821
:10236000000708D5D8F80010226921F4604141EA3D
:10237000C201C8F800100F20FFF718FB0020AEE7DD
:10238000003C02400038024010B500F043F8084914
:102390000968F02292FAA2F201F0F001B2FA82F298
:1023A000D140044A515CC8400349086010BD000098
:1023B0000838024036E100081C00002010B5FFF785
:1023C000E3FF074909684FF4E05292FAA2F201F4E0
:1023D000E051B2FA82F2D140024A515CC84010BDCD
:1023E0000838024036E1000810B5FFF7CDFF074975
:1023F00009684FF4604292FAA2F201F46041B2FA25
:1024000082F2D140024A515CC84010BD08380240F7
:1024100036E1000830B51948006810F00C01184882
:1024200012D0184C04290ED008290DD1134A121FBE
:102430001168136801F03F015D0247F6C07304D5CF
:10244000B4FBF1F003E0204630BDB0FBF1F01168C1
:10245000194093FAA3F3B3FA83F3D94048431168C0
:102460004FF4403292FAA2F201F44031B2FA82F211
:10247000D140491C4900B0FBF1F030BD08380240A2
:102480000024F40040787D012DE9F84F04460078DF
:10249000DFF8FCA2BF4DC0074FF0000648D0DAF8C5
:1024A00000105046C1F38101012908D00068C0F333
:1024B000810002280AD1281D0068400206D528683C
:1024C000800335D56068002873D031E0DFF8C4920E
:1024D00009F1020989F80060FFF740FA074641F266
:1024E000883804E0FFF73AFAC11B41457AD82868DA
:1024F0008003F7D4207989F80000606860B1FFF7A5
:102500002DFA074604E0FFF729FAC11B4145EDD833
:1025100028688003F7D50BE0FFF720FA074604E0B0
:10252000FFF71CFAC11B4145E0D828688003F7D4A7
:102530002078DFF86492800744D5DAF8001050461E
:1025400011F00C0F4FF0F80809D00068C0F38100BB
:1025500002280BD18E48001F0068400206D428686C
:10256000800714D5E068012823D110E0E068D0B1DD
:102570000120C9F80000FFF7F1F9074604E0FFF772
:10258000EDF9C01B6428B1D828688007F7D5286802
:1025900098FAA8F22169B2FA82F220F0F80091408C
:1025A000084328600EE0C9F80060FFF7D7F9074636
:1025B00005E0EAE0FFF7D2F9C01B642812D82868CA
:1025C0008007F7D42078000725D5DFF8C481734849
:1025D000616908F16C0881B101210160FFF7BEF962
:1025E000074605E07EE0FFF7B9F9C01B642879D8FB
:1025F000D8F800008007F6D50DE00660FFF7AEF9C9
:10260000074604E0FFF7AAF9C01B64286AD8D8F887
:1026100000008007F6D42078400753D55C48383056
:10262000016841F0805101600068DFF8748100F0BA
:1026300080500090D8F8001041F48071C8F8001064
:10264000FFF78CF9074604E0FFF788F9C01B642800
:1026500048D8D8F80000C005F6D5DFF834B10BF142
:10266000680B8BF80060FFF779F9074641F288386C
:1026700004E0FFF773F9C11B41457ED8DBF8000089
:102680008007F6D4207A8BF80000A06868B1FFF7C5
:1026900065F9074604E0FFF761F9C11B41456CD8B5
:1026A000DBF800008007F6D50CE0FFF757F9074686
:1026B00004E0FFF753F9C11B41455ED8DBF8000089
:1026C0008007F6D4A069E8B3DAF80010C1F38101FD
:1026D00002295AD0022806D0C9F86060FFF73EF9F7
:1026E00004464DE049E04F46C9F86060FFF736F90F
:1026F000064604E0FFF732F9801B64283DD82868BD
:102700008001F7D4D4E90701084347F6C07191FA74
:10271000A1F1626AB1FA81F18A40A16A4FF0FF33F8
:1027200003EB51014FF4403393FAA3F3B3FA83F36D
:1027300099400A4310434FF0706292FAA2F2B2FA43
:1027400082F200E01FE0E16A914008431049091F4E
:10275000086001203866FFF701F9044604E0FFF73E
:10276000FDF8001B642808D828688001F7D50AE026
:10277000FFF7F4F8001B642802D90320BDE8F88FA6
:1027800028688001F4D40020F8E70120F6E7000073
:10279000083802400038024000004742800E47429D
:1027A0000070004070B50D46040003D094F82C0072
:1027B00010B107E0012070BD002084F82D002046F4
:1027C00000F012F8022084F82C00211D2068FEF78A
:1027D0005FFBD4E900022946FEF7AAFB012084F83A
:1027E0002C00002070BD0000304800B5016887B0A3
:1027F00041F001010160006800F0010005902B48E4
:102800000838016841F004010160016801F0040129
:102810000591016841F008010160016801F00801BB
:102820000591016841F010010160016801F010019B
:102830000591016841F020010160016801F020016B
:102840000591016841F0400101600068694600F0AF
:10285000400005900D200090022001900120029080
:10286000032003900C2004901148FEF77FFF4CF2E8
:102870000370009069460F48FEF778FF4FF68370AB
:10288000009069460C48FEF771FF4FF63F0000903C
:1028900069460A48FEF76AFF48F237100090694619
:1028A0000748FEF763FF07B000BD0000383802405C
:1028B00000080240000C02400010024000140240D8
:1028C0000018024010B5044690F82C00022809D0E8
:1028D000022084F82C002068FEF700FB012084F819
:1028E0002C00002010BD70B5044690F82C000D4659
:1028F00002280CD0022084F82C002068FEF7F4FA9D
:102900002868022804D0012084F82C00002070BD23
:102910000520F9E72DE9F04790F8202081F85620AE
:10292000828CA1F85420826A0023120E94090C7044
:10293000C2F383044C7002F003028A70826A120CA4
:10294000CA70028D120A0A7190F828204A71C26A70
:102950004FF6FF7A120E0AEA0212CA80C26ACC88C7
:10296000C2F3074244EA1214CC8002F00F020A724A
:10297000828DC2F30722D4094C72C2F380148C7288
:10298000C2F34014CC72C2F300140C7300264E73D1
:10299000046A4FF00109002C7DD0012CFCD0022CE0
:1029A0007AD02923C2F380144C769206520E01F895
:1029B0001A2F10F8302F0C7844EAD21401F8014B8A
:1029C00002F07F0201F8012B50F8042F120ED409F7
:1029D0000C70C2F341144C70C2F382048C709207E5
:1029E000120FCA7004C8CC78C2F3074244EA9214AA
:1029F000CC70C2F340140C714E7102F001028A7166
:102A000030F8042CC2F30722D409CC71C2F380142D
:102A10000C72C2F340144C72C2F300148C72C2F3F5
:102A20008104CC7202F003020A7310F8042C5208DD
:102A30004A734C4681F80E9050F8082B120E0A7417
:102A400050F8082C120C0AEA02224A8230F8082CAC
:102A50004D8AC2F3072215434D8210F8082C120646
:102A600041F8142F50F8042C0D68120E45EA02426A
:102A70000A6050F8042C0D68C2F3074245EA0222AE
:102A80000A6030F8042C0D68C2F30722154320C1F8
:102A900010F8042C01E034E076E001F8012B026824
:102AA000120E01F8032B0268120C12060A6002884B
:102AB0000D68C2F3072245EA02420A6002780D68F7
:102AC00045EA02220A6042680D6845EA126520C1A3
:102AD00042680D78C2F3074245EA121501F8025B1D
:102AE0001207120D0A8082880D88C2F3072215434F
:102AF00021F8025B0079400808704C701846BDE868
:102B0000F0879207120D0A6190F82C200C6944EAB4
:102B100082020A61026B0C69120E44EA92140C6183
:102B2000C2F3C2040C7502F007024A75026BC2F3CD
:102B3000074254098C75C2F38204CC759207520F78
:102B40000A76028E0C7EC2F3072244EAD2140C7677
:102B50000C690F7EBF1C09FA07F5641CA4FB0578FD
:102B60004FEAE57C06FB058504FB0C5591F808C08F
:102B700009FA0CF4A7FB04C80C6505FB048407FBE9
:102B80000644C1E912C40DE790F82C209206920A7F
:102B90000A61026B0C69120E44EA02220A61026B9E
:102BA0000C69C2F3074214430C61028E0C69C2F334
:102BB0000722641C46F10005ED0445EA5435E4049F
:102BC000C1E912454FF400740C65EBE670B586B0B0
:102BD00000250E4604468DF80C50057700F046F8A7
:102BE00076200095CDE901502B462A4629462068DB
:102BF00004F07CFC204604F0B3FF8DF80C009DF837
:102C00000C0038B9204604F09FFE8DF80C009DF8AA
:102C10000C0018B19DF80C0006B070BD314620467E
:102C2000FFF778FE8DF80C009DF80C00A0B9B6F8FF
:102C30005400694600040090072001904020CDE92F
:102C4000020500010490206804F069FC0721204679
:102C500004F0ECFC8DF80C0004F1100007C88DE8BE
:102C6000070094E80F0004F041FCD3E71D4800B5CD
:102C7000016887B041F400610160006800F4006001
:102C8000059018481438016841F48001016001681A
:102C900001F480010591016841F0040101600168BF
:102CA00001F004010591016841F00801016000682C
:102CB000694600F0080005904FF4F850009002209B
:102CC000019001200290032003900C2004900648FC
:102CD000FEF74CFD0420009069460448FEF746FDCF
:102CE00007B000BD4438024000080240000C02401A
:102CF0002DE9F04F8BB004460D46DDE914782168CC
:102D000000201646C862216A022903D10F02560A22
:102D100046EAC3561021CDE90071402183460801DF
:102D20000291CDE903B06946206804F0F8FB102158
:102D3000204604F07BFC00286DD14FF0FF3A08FBE1
:102D400007F0CDE905A007A990204FF0020981E81E
:102D5000010A01200A9005A9206804F0A5FBB8F13A
:102D6000010F01D9122000E01120CDE90060694671
:102D7000206804F0D4FBB8F1010F1AD912212046C3
:102D800004F054FC070046D140F22A3B2068416B16
:102D900011EA0B0F28D1406B0004F7D500262068FC
:102DA00004F0BAFB45F82600761C082EF7D3203530
:102DB000ECE71121204604F039FC07002BD140F24A
:102DC0002A6B2068416B11EA0B0F0DD1406B000498
:102DD000F7D50026206804F09FFB45F82600761CF6
:102DE000082EF7D32035ECE7406BC0050CD5B8F1C1
:102DF000010F09D9206A18B1012801D0022803D196
:102E0000204600F033F807462168486B000705D5D7
:102E10000820886304200BB0BDE8F08F486B800762
:102E200003D54846C1F83890F5E7486B800603D5CE
:102E3000202088630620EEE7486B800504D54FF418
:102E4000007088630720E6E7564603E004F064FB61
:102E500001C5761E2068416B890201D5002EF5D18F
:102E6000216840F2FF5088633846D4E710B586B039
:102E7000044600200C21CDE900014021CDE90210DB
:102E8000080104906946206804F049FB0C212046A3
:102E900004F0CCFB06B010BDFEB50446006A002568
:102EA0000E46032805D030B1012804D0022802D0F4
:102EB0001FE02720FEBDB6F5805F05D0B6F5006F98
:102EC00004D03EB1262514E0272512E0204604F068
:102ED00082FF02E0204604F045FF050009D1211DD4
:102EE000D4E905070EC9CDE900600297206804F017
:102EF000FDFA2846FEBD2DE9F04F8DB006460025AF
:102F00000C468DF82C50DDE9169831681746284696
:102F1000CD62316A4FF4007B022903D1570AD946AA
:102F200047EAC3571021CDE90091402182460801AC
:102F30000291CDE903A06946306804F0F0FA10214F
:102F4000304604F073FB00286ED1B8F1010F01D9AF
:102F5000192000E01820CDE900706946306804F0BF
:102F6000DEFAB8F1010F01D9192100E0182130462D
:102F700004F05CFB00287FD1411E09FB08F990207A
:102F8000CDE906900591CDF820A00120CDE909A05A
:102F900005A9306804F088FAB8F1010F24D84FE091
:102FA000406B400420D5A9EB0500202811D28107F1
:102FB0004FEA900000D0401C8246002706E02146E0
:102FC000306804F0BCFA241D2D1D7F1C57450BD220
:102FD000F5E7002704EB8701306804F0B0FA7F1CA6
:102FE000082FF7D3203420353068416B40F21A3275
:102FF0001142D5D02AE0406B400421D5A9EB050051
:10300000202812D281074FEA900000D0401C82464F
:10301000002706E02146306804F091FA241D2D1D9A
:103020007F1C57450CD2F5E726E0002704EB87010B
:10303000306804F084FA7F1C082FF7D32034203541
:103040003068416B40F21A621142D4D0406BC00527
:103050000BD5B8F1010F08D9306A18B1012801D099
:10306000022802D13046FFF701FF3168486B0007A4
:1030700005D50820886304200DB0BDE8F08F486BAB
:10308000800702D502208863F6E7486BC00603D5A7
:10309000102088630520EFE7486B800503D5C1F851
:1030A00038B00720E8E740F2FF5088630BA93046AC
:1030B00004F0B8FC0028DFD19DF82C100729F5D0CA
:1030C0000629F3D0D8E770B5040004D094F8510075
:1030D000002510B106E0012070BD84F85050204654
:1030E00000F034F8022084F851002068016821F0D3
:1030F00040010160D4E901010843D4E903121143FE
:10310000084361690843218B01F400710843E169B8
:103110000843216A0843A16A084321680860A0693E
:10312000042101EA1040616A08432168486021686F
:10313000E06A08612068C16921F40061C1616565C8
:10314000012084F85100002070BD0000124800B535
:10315000016887B041F020010160006800F02000A4
:1031600005900D481430016841F480110160006839
:10317000012100F4801005904FF46070009002204F
:10318000CDE9010103900520049069460348FEF74C
:10319000EDFA07B000BD00003038024000140240D4
:1031A0002DE9F843044690F85100DDF8208001280D
:1031B00001D022287ED169B162B15BB194F8500090
:1031C000012877D0012784F8507094F85100012825
:1031D00003D005E00120BDE8F883322084F85100D7
:1031E00000266665A263A387E3872163A386E3863F
:1031F000A664E664A06A4FF40055A84209D120688D
:10320000016821F4005101602068016841F4005117
:10321000016020680168490603D4016841F040015B
:103220000160E0684FF48271B0F5006F606807D00C
:10323000002867D088426ED1E08E012862D06AE013
:1032400020B188420CD1E08E012809D1206B216881
:103250000088C860206B801C2063E08E401EE086E2
:10326000E08E80B9A06AA84244D12068016841F488
:10327000805101603EE02068C068A16B0880A06BAF
:10328000801CA0639EE0434600220221204604F0F9
:103290006DFE002874D1206B21680088C860206B07
:1032A000801C2063E08E401E0004000CE08609D1E3
:1032B000A06A00E0C7E0A84204D12068016841F498
:1032C00080510160434600220121204604F04EFE59
:1032D00000286FD12068C068A16B0880A06B801C9B
:1032E000A063E08F401EE087E08E0028CBD16068AD
:1032F00000286AD1434600220121204604F036FE10
:10330000F0BBB8E7206B411C216321680078C860DE
:10331000E08E401EE086E08E98B9A06AA84204D1F3
:103320002068016841F48051016043460022012178
:10333000204604F01BFE18BB2068C068A16B087013
:1033400040E0434600220221204604F00FFEB8B9B7
:10335000206B411C216321680078C860E08E401E0C
:103360000004000CE08607D1A06AA84204D12068BE
:10337000016841F48051016000224346012100E0D0
:1033800018E0204604F0F2FDA0B92068C168A06BE7
:10339000421CA2630170E08F401EE087E08E00288F
:1033A000CFD1606888B9434600220121204604F04D
:1033B000DDFD08B103200EE72068C168A06B421C48
:1033C000A2630170E08F401EE087A06AA84210D17E
:1033D000434600220121204604F0C8FD18B1606D6B
:1033E00040F002000FE02068C068ADF80000BDF8B2
:1033F0000000434601228021204604F0B7FD20B1A1
:10340000606D40F020006065D4E784F8517020685A
:103410008168A26AC1F30011AA4210D179B1616D2D
:1034200041F002016165016821F4005101602068EA
:10343000016841F40051016084F85060CAE684F8E4
:1034400050600020C7E60220C5E670B515460E465E
:10345000040003D094F8490010B107E0012070BDCA
:10346000002084F84800204600F01AF804F1080112
:103470002068FDF7A3FC3146A2682068FDF7DAFC5E
:10348000D4E901022946236BFDF778FCA168206886
:1034900050F8212042F0010240F82120002070BDA8
:1034A0001A4800B5016887B041F001010160006869
:1034B00000F00100059015480838016841F0080146
:1034C0000160016801F008010591016841F01001F7
:1034D00001600068694600F0100005904EF2B3707C
:1034E00000900220019001200290032003900C2004
:1034F00004900748FEF73AF94FF68070009069464D
:103500000448FEF733F907B000BD00003838024028
:10351000000C0240001002404FF0E021042808692E
:1035200003D020F004000861704740F00400FAE77F
:1035300010B5401EB0F1807F01D3012010BD4FF0C7
:10354000E02460610F21601703F09DFF0020A0615F
:1035500007202061002010BD10B5040003D094F8AE
:10356000390010B107E0012010BD002084F83800B8
:10357000204600F00CF8022084F83900211D206854
:1035800004F0CCFD012084F83900002010BD704704
:103590000168CA6842F00102CA600068016841F02F
:1035A0000101016000207047704738B5016804468A
:1035B0000868CA68C0F3000002F4807238B132B102
:1035C000086848680090E06B40F00100E06308681C
:1035D0004A69C0F3400002F0010238B132B1086814
:1035E00048680090E06B40F00400E06308684A69B6
:1035F000C0F3800002F0010238B132B108684868B7
:103600000090E06B40F00200E06308684A69C0F394
:10361000C00002F0010238B132B108684868009079
:10362000E06B40F00800E0630868C968C0F3401030
:1036300001F0200118B111B1204604F0E7FE206826
:103640000168C068C1F3C01100F0800019B110B169
:10365000204604F0E9FF21680868CA68C0F38010BA
:1036600002F04002012568B162B1CA68204622F02A
:103670004002CA6094F8391032290CD080F83950D1
:1036800000F0ECF8E06B002804D084F839502046B4
:10369000FFF78AFF38BD222180F83910F0E770B5B6
:1036A000040004D094F83900002510B106E0012090
:1036B00070BD84F83850204600F020F8022084F8CD
:1036C00039002068C16821F40051C160204604F02F
:1036D000F1FE2068016921F490410161206841698F
:1036E00021F02A0141612068C16841F40051C160A4
:1036F000E563012084F83900002070BD30B5044630
:103700000068204987B0884239D11F48016841F0DC
:1037100001010160006800F0010005901A481430B2
:10372000016841F0100101600068012100F0100003
:1037300005904FF4007000900220CDE90101039044
:103740000720124D049069462846FEF70FF8281509
:10375000009069462846FEF709F82068C16821F004
:103760004001C1602068C16841F02001C16025208E
:10377000FEF730FB032211462520FEF737FB07B08A
:1037800030BD00000010014030380240000002400F
:103790002DE9F047044690F8390099460D46012876
:1037A00001D0122857D125B31AB394F83800012854
:1037B00051D0012684F838600027E76394F8390077
:1037C000122819D0222084F83900A285E2854FF40E
:1037D0008058E08D4B46401EE085A0684FF0000207
:1037E00040454FF02001204616D104F050FFB0B9FB
:1037F00004E00120BDE8F0873220E4E720690028DA
:103800002068406803D0C1B225F8011B12E0C0F364
:10381000080125F8021B0DE004F039FF08B1032070
:10382000E8E7206900282068406801D000F07F00A8
:1038300005F8010BE08D0028CBD194F8390032282F
:1038400005D084F8396084F838700020D2E712205F
:1038500084F83900F7E70220CCE770477047FEE7AD
:1038600070B51B4886B00025016841F00101016078
:10387000016801F001010591016841F00401016056
:10388000016801F004010591016841F080010160C7
:103890000068032400F08000059002200126CDE995
:1038A0000204CDE9006569460A48FDF75FFF700331
:1038B00003948DE8610069460748FDF757FF0C2027
:1038C000009069460548FDF751FF06B070BD000045
:1038D000303802400000024000080240001C024054
:1038E00070B50E490E4A064608881268002422B1B7
:1038F0003046BDE8704002F0C1BD4D88002145430F
:10390000084602F015FC02F081FDB1B2054801E065
:103910000180641CAC42FBD370BD00002004002079
:103920000C050020000008602DE9F05F394C3A4D8D
:10393000A071296839B102F0C1FDE88A2080288B86
:103940006080BDE8F09F33492C232A2589884FF0F9
:10395000F00949F2413A2B2645F2105B4FF4305EF4
:103960004FF448774FF4A07845F2103C4FF4F072D2
:1039700058B1A4F80080A4F80290514501D06145E7
:1039800029D123816581A68139E0A4F80090A4F8AB
:103990000280514501D0614508D123816581A6810E
:1039A000614531D1A4F8008062802DE0594508D1ED
:1039B000A4F808E04FF4285060814FF42C50A08107
:1039C00006E0A1F5C85063381ED123816681A58128
:1039D0002280678018E0594508D1A4F808E04FF428
:1039E000285060814FF42C50A08106E0A1F5C8500A
:1039F000633804D123816581A68127806280614577
:103A000002D12280A4F80280BDE8F05F002002F01D
:103A1000B3BA0000200400200C0500202DE9F0417D
:103A200004463A480D46006820B12046BDE8F04102
:103A300002F058BD364E270A3146B0884989A0F5B4
:103A400013434FEA1528413B0CD0A0F5A643103B89
:103A500008D0A0F5AA43103B11D0A0F5C853633B92
:103A600027D04BE0084602F0C5FC384602F0B6FC11
:103A7000E0B202F0B3FCB08902F0BCFC38E00846CA
:103A800002F0B8FC384602F0A9FC7089401C80B2F4
:103A900002F0B0FCE0B202F0A1FCB08902F0AAFC96
:103AA000404602F09BFCB089401C80B202F0A2FCB0
:103AB00021E0B07918B93088001B401E84B2084656
:103AC00002F098FC270A384602F088FCE0B202F0C7
:103AD00085FC384602F082FCE0B202F07FFCB0893F
:103AE00002F088FC404602F079FCE8B202F076FC75
:103AF000404602F073FCE8B202F070FC05493089E0
:103B00000880881C0280BDE8F08100000C050020C0
:103B100020040020FEFF07602DE9F8431F46144BE8
:103B2000804608981B6833B100903B46404602F03F
:103B3000F7FCBDE8F883A2EB0802521C96B20C46D3
:103B400085B2DFF830900FE02146404602F0F0FAEF
:103B500002F05CFC0020494602E00D80401C80B26F
:103B6000B042FAD3641CA4B2BC42EDD9E1E7000034
:103B70000C050020000008602DE9F04F95B002F020
:103B80006DFEFE4D4FF0010AA5F15009A88049F2E3
:103B9000413B45F2103645F2105441F6631818B116
:103BA00002F018FD02F08BB9F5480027016841F0DA
:103BB00002010160006810A900F0020000902020BE
:103BC000CDE9100A0320CDE912A0EE48FDF7CEFDA5
:103BD0004FF020414846C9F80010EB49C0E90117F1
:103BE0001021C9F80C70C0E90471C9F818700902F5
:103BF000C9F81C70C0E909718900C0E90B71C9F8E6
:103C000034708901C9E90E7146210B910F20CDE96D
:103C10000907CDE902070490D8480F9702AA09A91D
:103C200008975038FFF711FC322005F029FAD3200D
:103C300002F0E0FB02F06EF9A88002F06BF9A880B8
:103C400002F068F94FF6FF7202EA0020A88002F045
:103C500061F9A9885F460843A880B84248D0D420BB
:103C600002F0C8FB02F056F9A88002F053F9A880D0
:103C700002F050F902EA0020A88002F04BF9A9886E
:103C80000843A880B04233D04FF45A4002F0B2FB50
:103C900002F040F9A8804FF45B4002F0ABFB02F069
:103CA00039F902EA0020A8804FF45C4002F0A2FB40
:103CB00002F030F9A9880843A880B0F5004F7DD004
:103CC000A04215D0A12002F095FB02F023F9A880B4
:103CD00002F020F902EA0020A88002F01BF9A9886E
:103CE0000843A0F5AE41A880613901D1A5F8048050
:103CF000A988A6A0FCF782FBA888B8427ED1CF2075
:103D000002F078FB002002F069FBC12002F066FBA4
:103D1000302002F063FBED2002F06CFB642002F027
:103D20005DFB032002F05AFB122002F057FB8120BA
:103D300002F054FBE82002F05DFB852002F04EFB10
:103D4000102002F04BFB7A2002F048FBCB2002F05F
:103D500051FB392002F042FB2C2002F03FFB0020F7
:103D600002F03CFB342002F039FB022002F036FB6B
:103D7000F72002F03FFB202002F030FBEA2002F0A7
:103D800039FB002002F02AFB002002F027FBC020B4
:103D900002F030FB1B2002F021FBC12002F02AFBC5
:103DA000012002F01BFBC52002F024FB302002F0B2
:103DB00015FB302002F012FBC72000E0B7E002F054
:103DC00019FBB72002F00AFB362002F013FB482053
:103DD00002F004FB3A2002F00DFB552002F0FEFA3F
:103DE000B12002F007FB002002F0F8FA1A2002F0DE
:103DF000F5FAB62002F0FEFA0A2000E099E002F09F
:103E0000EDFAA22002F0EAFAF22002F0F3FA002022
:103E100002F0E4FA262002F0EDFA012002F0DEFAC8
:103E2000E02002F0E7FA0F2002F0D8FA2A2002F090
:103E3000D5FA282002F0D2FA082002F0CFFA0E209C
:103E400002F0CCFA082002F0C9FA542002F0C6FAB7
:103E5000A92002F0C3FA432002F0C0FA0A2002F0BF
:103E6000BDFA0F2002F0BAFA002002F0B7FA0020E3
:103E700002F0B4FA002002F0B1FA002002F0AEFA2B
:103E8000E12002F0B7FA002002F0A8FA152002F0B3
:103E9000A5FA172002F0A2FA072002F09FFA1120DB
:103EA00002F09CFA062002F099FA2B2002F096FA12
:103EB000562002F093FA3C2002F090FA052002F01E
:103EC0008DFA102002F08AFA0F2002F087FA3F20C4
:103ED00002F084FA3F2002F081FA0F2002F07EFA0D
:103EE0002B2002F087FA002002F078FA002002F07E
:103EF00075FA012002F072FA3F2002F06FFA2A20D0
:103F000002F078FA002002F069FA002002F066FA66
:103F1000002002F063FAEF2002F060FA112002F0B4
:103F200069FA782005F0ACF8292001F00BBFAC80CD
:103F3000DEE6B0427ED1ED2002F05CFA012002F014
:103F40004DFAFE2002F04AFAEE2002F053FADE208B
:103F500002F044FA212002F041FAF12002F04AFA7C
:103F6000012002F03BFADF2002F044FA102002F0B8
:103F700035FAC42002F03EFA8F200FE02004002022
:103F80003038024000040240040100A0204C4344A9
:103F90002049443A25780D0A0000000002F01EFA7C
:103FA000C62002F027FA002002F018FAE22002F000
:103FB00015FAE22002F012FAE22002F00FFABF2016
:103FC00002F018FAAA2002F009FAB02002F012FA60
:103FD0000D2002F003FA002002F000FA0D2002F09A
:103FE000FDF9002002F0FAF9112002F0F7F90020A3
:103FF00002F0F4F9192002F0F1F9002002F0EEF9D4
:10400000212002F0EBF9002002F0E8F92D2002F067
:10401000E5F9002002F0E2F93D2002F0DFF900208E
:1040200002F0DCF95D2002F0D9F9002002F0D6F9A7
:104030005D2000E0FEE302F0D1F9002002F0CEF9AD
:10404000B12002F0D7F9802002F0C8F9002002F078
:10405000C5F98B2002F0C2F9002002F0BFF99620CA
:1040600002F0BCF9002002F0B9F9B22002F0C2F966
:10407000002002F0B3F9002002F0B0F9022002F0B3
:10408000ADF9002002F0AAF9032002F0A7F9002000
:1040900002F0A4F9B32002F0ADF9002002F09EF97D
:1040A000002002F09BF9002002F098F9002002F0B5
:1040B00095F9002002F092F9002002F08FF900201B
:1040C00002F08CF9002002F089F9002002F086F954
:1040D000002002F083F9002002F080F9002002F0B5
:1040E0007DF9002002F07AF9002002F077F9002033
:1040F00002F074F9002002F071F9002002F06EF96C
:10410000002002F06BF9002002F068F9002002F0B4
:1041100065F9002002F062F9002002F05FF900204A
:1041200002F05CF9002002F059F9B42002F062F9C3
:104130008B2002F053F9002002F050F9962002F093
:104140004DF9002002F04AF9A12002F047F90020C1
:1041500002F044F9B52002F04DF9022002F03EF9D8
:10416000002002F03BF9032002F038F9002002F0B1
:1041700035F9042002F032F9002002F02FF9B620C0
:1041800002F038F9002002F029F9002002F026F9A7
:10419000B72002F02FF9002002F020F9002002F0F1
:1041A0001DF93F2002F01AF9002002F017F95E20F5
:1041B00002F014F9002002F011F9642002F00EF967
:1041C000002002F00BF98C2002F008F9002002F028
:1041D00005F9AC2002F002F9002002F0FFF8DC2023
:1041E00002F0FCF8002002F0F9F8702002F0F6F876
:1041F000002002F0F3F8902002F0F0F8002002F026
:10420000EDF8EB2002F0EAF8002002F0E7F8DC20FD
:1042100002F0E4F8002002F0E1F8B82002F0EAF839
:10422000002002F0DBF8002002F0D8F8002002F0B5
:10423000D5F8002002F0D2F8002002F0CFF80020DC
:1042400002F0CCF8002002F0C9F8002002F0C6F815
:10425000BA2002F0CFF8242002F0C0F8002002F0CB
:10426000BDF8002002F0BAF8002002F0B7F8C12033
:1042700002F0C0F8202002F0B1F8002002F0AEF801
:10428000542002F0ABF8002002F0A8F8FF2002F062
:10429000A5F8002002F0A2F8C22002F0ABF80A2034
:1042A00002F09CF8002002F099F8042002F096F841
:1042B000002002F093F8C32002F09CF83C2002F0AA
:1042C0008DF8002002F08AF83A2002F087F80020EA
:1042D00002F084F8392002F081F8002002F07EF824
:1042E000372002F07BF8002002F078F83C2002F042
:1042F00075F8002002F072F8362002F06FF8002006
:1043000002F06CF8322002F069F8002002F066F842
:104310002F2002F063F8002002F060F82C2002F059
:104320005DF8002002F05AF8292002F057F800202A
:1043300002F054F8262002F051F8002002F04EF866
:10434000242002F04BF8002002F048F8242002F06C
:1043500045F8002002F042F8232002F03FF8002048
:1043600002F03CF83C2002F039F8002002F036F868
:10437000362002F033F8002002F030F8322002F04C
:104380002DF8002002F02AF82F2002F027F8002054
:1043900002F024F82C2002F021F8002002F01EF890
:1043A000292002F01BF8002002F018F8262002F065
:1043B00015F8002002F012F8242002F00FF8002077
:1043C00002F00CF8242002F009F8002002F006F8B0
:1043D000232002F003F8002002F000F8C42002F0CD
:1043E00009F8622001F0FAFF002001F0F7FF052034
:1043F00001F0F4FF002001F0F1FF842001F0EEFF56
:10440000002001F0EBFFF02001F0E8FF002001F0B8
:10441000E5FF182001F0E2FF002001F0DFFFA420FB
:1044200001F0DCFF002001F0D9FF182001F0D6FFD9
:10443000002001F0D3FF502001F0D0FF002001F058
:10444000CDFF0C2001F0CAFF002001F0C7FF1720AC
:1044500001F0C4FF002001F0C1FF952001F0BEFF74
:10446000002001F0BBFFF32001F0B8FF002001F0B5
:10447000B5FFE62001F0B2FF002001F0AFFFC5203C
:1044800001F0B8FF322001F0A9FF002001F0A6FFE3
:10449000442001F0A3FF002001F0A0FF652001F0FF
:1044A0009DFF002001F09AFF762001F097FF002089
:1044B00001F094FF882001F091FF002001F08EFFB1
:1044C000C62001F097FF202001F088FF002001F0B6
:1044D00085FF172001F082FF002001F07FFF0120FF
:1044E00001F07CFF002001F079FFC72001F082FF7E
:1044F000002001F073FF002001F070FF002001F0A8
:104500006DFF002001F06AFFC82001F073FF00205A
:1045100001F064FF002001F061FF002001F05EFF68
:10452000002001F05BFFC92001F064FF002001F0D2
:1045300055FF002001F052FF002001F04FFF002046
:1045400001F04CFF002001F049FF002001F046FF80
:10455000002001F043FF002001F040FF002001F0A7
:104560003DFF002001F03AFF002001F037FF00205E
:1045700001F034FF002001F031FF002001F02EFF98
:10458000002001F02BFF002001F028FFE02001F0C7
:1045900031FF162001F022FF002001F01FFF1C2038
:1045A00001F01CFF002001F019FF212001F016FF8F
:1045B000002001F013FF362001F010FF002001F071
:1045C0000DFF462001F00AFF002001F007FF5220F6
:1045D00001F004FF002001F001FF642001F0FEFE65
:1045E000002001F0FBFE7A2001F0F8FE002001F02F
:1045F000F5FE8B2001F0F2FE002001F0EFFE992085
:1046000001F0ECFE002001F0E9FEA82001F0E6FE3A
:10461000002001F0E3FEB92001F0E0FE002001F0EF
:10462000DDFEC42001F0DAFE002001F0D7FECA2032
:1046300001F0D4FE002001F0D1FED22001F0CEFE28
:10464000002001F0CBFED92001F0C8FE002001F0CF
:10465000C5FEE02001F0C2FE002001F0BFFEF32005
:1046600001F0BCFE002001F0B9FEE12001F0C2FE25
:10467000162001F0B3FE002001F0B0FE1C2001F076
:10468000ADFE002001F0AAFE222001F0A7FE0020CE
:1046900001F0A4FE362001F0A1FE002001F09EFEF4
:1046A000452001F09BFE002001F098FE522001F011
:1046B00095FE002001F092FE642001F08FFE0020A4
:1046C00001F08CFE7A2001F089FE002001F086FEC8
:1046D0008B2001F083FE002001F080FE992001F084
:1046E0007DFE002001F07AFEA82001F077FE002078
:1046F00001F074FEB92001F071FE002001F06EFEA1
:10470000C42001F06BFE002001F068FECA2001F019
:1047100065FE002001F062FED22001F05FFE002065
:1047200001F05CFED82001F059FE002001F056FE99
:10473000E02001F053FE002001F050FEF32001F0D4
:104740004DFE002001F04AFEE22001F053FE05205C
:1047500001F044FE002001F041FE0B2001F03EFE7E
:10476000002001F03BFE1B2001F038FE002001F08C
:1047700035FE342001F032FE002001F02FFE4420EF
:1047800001F02CFE002001F029FE4F2001F026FE52
:10479000002001F023FE612001F020FE002001F046
:1047A0001DFE792001F01AFE002001F017FE88207E
:1047B00001F014FE002001F011FE972001F00EFE22
:1047C000002001F00BFEA62001F008FE002001F001
:1047D00005FEB72001F002FE002001F0FFFDC2201F
:1047E00001F0FCFD002001F0F9FDC72001F0F6FD0D
:1047F000002001F0F3FDD12001F0F0FD002001F0D8
:10480000EDFDD62001F0EAFD002001F0E7FDDD20FE
:1048100001F0E4FD002001F0E1FDF32001F0DEFDF8
:10482000002001F0DBFDE32001F0E4FD052001F0B4
:10483000D5FD00E00AE3002001F0D0FD0A2001F0E0
:10484000CDFD002001F0CAFD1C2001F0C7FD0020B5
:1048500001F0C4FD332001F0C1FD002001F0BEFDD8
:10486000442001F0BBFD002001F0B8FD502001F014
:10487000B5FD002001F0B2FD622001F0AFFD002087
:1048800001F0ACFD782001F0A9FD002001F0A6FDAB
:10489000882001F0A3FD002001F0A0FD972001F089
:1048A0009DFD002001F09AFDA62001F097FD00205B
:1048B00001F094FDB72001F091FD002001F08EFD84
:1048C000C22001F08BFD002001F088FDC72001F01F
:1048D00085FD002001F082FDD12001F07FFD002048
:1048E00001F07CFDD52001F079FD002001F076FD7E
:1048F000DD2001F073FD002001F070FDF32001F0D8
:104900006DFD002001F06AFDE42001F073FD01203F
:1049100001F064FD002001F061FD012001F05EFD69
:10492000002001F05BFD022001F058FD002001F0A5
:1049300055FD2A2001F052FD002001F04FFD3C20E2
:1049400001F04CFD002001F049FD4B2001F046FD37
:10495000002001F043FD5D2001F040FD002001F04A
:104960003DFD742001F03AFD002001F037FD842068
:1049700001F034FD002001F031FD932001F02EFD07
:10498000002001F02BFDA22001F028FD002001F005
:1049900025FDB32001F022FD002001F01FFDBE2007
:1049A00001F01CFD002001F019FDC42001F016FDEE
:1049B000002001F013FDCD2001F010FD002001F0DA
:1049C0000DFDD32001F00AFD002001F007FDDD20E0
:1049D00001F004FD002001F001FDF32001F0FEFCD8
:1049E000002001F0FBFCE52001F004FD002001F0B7
:1049F000F5FC002001F0F2FC002001F0EFFC0020AB
:104A000001F0ECFC022001F0E9FC002001F0E6FCE2
:104A1000292001F0E3FC002001F0E0FC3C2001F043
:104A2000DDFC002001F0DAFC4B2001F0D7FC002077
:104A300001F0D4FC5D2001F0D1FC002001F0CEFC9F
:104A4000742001F0CBFC002001F0C8FC842001F0B0
:104A5000C5FC002001F0C2FC932001F0BFFC002047
:104A600001F0BCFCA22001F0B9FC002001F0B6FC72
:104A7000B32001F0B3FC002001F0B0FCBE2001F037
:104A8000ADFC002001F0AAFCC42001F0A7FC00202E
:104A900001F0A4FCCD2001F0A1FC002001F09EFC5F
:104AA000D32001F09BFC002001F098FCDC2001F0F9
:104AB00095FC002001F092FCF32001F08FFC002017
:104AC00001F08CFCE62001F095FC112001F086FC41
:104AD000002001F083FC342001F080FC002001F074
:104AE0007DFC562001F07AFC002001F077FC762056
:104AF00001F074FC002001F071FC772001F06EFCE5
:104B0000002001F06BFC662001F068FC002001F041
:104B100065FC882001F062FC002001F05FFC992018
:104B200001F05CFC002001F059FCBB2001F056FCB8
:104B3000002001F053FC992001F050FC002001F00E
:104B40004DFC662001F04AFC002001F047FC552096
:104B500001F044FC002001F041FC552001F03EFC36
:104B6000002001F03BFC452001F038FC002001F062
:104B700035FC432001F032FC002001F02FFC4420E2
:104B800001F02CFC002001F029FCE72001F032FCB0
:104B9000322001F023FC002001F020FC552001F020
:104BA0001DFC002001F01AFC762001F017FC00200B
:104BB00001F014FC662001F011FC002001F00EFC55
:104BC000672001F00BFC002001F008FC672001F0D9
:104BD00005FC002001F002FC872001F0FFFB002013
:104BE00001F0FCFB992001F0F9FB002001F0F6FB3D
:104BF000BB2001F0F3FB002001F0F0FB992001F055
:104C0000EDFB002001F0EAFB772001F0E7FB00203C
:104C100001F0E4FB442001F0E1FB002001F0DEFBA9
:104C2000562001F0DBFB002001F0D8FB232001F02F
:104C3000D5FB002001F0D2FB332001F0CFFB002098
:104C400001F0CCFB452001F0C9FB002001F0C6FBC0
:104C5000E82001F0CFFB002001F0C0FB002001F0B4
:104C6000BDFB992001F0BAFB002001F0B7FB8720C3
:104C700001F0B4FB002001F0B1FB882001F0AEFB95
:104C8000002001F0ABFB772001F0A8FB002001F031
:104C9000A5FB662001F0A2FB002001F09FFB88200D
:104CA00001F09CFB002001F099FBAA2001F096FB8B
:104CB000002001F093FBBB2001F090FB002001F0ED
:104CC0008DFB992001F08AFB002001F087FB662014
:104CD00001F084FB002001F081FB552001F07EFBF8
:104CE000002001F07BFB552001F078FB002001F053
:104CF00075FB442001F072FB002001F06FFB4420A3
:104D000001F06CFB002001F069FB552001F066FB0F
:104D1000002001F063FBE92001F06CFBAA2001F008
:104D20005DFB002001F05AFB002001F057FB002042
:104D300001F054FB002001F05DFBAA2001F04EFBC6
:104D4000CF2001F057FB002001F048FB002001F0CC
:104D500045FB002001F042FB002001F03FFB00205A
:104D600001F03CFB002001F039FB002001F036FB94
:104D7000002001F033FB002001F030FB002001F0A7
:104D80002DFB002001F02AFB002001F027FB002072
:104D900001F024FB002001F021FB002001F01EFBAC
:104DA000002001F01BFB002001F018FBF02001F0B7
:104DB00021FB002001F012FB502001F00FFB00202E
:104DC00001F00CFB002001F009FB002001F006FBC4
:104DD000F32001F00FFB002001F000FBF92001F0AF
:104DE00009FB062001F0FAFA102001F0F7FA292059
:104DF00001F0F4FA002001F0F1FA3A2001F0FAFA99
:104E0000552001F0EBFA112001F0F4FA642004F0CF
:104E100037F9292001F0EEFA352001F0EBFA0020F5
:104E200001F0DCFA512001F0E5FAFF2001F0D6FA9A
:104E3000532001F0DFFA2C2001F0D0FA552001F0C8
:104E4000D9FA822001F0CAFA2C20FDE3A0427DD1DC
:104E50004FF470435521184601F0E2FA4FF2010772
:104E6000AA21384601F0DCFA5221781C01F0D8FA68
:104E70000821B81C01F0D4FA0121F81C01F0D0FA85
:104E80000D214FF4304001F0CBFA0D214BF201001F
:104E900001F0C6FA0D214BF2020001F0C1FA3421F3
:104EA0004FF4364001F0BCFA34214BF2016001F0BE
:104EB000B7FA34214BF2026001F0B2FA0D214FF43F
:104EC000314001F0ADFA0D214BF2011001F0A8FACA
:104ED0000D214BF2021001F0A3FA34214FF43740B8
:104EE00001F09EFA34214BF2017001F099FA34215D
:104EF0004BF2027001F094FA00214FF4324001F0BD
:104F00008FFA00214BF2012001F08AFA00214BF2C6
:104F1000022001F085FA24214FF4384001F080FA94
:104F200024214BF6010001F07BFA24214BF602000C
:104F300001F076FA01214FF43F4001F071FA0F21A0
:104F40004FF4334001F06CFA0F2100E0FEE34BF226
:104F5000013001F065FA0F214BF2023001F060FAE6
:104F600034214FF4394001F05BFA34214BF6011043
:104F700001F056FA34214BF6021001F051FA0821E3
:104F80004FF4354001F04CFA08214BF2015001F08A
:104F900047FA08214BF2025001F042FA03214FF484
:104FA000424001F03DFA24214FF43A4001F038FA32
:104FB00024214BF6012001F033FA24214BF6022084
:104FC00001F02EFA00214FF43C4001F029FA78213B
:104FD0004BF6014001F024FA00214BF6024001F0AB
:104FE0001FFA00214FF43D4001F01AFA78214BF6E8
:104FF000015001F015FA00214BF6025001F010FAB1
:1050000000214FF43E4001F00BFA64214BF60160A1
:1050100001F006FA00214FF4514001F001FA33216A
:105020004DF2011001F0FCF900214DF2021001F0E7
:10503000F7F934214DF2031001F0F2F900214DF29D
:10504000041001F0EDF93A214DF2051001F0E8F9F4
:1050500000214DF2061001F0E3F94A214DF207104C
:1050600001F0DEF900214DF2081001F0D9F95C21C0
:105070004DF2091001F0D4F900214DF20A1001F0AF
:10508000CFF981214DF20B1001F0CAF900214DF248
:105090000C1001F0C5F9A6214DF20D1001F0C0F978
:1050A00000214DF20E1001F0BBF9E5214DF20F1079
:1050B00001F0B6F901214DF2101001F0B1F9132100
:1050C0004DF2111001F0ACF901214DF2121001F076
:1050D000A7F954214DF2131001F0A2F901214DF26C
:1050E000141001F09DF982214DF2151001F098F98C
:1050F00001214DF2161001F093F9CA214DF217105B
:1051000001F08EF902214DF2181001F089F9002109
:105110004DF2191001F084F902214DF21A1001F03C
:105120007FF901214DF21B1001F07AF902214DF2B5
:105130001C1001F075F934214DF21D1001F070F9C9
:1051400002214DF21E1001F06BF967214DF21F1084
:1051500001F066F902214DF2201001F061F984217D
:105160004DF2211001F05CF902214DF2221001F004
:1051700057F9A4214DF2231001F052F902214DF20A
:10518000241001F04DF9B7214DF2251001F048F936
:1051900002214DF2261001F043F9CF214DF22710E4
:1051A00001F03EF902214DF2281001F039F9DE211B
:1051B0004DF2291001F034F902214DF22A1001F0CC
:1051C0002FF9F2214DF22B1001F02AF902214DF2B4
:1051D0002C1001F025F9FE214DF22D1001F020F9DF
:1051E00003214DF22E1001F01BF910214DF22F106A
:1051F00001F016F903214DF2301001F011F93321BD
:105200004DF2311001F00CF903214DF2321001F092
:1052100007F96D214DF2331001F002F900214FF42E
:10522000524001F0FDF833214DF2012001F0F8F871
:1052300000214DF2022001F0F3F834214DF2032059
:1052400001F0EEF800214DF2042001F0E9F83A21D6
:105250004DF2052001F0E4F800214DF2062001F0A6
:10526000DFF84A214DF2072001F0DAF800214DF273
:10527000082001F0D5F85C214DF2092001F0D0F8AA
:1052800000214DF20A2001F0CBF881214DF20B20D4
:1052900001F0C6F800214DF20C2001F0C1F8A62162
:1052A0004DF20D2001F0BCF800214DF20E2001F06E
:1052B000B7F8E5214DF20F2001F0B2F801214DF2CF
:1052C000102001F0ADF813214DF2112001F0A8F8E3
:1052D00001214DF2122001F0A3F854214DF21320C8
:1052E00001F09EF801214DF2142001F099F882217D
:1052F0004DF2152001F094F801214DF2162001F035
:105300008FF8CA214DF2172001F08AF802214DF2E0
:10531000182001F085F800214DF2192001F080F8E5
:1053200002214DF21A2001F07BF801214DF21B20E1
:1053300001F076F802214DF21C2001F071F83421C1
:105340004DF21D2001F06CF802214DF21E2001F0FB
:1053500067F867214DF21F2001F062F802214DF23B
:10536000202001F05DF884214DF2212001F058F851
:1053700002214DF2222001F053F8A4214DF2232006
:1053800001F04EF802214DF2242001F049F8B72136
:105390004DF2252001F044F802214DF2262001F0C3
:1053A0003FF8CF214DF2272001F03AF802214DF2CB
:1053B000282001F035F8DE214DF2292001F030F8E7
:1053C00002214DF22A2001F02BF8F2214DF22B2080
:1053D00001F026F802214DF22C2001F021F8FE21E7
:1053E0004DF22D2001F01CF803214DF22E2001F08A
:1053F00017F810214DF22F2001F012F803214DF281
:10540000302001F00DF833214DF2312001F008F881
:1054100003214DF2322001F003F86D214DF23320CB
:1054200000F0FEFF00214FF4534000F0F9FF33215C
:105430004DF2013000F0F4FF00214DF2023000F097
:10544000EFFF34214DF2033000F0EAFF00214DF26E
:10545000043000F0E5FF3A214DF2053000F0E0FFA6
:1054600000214DF2063000F0DBFF4A214DF20730FB
:1054700000F0D6FF00214DF2083000F0D1FF5C2192
:105480004DF2093000F0CCFF00214DF20A3000F05F
:10549000C7FF81214DF20B3000F0C2FF00214DF219
:1054A0000C3000F0BDFFA6214DF20D3000F0B8FF2A
:1054B00000214DF20E3000F0B3FFE5214DF20F3028
:1054C00000F0AEFF01214DF2103000F0A9FF1321D2
:1054D0004DF2113000F0A4FF01214DF2123000F026
:1054E0009FFF54214DF2133000F09AFF01214DF23D
:1054F000143000F095FF82214DF2153000F090FF3E
:1055000001214DF2163000F08BFFCA214DF2173009
:1055100000F086FF02214DF2183000F081FF0021DB
:105520004DF2193000F07CFF02214DF21A3000F0EC
:1055300077FF01214DF21B3000F072FF02214DF286
:105540001C3000F06DFF34214DF21D3000F068FF7B
:1055500002214DF21E3000F063FF67214DF21F3033
:1055600000F05EFF02214DF2203000F059FF84214F
:105570004DF2213000F054FF02214DF2223000F0B4
:105580004FFFA4214DF2233000F04AFF02214DF2DB
:10559000243000F045FFB7214DF2253000F040FFE8
:1055A00002214DF2263000F03BFFCF214DF2273093
:1055B00000F036FF02214DF2283000F031FFDE21ED
:1055C0004DF2293000F02CFF02214DF22A3000F07C
:1055D00027FFF2214DF22B3000F022FF02214DF285
:1055E0002C3000F01DFFFE214DF22D3000F018FF91
:1055F00003214DF22E3000F013FF10214DF22F3019
:1056000000F00EFF03214DF2303000F009FF33218E
:105610004DF2313000F004FF03214DF2323000F042
:10562000FFFE6D214DF2333000F0FAFE00214FF401
:10563000544000F0F5FE33214DF2014000F0F0FE41
:1056400000214DF2024000E07CE300F0E9FE34214D
:105650004DF2034000F0E4FE00214DF2044000F062
:10566000DFFE3A214DF2054000F0DAFE00214DF256
:10567000064000F0D5FE4A214DF2074000F0D0FE72
:1056800000214DF2084000F0CBFE5C214DF20940B4
:1056900000F0C6FE00214DF20A4000F0C1FE81215B
:1056A0004DF20B4000F0BCFE00214DF20C4000F02A
:1056B000B7FEA6214DF20D4000F0B2FE00214DF2E2
:1056C0000E4000F0ADFEE5214DF20F4000F0A8FEC7
:1056D00001214DF2104000F0A3FE13214DF21140C4
:1056E00000F09EFE01214DF2124000F099FE54217F
:1056F0004DF2134000F094FE01214DF2144000F0F1
:105700008FFE82214DF2154000F08AFE01214DF2FC
:10571000164000F085FECA214DF2174000F080FED1
:1057200002214DF2184000F07BFE00214DF219409D
:1057300000F076FE02214DF21A4000F071FE0121C8
:105740004DF21B4000F06CFE022100E0FDE24DF244
:105750001C4000F065FE34214DF21D4000F060FE5B
:1057600002214DF21E4000F05BFE67214DF21F400A
:1057700000F056FE02214DF2204000F051FE84213F
:105780004DF2214000F04CFE02214DF2224000F08B
:1057900047FEA4214DF2234000F042FE02214DF2CB
:1057A000244000F03DFEB7214DF2254000F038FEC8
:1057B00002214DF2264000F033FECF214DF227406A
:1057C00000F02EFE02214DF2284000F029FEDE21DD
:1057D0004DF2294000F024FE02214DF22A4000F053
:1057E0001FFEF2214DF22B4000F01AFE02214DF275
:1057F0002C4000F015FEFE214DF22D4000F010FE71
:1058000003214DF22E4000F00BFE10214DF22F40EF
:1058100000F006FE03214DF2304000F001FE33217E
:105820004DF2314000F0FCFD03214DF2324000F01A
:10583000F7FD6D214DF2334000F0F2FD00214FF4F1
:10584000554000F0EDFD33214DF2015000F0E8FD30
:1058500000214DF2025000F0E3FD34214DF20350DF
:1058600000F0DEFD00214DF2045000F0D9FD3A2198
:105870004DF2055000F0D4FD00214DF2065000F02D
:10588000CFFD4A214DF2075000F0CAFD00214DF234
:10589000085000F0C5FD5C214DF2095000F0C0FD3C
:1058A00000214DF20A5000F0BBFD81214DF20B505A
:1058B00000F0B6FD00214DF20C5000F0B1FDA62124
:1058C0004DF20D5000F0ACFD00214DF20E5000F0F5
:1058D000A7FDE5214DF20F5000F0A2FD01214DF290
:1058E000105000F09DFD13214DF2115000F098FD75
:1058F00001214DF2125000F093FD54214DF213504E
:1059000000F08EFD01214DF2145000F089FD82213E
:105910004DF2155000F084FD01214DF2165000F0BB
:105920007FFDCA214DF2175000F07AFD02214DF2A1
:10593000185000F075FD00214DF2195000F070FD77
:1059400002214DF21A5000F06BFD01214DF21B5067
:1059500000F066FD02214DF21C5000F061FD342183
:105960004DF21D5000F05CFD02214DF21E5000F082
:1059700057FD67214DF21F5000F052FD02214DF2FC
:10598000205000F04DFD84214DF2215000F048FDE3
:1059900002214DF2225000F043FDA4214DF223508C
:1059A00000F03EFD02214DF2245000F039FDB721F8
:1059B0004DF2255000F034FD02214DF2265000F04A
:1059C0002FFDCF214DF2275000F02AFD02214DF28C
:1059D000285000F025FDDE214DF2295000F020FD79
:1059E00002214DF22A5000F01BFDF2214DF22B5006
:1059F00000F016FD02214DF22C5000F011FDFE21A9
:105A00004DF22D5000F00CFD03214DF22E5000F010
:105A100007FD10214DF22F5000F002FD03214DF241
:105A2000305000F0FDFC33214DF2315000F0F8FC15
:105A300003214DF2325000F0F3FC6D214DF2335052
:105A400000F0EEFC00214FF4564000F0E9FC332159
:105A50004DF2016000F0E4FC00214DF2026000F024
:105A6000DFFC34214DF2036000F0DAFC00214DF23E
:105A7000046000F0D5FC3A214DF2056000F0D0FC46
:105A800000214DF2066000F0CBFC4A214DF2076088
:105A900000F0C6FC00214DF2086000F0C1FC5C2162
:105AA0004DF2096000F0BCFC00214DF20A6000F0EC
:105AB000B7FC81214DF20B6000F0B2FC00214DF2E9
:105AC0000C6000F0ADFCA6214DF20D6000F0A8FCCA
:105AD00000214DF20E6000F0A3FCE5214DF20F60B5
