:020000040800F2
:10000000B8C8022071020008717900080F3C00088E
:10001000BF6F0008310A0008859300080000000047
:10002000000000000000000000000000CF85000874
:100030007D0B00080000000093790008B58B0008D4
:100040008B0200088B0200088B0200088B0200085C
:100050008B0200088B0200088B0200088B0200084C
:100060008B0200088B0200088B0200088B0200083C
:100070008B0200088B0200088B0200088B0200082C
:100080008B0200088B0200088B0200088B0200081C
:100090008B0200088B0200088B0200088B0200080C
:1000A0008B0200088B0200088B0200088B020008FC
:1000B0008B0200080D8C00088B0200088B020008E0
:1000C0008B0200088B0200088B0200088B020008DC
:1000D0008B020008F59100088B0200088B020008D3
:1000E0008B0200088B0200088B0200088B020008BC
:1000F0008B0200088B0200088B0200088B020008AC
:100100008B0200088B0200088B0200088B0200089B
:100110008B0200088B0200088B0200088B0200088B
:100120008B0200088B0200088B0200088B0200087B
:100130008B0200088B0200088B0200088B0200086B
:100140008B0200088B0200088B0200088B0200085B
:100150008B0200088B0200088B0200088B0200084B
:100160008B0200088B0200088B0200088B0200083B
:100170008B0200088B0200088B02000800000000C0
:100180008B0200088B0200088B0200088B0200081B
:100190008B0200088B0200088B0200088B0200080B
:1001A0008B0200088B0200088B02000800F002F8A6
:1001B00000F047F80AA090E8000C82448344AAF1BA
:1001C0000107DA4501D100F03CF8AFF2090EBAE8B8
:1001D0000F0013F0010F18BFFB1A43F0010318477B
:1001E000F4FE000014FF0000103A24BF78C878C164
:1001F000FAD8520724BF30C830C144BF04680C602D
:10020000704700000023002400250026103A28BF74
:1002100078C1FBD8520728BF30C148BF0B60704778
:10022000642900F02781782900F06081732900F0AB
:100230000783002070471FB50CF052FD1FBD10B59D
:1002400010BD00F02FFB1146FFF7F5FF0BF0B4FDDA
:1002500000F04DFB03B4FFF7F2FF03BC09F02CFAEA
:1002600030BF72B6704762B6704780F30888704737
:100270000948804709480047FEE7FEE7FEE7FEE73A
:10028000FEE7FEE7FEE7FEE7FEE7FEE70448054976
:10029000054A064B70470000B98B0008AD01000805
:1002A000B8C20220B8C80220B8C40220B8C40220D4
:1002B000704753EA020C00F069802DE9F04B4FF0D3
:1002C0000006002B1FBFB3FA83F503FA05F424FAE6
:1002D00005F65E4012BF1643B2FA82F502FA05F443
:1002E000C5F120051EBF22FA05FC44EA0C042035A6
:1002F00056EA044C4FEA144418BF641C4FF000083F
:100300004FF00009904271EB030C39D3002919BF5B
:10031000B1FA81F701FA07F6B0FA80F700FA07F6AA
:10032000C7F120071EBF20FA07FC46EA0C0620375B
:10033000B6FBF4FCA7EB0507103F07F01F0BCBF152
:1003400020060CFA0BFB2CFA06F644BFB346002637
:10035000202FA4BF5E464FF0000B5BEA060C08BFDF
:100360004FF0010B19EB0B09ABFB027C48EB0608C5
:10037000C01B06FB02CC0BFB03CC71EB0C01C1E7ED
:100380000B46024641464846BDE8F08B13B54FF098
:1003900000004FF00001AFF30080BDE81C40704743
:1003A0000FB4044910B503AA029800F04DFA10BC2E
:1003B0005DF814FBC00000202DE9F0410E46044614
:1003C000002020622046E168884730B3252805D008
:1003D000D4E901219047206A401CF2E7E1682046F9
:1003E00000278847050018D0A5F14100192802D838
:1003F00020354FF400673246294620462760FFF734
:100400000FFF40B1012804D0F61D26F0070608367C
:10041000D8E7361DD6E72846DAE7206ABDE8F0813E
:1004200070B50C460546012A05D02878800600D50F
:10043000EA69002302E0012305E05B1C934202D23B
:10044000E05C0028F9D1A869E618C01AA861286AFA
:10045000184428622846AFF3008004E0D5E9012162
:1004600014F8010B9047B442F8D32846AFF300804C
:1004700070BD00002DE9F041064600241068752982
:10048000314616A510D0AFF30080002802DA4042B2
:1004900013A507E031688A0701D512A502E04907D4
:1004A00004D511A5012401E0AFF3008000210A2248
:1004B00006F1240709E0B0FBF2FCB0FBF2F302FB0B
:1004C0001C00303078541846491C0028F3D12346CC
:1004D0002A463046BDE8F04100F047B90000000070
:1004E0002D0000002B0000002000000070B5044625
:1004F0000D4621461068AFF300802188090502D51A
:100500000F4A7A4402E00E4A7A440E32002104F186
:10051000240305E000F00F060009965D5E54491CB7
:100520000028F7D120780023000704D5702D02D0D1
:1005300009B1022311322046BDE8704000F015B920
:10054000A4FB000040EA0103024630B59B0710D12E
:100550004FF0013400E008C208C91D1B9D4315EA95
:10056000C41FF8D013F0FF0102F8011B0DD01B0AC5
:10057000F8E711F8013B002B02F8013B05D011F818
:10058000013B002B02F8013BF3D130BD10B5431CF9
:1005900002E010F8011B71B18107FAD14FF001326E
:1005A00002C88C1A8C4314EAC211F9D0C01A0A0688
:1005B00003D0C01E10BDC01A10BD0A0401D0801E99
:1005C00010BD0902FCD0401E10BD421E12F8013FB2
:1005D000002BFBD111F8013B002B02F8013BF9D1B4
:1005E0007047032A40F2308010F0030C00F01580B1
:1005F00011F8013BBCF1020F624498BF11F801CB26
:1006000000F8013B38BF11F8013BA2F1040298BF8A
:1006100000F801CB38BF00F8013B11F0030300F0F4
:100620002580083AC0F0088051F8043B083A51F898
:1006300004CBA0E80810F5E7121D5CBF51F8043B9D
:1006400040F8043BAFF30080D20724BF11F8013B10
:1006500011F801CB48BF11F8012B24BF00F8013B72
:1006600000F801CB48BF00F8012B704710B5203AC5
:10067000C0F00B80B1E81850203AA0E81850B1E85B
:100680001850A0E81850BFF4F5AF5FEA027C24BF11
:10069000B1E81850A0E8185044BF18C918C0BDE808
:1006A00010405FEA827C24BF51F8043B40F8043BD1
:1006B00008BF7047D20728BF31F8023B48BF11F886
:1006C000012B28BF20F8023B48BF00F8012B7047E0
:1006D0004FF000020429C0F0128010F0030C00F06B
:1006E0001B80CCF1040CBCF1020F18BF00F8012BE9
:1006F000A8BF20F8022BA1EB0C0100F00DB85FEAB7
:10070000C17C24BF00F8012B00F8012B48BF00F882
:10071000012B70474FF0000200B5134694469646F1
:10072000203922BFA0E80C50A0E80C50B1F1200104
:10073000BFF4F7AF090728BFA0E80C5048BF0CC0B2
:100740005DF804EB890028BF40F8042B08BF704710
:1007500048BF20F8022B11F0804F18BF00F8012B82
:10076000704770477047704770472DE9F0470D4656
:1007700099469246044600F124080168880604D58B
:10078000E06921F01001216000E00120A84201DDB4
:10079000471B00E00027A1697A1902EB0900081A3B
:1007A000A0612078C00602D42046AFF30080002666
:1007B00008E0D4E901211AF806009047206A401C9D
:1007C000761C20624E45F4DB2078C0060AD5204610
:1007D000AFF3008006E0D4E9012130209047206A81
:1007E000401C2062381EA7F10107F4DC07E0D4E9C1
:1007F000012118F805009047206A401C2062281E3D
:10080000A5F10105F3DC2046AFF300802078000657
:1008100002D50220BDE8F0870120FBE710B543694F
:1008200013B1AFF3008001E0FFF7FAFD012010BD26
:10083000127800F124010A7000224A700122EDE7CB
:1008400011684FF0FF32E9E7074B70B50D467B4466
:1008500000F011F80446284600F020F810B14FF0DF
:10086000FF3070BD204670BD6BB0000001694A1CAE
:1008700002610878704700B58FB0CDE901310021E1
:10088000059105497944CDE9031011466846FFF703
:1008900093FD0FB000BD0000E5FFFFFF007B00F0FF
:1008A00080007047754600F02BF8AE46050069469B
:1008B000534620F00700854618B020B5FFF7E6FC48
:1008C000BDE820404FF000064FF000074FF0000851
:1008D0004FF0000B21F00701AC46ACE8C009ACE8D2
:1008E000C009ACE8C009ACE8C0098D46704710B536
:1008F0000446AFF300802046BDE81040FFF7AABCD5
:100900000048704754C20220521E8A4206DD00EBA6
:10091000420333F8023C20F81230F5E7202220F899
:10092000112070472DE9FC47002581462F46009590
:100930004FF0FF384FF41471284601950BF0B2FCCC
:1009400004006FF0010607D0012249460AF0DAF9E7
:1009500030B13046BDE8FC872FA0FFF721FDF8E756
:10096000266934E00097314B012269462046019701
:100970000AF06DFB9DF8000007F05CF810F0FF0234
:10098000206B07D0012A22D9311A501E814209DA80
:100990000120DFE7214600200BF078FC204609F01B
:1009A00099FDF5E7214B20460DF10101521E0AF099
:1009B0004EFB684600F0B0F9022804D00128E9D0C7
:1009C000401C04D117E06D1CEDB2052D0AD0206B40
:1009D000B042C7D1204609F07DFD214600200BF032
:1009E00055FC06E0214600200BF050FC204609F0A3
:1009F00071FD0220AEE78DF80270684600F08CF9B8
:100A00000128C7D0214600200BF040FC204609F009
:100A100061FD40469EE70000616C6C6F6361746528
:100A2000206661696C65640D0A00000014010020F5
:100A3000FEE7802809D3E02801D303207047C028AF
:100A400001D302207047002070470120704700004A
:100A50002DE9FF4F83B000278B4681461C46ADF839
:100A600008701F2138460BF01DFC01906421002006
:100A70000BF018FC00904FF4147100200BF012FCE6
:100A80008246009870B12146FFF75CFD0122504676
:100A900000990AF037F938B12DA0FFF781FC07B0B3
:100AA000BDE8F08F2EA0F8E7DAF810803DE04FEABD
:100AB000E871002508EBD160691E01EB60141F216D
:100AC0000198FFF705FE27E0281900EBD0704610CB
:100AD0007201D317504609F02EFD254B022202A9C0
:100AE00050460AF0B4FA0028D9D139F81700BDF8F9
:100AF000081088420AD152464FF01F01019809F0B0
:100B0000F8FC01990598FFF760FD07E002D2A6F115
:100B1000010401E006F10105A542D5DDA54203DD92
:100B200014A10598FFF751FD7F1C5F45BFDB5046C0
:100B300009F0D0FC514600200BF0A8FB00200099E2
:100B40000BF0A4FB002001990BF0A0FBA7E700002D
:100B50006F70656E206572726F720D0A0000000082
:100B6000616C6C6F63617465206572726F720A00EC
:100B70001401002030303030303000007047000069
:100B80002DE9FF4F064683B00020814601900D46B7
:100B900008889246A0F59C412F46B1F5A44F09D391
:100BA000A0F55051B1F5CE5F04D3A0F57940B0F572
:100BB000007F01D2012000E00020804679E02888F3
:100BC000A0F59C41B1F5A44F09D3A0F55051B1F562
:100BD000CE5F04D3A0F57941B1F5007F01D20124A5
:100BE00000E00024444500D024B1444534D094B3FF
:100BF0002F4634E0E81B4FEA600B4FEA4B01002020
:100C00000BF050FB5FEA000801D000200CE02BA0A5
:100C1000FFF7C6FB6FF0010007B0BDE8F08F37F8B3
:100C2000102028F81020401C59465845F7DB06983C
:100C30000A46009001AB4146304607F03DFF814433
:100C40000198414606EB4006288826F8020B002052
:100C50000BF01CFB03E0FFE70CB926F8020BAAF12E
:100C60000100AD1CA0465FEA000AA8D1B8F1000F50
:100C700022D0E81B4410610000200BF013FB8346D8
:100C8000002004E037F810202BF81020401CA04270
:100C9000F8DB0698009001AB22465946304607F033
:100CA0000BFF81440198594606EB400600200BF0EB
:100CB000EDFABAF1000F82D14846ADE7616C6C6F76
:100CC00063617465206572726F72210D0A00000005
:100CD00070B5A4B00D4604468C216846FFF71AFD96
:100CE000062095FBF0F500216B460BE001EB41027D
:100CF000C1EBC10004EB42021844166806609288FA
:100D00008280491CA942F1DB6B46C8221E2128467D
:100D100005F0E0FD24B070BD30B505464FF0FF345E
:100D20000AF058FF411C04D003280DD002280BD034
:100D300008E028460AF02BFF012805D0032803D03D
:100D4000401C02D06FF0010030BD204630BD0000D5
:100D5000FEB51B4C0125206910B1606948B111E056
:100D6000606809F0B7FB002061680BF08FFA25611D
:100D700007E0A06809F0AEFB0020A1680BF086FA3E
:100D8000656125704FF6FF7002F0F8FF20250DA079
:100D9000CDE9000500244FF448762B463246282141
:100DA00002941E2007F0C0FC0DA0CDE90005202311
:100DB0003246502102941E2007F0B6FCFEBD000012
:100DC00000000020505245535320574B5F55502090
:100DD0004F50454E205554465F38205445585400D6
:100DE0005052455353204B455931204F50454E20CA
:100DF00047424B205445585400000000102A0FD0A1
:100E0000C26AD1E9002342EA03220B89097B4FEA37
:100E1000034343EA016142EA010203D1C26002E0F6
:100E2000C268EEE7C2624FF000007047102A0FD090
:100E3000826AD1E9002342EA03220B89097B4FEA47
:100E4000034343EA016142EA010203D1826002E006
:100E50008268EEE782624FF00000704730B50A68A2
:100E6000102A1AD0026A104B02EA0302D1E90134B7
:100E700043EA0403D1E9034544EA050443EA0403D1
:100E80004C69896943EA442343EA413141EA02015A
:100E900041F0080103D1016002E00268E3E701626A
:100EA0004FF0000030BD00008101F0FF70B5B3F5D8
:100EB000804F05D06FF0704140F82210002070BDC7
:100EC00050F82230084C2340D1E9004544EA05148B
:100ED0008D688E892D0245EA064589692C430C43AD
:100EE0001C4340F82240E9E70000F0CFF0B50C6861
:100EF00050F82450194A1540D1E90123D1E903677C
:100F00001A433E4332434E6932438E693243CE69BF
:100F100032430E6A32434E6A32438E6A3243CE6A9D
:100F20003243CE6B32430E6B32434E6B32432A4315
:100F3000082B01D142F0400240F824204A6BB2F560
:100F4000801F08D10A6832B14FF480720A610449E7
:100F50000268114301600020F0BD00008000E0FF46
:100F600000011000F0B500EB820253688E8903F097
:100F70004044D1E9003543EA05138D682D0245EA66
:100F800006452B430E8A0D4D05EB065633430E7D69
:100F90006F0107EB066633438E6933432343536087
:100FA0000268D20207D54268098A22F4700205EB72
:100FB0000151114341600020F0BD00000000F0FF2E
:100FC00030B5D1E901231A43D1E9033423431A434D
:100FD0004B690D681A438B691A43D1E90734012D17
:100FE000496A05686FF30E0505D01A4322430A4388
:100FF0002A43026008E0234329430B43416803600E
:101000006FF30E010A434260002030BD426942EA9C
:101010004101416100207047F8B514460546D1E909
:10102000000210438A686FF01F03C96803EB421285
:1010300042EA412108430090286100F07DFD064608
:1010400009E0601C07D024B100F076FD801BA042AF
:1010500001D90320F8BDA8698006F2D40020F8BDAC
:10106000F0B56FF00F05D1E9003405EB04145B1EF9
:101070002E0123438C682F0306EB04244FEA054C12
:1010800023430D8A8E8ACC68097E4FF07F4E07EB92
:1010900005450CEB06560EEB0161012A0CD0826867
:1010A0003F1107EB043423432B43334302F07042D8
:1010B0000B43134383600FE0C2682B430B4302F0E2
:1010C00070428168134301F070422103A1F5805101
:1010D00031431143C36081600020F0BD38B5044640
:1010E000094D4FF0AA300090A879042360436A4666
:1010F000002106F02DFCA879042360436A460021F4
:10110000401C06F025FC38BD801900202DE9FC4765
:10111000254F89460646002500240DF1040810E0FD
:10112000CDF80080798870438B084A46002106F08C
:10113000A7FA7888BDF80410B1EB900F04D1641CB5
:10114000A4B2B879A042EBD8B879A04202D100206D
:10115000BDE8FC87304606F0B3F820B1294613A05D
:10116000FFF71EF916E0B9F1FF3F13D000200AE0A7
:101170007A8806FB001093080022114606F0BEFB99
:10118000BDF80400401CADF80400B879BDF80410A7
:101190008842EDD86D1CADB2032DBDD3314609A0F8
:1011A000FFF7FEF80120D3E7801900206572726F07
:1011B0007220657261736520626C6F636B3A25649F
:1011C0000D0A000062616420626C6F636B206368CB
:1011D00065636B65643A25640D0A000038B5044602
:1011E000104D00208DF80000A879012360436A4665
:1011F000002106F079FA9DF80000FF2801D00220B6
:1012000038BDA879012360436A460021401C06F0DE
:101210006BFA9DF80000FF2801D0012038BD0020A6
:1012200038BD0000801900202DE9F84F91462F4A63
:101230008A461D469179B0FBF1F3B0FBF1F801FB52
:10124000130B404600F0B8F8284907464889B842D1
:1012500002D20120BDE8F88F002428E05C4516D3B7
:10126000ADB14A88A2EB0A01A94201D28EB200E0D8
:10127000AEB207FB004108FB00404B4652460096C9
:1012800005F09EFE4FF0000AB144AD1B05E007FBE0
:10129000004108FB004005F067FF30B13846FFF71A
:1012A0001DFF012000F024F8CBE7641CA4B20F4915
:1012B0008879A042D2D80D46A879A04214D13846E8
:1012C00000F028FA404605F0FBFF00206A896969B2
:1012D00008E031F81040444502D121F8107003E0D5
:1012E000401C80B28242F4D80020B3E7801900206D
:1012F000F8B506460021294D4FF6FF7003E06A69F4
:1013000022F81100491C6A898A42F8D80020A88175
:1013100004461CE0A879042360436A46002106F0D5
:10132000E3F99DF80000FF280CD1B6B1A87901239C
:1013300060436A460021401C06F0D6F99DF8000083
:10134000FF280AD0214616A0FFF72AF8641C6989F5
:10135000A142DFD800206A6916E09DF802009DF8DE
:10136000031000EB01206989814202D9696921F8E3
:101370001040A889401CA881E8E732F810308B4261
:1013800001D3E88102E0401C8142F6D8E889642854
:1013900001D20220F8BD0020F8BD00008019002015
:1013A00062616420626C6F636B20696E6465783A79
:1013B00025640D0A0000000070B5104E104C7189B4
:1013C0002268491E914200D2216000F001052946A1
:1013D000206800F017F8411C0AD170892168401E6E
:1013E000884207D92946206000F00CF8411C01D042
:1013F000206070BD4FF0FF3070BD000080190020EC
:10140000DC000020F8B50D460021401C00910400CE
:1014100012D00C4F012626EA0400A8420AD1B8795E
:10142000611E484304236A46002106F05DF90098D6
:10143000401C04D0641EEED14FF0FF30F8BD601E9A
:10144000F8BD000080190020F8B5254E00273C4665
:10145000B78113E02046FFF7C1FE70B9204605F0C2
:101460002FFF38B121461FA0FEF79AFF2046FFF755
:1014700035FE02E0B089401CB081641C7089A04236
:10148000E8D8B1891BA0FEF78BFFB089642801D290
:101490000120F8BDC0EB4010642100EB4000B0FB20
:1014A000F1F50024009710E02046FFF797FE58B9A9
:1014B000B079022360436A46194606F049FA00985B
:1014C000401C0090A84203D0641C7089A042EBD855
:1014D0000120FFF70DFF0028DBD00220F8BD00003F
:1014E0008019002042616420626C6F636B3A25644E
:1014F0000D0A0000676F6F645F626C6F636B6E75DF
:101500006D3A25640D0A000010B505F005FF00BB1B
:10151000184C616911B100200AF0B8FE60894100E1
:1015200000200AF0BFFE606161894900FFF7D0F832
:10153000606970B10120FFF7DBFE60B10EA0FEF71D
:101540002FFFFFF781FF90B111A0FEF729FF0220C6
:1015500010BD012010BD618912A0FEF721FFA189F5
:1015600016A0FEF71DFFE18919A0FEF719FF002064
:1015700010BD000080190020666F726D6174206ECE
:10158000616E6420666C6173682E2E2E0D0A000059
:10159000666F726D6174206661696C6564210D0A05
:1015A00000000000746F74616C20626C6F636B20CC
:1015B0006E756D3A25640D0A00000000676F6F6458
:1015C00020626C6F636B206E756D3A25640D0A00A6
:1015D00076616C696420626C6F636B206E756D3A26
:1015E00025640D0A000000000549CA89824202D222
:1015F0004FF6FF707047496931F8100070470000DE
:10160000801900202DE9FF5F9B4615468246002683
:1016100079E03F4C6088B0FBF5F1A0794143019837
:101620008319B3FBF1F0FFF7DFFF6189814203D833
:10163000012004B0BDE8F09F354C6188A479B1FB6E
:10164000F5F26243B3FBF2F702FB17326A43B2FBD7
:10165000F1F300FB0437B2FBF1F001FB1028A1EB22
:101660000800B0FBF5F084B2ABEB0600A04200D25C
:1016700084B204FB05F91FFA89F31FFA88F1524678
:10168000384605F0DFFE032809D11FFA89F31FFA57
:1016900088F15246384605F0D5FE032804D00428C8
:1016A0002ED068B30220C4E74B461FFA88F1524699
:1016B0003846FFF7B9FDDFF858804FF0FF3198F852
:1016C0000600B7FBF0F0FFF721FD80B998F806009F
:1016D0000021B7FBF0F0FFF719FD814698F80600EE
:1016E000B7FBF0F005F0ECFDB9F1000F08D098F869
:1016F0000600B7FBF0F0FFF7F1FC0120FFF7F8FD63
:1017000005FB04AA26445E4583D3002091E7000030
:101710008019002008B5CC218DF800100449012360
:101720006A4689794843194606F012F908BD000057
:10173000801900202DE9FF4F85B0154600274FF096
:10174000FF3B7BE0404C6088A179B0FBF5F048435B
:101750000699CB19B3FBF0F0FFF746FF618980468D
:10176000414503D8012009B0BDE8F08F364A5088C2
:101770009279B0FBF5F15143B3FBF1F401FB143165
:1017800001FB05FABAFBF0F308FB0231BAFBF0F2F9
:1017900000FB12A9A0EB090080B2B0FBF5F00291AA
:1017A0000899ADF80400C91B8CB20391844200D3A0
:1017B000044601A804FB05F600901FFA89F1C6F360
:1017C0008F034FF0FF32029805F05AFF08B1022054
:1017D000C9E7BDF80400B0EB960F0FD1B3B21FFA02
:1017E00089F1059A029805F0DDFF38B94146C345F5
:1017F00020D00846FFF78EFFC346D8B11248817942
:1018000040884143A1EB0A00B0FBF5F0039980B298
:101810008CB2ADF80400844200D3044604FB05F604
:101820001FFA89F13346059A0298FFF7FDFC08B1CB
:10183000032098E70598274430440590089887428C
:1018400080D300208FE70000801900202DE9F041AF
:1018500017460C460546002615E02878802807D252
:10186000012109F059FD6D1C24F8020B761C0AE0D9
:1018700015F8011F41EA0020012109F04DFD6D1C02
:1018800024F8020BB61CBE42E7D1002020800120C4
:10189000BDE8F08130B40C460146500700D001206D
:1018A00000EBD20010FB02F0C2B208784B7881281E
:1018B00009D3402B07D3FF2B05D0FF2803D07F2B64
:1018C0000CD2403B0BE00023184603E05B1C04F8FD
:1018D000010BDBB29342F9D330BC7047413B8138F6
:1018E000D9B2C0B2C0EB401303EB801001EB400053
:1018F00004495043D1F809100144204630BC07F098
:10190000ADBD000038C202200B46510700D00121B6
:1019100001EBD20111FB02F1CAB201880348514325
:10192000D0F811000144184607F098BD38C20220D3
:1019300031B500F001F9044600F0FEF80099001BF3
:101940008842F9D338BD00002DE9F84FDFF8A091A7
:10195000002209F1040A0AF1040B4FF00F080BF101
:10196000040E01260B6896403340B34271D14C6897
:10197000022C01D0122C11D1D40800EB84073D6A4F
:101980005407E40E08FA04FC25EA0C05D1F810C04F
:101990000CFA04FC4CEA050CC7F820C00768540098
:1019A000032591F804C0A5400CF0030CAF430CFADA
:1019B00004FC4CEA070CC0F800C04F68012F05D0AA
:1019C000022F03D0112F01D0122F11D18768D1F827
:1019D0000CC0AF430CFA04FC4CEA070CC0F808C07A
:1019E0004768B7430E79C6F3001696403E434660FB
:1019F000C668AE438D68A5403543C5604C68E400B9
:101A00006FD53C4C256845F480452560246822F05C
:101A1000030504F480440094374C2E19D6F8087856
:101A20009407250F08FA05F4A743344CA04201D1CE
:101A300000242EE0324CA04201D1012429E0314C97
:101A4000A04201D1022424E02F4CA04202D1032461
:101A50001FE046E02D4CA04201D1042419E02C4C9B
:101A6000A04201D1052414E02A4CA04201D1062451
:101A70000FE0294CA04201D107240AE0274CA042E4
:101A800001D1082405E0264CA04201D1092400E040
:101A90000A24AC403C43C6F80848D9F800404D46FB
:101AA0004E689C43F60300D51C432C60DAF80040D6
:101AB00055464E689C43B60300D51C432C60DBF8AA
:101AC00000405D464E689C43F60200D51C432C60E6
:101AD000DEF8004075464E689C43B60200D51C43B4
:101AE0002C60521C102AFFF43CAFBDE8F88F0000B8
:101AF000003C0140443802400030014000000240F8
:101B00000004024000080240000C024000100240A5
:101B10000014024000180240001C02400020024055
:101B2000002402400069084000D0012070470AB13B
:101B3000816170470904FBE70148006870470000B5
:101B4000B400002002480168491C01607047000091
:101B5000B40000200B4810B5016841F40071016029
:101B6000016841F480610160016841F480710160A5
:101B7000052000F049FA0F2000F006F800F08AF97D
:101B8000002010BD003C024010B5044600F0EAFC05
:101B90004FF47A71B0FBF1F001F0B8FD002221465C
:101BA000501E00F011FA002010BD2DE9F04104464E
:101BB00090F8A00015460F4601281DD0012684F894
:101BC000A060022084F8A10005EB850000EBC500B1
:101BD00004EB800034223830FEF748FD2A463946AF
:101BE000204605F03BF92068466284F8A160002099
:101BF00084F8A000BDE8F0810220FBE770B5040086
:101C000004D094F8A100002510B106E0012070BDB9
:101C100084F8A050204600F06FF8022084F8A1005C
:101C20002068816921F070418161D4E9011001438C
:101C3000D4E90302104301432068826911438161A2
:101C4000206882682B490A408260A08A02042068CA
:101C50008368A6693343134383602068C2680A40DF
:101C6000C260A08B02042068C368266A3343134312
:101C7000C360206802690A400261A08C02042068E7
:101C80000369A66A334313430361206842690A402B
:101C90004261A08D010420684269236B1A430A4304
:101CA000426194F83500020294F83600010420687D
:101CB000C36A03F07F43C3622068C36A94F8346048
:101CC000114333430B43C3622068416B41F004016D
:101CD00041632068416B41F00201416320688169E2
:101CE00041F001018161C4F8A450012084F8A100F1
:101CF000002070BD00F800F030B5364887B00025F0
:101D0000016841F080610160006800F0806005902A
:101D100030481438016841F400010160016801F4A1
:101D200000010591016841F002010160016801F0C4
:101D300002010591016841F020010160016801F094
:101D400020010591016841F040010160016801F046
:101D500040010591016841F080010160016801F0D6
:101D600080010591016841F48071016000680324DD
:101D700000F480700590202000900120CDE902043D
:101D8000019069461448FFF7DFFD4FF48060009032
:101D90000220CDE901050E20CDE9034069460F4838
:101DA000FFF7D2FD4FF40C60009069460C48FFF736
:101DB000CBFD4FF47E40009069460A48FFF7C4FD12
:101DC00040F2F760009069460748FFF7BDFD07B095
:101DD00030BD0000443802400004024000140240BC
:101DE00000180240001C02400020024070B504466A
:101DF00090F8A0000E46012820D0012584F8A050BC
:101E0000022084F8A10003EB830000EBC30004EB85
:101E1000800141F8386F886A3044C1E90102C86A1C
:101E20001044C8601A46204605F018F8206845623C
:101E300084F8A150002084F8A00070BD022070BD7D
:101E40002DE9F041044690F8A0000F4601281FD06C
:101E5000012584F8A050022084F8A10003EB830040
:101E600000EBC30004EB80010026E1E90E67204689
:101E7000C1E90262C1E90A721A4604F0EFFF206864
:101E8000456284F8A15084F8A0600020BDE8F0818C
:101E90000220FBE708B50020009008BD70B515468C
:101EA0000E46040003D094F8210010B107E0012091
:101EB00070BD002084F82000204600F021F8211D8C
:101EC0002068FEF7CBFFD4E900023146FEF7AEFFF3
:101ED000D4E900022946FEF791FF606810282068C7
:101EE00008D0016A41F004010162012084F8210058
:101EF000002070BD016841F004010160F5E70000B9
:101F000070B5274886B00024016841F001010160E6
:101F1000006800F00100059021480838016841F090
:101F200008010160016801F008010591016841F0B4
:101F300010010160016801F010010591016841F094
:101F4000400101600068032500F04000059040203A
:101F5000CDE900040120CDE90205124E6946304664
:101F6000FFF7F2FC7015009001A9022081E8310012
:101F70000C20049069460C48FFF7E6FC4DF6330050
:101F80000090694602943046FFF7DEFC4FF4F060A3
:101F9000009069460548FFF7D7FC06B070BD000009
:101FA00038380240000C0240001802400010024085
:101FB00000F01F02012191404009800000F1E02063
:101FC000C0F8001170470000F0B40E4B1B68C3F35B
:101FD0000223C3F10704042C00D904241D1D072D7E
:101FE00001D2002300E0DB1E012606FA04F56D1E77
:101FF0000D409D409E40761E164045EA0601F0BC0D
:1020000005F0B7BC0CED00E0064A00F007011068CF
:102010004FF6FF03184040EA0120034908431060CF
:10202000704700000CED00E00000FA052DE9F843D0
:102030001D48016841F0805101600068012700F0EF
:1020400080500090380490FAA0F0DFF86080B0FA79
:1020500080F048F82070FFF76FFD04464FF47A7562
:10206000134E04E0FFF768FD001BA84213D8706808
:10207000C003F7D54FF4003090FAA0F0B0FA80F02A
:1020800048F82070FFF758FD044607E0FFF754FDBD
:10209000001BA84202D90320BDE8F88370688003C2
:1020A000F4D50020F8E700004038024000000E425E
:1020B000007000402DE9F84F04460068DFF8788290
:1020C0009E4DC10747F6C07A4FF0E0464FF0010B36
:1020D0004FF0000901D180074BD59949C1F86890AC
:1020E000FFF72AFD074604E0FFF726FDC01B642822
:1020F0007ED828680001F7D420789249C0070DD017
:102100009AFAAAF26068B2FA82F2904096FAA6F3BE
:10211000A268B3FA83F39A401043086020788007DE
:1021200018D5086896FAA6F200F0E040B2FA82F2FA
:10213000D0406268237B920142EA036242EA007067
:102140000860D8F80010E26921F01F01521E114307
:10215000C8F800107A49C1F868B0FFF7EDFC0746EF
:1021600004E0FFF7E9FCC01B642841D8286800019F
:10217000F7D52068410701D4000776D57049C1F82A
:102180007090FFF7D9FC074604E0FFF7D5FCC01BB1
:1021900064282DD82868C0438000F6D520786A4F7F
:1021A00040074FF0706C29D5386896FAA6F100F018
:1021B000E040B1FA81F1C8409AFAAAF22169B2FA74
:1021C00082F291409CFAACF36269B3FA83F39A40CD
:1021D000114396FAA6F2B2FA82F2904001433960B6
:1021E000D8F800106FF0FF0321F4F851226A00E0E4
:1021F00079E003EB02221143C8F8001020780007B1
:1022000023D538689CFAACF100F07060B1FA81F126
:10221000C8409AFAAAF22169B2FA82F291409CFA75
:10222000ACF2B2FA82F29040014396FAA6F2A069AB
:10223000B2FA82F2904001433960D8F80010626A25
:1022400021F440311143C8F800103D49C1F870B085
:10225000FFF772FC064604E0FFF76EFC801B642863
:1022600041D82868C0438000F6D42078800651D534
:1022700032484F464030016841F0805101600068AB
:10228000324E00F080500090306840F48070306032
:10229000FFF752FC054604E0FFF74EFC401B6428A4
:1022A00021D83068C005F7D5264E143E3068218D00
:1022B00000F4407001F4407188422BD0306824490A
:1022C00020F44070C1F800B00F603060800710D576
:1022D000FFF732FC054641F2883707E0FFF72CFC98
:1022E000401BB84202D90320BDE8F88F3068800750
:1022F000F4D5A06A1149C0F301220831032A13D092
:10230000086820F4F81008603068218DC1F30B01D3
:10231000084330602078C00604D50E4994F82C009C
:10232000C1F8E0010020DFE70A680B4B22F4F81245
:10233000184002430A60E7E78C3802400038024048
:102340000000474284380240883802400070004054
:10235000400E474200104742FFFCFF0F2DE9F05F9F
:10236000DFF8F8A104460F46DAF80000DFF8F08144
:1023700000F00F02C8B27A49814641F2883608F16E
:102380000808BA4261D202468AF80020DAF8000052
:1023900000F00F00B8427DD12078800707D5D8F82B
:1023A0000020A36822F0F0021A43C8F80020207829
:1023B000C0072DD0606801281AD002281BD003283E
:1023C00019D009688907002964DAD8F8001047464F
:1023D00021F003010143C8F80010FFF7ADFB0546EB
:1023E000606801280FD0022818D003281CD027E0ED
:1023F00009688903E7E709688901E4E7FFF79CFBBF
:10240000401BB04258D83868C0F381000128F5D18C
:1024100088E0FFF791FB401BB0424DD83868C0F30D
:1024200081000228F5D17DE03868FFF785FB401B6D
:10243000B042F9D940E0FFF77FFB401BB0423BD8E8
:10244000386810F00C0FF6D16CE02078800707D5C3
:10245000D8F80020A36822F0F0021A43C8F8002040
:102460002078C0074CD06068012828D0022829D0E5
:10247000032827D009688907002949DAD8F80020FD
:1024800022F003020243C8F80020FFF755FB05467F
:10249000606800E03CE001281DD0022829D0032814
:1024A00038D0B3464646306810F00C0F28D0FFF7FE
:1024B00043FB411B5945F6D90320BDE8F09F09684D
:1024C0008903D9E709688901D6E7FFF735FB411B86
:1024D000594502D9F0E7B34646463068C0F381005B
:1024E0000128F2D10CE0FFF727FB411B594502D927
:1024F000E2E7B34646463068C0F381000228F2D1D5
:102500008AF80090DAF8000000F00F00B84209D015
:102510000120D2E744462068FFF70EFB401BB04283
:10252000F9D9C9E72078400707D5D8F80010E26844
:1025300021F4E0511143C8F800102078000708D5B5
:10254000D8F80010226921F4604141EAC201C8F8BC
:1025500000100F20FFF718FB0020AEE7003C024000
:102560000038024010B500F043F808490968F0222D
:1025700092FAA2F201F0F001B2FA82F2D140044ADA
:10258000515CC8400349086010BD00000838024093
:10259000EACC0008A000002010B5FFF7E3FF0749D0
:1025A00009684FF4E05292FAA2F201F4E051B2FA53
:1025B00082F2D140024A515CC84010BD0838024046
:1025C000EACC000810B5FFF7CDFF074909684FF4C2
:1025D000604292FAA2F201F46041B2FA82F2D14072
:1025E000024A515CC84010BD08380240EACC0008DD
:1025F00030B51948006810F00C01184812D0184C7A
:1026000004290ED008290DD1134A121F116813682E
:1026100001F03F015D0247F6C07304D5B4FBF1F051
:1026200003E0204630BDB0FBF1F01168194093FA89
:10263000A3F3B3FA83F3D940484311684FF440320F
:1026400092FAA2F201F44031B2FA82F2D140491C6E
:102650004900B0FBF1F030BD083802400024F4001E
:1026600040787D012DE9F84F04460078DFF8FCA2A0
:10267000BF4DC0074FF0000648D0DAF800105046B2
:10268000C1F38101012908D00068C0F3810002284C
:102690000AD1281D0068400206D52868800335D578
:1026A0006068002873D031E0DFF8C49209F10209B4
:1026B00089F80060FFF740FA074641F2883804E0E5
:1026C000FFF73AFAC11B41457AD828688003F7D44E
:1026D000207989F80000606860B1FFF72DFA07469D
:1026E00004E0FFF729FAC11B4145EDD828688003B3
:1026F000F7D50BE0FFF720FA074604E0FFF71CFAD6
:10270000C11B4145E0D828688003F7D42078DFF862
:102710006492800744D5DAF80010504611F00C0F8F
:102720004FF0F80809D00068C0F3810002280BD1EF
:102730008E48001F0068400206D42868800714D520
:10274000E068012823D110E0E068D0B10120C9F889
:102750000000FFF7F1F9074604E0FFF7EDF9C01BB1
:102760006428B1D828688007F7D5286898FAA8F2B5
:102770002169B2FA82F220F0F80091400843286003
:102780000EE0C9F80060FFF7D7F9074605E0EAE078
:10279000FFF7D2F9C01B642812D828688007F7D445
:1027A0002078000725D5DFF8C4817348616908F1F6
:1027B0006C0881B101210160FFF7BEF9074605E011
:1027C0007EE0FFF7B9F9C01B642879D8D8F800007B
:1027D0008007F6D50DE00660FFF7AEF9074604E086
:1027E000FFF7AAF9C01B64286AD8D8F80000800750
:1027F000F6D42078400753D55C483830016841F062
:10280000805101600068DFF8748100F08050009012
:10281000D8F8001041F48071C8F80010FFF78CF967
:10282000074604E0FFF788F9C01B642848D8D8F8A9
:102830000000C005F6D5DFF834B10BF1680B8BF85A
:102840000060FFF779F9074641F2883804E0FFF7A6
:1028500073F9C11B41457ED8DBF800008007F6D430
:10286000207A8BF80000A06868B1FFF765F9074689
:1028700004E0FFF761F9C11B41456CD8DBF80000AB
:102880008007F6D50CE0FFF757F9074604E0FFF79D
:1028900053F9C11B41455ED8DBF800008007F6D430
:1028A000A069E8B3DAF80010C1F3810102295AD017
:1028B000022806D0C9F86060FFF73EF904464DE0F3
:1028C00049E04F46C9F86060FFF736F9064604E074
:1028D000FFF732F9801B64283DD828688001F7D4BF
:1028E000D4E90701084347F6C07191FAA1F1626A81
:1028F000B1FA81F18A40A16A4FF0FF3303EB510135
:102900004FF4403393FAA3F3B3FA83F399400A43A5
:1029100010434FF0706292FAA2F2B2FA82F200E033
:102920001FE0E16A914008431049091F0860012037
:102930003866FFF701F9044604E0FFF7FDF8001BD5
:10294000642808D828688001F7D50AE0FFF7F4F872
:10295000001B642802D90320BDE8F88F2868800195
:10296000F4D40020F8E70120F6E700000838024020
:102970000038024000004742800E4742007000408D
:1029800070B50D46040003D094F82C0010B107E098
:10299000012070BD002084F82D00204600F012F8C0
:1029A000022084F82C00211D2068FEF709FBD4E9E1
:1029B00000022946FEF754FB012084F82C00002079
:1029C00070BD0000304800B5016887B041F00101DA
:1029D0000160006800F0010005902B48083801688C
:1029E00041F004010160016801F0040105910168F2
:1029F00041F008010160016801F0080105910168DA
:102A000041F010010160016801F0100105910168B9
:102A100041F020010160016801F020010591016889
:102A200041F0400101600068694600F040000590F7
:102A30000D200090022001900120029003200390BD
:102A40000C2004901148FEF77FFF4CF203700090B9
:102A500069460F48FEF778FF4FF68370009069468D
:102A60000C48FEF771FF4FF63F00009069460A4898
:102A7000FEF76AFF48F23710009069460748FEF7F4
:102A800063FF07B000BD0000383802400008024074
:102A9000000C0240001002400014024000180240E6
:102AA00010B5044690F82C00022809D0022084F8C2
:102AB0002C002068FEF7AAFA012084F82C000020E0
:102AC00010BD70B5044690F82C000D4602280CD0BD
:102AD000022084F82C002068FEF79EFA286802285D
:102AE00004D0012084F82C00002070BD0520F9E7F7
:102AF0002DE9F04790F8202081F85620828CA1F82B
:102B00005420826A0023120E94090C70C2F38304CD
:102B10004C7002F003028A70826A120CCA70028D35
:102B2000120A0A7190F828204A71C26A4FF6FF7A99
:102B3000120E0AEA0212CA80C26ACC88C2F30742A5
:102B400044EA1214CC8002F00F020A72828DC2F3A2
:102B50000722D4094C72C2F380148C72C2F3401461
:102B6000CC72C2F300140C7300264E73046A4FF04B
:102B70000109002C7DD0012CFCD0022C7AD0292315
:102B8000C2F380144C769206520E01F81A2F10F8F8
:102B9000302F0C7844EAD21401F8014B02F07F0286
:102BA00001F8012B50F8042F120ED4090C70C2F357
:102BB00041144C70C2F382048C709207120FCA70D9
:102BC00004C8CC78C2F3074244EA9214CC70C2F332
:102BD00040140C714E7102F001028A7130F8042C1D
:102BE000C2F30722D409CC71C2F380140C72C2F371
:102BF00040144C72C2F300148C72C2F38104CC7284
:102C000002F003020A7310F8042C52084A734C466F
:102C100081F80E9050F8082B120E0A7450F8082C08
:102C2000120C0AEA02224A8230F8082C4D8AC2F3BA
:102C3000072215434D8210F8082C120641F8142F74
:102C400050F8042C0D68120E45EA02420A6050F852
:102C5000042C0D68C2F3074245EA02220A6030F8EC
:102C6000042C0D68C2F30722154320C110F8042C70
:102C700001E034E076E001F8012B0268120E01F861
:102C8000032B0268120C12060A6002880D68C2F358
:102C9000072245EA02420A6002780D6845EA0222EC
:102CA0000A6042680D6845EA126520C142680D78E5
:102CB000C2F3074245EA121501F8025B1207120D32
:102CC0000A8082880D88C2F30722154321F8025B2F
:102CD0000079400808704C701846BDE8F0879207EC
:102CE000120D0A6190F82C200C6944EA82020A61F4
:102CF000026B0C69120E44EA92140C61C2F3C20416
:102D00000C7502F007024A75026BC2F307425409C0
:102D10008C75C2F38204CC759207520F0A76028E2C
:102D20000C7EC2F3072244EAD2140C760C690F7EA3
:102D3000BF1C09FA07F5641CA4FB05784FEAE57C83
:102D400006FB058504FB0C5591F808C009FA0CF444
:102D5000A7FB04C80C6505FB048407FB0644C1E916
:102D600012C40DE790F82C209206920A0A61026BB9
:102D70000C69120E44EA02220A61026B0C69C2F36A
:102D8000074214430C61028E0C69C2F30722641CD3
:102D900046F10005ED0445EA5435E404C1E9124565
:102DA0004FF400740C65EBE670B586B000250E4656
:102DB00004468DF80C50057700F046F87620009513
:102DC000CDE901502B462A462946206804F070FEC2
:102DD000204605F0A7F98DF80C009DF80C0038B9D5
:102DE000204605F093F88DF80C009DF80C0018B102
:102DF0009DF80C0006B070BD31462046FFF778FE06
:102E00008DF80C009DF80C00A0B9B6F85400694686
:102E100000040090072001904020CDE90205000148
:102E20000490206804F05DFE0721204604F0E0FED7
:102E30008DF80C0004F1100007C88DE8070094E835
:102E40000F0004F035FED3E71D4800B5016887B0D8
:102E500041F400610160006800F4006005901848CA
:102E60001438016841F480010160016801F48001B7
:102E70000591016841F004010160016801F004015D
:102E80000591016841F0080101600068694600F0A1
:102E9000080005904FF4F8500090022001900120A6
:102EA0000290032003900C2004900648FEF74CFD8E
:102EB0000420009069460448FEF746FD07B000BDB7
:102EC0004438024000080240000C02402DE9F04F57
:102ED0008BB004460D46DDE91478216800201646C3
:102EE000C862216A022903D10F02560A46EAC35674
:102EF0001021CDE900714021834608010291CDE9FE
:102F000003B06946206804F0ECFD1021204604F06F
:102F10006FFE00286DD14FF0FF3A08FB07F0CDE9B6
:102F200005A007A990204FF0020981E8010A0120BD
:102F30000A9005A9206804F099FDB8F1010F01D9A4
:102F4000122000E01120CDE900606946206804F0FD
:102F5000C8FDB8F1010F1AD91221204604F048FE2D
:102F6000070046D140F22A3B2068416B11EA0B0F63
:102F700028D1406B0004F7D50026206804F0AEFD90
:102F800045F82600761C082EF7D32035ECE71121F2
:102F9000204604F02DFE07002BD140F22A6B20685A
:102FA000416B11EA0B0F0DD1406B0004F7D50026E1
:102FB000206804F093FD45F82600761C082EF7D310
:102FC0002035ECE7406BC0050CD5B8F1010F09D9ED
:102FD000206A18B1012801D0022803D1204600F050
:102FE00033F807462168486B000705D50820886339
:102FF00004200BB0BDE8F08F486B800703D548462E
:10300000C1F83890F5E7486B800603D52020886327
:103010000620EEE7486B800504D54FF40070886306
:103020000720E6E7564603E004F058FD01C5761E8A
:103030002068416B890201D5002EF5D1216840F24C
:10304000FF5088633846D4E710B586B004460020A8
:103050000C21CDE900014021CDE9021008010490C6
:103060006946206804F03DFD0C21204604F0C0FDB7
:1030700006B010BDFEB50446006A00250E460328C2
:1030800005D030B1012804D0022802D01FE027204B
:10309000FEBDB6F5805F05D0B6F5006F04D03EB139
:1030A000262514E0272512E0204605F076F902E0F7
:1030B000204605F039F9050009D1211DD4E905079D
:1030C0000EC9CDE900600297206804F0F1FC2846A3
:1030D000FEBD2DE9F04F8DB0064600250C468DF85B
:1030E0002C50DDE91698316817462846CD62316AC2
:1030F0004FF4007B022903D1570AD94647EAC35748
:103100001021CDE900914021824608010291CDE9CC
:1031100003A06946306804F0E4FC1021304604F056
:1031200067FD00286ED1B8F1010F01D9192000E028
:103130001820CDE900706946306804F0D2FCB8F17F
:10314000010F01D9192100E01821304604F050FD8B
:1031500000287FD1411E09FB08F99020CDE9069097
:103160000591CDF820A00120CDE909A005A930687E
:1031700004F07CFCB8F1010F24D84FE0406B400410
:1031800020D5A9EB0500202811D281074FEA900035
:1031900000D0401C8246002706E02146306804F03B
:1031A000B0FC241D2D1D7F1C57450BD2F5E70027D1
:1031B00004EB8701306804F0A4FC7F1C082FF7D3D0
:1031C000203420353068416B40F21A321142D5D09C
:1031D0002AE0406B400421D5A9EB0500202812D23B
:1031E00081074FEA900000D0401C8246002706E08D
:1031F0002146306804F085FC241D2D1D7F1C574599
:103200000CD2F5E726E0002704EB8701306804F0D4
:1032100078FC7F1C082FF7D3203420353068416BB1
:1032200040F21A621142D4D0406BC0050BD5B8F100
:10323000010F08D9306A18B1012801D0022802D143
:103240003046FFF701FF3168486B000705D50820BD
:10325000886304200DB0BDE8F08F486B800702D56D
:1032600002208863F6E7486BC00603D51020886308
:103270000520EFE7486B800503D5C1F838B007207B
:10328000E8E740F2FF5088630BA9304604F0ACFE3B
:103290000028DFD19DF82C100729F5D00629F3D09E
:1032A000D8E770B5040004D094F85100002510B19F
:1032B00006E0012070BD84F85050204600F034F83C
:1032C000022084F851002068016821F0400101606B
:1032D000D4E901010843D4E90312114308436169A9
:1032E0000843218B01F400710843E1690843216A16
:1032F0000843A16A084321680860A069042101EA23
:103300001040616A0843216848602168E06A0861EA
:103310002068C16921F40061C1616565012084F8FC
:103320005100002070BD0000124800B5016887B050
:1033300041F020010160006800F0200005900D4878
:103340001430016841F4801101600068012100F42B
:10335000801005904FF4607000900220CDE90101CB
:1033600003900520049069460348FEF7EDFA07B084
:1033700000BD000030380240001402402DE9F8433F
:10338000044690F85100DDF82080012801D0222861
:103390007ED169B162B15BB194F85000012877D059
:1033A000012784F8507094F85100012803D005E0FB
:1033B0000120BDE8F883322084F8510000266665BC
:1033C000A263A387E3872163A386E386A664E664FA
:1033D000A06A4FF40055A84209D12068016821F481
:1033E000005101602068016841F4005101602068CB
:1033F0000168490603D4016841F040010160E068BA
:103400004FF48271B0F5006F606807D0002867D074
:1034100088426ED1E08E012862D06AE020B18842F5
:103420000CD1E08E012809D1206B21680088C8608A
:10343000206B801C2063E08E401EE086E08E80B909
:10344000A06AA84244D12068016841F4805101601B
:103450003EE02068C068A16B0880A06B801CA06360
:103460009EE0434600220221204605F061F8002834
:1034700074D1206B21680088C860206B801C206399
:10348000E08E401E0004000CE08609D1A06A00E036
:10349000C7E0A84204D12068016841F4805101606E
:1034A000434600220121204605F042F800286FD152
:1034B0002068C068A16B0880A06B801CA063E08FAF
:1034C000401EE087E08E0028CBD1606800286AD1DA
:1034D000434600220121204605F02AF8F0BBB8E758
:1034E000206B411C216321680078C860E08E401E7B
:1034F000E086E08E98B9A06AA84204D120680168ED
:1035000041F480510160434600220121204605F02C
:103510000FF818BB2068C068A16B087040E04346F4
:1035200000220221204605F003F8B8B9206B411CA7
:10353000216321680078C860E08E401E0004000C02
:10354000E08607D1A06AA84204D12068016841F44E
:103550008051016000224346012100E018E020462E
:1035600004F0E6FFA0B92068C168A06B421CA2630A
:103570000170E08F401EE087E08E0028CFD16068A8
:1035800088B9434600220121204604F0D1FF08B14A
:1035900003200EE72068C168A06B421CA263017083
:1035A000E08F401EE087A06AA84210D14346002267
:1035B0000121204604F0BCFF18B1606D40F002000C
:1035C0000FE02068C068ADF80000BDF80000434679
:1035D00001228021204604F0ABFF20B1606D40F055
:1035E00020006065D4E784F8517020688168A26A81
:1035F000C1F30011AA4210D179B1616D41F002010D
:103600006165016821F4005101602068016841F49E
:103610000051016084F85060CAE684F850600020D0
:10362000C7E60220C5E670B515460E46040003D075
:1036300094F8490010B107E0012070BD002084F823
:103640004800204600F01AF804F108012068FDF750
:103650004DFC3146A2682068FDF784FCD4E90102E4
:103660002946236BFDF722FCA168206850F8212031
:1036700042F0010240F82120002070BD1A4800B538
:10368000016887B041F001010160006800F00100AD
:10369000059015480838016841F00801016001688B
:1036A00001F008010591016841F010010160006816
:1036B000694600F0100005904EF2B37000900220B1
:1036C000019001200290032003900C2004900748F1
:1036D000FEF73AF94FF68070009069460448FEF70D
:1036E00033F907B000BD000038380240000C02403A
:1036F000001002404FF0E0210428086903D020F0B8
:1037000004000861704740F00400FAE710B5401E5D
:10371000B0F1807F01D3012010BD4FF0E024606143
:103720000F21601704F025F90020A0610720206117
:10373000002010BD7047704710B5040003D094F806
:10374000390010B107E0012010BD002084F83800D6
:10375000204600F00DF8022084F83900211D206871
:1037600005F070FA012084F83900002010BD000037
:1037700008B500680B49884212D10B48016841F036
:10378000020101600068032200F0020000900121A4
:103790001D20FEF719FCBDE808401D20FEF708BCFF
:1037A00008BD000000040040403802400168CA68BB
:1037B00042F00102CA600068016841F00101016045
:1037C00000207047704770B50446006801694FF0EB
:1037D0000005C943890715D4C168C943890711D4B5
:1037E000E91E01610120207620688069800720465B
:1037F00002D0FFF7E7FF04E000F098F8204600F061
:1038000096F8257620680169C943490717D4C1682D
:10381000C943490713D46FF00401016102202076E7
:103820002068806910F4407F204602D0FFF7CAFF6D
:1038300004E000F07BF8204600F079F82576206857
:103840000169C943090716D4C168C943090712D4DD
:103850006FF008010161042020762068C0698007AC
:10386000204602D0FFF7AEFF04E000F05FF82046EC
:1038700000F05DF8257620680169C943C90617D4B0
:10388000C168C943C90613D46FF010010161082053
:1038900020762068C06910F4407F204602D0FFF7F0
:1038A00091FF04E000F042F8204600F040F8257651
:1038B00020680169C943C90708D1C168C943C9075C
:1038C00004D1891E0161204600F032F820680169A8
:1038D000C943090609D4C168C943090605D46FF074
:1038E000800101612046FFF725FF20680169C94377
:1038F000490609D4C168C943490605D46FF040019F
:103900000161204600F026F820680169C943890654
:103910000BD4C168C943890607D46FF02001016147
:103920002046BDE87040FFF706BF70BD7047704786
:103930000649884206D10649D1F8800218B1002014
:10394000C1F8800270470120FAE70000DC1900206E
:10395000008040427047704738B5016804460868E7
:10396000CA68C0F3000002F4807238B132B108684E
:1039700048680090E06B40F00100E06308684A6925
:10398000C0F3400002F0010238B132B10868486863
:103990000090E06B40F00400E06308684A69C0F3FF
:1039A000800002F0010238B132B108684868009026
:1039B000E06B40F00200E06308684A69C0F3C000B1
:1039C00002F0010238B132B1086848680090E06B3B
:1039D00040F00800E0630868C968C0F3401001F0D7
:1039E000200118B111B1204605F07AFA206801686B
:1039F000C068C1F3C01100F0800019B110B12046B9
:103A000005F07CFB21680868CA68C0F3801002F0EA
:103A10004002012568B162B1CA68204622F0400226
:103A2000CA6094F8391032290CD080F8395000F06F
:103A3000EDF8E06B002804D084F839502046FFF7F9
:103A40008AFF38BD222180F83910F0E770B50400F4
:103A500004D094F83900002510B106E0012070BDB3
:103A600084F83850204600F021F8022084F839000C
:103A70002068C16821F40051C160204605F084FA35
:103A80002068016921F4904101612068416921F0B9
:103A90002A0141612068C16841F40051C160E563B9
:103AA000012084F83900002070BD000030B50446C4
:103AB0000068204987B0884239D11F48016841F029
:103AC00001010160006800F0010005901A481430FF
:103AD000016841F0100101600068012100F0100050
:103AE00005904FF4007000900220CDE90101039091
:103AF0000720124D049069462846FDF725FF28153A
:103B0000009069462846FDF71FFF2068C16821F034
:103B10004001C1602068C16841F02001C1602520DA
:103B2000FEF746FA032211462520FEF74DFA07B0AC
:103B300030BD00000010014030380240000002405B
:103B40002DE9F047044690F8390099460D460128C2
:103B500001D0122857D125B31AB394F838000128A0
:103B600051D0012684F838600027E76394F83900C3
:103B7000122819D0222084F83900A285E2854FF45A
:103B80008058E08D4B46401EE085A0684FF0000253
:103B900040454FF02001204616D105F0E2FAB0B9B9
:103BA00004E00120BDE8F0873220E4E72069002826
:103BB0002068406803D0C1B225F8011B12E0C0F3B1
:103BC000080125F8021B0DE005F0CBFA08B103202F
:103BD000E8E7206900282068406801D000F07F00F5
:103BE00005F8010BE08D0028CBD194F8390032287C
:103BF00005D084F8396084F838700020D2E71220AC
:103C000084F83900F7E70220CCE770477047FEE7F9
:103C10000022134602E020F81230521C8A42FADBDE
:103C20000020704770B51B4886B00025016841F040
:103C300001010160016801F001010591016841F095
:103C400004010160016801F004010591016841F07F
:103C5000800101600068032400F0800005900220CC
:103C60000126CDE90204CDE9006569460A48FDF761
:103C70006BFE700303948DE8610069460748FDF709
:103C800063FE0C20009069460548FDF75DFE06B016
:103C900070BD0000303802400000024000080240C1
:103CA000001C02402DE9F0470126304C7703DFF875
:103CB000C080DFF8C090304D01281DD02078A0B121
:103CC00008212846FDF72EFFC0B104212846FDF744
:103CD00029FF98B139464046FDF724FF70B1012114
:103CE0004846FDF71FFF012808D008212846FDF7A8
:103CF00019FF012826D037E02670E1E70A2005F0F9
:103D00009DFF0020207008212846FDF70BFF80B1A1
:103D100004212846FDF706FF70B139464046FDF7FD
:103D200001FF58B101214846FDF7FCFE012807D0EC
:103D30001AE00120BDE8F0870220FBE70320F9E745
:103D40000420F7E704212846FDF7ECFE01280BD1FB
:103D500039464046FDF7E6FE012805D101214846D7
:103D6000FDF7E0FE00B926700020E3E7C400002064
:103D70000008024000000240001C024070B50E49DD
:103D80000E4A064608881268002422B13046BDE873
:103D9000704002F017BE4D8800214543084602F0EE
:103DA0007DFC02F0D7FDB1B2054801E00180641C42
:103DB000AC42FBD370BD00002C050020180600208B
:103DC000000008602DE9F05F394C3A4DA071296878
:103DD00039B102F017FEE88A2080288B6080BDE8A8
:103DE000F09F33492C232A2589884FF0F00949F2A6
:103DF000413A2B2645F2105B4FF4305E4FF4487782
:103E00004FF4A07845F2103C4FF4F07258B1A4F88A
:103E10000080A4F80290514501D0614529D1238149
:103E20006581A68139E0A4F80090A4F8028051458C
:103E300001D0614508D123816581A681614531D1D9
:103E4000A4F8008062802DE0594508D1A4F808E06C
:103E50004FF4285060814FF42C50A08106E0A1F56A
:103E6000C85063381ED123816681A5812280678076
:103E700018E0594508D1A4F808E04FF428506081B3
:103E80004FF42C50A08106E0A1F5C850633804D14E
:103E900023816581A68127806280614502D12280CD
:103EA000A4F80280BDE8F05F002002F01BBB000018
:103EB0002C0500201806002010B5084A084C12688E
:103EC00022B12268BDE8104002F0B0BD02F0E6FB6E
:103ED00002F040FD03492088088010BD180600202C
:103EE000C8000020000008602DE9FC5F8046002427
:103EF000154603200F46A0EB450649E0781B81B22A
:103F000008EB040A01901FFA8AF0FFF7D5FF381B6F
:103F100081B208EB050900901FFA89F0FFF7CCFF8A
:103F200007EB040B1FFA8BF11FFA89F0FFF7C4FFB0
:103F300007EB05091FFA89F11FFA8AF0FFF7BCFFAA
:103F4000A8EB040A1FFA89F11FFA8AF0FFF7B4FF01
:103F5000A8EB05091FFA8BF11FFA89F0FFF7ACFFF8
:103F6000019881B21FFA8AF0FFF7A6FF009881B28C
:103F70001FFA89F0FFF7A0FF641C002E03DA06EB9E
:103F80008406B61D04E0601B06EB80066D1E0A3633
:103F9000AC42B3DDBDE8FC9F2DE9F04104463A4850
:103FA0000D46006820B12046BDE8F04102F03EBD5C
:103FB000364E270A3146B0884989A0F513434FEAA7
:103FC0001528413B0CD0A0F5A643103B08D0A0F526
:103FD000AA43103B11D0A0F5C853633B27D04BE058
:103FE000084602F06BFC384602F05CFCE0B202F0DE
:103FF00059FCB08902F062FC38E0084602F05EFC31
:10400000384602F04FFC7089401C80B202F056FC2A
:10401000E0B202F047FCB08902F050FC404602F0EA
:1040200041FCB089401C80B202F048FC21E0B0792C
:1040300018B93088001B401E84B2084602F03EFCCE
:10404000270A384602F02EFCE0B202F02BFC38467C
:1040500002F028FCE0B202F025FCB08902F02EFC50
:10406000404602F01FFCE8B202F01CFC404602F0A1
:1040700019FCE8B202F016FC054930890880881C5A
:104080000280BDE8F0810000180600202C05002009
:10409000FEFF07602DE9F8431F46144B8046089841
:1040A0001B6833B100903B46404602F0DDFCBDE8A2
:1040B000F883A2EB0802521C96B20C4685B2DFF8D8
:1040C00030900FE02146404602F0E8FA02F042FC50
:1040D0000020494602E00D80401C80B2B042FAD375
:1040E000641CA4B2BC42EDD9E1E700001806002030
:1040F000000008602DE9F04F95B002F053FEFE4D30
:104100004FF0010AA5F15009A88049F2413B45F260
:10411000103645F2105441F6631818B102F0FEFC57
:1041200002F08BB9F5480027016841F002010160F7
:10413000006810A900F0020000902020CDE9100ACC
:104140000320CDE912A0EE48FDF7FEFB4FF0204121
:104150004846C9F80010EB49C0E901171021C9F819
:104160000C70C0E90471C9F818700902C9F81C7014
:10417000C0E909718900C0E90B71C9F8347089017F
:10418000C9E90E7146210B910F20CDE90907CDE950
:1041900002070490D8480F9702AA09A90897503837
:1041A000FFF741FA322005F049FDD32002F086FBEB
:1041B00002F066F9A88002F063F9A88002F060F9C5
:1041C0004FF6FF7202EA0020A88002F059F9A98890
:1041D0005F460843A880B84248D0D42002F06EFB66
:1041E00002F04EF9A88002F04BF9A88002F048F9DD
:1041F00002EA0020A88002F043F9A9880843A880B9
:10420000B04233D04FF45A4002F058FB02F038F974
:10421000A8804FF45B4002F051FB02F031F902EA52
:104220000020A8804FF45C4002F048FB02F028F91F
:10423000A9880843A880B0F5004F7DD0A04215D0D2
:10424000A12002F03BFB02F01BF9A88002F018F954
:1042500002EA0020A88002F013F9A9880843A0F51B
:10426000AE41A880613901D1A5F80480A988A6A033
:10427000FCF796F8A888B8427ED1CF2002F01EFB4A
:10428000002002F00FFBC12002F00CFB302002F0F6
:1042900009FBED2002F012FB642002F003FB032077
:1042A00002F000FB122002F0FDFA812002F0FAFA7F
:1042B000E82002F003FB852002F0F4FA102002F05F
:1042C000F1FA7A2002F0EEFACB2002F0F7FA392068
:1042D00002F0E8FA2C2002F0E5FA002002F0E2FAFF
:1042E000342002F0DFFA022002F0DCFAF72002F0BC
:1042F000E5FA202002F0D6FAEA2002F0DFFA0020E8
:1043000002F0D0FA002002F0CDFAC02002F0D6FA76
:104310001B2002F0C7FAC12002F0D0FA012002F0FF
:10432000C1FAC52002F0CAFA302002F0BBFA3020F0
:1043300002F0B8FAC72000E0B7E002F0BFFAB720F9
:1043400002F0B0FA362002F0B9FA482002F0AAFAD8
:104350003A2002F0B3FA552002F0A4FAB12002F09C
:10436000ADFA002002F09EFA1A2002F09BFAB62065
:1043700002F0A4FA0A2000E099E002F093FAA220E9
:1043800002F090FAF22002F099FA002002F08AFA84
:10439000262002F093FA012002F084FAE02002F0D5
:1043A0008DFA0F2002F07EFA2A2002F07BFA2820F4
:1043B00002F078FA082002F075FA0E2002F072FA84
:1043C000082002F06FFA542002F06CFAA92002F0E3
:1043D00069FA432002F066FA0A2002F063FA0F201D
:1043E00002F060FA002002F05DFA002002F05AFAB2
:1043F000002002F057FA002002F054FAE12002F007
:104400005DFA002002F04EFA152002F04BFA172058
:1044100002F048FA072002F045FA112002F042FAB1
:10442000062002F03FFA2B2002F03CFA562002F060
:1044300039FA3C2002F036FA052002F033FA102057
:1044400002F030FA0F2002F02DFA3F2002F02AFA93
:104450003F2002F027FA0F2002F024FA2B2002F06E
:104460002DFA002002F01EFA002002F01BFA0120B3
:1044700002F018FA3F2002F015FA2A2002F01EFA84
:10448000002002F00FFA002002F00CFA002002F0E7
:1044900009FAEF2002F006FA112002F00FFA782054
:1044A00005F0CCFB292001F00BBFAC80DEE6B0426A
:1044B0007ED1ED2002F002FA012002F0F3F9FE2095
:1044C00002F0F0F9EE2002F0F9F9DE2002F0EAF94C
:1044D000212002F0E7F9F12002F0F0F9012002F0CA
:1044E000E1F9DF2002F0EAF9102002F0DBF9C42044
:1044F00002F0E4F98F200FE02C0500203038024054
:1045000000040240040100A0204C43442049443AE6
:1045100025780D0A0000000002F0C4F9C62002F060
:10452000CDF9002002F0BEF9E22002F0BBF9E22052
:1045300002F0B8F9E22002F0B5F9BF2002F0BEF9AE
:10454000AA2002F0AFF9B02002F0B8F90D2002F075
:10455000A9F9002002F0A6F90D2002F0A3F900202D
:1045600002F0A0F9112002F09DF9002002F09AF962
:10457000192002F097F9002002F094F9212002F0AE
:1045800091F9002002F08EF92D2002F08BF9002025
:1045900002F088F93D2002F085F9002002F082F94E
:1045A0005D2002F07FF9002002F07CF95D2000E040
:1045B000FEE302F077F9002002F074F9B12002F076
:1045C0007DF9802002F06EF9002002F06BF98B205B
:1045D00002F068F9002002F065F9962002F062F915
:1045E000002002F05FF9B22002F068F9002002F02A
:1045F00059F9002002F056F9022002F053F9002088
:1046000002F050F9032002F04DF9002002F04AF9BF
:10461000B32002F053F9002002F044F9002002F028
:1046200041F9002002F03EF9002002F03BF90020A1
:1046300002F038F9002002F035F9002002F032F9DA
:10464000002002F02FF9002002F02CF9002002F0E7
:1046500029F9002002F026F9002002F023F90020B9
:1046600002F020F9002002F01DF9002002F01AF9F2
:10467000002002F017F9002002F014F9002002F0E7
:1046800011F9002002F00EF9002002F00BF90020D1
:1046900002F008F9002002F005F9002002F002F90A
:1046A000002002F0FFF8B42002F008F98B2002F09D
:1046B000F9F8002002F0F6F8962002F0F3F8002056
:1046C00002F0F0F8A12002F0EDF8002002F0EAF884
:1046D000B52002F0F3F8022002F0E4F8002002F026
:1046E000E1F8032002F0DEF8002002F0DBF80420FD
:1046F00002F0D8F8002002F0D5F8B62002F0DEF87B
:10470000002002F0CFF8002002F0CCF8B72002F031
:10471000D5F8002002F0C6F8002002F0C3F83F20D0
:1047200002F0C0F8002002F0BDF85E2002F0BAF8F6
:10473000002002F0B7F8642002F0B4F8002002F084
:10474000B1F88C2002F0AEF8002002F0ABF8AC20FB
:1047500002F0A8F8002002F0A5F8DC2002F0A2F890
:10476000002002F09FF8702002F09CF8002002F078
:1047700099F8902002F096F8002002F093F8EB20D0
:1047800002F090F8002002F08DF8DC2002F08AF8A8
:10479000002002F087F8B82002F090F8002002F024
:1047A00081F8002002F07EF8002002F07BF8002063
:1047B00002F078F8002002F075F8002002F072F89C
:1047C000002002F06FF8002002F06CF8BA2002F02E
:1047D00075F8242002F066F8002002F063F800204B
:1047E00002F060F8002002F05DF8C12002F066F8E7
:1047F000202002F057F8002002F054F8542002F074
:1048000051F8002002F04EF8FF2002F04BF8002093
:1048100002F048F8C22002F051F80A2002F042F8F3
:10482000002002F03FF8042002F03CF8002002F0E3
:1048300039F8C32002F042F83C2002F033F800209F
:1048400002F030F83A2002F02DF8002002F02AF8A9
:10485000392002F027F8002002F024F8372002F077
:1048600021F8002002F01EF83C2002F01BF8002086
:1048700002F018F8362002F015F8002002F012F8C5
:10488000322002F00FF8002002F00CF82F2002F086
:1048900009F8002002F006F82C2002F003F80020AE
:1048A00002F000F8292001F0FDFF002001F0FAFFDE
:1048B000262001F0F7FF002001F0F4FF242001F092
:1048C000F1FF002001F0EEFF242001F0EBFF0020BB
:1048D00001F0E8FF232001F0E5FF002001F0E2FFF6
:1048E0003C2001F0DFFF002001F0DCFF362001F06A
:1048F000D9FF002001F0D6FF322001F0D3FF0020C5
:1049000001F0D0FF2F2001F0CDFF002001F0CAFF01
:104910002C2001F0C7FF002001F0C4FF292001F086
:10492000C1FF002001F0BEFF262001F0BBFF0020E8
:1049300001F0B8FF242001F0B5FF002001F0B2FF24
:10494000242001F0AFFF002001F0ACFF232001F094
:10495000A9FF002001F0A6FFC42001F0AFFF6220F4
:1049600001F0A0FF002001F09DFF052001F09AFF5B
:10497000002001F097FF842001F094FF002001F057
:1049800091FFF02001F08EFF002001F08BFF182036
:1049900001F088FF002001F085FFA42001F082FFD4
:1049A000002001F07FFF182001F07CFF002001F0C3
:1049B00079FF502001F076FF002001F073FF0C20FA
:1049C00001F070FF002001F06DFF172001F06AFF79
:1049D000002001F067FF952001F064FF002001F046
:1049E00061FFF32001F05EFF002001F05BFFE62095
:1049F00001F058FF002001F055FFC52001F05EFFD7
:104A0000322001F04FFF002001F04CFF442001F064
:104A100049FF002001F046FF652001F043FF002020
:104A200001F040FF762001F03DFF002001F03AFF49
:104A3000882001F037FF002001F034FFC62001F08C
:104A40003DFF202001F02EFF002001F02BFF17205A
:104A500001F028FF002001F025FF012001F022FFD6
:104A6000002001F01FFFC72001F028FF002001F007
:104A700019FF002001F016FF002001F013FF0020B5
:104A800001F010FFC82001F019FF002001F00AFF1B
:104A9000002001F007FF002001F004FF002001F0DA
:104AA00001FFC92001F00AFF002001F0FBFE0020F9
:104AB00001F0F8FE002001F0F5FE002001F0F2FE0A
:104AC000002001F0EFFE002001F0ECFE002001F0DC
:104AD000E9FE002001F0E6FE002001F0E3FE0020E8
:104AE00001F0E0FE002001F0DDFE002001F0DAFE22
:104AF000002001F0D7FE002001F0D4FE002001F0DC
:104B0000D1FE002001F0CEFEE02001F0D7FE1620FD
:104B100001F0C8FE002001F0C5FE1C2001F0C2FE1D
:104B2000002001F0BFFE212001F0BCFE002001F0BA
:104B3000B9FE362001F0B6FE002001F0B3FE46209B
:104B400001F0B0FE002001F0ADFE522001F0AAFEFF
:104B5000002001F0A7FE642001F0A4FE002001F077
:104B6000A1FE7A2001F09EFE002001F09BFE8B202A
:104B700001F098FE002001F095FE992001F092FED0
:104B8000002001F08FFEA82001F08CFE002001F033
:104B900089FEB92001F086FE002001F083FEC420CA
:104BA00001F080FE002001F07DFECA2001F07AFEB7
:104BB000002001F077FED22001F074FE002001F009
:104BC00071FED92001F06EFE002001F06BFEE020A6
:104BD00001F068FE002001F065FEF32001F062FEA6
:104BE000002001F05FFEE12001F068FE162001F0D8
:104BF00059FE002001F056FE1C2001F053FE00205B
:104C000001F050FE222001F04DFE002001F04AFE8E
:104C1000362001F047FE002001F044FE452001F05F
:104C200041FE002001F03EFE522001F03BFE00203C
:104C300001F038FE642001F035FE002001F032FE64
:104C40007A2001F02FFE002001F02CFE8B2001F0D5
:104C500029FE002001F026FE992001F023FE00200D
:104C600001F020FEA82001F01DFE002001F01AFE38
:104C7000B92001F017FE002001F014FEC42001F05D
:104C800011FE002001F00EFECA2001F00BFE0020F4
:104C900001F008FED22001F005FE002001F002FE26
:104CA000D82001F0FFFD002001F0FCFDE02001F024
:104CB000F9FD002001F0F6FDF32001F0F3FD0020E6
:104CC00001F0F0FDE22001F0F9FD052001F0EAFD20
:104CD000002001F0E7FD0B2001F0E4FD002001F0D1
:104CE000E1FD1B2001F0DEFD002001F0DBFD3420A2
:104CF00001F0D8FD002001F0D5FD442001F0D2FDE7
:104D0000002001F0CFFD4F2001F0CCFD002001F08C
:104D1000C9FD612001F0C6FD002001F0C3FD79202E
:104D200001F0C0FD002001F0BDFD882001F0BAFDBA
:104D3000002001F0B7FD972001F0B4FD002001F044
:104D4000B1FDA62001F0AEFD002001F0ABFDB720C3
:104D500001F0A8FD002001F0A5FDC22001F0A2FD98
:104D6000002001F09FFDC72001F09CFD002001F014
:104D700099FDD12001F096FD002001F093FDD62091
:104D800001F090FD002001F08DFDDD2001F08AFD95
:104D9000002001F087FDF32001F084FD002001F0E8
:104DA00081FDE32001F08AFD052001F07BFD00E09C
:104DB0000AE3002001F076FD0A2001F073FD0020D7
:104DC00001F070FD1C2001F06DFD002001F06AFD76
:104DD000332001F067FD002001F064FD442001F064
:104DE00061FD002001F05EFD502001F05BFD002020
:104DF00001F058FD622001F055FD002001F052FD48
:104E0000782001F04FFD002001F04CFD882001F0DA
:104E100049FD002001F046FD972001F043FD0020F0
:104E200001F040FDA62001F03DFD002001F03AFD1B
:104E3000B72001F037FD002001F034FDC22001F061
:104E400031FD002001F02EFDC72001F02BFD0020D8
:104E500001F028FDD12001F025FD002001F022FD08
:104E6000D52001F01FFD002001F01CFDDD2001F028
:104E700019FD002001F016FDF32001F013FD0020C4
:104E800001F010FDE42001F019FD012001F00AFD00
:104E9000002001F007FD012001F004FD002001F0D9
:104EA00001FD022001F0FEFC002001F0FBFC2A20A5
:104EB00001F0F8FC002001F0F5FC3C2001F0F2FCD0
:104EC000002001F0EFFC4B2001F0ECFC002001F091
:104ED000E9FC5D2001F0E6FC002001F0E3FC742019
:104EE00001F0E0FC002001F0DDFC842001F0DAFCA0
:104EF000002001F0D7FC932001F0D4FC002001F049
:104F0000D1FCA22001F0CEFC002001F0CBFCB320AC
:104F100001F0C8FC002001F0C5FCBE2001F0C2FC7D
:104F2000002001F0BFFCC42001F0BCFC002001F017
:104F3000B9FCCD2001F0B6FC002001F0B3FCD32079
:104F400001F0B0FC002001F0ADFCDD2001F0AAFC76
:104F5000002001F0A7FCF32001F0A4FC002001F0E8
:104F6000A1FCE52001F0AAFC002001F09BFC002040
:104F700001F098FC002001F095FC002001F092FC6B
:104F8000022001F08FFC002001F08CFC292001F0B0
:104F900089FC002001F086FC3C2001F083FC00200D
:104FA00001F080FC4B2001F07DFC002001F07AFC38
:104FB0005D2001F077FC002001F074FC742001F00A
:104FC00071FC002001F06EFC842001F06BFC0020DD
:104FD00001F068FC932001F065FC002001F062FC08
:104FE000A22001F05FFC002001F05CFCB32001F086
:104FF00059FC002001F056FCBE2001F053FC0020BB
:1050000001F050FCC42001F04DFC002001F04AFCEE
:10501000CD2001F047FC002001F044FCD32001F03A
:1050200041FC002001F03EFCDC2001F03BFC0020B4
:1050300001F038FCF32001F035FC002001F032FCD7
:10504000E62001F03BFC112001F02CFC002001F0D7
:1050500029FC342001F026FC002001F023FC56201E
:1050600001F020FC002001F01DFC762001F01AFC6C
:10507000002001F017FC772001F014FC002001F063
:1050800011FC662001F00EFC002001F00BFC8820D2
:1050900001F008FC002001F005FC992001F002FC61
:1050A000002001F0FFFBBB2001F0FCFB002001F021
:1050B000F9FB992001F0F6FB002001F0F3FB6620DC
:1050C00001F0F0FB002001F0EDFB552001F0EAFBC0
:1050D000002001F0E7FB552001F0E4FB002001F087
:1050E000E1FB452001F0DEFB002001F0DBFB43206B
:1050F00001F0D8FB002001F0D5FB442001F0D2FBE9
:10510000002001F0CFFBE72001F0D8FB322001F0B6
:10511000C9FB002001F0C6FB552001F0C3FB0020B5
:1051200001F0C0FB762001F0BDFB002001F0BAFBCE
:10513000662001F0B7FB002001F0B4FB672001F00E
:10514000B1FB002001F0AEFB672001F0ABFB0020BB
:1051500001F0A8FB872001F0A5FB002001F0A2FBD5
:10516000992001F09FFB002001F09CFBBB2001F087
:1051700099FB002001F096FB992001F093FB0020A1
:1051800001F090FB772001F08DFB002001F08AFBFD
:10519000442001F087FB002001F084FB562001F041
:1051A00081FB002001F07EFB232001F07BFB00202F
:1051B00001F078FB332001F075FB002001F072FB59
:1051C000452001F06FFB002001F06CFBE82001F0AE
:1051D00075FB002001F066FB002001F063FB9920C5
:1051E00001F060FB002001F05DFB872001F05AFB1D
:1051F000002001F057FB882001F054FB002001F053
:1052000051FB772001F04EFB002001F04BFB6620A4
:1052100001F048FB002001F045FB882001F042FB33
:10522000002001F03FFBAA2001F03CFB002001F030
:1052300039FBBB2001F036FB002001F033FB992045
:1052400001F030FB002001F02DFB662001F02AFB6D
:10525000002001F027FB552001F024FB002001F085
:1052600021FB552001F01EFB002001F01BFB442018
:1052700001F018FB002001F015FB442001F012FBA7
:10528000002001F00FFB552001F00CFB002001F085
:1052900009FBE92001F012FBAA2001F003FB00202A
:1052A00001F000FB002001F0FDFA002001F0FAFA05
:1052B000002001F003FBAA2001F0F4FACF2001F056
:1052C000FDFA002001F0EEFA002001F0EBFA0020D8
:1052D00001F0E8FA002001F0E5FA002001F0E2FA1E
:1052E000002001F0DFFA002001F0DCFA002001F0DC
:1052F000D9FA002001F0D6FA002001F0D3FA0020FC
:1053000001F0D0FA002001F0CDFA002001F0CAFA35
:10531000002001F0C7FA002001F0C4FA002001F0DB
:10532000C1FA002001F0BEFAF02001F0C7FA002017
:1053300001F0B8FA502001F0B5FA002001F0B2FAFD
:10534000002001F0AFFA002001F0ACFAF32001F0E8
:10535000B5FA002001F0A6FAF92001F0AFFA062014
:1053600001F0A0FA102001F09DFA292001F09AFA2C
:10537000002001F097FA3A2001F0A0FA552001F040
:1053800091FA112001F09AFA642004F057FC2920C8
:1053900001F094FA352001F091FA002001F082FA30
:1053A000512001F08BFAFF2001F07CFA532001F02C
:1053B00085FA2C2001F076FA552001F07FFA822040
:1053C00001F070FA2C20FDE3A0427DD14FF4704330
:1053D0005521184601F0C8FA4FF20107AA213846B4
:1053E00001F0C2FA5221781C01F0BEFA0821B81C63
:1053F00001F0BAFA0121F81C01F0B6FA0D214FF4C0
:10540000304001F0B1FA0D214BF2010001F0ACFA8D
:105410000D214BF2020001F0A7FA34214FF436407F
:1054200001F0A2FA34214BF2016001F09DFA34211F
:105430004BF2026001F098FA0D214FF4314001F077
:1054400093FA0D214BF2011001F08EFA0D214BF26F
:10545000021001F089FA34214FF4374001F084FA48
:1054600034214BF2017001F07FFA34214BF20270CB
:1054700001F07AFA00214FF4324001F075FA002170
:105480004BF2012001F070FA00214BF2022001F0F2
:105490006BFA24214FF4384001F066FA24214BF6D0
:1054A000010001F061FA24214BF6020001F05CFAE0
:1054B00001214FF43F4001F057FA0F214FF43340E0
:1054C00001F052FA0F2100E0FEE34BF2013001F04F
:1054D0004BFA0F214BF2023001F046FA34214FF41F
:1054E000394001F041FA34214BF6011001F03CFA49
:1054F00034214BF6021001F037FA08214FF4354001
:1055000001F032FA08214BF2015001F02DFA082186
:105510004BF2025001F028FA03214FF4424001F00F
:1055200023FA24214FF43A4001F01EFA24214BF6CD
:10553000012001F019FA24214BF6022001F014FA9F
:1055400000214FF43C4001F00FFA78214BF6014066
:1055500001F00AFA00214BF6024001F005FA0021A1
:105560004FF43D4001F000FA78214BF6015001F074
:10557000FBF900214BF6025001F0F6F900214FF43F
:105580003E4001F0F1F964214BF6016001F0ECF9C5
:1055900000214FF4514001F0E7F933214DF20110A1
:1055A00001F0E2F900214DF2021001F0DDF93421A1
:1055B0004DF2031001F0D8F900214DF2041001F072
:1055C000D3F93A214DF2051001F0CEF900214DF248
:1055D000061001F0C9F94A214DF2071001F0C4F993
:1055E00000214DF2081001F0BFF95C214DF20910C5
:1055F00001F0BAF900214DF20A1001F0B5F981214C
:105600004DF20B1001F0B0F900214DF20C1001F039
:10561000ABF9A6214DF20D1001F0A6F900214DF2D3
:105620000E1001F0A1F9E5214DF20F1001F09CF9E7
:1056300001214DF2101001F097F913214DF21110D4
:1056400001F092F901214DF2121001F08DF954216F
:105650004DF2131001F088F901214DF2141001F000
:1056600083F982214DF2151001F07EF901214DF2EE
:10567000161001F079F9CA214DF2171001F074F9F2
:1056800002214DF2181001F06FF900214DF21910AE
:1056900001F06AF902214DF21A1001F065F90121B9
:1056A0004DF21B1001F060F902214DF21C1001F0C7
:1056B0005BF934214DF21D1001F056F902214DF233
:1056C0001E1001F051F967214DF21F1001F04CF945
:1056D00002214DF2201001F047F984214DF22110F2
:1056E00001F042F902214DF2221001F03DF9A4210E
:1056F0004DF2231001F038F902214DF2241001F08F
:1057000033F9B7214DF2251001F02EF902214DF2A7
:10571000261001F029F9CF214DF2271001F024F9CC
:1057200002214DF2281001F01FF9DE214DF229105F
:1057300001F01AF902214DF22A1001F015F9F221B7
:105740004DF22B1001F010F902214DF22C1001F056
:105750000BF9FE214DF22D1001F006F903214DF257
:105760002E1001F001F910214DF22F1001F0FCF87C
:1057700003214DF2301001F0F7F833214DF23110D2
:1057800001F0F2F803214DF2321001F0EDF86D2135
:105790004DF2331001F0E8F800214FF4524001F0CF
:1057A000E3F833214DF2012001F0DEF800214DF243
:1057B000022001F0D9F834214DF2032001F0D4F891
:1057C00000214DF2042001F0CFF83A214DF20520DE
:1057D00001F0CAF800214DF2062001F0C5F84A2177
:1057E0004DF2072001F0C0F800214DF2082001F031
:1057F000BBF85C214DF2092001F0B6F800214DF212
:105800000A2001F0B1F881214DF20B2001F0ACF833
:1058100000214DF20C2001F0A7F8A6214DF20D2039
:1058200001F0A2F800214DF20E2001F09DF8E521D3
:105830004DF20F2001F098F801214DF2102001F0F7
:1058400093F813214DF2112001F08EF801214DF251
:10585000122001F089F854214DF2132001F084F850
:1058600001214DF2142001F07FF882214DF2152024
:1058700001F07AF801214DF2162001F075F8CA21E5
:105880004DF2172001F070F802214DF2182001F0BE
:105890006BF800214DF2192001F066F802214DF25B
:1058A0001A2001F061F801214DF21B2001F05CF893
:1058B00002214DF21C2001F057F834214DF21D2039
:1058C00001F052F802214DF21E2001F04DF867213F
:1058D0004DF21F2001F048F802214DF2202001F086
:1058E00043F884214DF2212001F03EF802214DF2CF
:1058F000222001F039F8A4214DF2232001F034F8E0
:1059000002214DF2242001F02FF8B7214DF225207D
:1059100001F02AF802214DF2262001F025F8CF21CE
:105920004DF2272001F020F802214DF2282001F04D
:105930001BF8DE214DF2292001F016F802214DF26C
:105940002A2001F011F8F2214DF22B2001F00CF881
:1059500002214DF22C2001F007F8FE214DF22D20FE
:1059600001F002F803214DF22E2000F0FDFF10217E
:105970004DF22F2000F0F8FF03214DF2302000F00F
:10598000F3FF33214DF2312000F0EEFF03214DF201
:10599000322000F0E9FF6D214DF2332000F0E4FFEA
:1059A00000214FF4534000F0DFFF33214DF201306E
:1059B00000F0DAFF00214DF2023000F0D5FF342173
:1059C0004DF2033000F0D0FF00214DF2043000F022
:1059D000CBFF3A214DF2053000F0C6FF00214DF219
:1059E000063000F0C1FF4A214DF2073000F0BCFF45
:1059F00000214DF2083000F0B7FF5C214DF2093074
:105A000000F0B2FF00214DF20A3000F0ADFF81211D
:105A10004DF20B3000F0A8FF00214DF20C3000F0E9
:105A2000A3FFA6214DF20D3000F09EFF00214DF2A4
:105A30000E3000F099FFE5214DF20F3000F094FF99
:105A400001214DF2103000F08FFF13214DF2113083
:105A500000F08AFF01214DF2123000F085FF542141
:105A60004DF2133000F080FF01214DF2143000F0B0
:105A70007BFF82214DF2153000F076FF01214DF2BF
:105A8000163000F071FFCA214DF2173000F06CFFA4
:105A900002214DF2183000F067FF00214DF219305D
:105AA00000F062FF02214DF21A3000F05DFF01218B
:105AB0004DF21B3000F058FF02214DF21C3000F077
:105AC00053FF34214DF21D3000F04EFF02214DF204
:105AD0001E3000F049FF67214DF21F3000F044FFF7
