:020000040800F2
:1000000028C502206D020008DD6C00089B32000844
:100010002B630008FD060008197E000800000000A0
:1000200000000000000000000000000063780008ED
:10003000FF06000800000000FF6C0008417A00087D
:10004000870200088702000887020008870200086C
:10005000870200088702000887020008870200085C
:10006000870200088702000887020008870200084C
:10007000870200088702000887020008870200083C
:10008000870200088702000887020008870200082C
:10009000870200088702000887020008870200081C
:1000A000870200088702000887020008870200080C
:1000B00087020008870200088702000887020008FC
:1000C00087020008870200088702000887020008EC
:1000D00087020008AD7D000887020008870200083B
:1000E00087020008870200088702000887020008CC
:1000F00087020008870200088702000887020008BC
:1001000087020008870200088702000887020008AB
:10011000870200088702000887020008870200089B
:10012000870200088702000887020008870200088B
:10013000870200088702000887020008870200087B
:10014000870200088702000887020008870200086B
:10015000870200088702000887020008870200085B
:10016000870200088702000887020008870200084B
:1001700087020008870200088702000800000000CC
:10018000870200088702000887020008870200082B
:10019000870200088702000887020008870200081B
:1001A00087020008870200088702000800F002F8B2
:1001B00000F044F80AA090E8000C82448344AAF1BD
:1001C0000107DA4501D100F039F8AFF2090EBAE8BB
:1001D0000F0013F0010F18BFFB1A43F0010318477B
:1001E00040D3000060D30000103A24BF78C878C123
:1001F000FAD8520724BF30C830C144BF04680C602D
:10020000704700000023002400250026103A28BF74
:1002100078C1FBD8520728BF30C148BF0B60704778
:10022000642900F08580782900F0BE8000207047A6
:100230001FB508F0A1FD1FBD10B510BD00F02CFAD0
:100240001146FFF7F5FF08F0D9FA00F04AFA03B4B7
:10025000FFF7F2FF03BC07F079FF000030BF72B672
:10026000704762B6704780F3088870470948804736
:1002700009480047FEE7FEE7FEE7FEE7FEE7FEE788
:10028000FEE7FEE7FEE7FEE704480549054A064BA0
:1002900070470000457A0008AD01000828BF022021
:1002A00028C5022028C1022028C102207047000072
:1002B0000FB4044910B503AA029800F0BFF910BCAE
:1002C0005DF814FB200000202DE9F0410E460446A5
:1002D000002020622046E168884730B3252805D0F9
:1002E000D4E901219047206A401CF2E7E1682046EA
:1002F00000278847050018D0A5F14100192802D829
:1003000020354FF400673246294620462760FFF724
:1003100087FF40B1012804D0F61D26F007060836F5
:10032000D8E7361DD6E72846DAE7206ABDE8F0812F
:100330002DE9F0410646002410687529314616A5BE
:1003400010D0AFF30080002802DA404213A507E086
:1003500031688A0701D512A502E0490704D511A525
:10036000012401E0AFF3008000210A2206F12407F6
:1003700009E0B0FBF2FCB0FBF2F302FB1C003030F2
:1003800078541846491C0028F3D123462A463046A3
:10039000BDE8F04100F0F8B8000000002D000000BA
:1003A0002B0000002000000070B504460D462146D9
:1003B0001068AFF300802188090502D50F4A7A44FE
:1003C00002E00E4A7A440E32002104F1240305E0D3
:1003D00000F00F060009965D5E54491C0028F7D115
:1003E00020780023000704D5702D02D009B1022324
:1003F00011322046BDE8704000F0C6B836D100008A
:10040000032A40F2308010F0030C00F0158011F840
:10041000013BBCF1020F624498BF11F801CB00F818
:10042000013B38BF11F8013BA2F1040298BF00F86C
:1004300001CB38BF00F8013B11F0030300F0258029
:10044000083AC0F0088051F8043B083A51F804CB50
:10045000A0E80810F5E7121D5CBF51F8043B40F816
:10046000043BAFF30080D20724BF11F8013B11F821
:1004700001CB48BF11F8012B24BF00F8013B00F865
:1004800001CB48BF00F8012B704710B5203AC0F0EF
:100490000B80B1E81850203AA0E81850B1E8185085
:1004A000A0E81850BFF4F5AF5FEA027C24BFB1E8C2
:1004B0001850A0E8185044BF18C918C0BDE8104033
:1004C0005FEA827C24BF51F8043B40F8043B08BF3C
:1004D0007047D20728BF31F8023B48BF11F8012B03
:1004E00028BF20F8023B48BF00F8012B70474FF0AF
:1004F00000020429C0F0128010F0030C00F01B80F1
:10050000CCF1040CBCF1020F18BF00F8012BA8BFFE
:1005100020F8022BA1EB0C0100F00DB85FEAC17CC2
:1005200024BF00F8012B00F8012B48BF00F8012B75
:1005300070474FF0000200B51346944696462039A6
:1005400022BFA0E80C50A0E80C50B1F12001BFF48C
:10055000F7AF090728BFA0E80C5048BF0CC05DF8F2
:1005600004EB890028BF40F8042B08BF704748BF40
:1005700020F8022B11F0804F18BF00F8012B7047B4
:1005800070477047704770472DE9F0470D46994610
:100590009246044600F124080168880604D5E06903
:1005A00021F01001216000E00120A84201DD471B7D
:1005B00000E00027A1697A1902EB0900081AA0617E
:1005C0002078C00602D42046AFF30080002608E061
:1005D000D4E901211AF806009047206A401C761CD5
:1005E00020624E45F4DB2078C0060AD52046AFF3E2
:1005F000008006E0D4E9012130209047206A401CA9
:100600002062381EA7F10107F4DC07E0D4E90121DC
:1006100018F805009047206A401C2062281EA5F1AA
:100620000105F3DC2046AFF300802078000602D5F8
:100630000220BDE8F0870120FBE70000074B70B502
:100640000D467B4400F011F80446284600F020F8DF
:1006500010B14FF0FF3070BD204670BDEF8000003C
:1006600001694A1C02610878704700B58FB0CDE976
:1006700001310021059105497944CDE90310114666
:100680006846FFF721FE0FB000BD0000E5FFFFFF49
:10069000007B00F080007047754600F02BF8AE46F6
:1006A00005006946534620F00700854618B020B57E
:1006B000FFF7EAFDBDE820404FF000064FF00007CD
:1006C0004FF000084FF0000B21F00701AC46ACE8FA
:1006D000C009ACE8C009ACE8C009ACE8C0098D4667
:1006E000704710B50446AFF300802046BDE81040C7
:1006F000FFF7ADBD00487047C4BE0220FEE770475B
:10070000102A0FD0C26AD1E9002342EA03220B89E2
:10071000097B4FEA034343EA016142EA010203D144
:10072000C26002E0C268EEE7C2624FF000007047AC
:10073000102A0FD0826AD1E9002342EA03220B89F2
:10074000097B4FEA034343EA016142EA010203D114
:10075000826002E08268EEE782624FF0000070473C
:1007600030B50A68102A1AD0026A104B02EA030256
:10077000D1E9013443EA0403D1E9034544EA05041D
:1007800043EA04034C69896943EA442343EA41315B
:1007900041EA020141F0080103D1016002E0026870
:1007A000E3E701624FF0000030BD00008101F0FF7F
:1007B00070B5B3F5804F05D06FF0704140F822104E
:1007C000002070BD50F82230084C2340D1E900458C
:1007D00044EA05148D688E892D0245EA064589692B
:1007E0002C430C431C4340F82240E9E70000F0CFC3
:1007F000F0B50C6850F82450194A1540D1E901238E
:10080000D1E903671A433E4332434E6932438E694E
:100810003243CE6932430E6A32434E6A32438E6AA5
:100820003243CE6A3243CE6B32430E6B32434E6B51
:1008300032432A43082B01D142F0400240F82420E1
:100840004A6BB2F5801F08D10A6832B14FF480724A
:100850000A6104490268114301600020F0BD0000F4
:100860008000E0FF00011000F0B500EB8202536849
:100870008E8903F04044D1E9003543EA05138D68C1
:100880002D0245EA06452B430E8A0D4D05EB065613
:1008900033430E7D6F0107EB066633438E693343A6
:1008A000234353600268D20207D54268098A22F4C2
:1008B000700205EB0151114341600020F0BD0000C2
:1008C0000000F0FF30B5D1E901231A43D1E9033428
:1008D00023431A434B690D681A438B691A43D1E9C4
:1008E0000734012D496A05686FF30E0505D01A43D8
:1008F00022430A432A43026008E0234329430B436F
:10090000416803606FF30E010A434260002030BD6E
:10091000426942EA4101416100207047F8B514463E
:100920000546D1E9000210438A686FF01F03C968C9
:1009300003EB421242EA412108430090286100F093
:1009400053FD064609E0601C07D024B100F04CFDC1
:10095000801BA04201D90320F8BDA8698006F2D40B
:100960000020F8BDF0B56FF00F05D1E9003405EBBC
:1009700004145B1E2E0123438C682F0306EB042412
:100980004FEA054C23430D8A8E8ACC68097E4FF0CE
:100990007F4E07EB05450CEB06560EEB0161012A75
:1009A0000CD082683F1107EB043423432B433343BD
:1009B00002F070420B43134383600FE0C2682B4385
:1009C0000B4302F070428168134301F0704221032F
:1009D000A1F5805131431143C36081600020F0BD17
:1009E00038B50446094D4FF0AA300090A879042389
:1009F00060436A46002106F061F9A8790423604348
:100A00006A460021401C06F059F938BD2016002026
:100A10002DE9FC47254F89460646002500240DF1A7
:100A2000040810E0CDF80080798870438B084A46AE
:100A3000002105F0DBFF7888BDF80410B1EB900FC2
:100A400004D1641CA4B2B879A042EBD8B879A04212
:100A500002D10020BDE8FC87304605F0E7FD20B15B
:100A6000294613A0FFF724FC16E0B9F1FF3F13D08D
:100A700000200AE07A8806FB001093080022114645
:100A800006F0F2F8BDF80400401CADF80400B87997
:100A9000BDF804108842EDD86D1CADB2032DBDD356
:100AA000314609A0FFF704FC0120D3E720160020FF
:100AB0006572726F7220657261736520626C6F631C
:100AC0006B3A25640D0A000062616420626C6F63FA
:100AD0006B20636865636B65643A25640D0A0000EA
:100AE00038B50446104D00208DF80000A879012388
:100AF00060436A46002105F0ADFF9DF80000FF2825
:100B000001D0022038BDA879012360436A46002144
:100B1000401C05F09FFF9DF80000FF2801D0012038
:100B200038BD002038BD0000201600202DE9F84F08
:100B300091462F4A8A461D469179B0FBF1F3B0FBEE
:100B4000F1F801FB130B404600F0B8F828490746BE
:100B50004889B84202D20120BDE8F88F002428E07D
:100B60005C4516D3ADB14A88A2EB0A01A94201D275
:100B70008EB200E0AEB207FB004108FB00404B46DE
:100B80005246009605F0D2FB4FF0000AB144AD1B6F
:100B900005E007FB004108FB004005F09BFC30B17D
:100BA0003846FFF71DFF012000F024F8CBE7641C56
:100BB000A4B20F498879A042D2D80D46A879A042A4
:100BC00014D1384600F028FA404605F02FFD0020E9
:100BD0006A89696908E031F81040444502D121F87A
:100BE000107003E0401C80B28242F4D80020B3E7CA
:100BF00020160020F8B506460021294D4FF6FF705B
:100C000003E06A6922F81100491C6A898A42F8D80F
:100C10000020A88104461CE0A879042360436A46AA
:100C2000002105F017FF9DF80000FF280CD1B6B198
:100C3000A879012360436A460021401C05F00AFFA1
:100C40009DF80000FF280AD0214616A0FFF730FBD0
:100C5000641C6989A142DFD800206A6916E09DF80A
:100C600002009DF8031000EB01206989814202D93E
:100C7000696921F81040A889401CA881E8E732F88A
:100C800010308B4201D3E88102E0401C8142F6D84B
:100C9000E889642801D20220F8BD0020F8BD0000D8
:100CA0002016002062616420626C6F636B20696EA5
:100CB0006465783A25640D0A0000000070B5104E96
:100CC000104C71892268491E914200D2216000F0C7
:100CD00001052946206800F017F8411C0AD17089E7
:100CE0002168401E884207D92946206000F00CF890
:100CF000411C01D0206070BD4FF0FF3070BD00007E
:100D00002016002038000020F8B50D460021401CB8
:100D10000091040012D00C4F012626EA0400A842DC
:100D20000AD1B879611E484304236A46002105F0C0
:100D300091FE0098401C04D0641EEED14FF0FF30AD
:100D4000F8BD601EF8BD000020160020F8B5254E45
:100D500000273C46B78113E02046FFF7C1FE70B97B
:100D6000204605F063FC38B121461FA0FFF7A0FA2A
:100D70002046FFF735FE02E0B089401CB081641CBC
:100D80007089A042E8D8B1891BA0FFF791FAB08919
:100D9000642801D20120F8BDC0EB4010642100EBB3
:100DA0004000B0FBF1F50024009710E02046FFF76B
:100DB00097FE58B9B079022360436A46194605F098
:100DC0007DFF0098401C0090A84203D0641C7089ED
:100DD000A042EBD80120FFF70DFF0028DBD0022056
:100DE000F8BD00002016002042616420626C6F6331
:100DF0006B3A25640D0A0000676F6F645F626C6F69
:100E0000636B6E756D3A25640D0A000010B505F030
:100E100039FC00BB184C616911B1002007F010FECD
:100E200060894100002007F017FE60616189490078
:100E3000FFF75DFB606970B10120FFF7DBFE60B179
:100E40000EA0FFF735FAFFF781FF90B111A0FFF771
:100E50002FFA022010BD012010BD618912A0FFF7FA
:100E600027FAA18916A0FFF723FAE18919A0FFF755
:100E70001FFA002010BD000020160020666F726D62
:100E80006174206E616E6420666C6173682E2E2E14
:100E90000D0A0000666F726D6174206661696C6591
:100EA00064210D0A00000000746F74616C20626C94
:100EB0006F636B206E756D3A25640D0A00000000AB
:100EC000676F6F6420626C6F636B206E756D3A257F
:100ED000640D0A0076616C696420626C6F636B203C
:100EE0006E756D3A25640D0A000000000549CA8937
:100EF000824202D24FF6FF707047496931F8100004
:100F000070470000201600202DE9FF5F9B46154624
:100F10008246002679E03F4C6088B0FBF5F1A0796D
:100F2000414301988319B3FBF1F0FFF7DFFF6189BB
:100F3000814203D8012004B0BDE8F09F354C6188A0
:100F4000A479B1FBF5F26243B3FBF2F702FB17326F
:100F50006A43B2FBF1F300FB0437B2FBF1F001FB93
:100F60001028A1EB0800B0FBF5F084B2ABEB060053
:100F7000A04200D284B204FB05F91FFA89F31FFADC
:100F800088F15246384605F013FC032809D11FFAB0
:100F900089F31FFA88F15246384605F009FC032808
:100FA00004D004282ED068B30220C4E74B461FFAB1
:100FB00088F152463846FFF7B9FDDFF858804FF008
:100FC000FF3198F80600B7FBF0F0FFF721FD80B97C
:100FD00098F806000021B7FBF0F0FFF719FD8146F5
:100FE00098F80600B7FBF0F005F020FBB9F1000F10
:100FF00008D098F80600B7FBF0F0FFF7F1FC0120ED
:10100000FFF7F8FD05FB04AA26445E4583D30020C4
:1010100091E700002016002008B5CC218DF80010C3
:10102000044901236A4689794843194605F046FE7A
:1010300008BD0000201600202DE9FF4F85B01546A1
:1010400000274FF0FF3B7BE0404C6088A179B0FB6C
:10105000F5F048430699CB19B3FBF0F0FFF746FFD4
:1010600061898046414503D8012009B0BDE8F08F71
:10107000364A50889279B0FBF5F15143B3FBF1F455
:1010800001FB143101FB05FABAFBF0F308FB023156
:10109000BAFBF0F200FB12A9A0EB090080B2B0FB92
:1010A000F5F002910899ADF80400C91B8CB20391C8
:1010B000844200D3044601A804FB05F600901FFA01
:1010C00089F1C6F38F034FF0FF32029805F08EFCD2
:1010D00008B10220C9E7BDF80400B0EB960F0FD1AC
:1010E000B3B21FFA89F1059A029805F011FD38B9DB
:1010F0004146C34520D00846FFF78EFFC346D8B10E
:101100001248817940884143A1EB0A00B0FBF5F019
:10111000039980B28CB2ADF80400844200D3044637
:1011200004FB05F61FFA89F13346059A0298FFF78A
:10113000FDFC08B1032098E705982744304405904A
:101140000898874280D300208FE7000020160020F7
:1011500030B40C4601461546500700D0012000EB84
:10116000D50010FB05F0C2B208784B78812809D36E
:10117000402B07D3FF2B05D0FF2803D07F2B0CD2A9
:10118000403B0BE00023184603E05B1C04F8010B16
:10119000DBB29342F9D330BC7047413B8138D9B2BE
:1011A000C0B2C0EB401303EB801001EB4000504392
:1011B0000C490C2D0CD0102D0DD0182D0ED0202D3B
:1011C000E9D1D1F821100144204630BC06F090BE90
:1011D000D1F80910F7E7D1F81110F4E7D1F8191098
:1011E000F1E7000098BE022031B500F0FDF804469A
:1011F00000F0FAF80099001B8842F9D338BD0000CE
:101200002DE9F84FDFF8A091002209F1040A0AF154
:10121000040B4FF00F080BF1040E01260B689640EB
:101220003340B34271D14C68022C01D0122C11D141
:10123000D40800EB84073D6A5407E40E08FA04FC66
:1012400025EA0C05D1F810C00CFA04FC4CEA050C98
:10125000C7F820C007685400032591F804C0A540D2
:101260000CF0030CAF430CFA04FC4CEA070CC0F87A
:1012700000C04F68012F05D0022F03D0112F01D0DD
:10128000122F11D18768D1F80CC0AF430CFA04FCBF
:101290004CEA070CC0F808C04768B7430E79C6F39C
:1012A000001696403E434660C668AE438D68A54032
:1012B0003543C5604C68E4006FD53C4C256845F467
:1012C00080452560246822F0030504F480440094DE
:1012D000374C2E19D6F808789407250F08FA05F42C
:1012E000A743344CA04201D100242EE0324CA0424E
:1012F00001D1012429E0314CA04201D1022424E093
:101300002F4CA04202D103241FE046E02D4CA04206
:1013100001D1042419E02C4CA04201D1052414E091
:101320002A4CA04201D106240FE0294CA04201D151
:1013300007240AE0274CA04201D1082405E0264CEE
:10134000A04201D1092400E00A24AC403C43C6F885
:101350000848D9F800404D464E689C43F60300D536
:101360001C432C60DAF8004055464E689C43B60397
:1013700000D51C432C60DBF800405D464E689C4362
:10138000F60200D51C432C60DEF8004075464E681E
:101390009C43B60200D51C432C60521C102AFFF45B
:1013A0003CAFBDE8F88F0000003C014044380240EB
:1013B00000300140000002400004024000080240EA
:1013C000000C0240001002400014024000180240CD
:1013D000001C024000200240002402400069084036
:1013E00000D00120704700000148006870470000ED
:1013F0001400002002480168491C01607047000089
:10140000140000200B4810B5016841F40071016020
:10141000016841F480610160016841F480710160FC
:10142000052000F049FA0F2000F006F800F08AF9D4
:10143000002010BD003C024010B5044600F0EAFC5C
:101440004FF47A71B0FBF1F001F0B8FD00222146B3
:10145000501E00F011FA002010BD2DE9F0410446A5
:1014600090F8A00015460F4601281DD0012684F8EB
:10147000A060022084F8A10005EB850000EBC50008
:1014800004EB800034223830FEF7FFFF2A4639464D
:10149000204604F099FE2068466284F8A16000208E
:1014A00084F8A000BDE8F0810220FBE770B50400DD
:1014B00004D094F8A100002510B106E0012070BD11
:1014C00084F8A050204600F06FF8022084F8A100B4
:1014D0002068816921F070418161D4E901100143E4
:1014E000D4E90302104301432068826911438161FA
:1014F000206882682B490A408260A08A0204206822
:101500008368A6693343134383602068C2680A4036
:10151000C260A08B02042068C368266A3343134369
:10152000C360206802690A400261A08C020420683E
:101530000369A66A334313430361206842690A4082
:101540004261A08D010420684269236B1A430A435B
:10155000426194F83500020294F8360001042068D4
:10156000C36A03F07F43C3622068C36A94F834609F
:10157000114333430B43C3622068416B41F00401C4
:1015800041632068416B41F0020141632068816939
:1015900041F001018161C4F8A450012084F8A10048
:1015A000002070BD00F800F030B5364887B0002547
:1015B000016841F080610160006800F08060059082
:1015C00030481438016841F400010160016801F4F9
:1015D00000010591016841F002010160016801F01C
:1015E00002010591016841F020010160016801F0EC
:1015F00020010591016841F040010160016801F09E
:1016000040010591016841F080010160016801F02D
:1016100080010591016841F4807101600068032434
:1016200000F480700590202000900120CDE9020494
:10163000019069461448FFF7E3FD4FF48060009085
:101640000220CDE901050E20CDE9034069460F488F
:10165000FFF7D6FD4FF40C60009069460C48FFF789
:10166000CFFD4FF47E40009069460A48FFF7C8FD61
:1016700040F2F760009069460748FFF7C1FD07B0E8
:1016800030BD000044380240000402400014024013
:1016900000180240001C02400020024070B50446C1
:1016A00090F8A0000E46012820D0012584F8A05013
:1016B000022084F8A10003EB830000EBC30004EBDD
:1016C000800141F8386F886A3044C1E90102C86A74
:1016D0001044C8601A46204604F076FD2068456232
:1016E00084F8A150002084F8A00070BD022070BDD5
:1016F0002DE9F041044690F8A0000F4601281FD0C4
:10170000012584F8A050022084F8A10003EB830097
:1017100000EBC30004EB80010026E1E90E672046E0
:10172000C1E90262C1E90A721A4604F04DFD20685F
:10173000456284F8A15084F8A0600020BDE8F081E3
:101740000220FBE708B50020009008BD70B51546E3
:101750000E46040003D094F8210010B107E00120E8
:1017600070BD002084F82000204600F021F8211DE3
:101770002068FEF7F5FFD4E900023146FEF7D8FFF6
:10178000D4E900022946FEF7BBFF606810282068F4
:1017900008D0016A41F004010162012084F82100AF
:1017A000002070BD016841F004010160F5E7000010
:1017B00070B5274886B00024016841F0010101603E
:1017C000006800F00100059021480838016841F0E8
:1017D00008010160016801F008010591016841F00C
:1017E00010010160016801F010010591016841F0EC
:1017F000400101600068032500F040000590402092
:10180000CDE900040120CDE90205124E69463046BB
:10181000FFF7F6FC7015009001A9022081E8310065
:101820000C20049069460C48FFF7EAFC4DF63300A3
:101830000090694602943046FFF7E2FC4FF4F060F6
:10184000009069460548FFF7DBFC06B070BD00005C
:1018500038380240000C02400018024000100240DC
:1018600000F01F02012191404009800000F1E020BA
:10187000C0F8001170470000F0B40E4B1B68C3F3B2
:101880000223C3F10704042C00D904241D1D072DD5
:1018900001D2002300E0DB1E012606FA04F56D1ECE
:1018A0000D409D409E40761E164045EA0601F0BC64
:1018B00005F015BA0CED00E0064A00F007011068CB
:1018C0004FF6FF03184040EA012003490843106027
:1018D000704700000CED00E00000FA052DE9F84328
:1018E0001D48016841F0805101600068012700F047
:1018F00080500090380490FAA0F0DFF86080B0FAD1
:1019000080F048F82070FFF76FFD04464FF47A75B9
:10191000134E04E0FFF768FD001BA84213D870685F
:10192000C003F7D54FF4003090FAA0F0B0FA80F081
:1019300048F82070FFF758FD044607E0FFF754FD14
:10194000001BA84202D90320BDE8F8837068800319
:10195000F4D50020F8E700004038024000000E42B5
:10196000007000402DE9F84F04460068DFF87882E7
:101970009E4DC10747F6C07A4FF0E0464FF0010B8D
:101980004FF0000901D180074BD59949C1F8689003
:10199000FFF72AFD074604E0FFF726FDC01B642879
:1019A0007ED828680001F7D420789249C0070DD06E
:1019B0009AFAAAF26068B2FA82F2904096FAA6F316
:1019C000A268B3FA83F39A40104308602078800736
:1019D00018D5086896FAA6F200F0E040B2FA82F252
:1019E000D0406268237B920142EA036242EA0070BF
:1019F0000860D8F80010E26921F01F01521E11435F
:101A0000C8F800107A49C1F868B0FFF7EDFC074646
:101A100004E0FFF7E9FCC01B642841D828680001F6
:101A2000F7D52068410701D4000776D57049C1F881
:101A30007090FFF7D9FC074604E0FFF7D5FCC01B08
:101A400064282DD82868C0438000F6D520786A4FD6
:101A500040074FF0706C29D5386896FAA6F100F06F
:101A6000E040B1FA81F1C8409AFAAAF22169B2FACB
:101A700082F291409CFAACF36269B3FA83F39A4024
:101A8000114396FAA6F2B2FA82F29040014339600D
:101A9000D8F800106FF0FF0321F4F851226A00E03B
:101AA00079E003EB02221143C8F800102078000708
:101AB00023D538689CFAACF100F07060B1FA81F17E
:101AC000C8409AFAAAF22169B2FA82F291409CFACD
:101AD000ACF2B2FA82F29040014396FAA6F2A06903
:101AE000B2FA82F2904001433960D8F80010626A7D
:101AF00021F440311143C8F800103D49C1F870B0DD
:101B0000FFF772FC064604E0FFF76EFC801B6428BA
:101B100041D82868C0438000F6D42078800651D58B
:101B200032484F464030016841F080510160006802
:101B3000324E00F080500090306840F48070306089
:101B4000FFF752FC054604E0FFF74EFC401B6428FB
:101B500021D83068C005F7D5264E143E3068218D57
:101B600000F4407001F4407188422BD03068244961
:101B700020F44070C1F800B00F603060800710D5CD
:101B8000FFF732FC054641F2883707E0FFF72CFCEF
:101B9000401BB84202D90320BDE8F88F30688007A7
:101BA000F4D5A06A1149C0F301220831032A13D0E9
:101BB000086820F4F81008603068218DC1F30B012B
:101BC000084330602078C00604D50E4994F82C00F4
:101BD000C1F8E0010020DFE70A680B4B22F4F8129D
:101BE000184002430A60E7E78C38024000380240A0
:101BF00000004742843802408838024000700040AC
:101C0000400E474200104742FFFCFF0F2DE9F05FF6
:101C1000DFF8F8A104460F46DAF80000DFF8F0819B
:101C200000F00F02C8B27A49814641F2883608F1C5
:101C30000808BA4261D202468AF80020DAF80000A9
:101C400000F00F00B8427DD12078800707D5D8F882
:101C50000020A36822F0F0021A43C8F80020207880
:101C6000C0072DD0606801281AD002281BD0032895
:101C700019D009688907002964DAD8F800104746A6
:101C800021F003010143C8F80010FFF7ADFB054642
:101C9000606801280FD0022818D003281CD027E044
:101CA00009688903E7E709688901E4E7FFF79CFB16
:101CB000401BB04258D83868C0F381000128F5D1E4
:101CC00088E0FFF791FB401BB0424DD83868C0F365
:101CD00081000228F5D17DE03868FFF785FB401BC5
:101CE000B042F9D940E0FFF77FFB401BB0423BD840
:101CF000386810F00C0FF6D16CE02078800707D51B
:101D0000D8F80020A36822F0F0021A43C8F8002097
:101D10002078C0074CD06068012828D0022829D03C
:101D2000032827D009688907002949DAD8F8002054
:101D300022F003020243C8F80020FFF755FB0546D6
:101D4000606800E03CE001281DD0022829D003286B
:101D500038D0B3464646306810F00C0F28D0FFF755
:101D600043FB411B5945F6D90320BDE8F09F0968A4
:101D70008903D9E709688901D6E7FFF735FB411BDD
:101D8000594502D9F0E7B34646463068C0F38100B2
:101D90000128F2D10CE0FFF727FB411B594502D97E
:101DA000E2E7B34646463068C0F381000228F2D12C
:101DB0008AF80090DAF8000000F00F00B84209D06D
:101DC0000120D2E744462068FFF70EFB401BB042DB
:101DD000F9D9C9E72078400707D5D8F80010E2689C
:101DE00021F4E0511143C8F800102078000708D50D
:101DF000D8F80010226921F4604141EAC201C8F814
:101E000000100F20FFF718FB0020AEE7003C024057
:101E10000038024010B500F043F808490968F02284
:101E200092FAA2F201F0F001B2FA82F2D140044A31
:101E3000515CC8400349086010BD000008380240EA
:101E4000828D00080000002010B5FFF7E3FF07496E
:101E500009684FF4E05292FAA2F201F4E051B2FAAA
:101E600082F2D140024A515CC84010BD083802409D
:101E7000828D000810B5FFF7CDFF074909684FF4C0
:101E8000604292FAA2F201F46041B2FA82F2D140C9
:101E9000024A515CC84010BD08380240828D0008DB
:101EA00030B51948006810F00C01184812D0184CD1
:101EB00004290ED008290DD1134A121F1168136886
:101EC00001F03F015D0247F6C07304D5B4FBF1F0A9
:101ED00003E0204630BDB0FBF1F01168194093FAE1
:101EE000A3F3B3FA83F3D940484311684FF4403267
:101EF00092FAA2F201F44031B2FA82F2D140491CC6
:101F00004900B0FBF1F030BD083802400024F40075
:101F100040787D012DE9F84F04460078DFF8FCA2F7
:101F2000BF4DC0074FF0000648D0DAF80010504609
:101F3000C1F38101012908D00068C0F381000228A3
:101F40000AD1281D0068400206D52868800335D5CF
:101F50006068002873D031E0DFF8C49209F102090B
:101F600089F80060FFF740FA074641F2883804E03C
:101F7000FFF73AFAC11B41457AD828688003F7D4A5
:101F8000207989F80000606860B1FFF72DFA0746F4
:101F900004E0FFF729FAC11B4145EDD8286880030A
:101FA000F7D50BE0FFF720FA074604E0FFF71CFA2D
:101FB000C11B4145E0D828688003F7D42078DFF8BA
:101FC0006492800744D5DAF80010504611F00C0FE7
:101FD0004FF0F80809D00068C0F3810002280BD147
:101FE0008E48001F0068400206D42868800714D578
:101FF000E068012823D110E0E068D0B10120C9F8E1
:102000000000FFF7F1F9074604E0FFF7EDF9C01B08
:102010006428B1D828688007F7D5286898FAA8F20C
:102020002169B2FA82F220F0F8009140084328605A
:102030000EE0C9F80060FFF7D7F9074605E0EAE0CF
:10204000FFF7D2F9C01B642812D828688007F7D49C
:102050002078000725D5DFF8C4817348616908F14D
:102060006C0881B101210160FFF7BEF9074605E068
:102070007EE0FFF7B9F9C01B642879D8D8F80000D2
:102080008007F6D50DE00660FFF7AEF9074604E0DD
:10209000FFF7AAF9C01B64286AD8D8F800008007A7
:1020A000F6D42078400753D55C483830016841F0B9
:1020B000805101600068DFF8748100F0805000906A
:1020C000D8F8001041F48071C8F80010FFF78CF9BF
:1020D000074604E0FFF788F9C01B642848D8D8F801
:1020E0000000C005F6D5DFF834B10BF1680B8BF8B2
:1020F0000060FFF779F9074641F2883804E0FFF7FE
:1021000073F9C11B41457ED8DBF800008007F6D487
:10211000207A8BF80000A06868B1FFF765F90746E0
:1021200004E0FFF761F9C11B41456CD8DBF8000002
:102130008007F6D50CE0FFF757F9074604E0FFF7F4
:1021400053F9C11B41455ED8DBF800008007F6D487
:10215000A069E8B3DAF80010C1F3810102295AD06E
:10216000022806D0C9F86060FFF73EF904464DE04A
:1021700049E04F46C9F86060FFF736F9064604E0CB
:10218000FFF732F9801B64283DD828688001F7D416
:10219000D4E90701084347F6C07191FAA1F1626AD8
:1021A000B1FA81F18A40A16A4FF0FF3303EB51018C
:1021B0004FF4403393FAA3F3B3FA83F399400A43FD
:1021C00010434FF0706292FAA2F2B2FA82F200E08B
:1021D0001FE0E16A914008431049091F086001208F
:1021E0003866FFF701F9044604E0FFF7FDF8001B2D
:1021F000642808D828688001F7D50AE0FFF7F4F8CA
:10220000001B642802D90320BDE8F88F28688001EC
:10221000F4D40020F8E70120F6E700000838024077
:102220000038024000004742800E474200700040E4
:1022300070B50D46040003D094F82C0010B107E0EF
:10224000012070BD002084F82D00204600F012F817
:10225000022084F82C00211D2068FEF733FBD4E90E
:1022600000022946FEF77EFB012084F82C000020A6
:1022700070BD0000304800B5016887B041F0010131
:102280000160006800F0010005902B4808380168E3
:1022900041F004010160016801F004010591016849
:1022A00041F008010160016801F008010591016831
:1022B00041F010010160016801F010010591016811
:1022C00041F020010160016801F0200105910168E1
:1022D00041F0400101600068694600F0400005904F
:1022E0000D20009002200190012002900320039015
:1022F0000C2004901148FEF783FF4CF2037000900D
:1023000069460F48FEF77CFF4FF6837000906946E0
:102310000C48FEF775FF4FF63F00009069460A48EB
:10232000FEF76EFF48F23710009069460748FEF747
:1023300067FF07B000BD00003838024000080240C7
:10234000000C02400010024000140240001802403D
:1023500010B5044690F82C00022809D0022084F819
:102360002C002068FEF7D4FA012084F82C0000200D
:1023700010BD70B5044690F82C000D4602280CD014
:10238000022084F82C002068FEF7C8FA286802288A
:1023900004D0012084F82C00002070BD0520F9E74E
:1023A0002DE9F04790F8202081F85620828CA1F882
:1023B0005420826A0023120E94090C70C2F3830425
:1023C0004C7002F003028A70826A120CCA70028D8D
:1023D000120A0A7190F828204A71C26A4FF6FF7AF1
:1023E000120E0AEA0212CA80C26ACC88C2F30742FD
:1023F00044EA1214CC8002F00F020A72828DC2F3FA
:102400000722D4094C72C2F380148C72C2F34014B8
:10241000CC72C2F300140C7300264E73046A4FF0A2
:102420000109002C7DD0012CFCD0022C7AD029236C
:10243000C2F380144C769206520E01F81A2F10F84F
:10244000302F0C7844EAD21401F8014B02F07F02DD
:1024500001F8012B50F8042F120ED4090C70C2F3AE
:1024600041144C70C2F382048C709207120FCA7030
:1024700004C8CC78C2F3074244EA9214CC70C2F389
:1024800040140C714E7102F001028A7130F8042C74
:10249000C2F30722D409CC71C2F380140C72C2F3C8
:1024A00040144C72C2F300148C72C2F38104CC72DB
:1024B00002F003020A7310F8042C52084A734C46C7
:1024C00081F80E9050F8082B120E0A7450F8082C60
:1024D000120C0AEA02224A8230F8082C4D8AC2F312
:1024E000072215434D8210F8082C120641F8142FCC
:1024F00050F8042C0D68120E45EA02420A6050F8AA
:10250000042C0D68C2F3074245EA02220A6030F843
:10251000042C0D68C2F30722154320C110F8042CC7
:1025200001E034E076E001F8012B0268120E01F8B8
:10253000032B0268120C12060A6002880D68C2F3AF
:10254000072245EA02420A6002780D6845EA022243
:102550000A6042680D6845EA126520C142680D783C
:10256000C2F3074245EA121501F8025B1207120D89
:102570000A8082880D88C2F30722154321F8025B86
:102580000079400808704C701846BDE8F087920743
:10259000120D0A6190F82C200C6944EA82020A614B
:1025A000026B0C69120E44EA92140C61C2F3C2046D
:1025B0000C7502F007024A75026BC2F30742540918
:1025C0008C75C2F38204CC759207520F0A76028E84
:1025D0000C7EC2F3072244EAD2140C760C690F7EFB
:1025E000BF1C09FA07F5641CA4FB05784FEAE57CDB
:1025F00006FB058504FB0C5591F808C009FA0CF49C
:10260000A7FB04C80C6505FB048407FB0644C1E96D
:1026100012C40DE790F82C209206920A0A61026B10
:102620000C69120E44EA02220A61026B0C69C2F3C1
:10263000074214430C61028E0C69C2F30722641C2A
:1026400046F10005ED0445EA5435E404C1E91245BC
:102650004FF400740C65EBE670B586B000250E46AD
:1026600004468DF80C50057700F046F8762000956A
:10267000CDE901502B462A462946206804F062FB2A
:10268000204604F099FE8DF80C009DF80C0038B936
:10269000204604F085FD8DF80C009DF80C0018B163
:1026A0009DF80C0006B070BD31462046FFF778FE5D
:1026B0008DF80C009DF80C00A0B9B6F854006946DE
:1026C00000040090072001904020CDE902050001A0
:1026D0000490206804F04FFB0721204604F0D2FB51
:1026E0008DF80C0004F1100007C88DE8070094E88D
:1026F0000F0004F027FBD3E71D4800B5016887B041
:1027000041F400610160006800F400600590184821
:102710001438016841F480010160016801F480010E
:102720000591016841F004010160016801F00401B4
:102730000591016841F0080101600068694600F0F8
:10274000080005904FF4F8500090022001900120FD
:102750000290032003900C2004900648FEF750FDE1
:102760000420009069460448FEF74AFD07B000BD0A
:102770004438024000080240000C02402DE9F04FAE
:102780008BB004460D46DDE914782168002016461A
:10279000C862216A022903D10F02560A46EAC356CB
:1027A0001021CDE900714021834608010291CDE955
:1027B00003B06946206804F0DEFA1021204604F0D8
:1027C00061FB00286DD14FF0FF3A08FB07F0CDE91F
:1027D00005A007A990204FF0020981E8010A012015
:1027E0000A9005A9206804F08BFAB8F1010F01D90D
:1027F000122000E01120CDE900606946206804F055
:10280000BAFAB8F1010F1AD91221204604F03AFBA6
:10281000070046D140F22A3B2068416B11EA0B0FBA
:1028200028D1406B0004F7D50026206804F0A0FAF8
:1028300045F82600761C082EF7D32035ECE7112149
:10284000204604F01FFB07002BD140F22A6B2068C2
:10285000416B11EA0B0F0DD1406B0004F7D5002638
:10286000206804F085FA45F82600761C082EF7D378
:102870002035ECE7406BC0050CD5B8F1010F09D944
:10288000206A18B1012801D0022803D1204600F0A7
:1028900033F807462168486B000705D50820886390
:1028A00004200BB0BDE8F08F486B800703D5484685
:1028B000C1F83890F5E7486B800603D5202088637F
:1028C0000620EEE7486B800504D54FF4007088635E
:1028D0000720E6E7564603E004F04AFA01C5761EF3
:1028E0002068416B890201D5002EF5D1216840F2A4
:1028F000FF5088633846D4E710B586B00446002000
:102900000C21CDE900014021CDE90210080104901D
:102910006946206804F02FFA0C21204604F0B2FA30
:1029200006B010BDFEB50446006A00250E46032819
:1029300005D030B1012804D0022802D01FE02720A2
:10294000FEBDB6F5805F05D0B6F5006F04D03EB190
:10295000262514E0272512E0204604F068FE02E058
:10296000204604F02BFE050009D1211DD4E90507FE
:102970000EC9CDE900600297206804F0E3F928460B
:10298000FEBD2DE9F04F8DB0064600250C468DF8B2
:102990002C50DDE91698316817462846CD62316A19
:1029A0004FF4007B022903D1570AD94647EAC3579F
:1029B0001021CDE900914021824608010291CDE924
:1029C00003A06946306804F0D6F91021304604F0BF
:1029D00059FA00286ED1B8F1010F01D9192000E091
:1029E0001820CDE900706946306804F0C4F9B8F1E8
:1029F000010F01D9192100E01821304604F042FAF4
:102A000000287FD1411E09FB08F99020CDE90690EE
:102A10000591CDF820A00120CDE909A005A93068D5
:102A200004F06EF9B8F1010F24D84FE0406B400478
:102A300020D5A9EB0500202811D281074FEA90008C
:102A400000D0401C8246002706E02146306804F092
:102A5000A2F9241D2D1D7F1C57450BD2F5E7002739
:102A600004EB8701306804F096F97F1C082FF7D338
:102A7000203420353068416B40F21A321142D5D0F3
:102A80002AE0406B400421D5A9EB0500202812D292
:102A900081074FEA900000D0401C8246002706E0E4
:102AA0002146306804F077F9241D2D1D7F1C574501
:102AB0000CD2F5E726E0002704EB8701306804F02C
:102AC0006AF97F1C082FF7D3203420353068416B1A
:102AD00040F21A621142D4D0406BC0050BD5B8F158
:102AE000010F08D9306A18B1012801D0022802D19B
:102AF0003046FFF701FF3168486B000705D5082015
:102B0000886304200DB0BDE8F08F486B800702D5C4
:102B100002208863F6E7486BC00603D5102088635F
:102B20000520EFE7486B800503D5C1F838B00720D2
:102B3000E8E740F2FF5088630BA9304604F09EFBA3
:102B40000028DFD19DF82C100729F5D00629F3D0F5
:102B5000D8E770B5040004D094F85100002510B1F6
:102B600006E0012070BD84F85050204600F034F893
:102B7000022084F851002068016821F040010160C2
:102B8000D4E901010843D4E9031211430843616900
:102B90000843218B01F400710843E1690843216A6D
:102BA0000843A16A084321680860A069042101EA7A
:102BB0001040616A0843216848602168E06A086142
:102BC0002068C16921F40061C1616565012084F854
:102BD0005100002070BD0000124800B5016887B0A8
:102BE00041F020010160006800F0200005900D48D0
:102BF0001430016841F4801101600068012100F483
:102C0000801005904FF4607000900220CDE9010122
:102C100003900520049069460348FEF7F1FA07B0D7
:102C200000BD000030380240001402402DE9F84396
:102C3000044690F85100DDF82080012801D02228B8
:102C40007ED169B162B15BB194F85000012877D0B0
:102C5000012784F8507094F85100012803D005E052
:102C60000120BDE8F883322084F851000026666513
:102C7000A263A387E3872163A386E386A664E66451
:102C8000A06A4FF40055A84209D12068016821F4D8
:102C9000005101602068016841F400510160206822
:102CA0000168490603D4016841F040010160E06811
:102CB0004FF48271B0F5006F606807D0002867D0CC
:102CC00088426ED1E08E012862D06AE020B188424D
:102CD0000CD1E08E012809D1206B21680088C860E2
:102CE000206B801C2063E08E401EE086E08E80B961
:102CF000A06AA84244D12068016841F48051016073
:102D00003EE02068C068A16B0880A06B801CA063B7
:102D10009EE0434600220221204604F053FD002895
:102D200074D1206B21680088C860206B801C2063F0
:102D3000E08E401E0004000CE08609D1A06A00E08D
:102D4000C7E0A84204D12068016841F480510160C5
:102D5000434600220121204604F034FD00286FD1B3
:102D60002068C068A16B0880A06B801CA063E08F06
:102D7000401EE087E08E0028CBD1606800286AD131
:102D8000434600220121204604F01CFDF0BBB8E7B9
:102D9000206B411C216321680078C860E08E401ED2
:102DA000E086E08E98B9A06AA84204D12068016844
:102DB00041F480510160434600220121204604F085
:102DC00001FD18BB2068C068A16B087040E0434655
:102DD00000220221204604F0F5FCB8B9206B411C0A
:102DE000216321680078C860E08E401E0004000C5A
:102DF000E08607D1A06AA84204D12068016841F4A6
:102E00008051016000224346012100E018E0204685
:102E100004F0D8FCA0B92068C168A06B421CA26372
:102E20000170E08F401EE087E08E0028CFD16068FF
:102E300088B9434600220121204604F0C3FC08B1B2
:102E400003200EE72068C168A06B421CA2630170DA
:102E5000E08F401EE087A06AA84210D143460022BE
:102E60000121204604F0AEFC18B1606D40F0020074
:102E70000FE02068C068ADF80000BDF800004346D0
:102E800001228021204604F09DFC20B1606D40F0BD
:102E900020006065D4E784F8517020688168A26AD8
:102EA000C1F30011AA4210D179B1616D41F0020164
:102EB0006165016821F4005101602068016841F4F6
:102EC0000051016084F85060CAE684F85060002028
:102ED000C7E60220C5E670B515460E46040003D0CD
:102EE00094F8490010B107E0012070BD002084F87B
:102EF0004800204600F01AF804F108012068FDF7A8
:102F000077FC3146A2682068FDF7AEFCD4E90102E7
:102F10002946236BFDF74CFCA168206850F821205E
:102F200042F0010240F82120002070BD1A4800B58F
:102F3000016887B041F001010160006800F0010004
:102F4000059015480838016841F0080101600168E2
:102F500001F008010591016841F01001016000686D
:102F6000694600F0100005904EF2B3700090022008
:102F7000019001200290032003900C200490074848
:102F8000FEF73EF94FF68070009069460448FEF760
:102F900037F907B000BD000038380240000C02408D
:102FA000001002404FF0E0210428086903D020F00F
:102FB00004000861704740F00400FAE710B5401EB5
:102FC000B0F1807F01D3012010BD4FF0E02460619B
:102FD0000F21601703F083FE0020A061072020610D
:102FE000002010BD704738B5016804460868CA68FB
:102FF000C0F3000002F4807238B132B1086848684A
:103000000090E06B40F00100E06308684A69C0F39B
:10301000400002F0010238B132B1086848680090FF
:10302000E06B40F00400E06308684A69C0F3800088
:1030300002F0010238B132B1086848680090E06BD4
:1030400040F00200E06308684A69C0F3C00002F083
:10305000010238B132B1086848680090E06B40F076
:103060000800E0630868C968C0F3401001F020015F
:1030700018B111B1204604F00FFD20680168C06846
:10308000C1F3C01100F0800019B110B1204604F066
:1030900011FE21680868CA68C0F3801002F040027F
:1030A000012568B162B1CA68204622F04002CA60B8
:1030B00094F8391032290CD080F8395000F0ECF82F
:1030C000E06B002804D084F839502046FFF78AFFCF
:1030D00038BD222180F83910F0E770B5040004D023
:1030E00094F83900002510B106E0012070BD84F885
:1030F0003850204600F020F8022084F8390020687B
:10310000C16821F40051C160204604F019FD206817
:10311000016921F4904101612068416921F02A018F
:1031200041612068C16841F40051C160E56301203C
:1031300084F83900002070BD30B50446006820498D
:1031400087B0884239D11F48016841F00101016010
:10315000006800F0010005901A481430016841F041
:10316000100101600068012100F0100005904FF48B
:10317000007000900220CDE9010103900720124D5C
:10318000049069462846FEF73BF8281500906946EA
:103190002846FEF735F82068C16821F04001C1607B
:1031A0002068C16841F02001C1602520FEF758FB6E
:1031B000032211462520FEF75FFB07B030BD00005B
:1031C0000010014030380240000002402DE9F04775
:1031D000044690F8390099460D46012801D012287E
:1031E00057D125B31AB394F83800012851D00126DD
:1031F00084F838600027E76394F83900122819D062
:10320000222084F83900A285E2854FF48058E08DB1
:103210004B46401EE085A0684FF0000240454FF04D
:103220002001204616D104F078FDB0B904E0012059
:10323000BDE8F0873220E4E7206900282068406874
:1032400003D0C1B225F8011B12E0C0F3080125F834
:10325000021B0DE004F061FD08B10320E8E72069DE
:1032600000282068406801D000F07F0005F8010BBD
:10327000E08D0028CBD194F83900322805D084F8AD
:10328000396084F838700020D2E7122084F83900C1
:10329000F7E70220CCE770477047FEE770B51B48A0
:1032A00086B00025016841F001010160016801F06C
:1032B00001010591016841F004010160016801F01C
:1032C00004010591016841F0800101600068032458
:1032D00000F08000059002200126CDE90204CDE92E
:1032E000006569460A48FDF78BFF700303948DE87B
:1032F000610069460748FDF783FF0C20009069468E
:103300000548FDF77DFF06B070BD00003038024073
:103310000000024000080240001C024070B50E4947
:103320000E4A064608881268002422B13046BDE8DD
:10333000704002F0FDBC4D8800214543084602F074
:10334000DDFB02F0E3FCB1B2054801E00180641C42
:10335000AC42FBD370BD0000C8010020B4020020C5
:10336000000008602DE9F05F394C3A4DA0712968E2
:1033700039B102F0FDFCE88A2080288B6080BDE82E
:10338000F09F33492C232A2589884FF0F00949F210
:10339000413A2B2645F2105B4FF4305E4FF44877EC
:1033A0004FF4A07845F2103C4FF4F07258B1A4F8F5
:1033B0000080A4F80290514501D0614529D12381B4
:1033C0006581A68139E0A4F80090A4F802805145F7
:1033D00001D0614508D123816581A681614531D144
:1033E000A4F8008062802DE0594508D1A4F808E0D7
:1033F0004FF4285060814FF42C50A08106E0A1F5D5
:10340000C85063381ED123816681A58122806780E0
:1034100018E0594508D1A4F808E04FF4285060811D
:103420004FF42C50A08106E0A1F5C850633804D1B8
:1034300023816581A68127806280614502D1228037
:10344000A4F80280BDE8F05F002002F07BBA000023
:10345000C8010020B40200202DE9F04104463A489A
:103460000D46006820B12046BDE8F04102F094BC52
:10347000364E270A3146B0884989A0F513434FEAF2
:103480001528413B0CD0A0F5A643103B08D0A0F571
:10349000AA43103B11D0A0F5C853633B27D04BE0A3
:1034A000084602F027FC384602F018FCE0B202F0B1
:1034B00015FCB08902F01EFC38E0084602F01AFC48
:1034C000384602F00BFC7089401C80B202F012FCFE
:1034D000E0B202F003FCB08902F00CFC404602F0BE
:1034E000FDFBB089401C80B202F004FC21E0B07901
:1034F00018B93088001B401E84B2084602F0FAFB5F
:10350000270A384602F0EAFBE0B202F0E7FB384651
:1035100002F0E4FBE0B202F0E1FBB08902F0EAFB6A
:10352000404602F0DBFBE8B202F0D8FB404602F076
:10353000D5FBE8B202F0D2FB054930890880881C2F
:103540000280BDE8F0810000B4020020C801002024
:10355000FEFF07602DE9F04F95B002F0D9FDFE4D5A
:103560004FF0010AA5F15009A88049F2413B45F20C
:10357000103645F2105441F6631818B102F084FC7D
:1035800002F08BB9F5480027016841F002010160A3
:10359000006810A900F0020000902020CDE9100A78
:1035A0000320CDE912A0EE48FDF72AFE4FF020419E
:1035B0004846C9F80010EB49C0E901171021C9F8C5
:1035C0000C70C0E90471C9F818700902C9F81C70C0
:1035D000C0E909718900C0E90B71C9F8347089012B
:1035E000C9E90E7146210B910F20CDE90907CDE9FC
:1035F00002070490D8480F9702AA09A908975038E3
:10360000FFF769FC322004F0F3FDD32002F072FBD7
:1036100002F066F9A88002F063F9A88002F060F970
:103620004FF6FF7202EA0020A88002F059F9A9883B
:103630005F460843A880B84248D0D42002F05AFB25
:1036400002F04EF9A88002F04BF9A88002F048F988
:1036500002EA0020A88002F043F9A9880843A88064
:10366000B04233D04FF45A4002F044FB02F038F934
:10367000A8804FF45B4002F03DFB02F031F902EA12
:103680000020A8804FF45C4002F034FB02F028F9DF
:10369000A9880843A880B0F5004F7DD0A04215D07E
:1036A000A12002F027FB02F01BF9A88002F018F914
:1036B00002EA0020A88002F013F9A9880843A0F5C7
:1036C000AE41A880613901D1A5F80480A988A6A0DF
:1036D000FCF7EEFDA888B8427ED1CF2002F00AFBAD
:1036E000002002F0FBFAC12002F0F8FA302002F0CC
:1036F000F5FAED2002F0FEFA642002F0EFFA032062
:1037000002F0ECFA122002F0E9FA812002F0E6FA67
:10371000E82002F0EFFA852002F0E0FA102002F033
:10372000DDFA7A2002F0DAFACB2002F0E3FA39204F
:1037300002F0D4FA2C2002F0D1FA002002F0CEFAE6
:10374000342002F0CBFA022002F0C8FAF72002F08F
:10375000D1FA202002F0C2FAEA2002F0CBFA0020CF
:1037600002F0BCFA002002F0B9FAC02002F0C2FA5E
:103770001B2002F0B3FAC12002F0BCFA012002F0D3
:10378000ADFAC52002F0B6FA302002F0A7FA3020D8
:1037900002F0A4FAC72000E0B7E002F0ABFAB720CD
:1037A00002F09CFA362002F0A5FA482002F096FAC0
:1037B0003A2002F09FFA552002F090FAB12002F070
:1037C00099FA002002F08AFA1A2002F087FAB6204D
:1037D00002F090FA0A2000E099E002F07FFAA220BD
:1037E00002F07CFAF22002F085FA002002F076FA6C
:1037F000262002F07FFA012002F070FAE02002F0A9
:1038000079FA0F2002F06AFA2A2002F067FA2820DB
:1038100002F064FA082002F061FA0E2002F05EFA6B
:10382000082002F05BFA542002F058FAA92002F0B6
:1038300055FA432002F052FA0A2002F04FFA0F2004
:1038400002F04CFA002002F049FA002002F046FA99
:10385000002002F043FA002002F040FAE12002F0DA
:1038600049FA002002F03AFA152002F037FA172040
:1038700002F034FA072002F031FA112002F02EFA99
:10388000062002F02BFA2B2002F028FA562002F034
:1038900025FA3C2002F022FA052002F01FFA10203F
:1038A00002F01CFA0F2002F019FA3F2002F016FA7B
:1038B0003F2002F013FA0F2002F010FA2B2002F042
:1038C00019FA002002F00AFA002002F007FA01209B
:1038D00002F004FA3F2002F001FA2A2002F00AFA6C
:1038E000002002F0FBF9002002F0F8F9002002F0BD
:1038F000F5F9EF2002F0F2F9112002F0FBF978203F
:1039000004F076FC292001F00BBFAC80DEE6B0426B
:103910007ED1ED2002F0EEF9012002F0DFF9FE2069
:1039200002F0DCF9EE2002F0E5F9DE2002F0D6F933
:10393000212002F0D3F9F12002F0DCF9012002F09D
:10394000CDF9DF2002F0D6F9102002F0C7F9C4202B
:1039500002F0D0F98F200FE0C8010020303802407B
:1039600000040240040100A0204C43442049443A92
:1039700025780D0A0000000002F0B0F9C62002F020
:10398000B9F9002002F0AAF9E22002F0A7F9E2203A
:1039900002F0A4F9E22002F0A1F9BF2002F0AAF996
:1039A000AA2002F09BF9B02002F0A4F90D2002F049
:1039B00095F9002002F092F90D2002F08FF9002015
:1039C00002F08CF9112002F089F9002002F086F94A
:1039D000192002F083F9002002F080F9212002F082
:1039E0007DF9002002F07AF92D2002F077F900200D
:1039F00002F074F93D2002F071F9002002F06EF936
:103A00005D2002F06BF9002002F068F95D2000E013
:103A1000FEE302F063F9002002F060F9B12002F049
:103A200069F9802002F05AF9002002F057F98B2042
:103A300002F054F9002002F051F9962002F04EF9FC
:103A4000002002F04BF9B22002F054F9002002F0FD
:103A500045F9002002F042F9022002F03FF900206F
:103A600002F03CF9032002F039F9002002F036F9A7
:103A7000B32002F03FF9002002F030F9002002F0FC
:103A80002DF9002002F02AF9002002F027F9002089
:103A900002F024F9002002F021F9002002F01EF9C2
:103AA000002002F01BF9002002F018F9002002F0BB
:103AB00015F9002002F012F9002002F00FF90020A1
:103AC00002F00CF9002002F009F9002002F006F9DA
:103AD000002002F003F9002002F000F9002002F0BB
:103AE000FDF8002002F0FAF8002002F0F7F80020BC
:103AF00002F0F4F8002002F0F1F8002002F0EEF8F5
:103B0000002002F0EBF8B42002F0F4F88B2002F071
:103B1000E5F8002002F0E2F8962002F0DFF800203D
:103B200002F0DCF8A12002F0D9F8002002F0D6F86B
:103B3000B52002F0DFF8022002F0D0F8002002F0F9
:103B4000CDF8032002F0CAF8002002F0C7F80420E4
:103B500002F0C4F8002002F0C1F8B62002F0CAF862
:103B6000002002F0BBF8002002F0B8F8B72002F005
:103B7000C1F8002002F0B2F8002002F0AFF83F20B8
:103B800002F0ACF8002002F0A9F85E2002F0A6F8DE
:103B9000002002F0A3F8642002F0A0F8002002F058
:103BA0009DF88C2002F09AF8002002F097F8AC20E3
:103BB00002F094F8002002F091F8DC2002F08EF878
:103BC000002002F08BF8702002F088F8002002F04C
:103BD00085F8902002F082F8002002F07FF8EB20B8
:103BE00002F07CF8002002F079F8DC2002F076F890
:103BF000002002F073F8B82002F07CF8002002F0F8
:103C00006DF8002002F06AF8002002F067F800204A
:103C100002F064F8002002F061F8002002F05EF883
:103C2000002002F05BF8002002F058F8BA2002F001
:103C300061F8242002F052F8002002F04FF8002032
:103C400002F04CF8002002F049F8C12002F052F8CE
:103C5000202002F043F8002002F040F8542002F047
:103C60003DF8002002F03AF8FF2002F037F800207B
:103C700002F034F8C22002F03DF80A2002F02EF8DB
:103C8000002002F02BF8042002F028F8002002F0B7
:103C900025F8C32002F02EF83C2002F01FF8002087
:103CA00002F01CF83A2002F019F8002002F016F891
:103CB000392002F013F8002002F010F8372002F04B
:103CC0000DF8002002F00AF83C2002F007F800206E
:103CD00002F004F8362002F001F8002001F0FEFFA7
:103CE000322001F0FBFF002001F0F8FF2F2001F04F
:103CF000F5FF002001F0F2FF2C2001F0EFFF002083
:103D000001F0ECFF292001F0E9FF002001F0E6FFBF
:103D1000262001F0E3FF002001F0E0FF242001F065
:103D2000DDFF002001F0DAFF242001F0D7FF0020A2
:103D300001F0D4FF232001F0D1FF002001F0CEFFDD
:103D40003C2001F0CBFF002001F0C8FF362001F03D
:103D5000C5FF002001F0C2FF322001F0BFFF0020AC
:103D600001F0BCFF2F2001F0B9FF002001F0B6FFE9
:103D70002C2001F0B3FF002001F0B0FF292001F05A
:103D8000ADFF002001F0AAFF262001F0A7FF0020D0
:103D900001F0A4FF242001F0A1FF002001F09EFF0C
:103DA000242001F09BFF002001F098FF232001F068
:103DB00095FF002001F092FFC42001F09BFF6220DC
:103DC00001F08CFF002001F089FF052001F086FF43
:103DD000002001F083FF842001F080FF002001F02B
:103DE0007DFFF02001F07AFF002001F077FF18201E
:103DF00001F074FF002001F071FFA42001F06EFFBC
:103E0000002001F06BFF182001F068FF002001F096
:103E100065FF502001F062FF002001F05FFF0C20E1
:103E200001F05CFF002001F059FF172001F056FF60
:103E3000002001F053FF952001F050FF002001F019
:103E40004DFFF32001F04AFF002001F047FFE6207C
:103E500001F044FF002001F041FFC52001F04AFFBE
:103E6000322001F03BFF002001F038FF442001F038
:103E700035FF002001F032FF652001F02FFF002008
:103E800001F02CFF762001F029FF002001F026FF31
:103E9000882001F023FF002001F020FFC62001F060
:103EA00029FF202001F01AFF002001F017FF172042
:103EB00001F014FF002001F011FF012001F00EFFBE
:103EC000002001F00BFFC72001F014FF002001F0DB
:103ED00005FF002001F002FF002001F0FFFE00209E
:103EE00001F0FCFEC82001F005FF002001F0F6FE05
:103EF000002001F0F3FE002001F0F0FE002001F0B0
:103F0000EDFEC92001F0F6FE002001F0E7FE0020E2
:103F100001F0E4FE002001F0E1FE002001F0DEFEF1
:103F2000002001F0DBFE002001F0D8FE002001F0AF
:103F3000D5FE002001F0D2FE002001F0CFFE0020CF
:103F400001F0CCFE002001F0C9FE002001F0C6FE09
:103F5000002001F0C3FE002001F0C0FE002001F0AF
:103F6000BDFE002001F0BAFEE02001F0C3FE1620E5
:103F700001F0B4FE002001F0B1FE1C2001F0AEFE05
:103F8000002001F0ABFE212001F0A8FE002001F08E
:103F9000A5FE362001F0A2FE002001F09FFE462083
:103FA00001F09CFE002001F099FE522001F096FEE7
:103FB000002001F093FE642001F090FE002001F04B
:103FC0008DFE7A2001F08AFE002001F087FE8B2012
:103FD00001F084FE002001F081FE992001F07EFEB8
:103FE000002001F07BFEA82001F078FE002001F007
:103FF00075FEB92001F072FE002001F06FFEC420B2
:1040000001F06CFE002001F069FECA2001F066FE9E
:10401000002001F063FED22001F060FE002001F0DC
:104020005DFED92001F05AFE002001F057FEE0208D
:1040300001F054FE002001F051FEF32001F04EFE8D
:10404000002001F04BFEE12001F054FE162001F0AB
:1040500045FE002001F042FE1C2001F03FFE002042
:1040600001F03CFE222001F039FE002001F036FE76
:10407000362001F033FE002001F030FE452001F033
:104080002DFE002001F02AFE522001F027FE002024
:1040900001F024FE642001F021FE002001F01EFE4C
:1040A0007A2001F01BFE002001F018FE8B2001F0A9
:1040B00015FE002001F012FE992001F00FFE0020F5
:1040C00001F00CFEA82001F009FE002001F006FE20
:1040D000B92001F003FE002001F000FEC42001F031
:1040E000FDFD002001F0FAFDCA2001F0F7FD0020DF
:1040F00001F0F4FDD22001F0F1FD002001F0EEFD11
:10410000D82001F0EBFD002001F0E8FDE02001F0F7
:10411000E5FD002001F0E2FDF32001F0DFFD0020CD
:1041200001F0DCFDE22001F0E5FD052001F0D6FD07
:10413000002001F0D3FD0B2001F0D0FD002001F0A4
:10414000CDFD1B2001F0CAFD002001F0C7FD342089
:1041500001F0C4FD002001F0C1FD442001F0BEFDCE
:10416000002001F0BBFD4F2001F0B8FD002001F060
:10417000B5FD612001F0B2FD002001F0AFFD792016
:1041800001F0ACFD002001F0A9FD882001F0A6FDA2
:10419000002001F0A3FD972001F0A0FD002001F018
:1041A0009DFDA62001F09AFD002001F097FDB720AB
:1041B00001F094FD002001F091FDC22001F08EFD80
:1041C000002001F08BFDC72001F088FD002001F0E8
:1041D00085FDD12001F082FD002001F07FFDD62079
:1041E00001F07CFD002001F079FDDD2001F076FD7D
:1041F000002001F073FDF32001F070FD002001F0BC
:104200006DFDE32001F076FD052001F067FD00E083
:104210000AE3002001F062FD0A2001F05FFD0020AA
:1042200001F05CFD1C2001F059FD002001F056FD5D
:10423000332001F053FD002001F050FD442001F037
:104240004DFD002001F04AFD502001F047FD002007
:1042500001F044FD622001F041FD002001F03EFD2F
:10426000782001F03BFD002001F038FD882001F0AE
:1042700035FD002001F032FD972001F02FFD0020D8
:1042800001F02CFDA62001F029FD002001F026FD03
:10429000B72001F023FD002001F020FDC22001F035
:1042A0001DFD002001F01AFDC72001F017FD0020C0
:1042B00001F014FDD12001F011FD002001F00EFDF0
:1042C000D52001F00BFD002001F008FDDD2001F0FC
:1042D00005FD002001F002FDF32001F0FFFC0020AD
:1042E00001F0FCFCE42001F005FD012001F0F6FCEA
:1042F000002001F0F3FC012001F0F0FC002001F0AF
:10430000EDFC022001F0EAFC002001F0E7FC2A208D
:1043100001F0E4FC002001F0E1FC3C2001F0DEFCB7
:10432000002001F0DBFC4B2001F0D8FC002001F064
:10433000D5FC5D2001F0D2FC002001F0CFFC742000
:1043400001F0CCFC002001F0C9FC842001F0C6FC87
:10435000002001F0C3FC932001F0C0FC002001F01C
:10436000BDFCA22001F0BAFC002001F0B7FCB32094
:1043700001F0B4FC002001F0B1FCBE2001F0AEFC65
:10438000002001F0ABFCC42001F0A8FC002001F0EB
:10439000A5FCCD2001F0A2FC002001F09FFCD32061
:1043A00001F09CFC002001F099FCDD2001F096FC5E
:1043B000002001F093FCF32001F090FC002001F0BC
:1043C0008DFCE52001F096FC002001F087FC002028
:1043D00001F084FC002001F081FC002001F07EFC53
:1043E000022001F07BFC002001F078FC292001F084
:1043F00075FC002001F072FC3C2001F06FFC0020F5
:1044000001F06CFC4B2001F069FC002001F066FC1F
:104410005D2001F063FC002001F060FC742001F0DD
:104420005DFC002001F05AFC842001F057FC0020C4
:1044300001F054FC932001F051FC002001F04EFCEF
:10444000A22001F04BFC002001F048FCB32001F059
:1044500045FC002001F042FCBE2001F03FFC0020A2
:1044600001F03CFCC42001F039FC002001F036FCD6
:10447000CD2001F033FC002001F030FCD32001F00E
:104480002DFC002001F02AFCDC2001F027FC00209C
:1044900001F024FCF32001F021FC002001F01EFCBF
:1044A000E62001F027FC112001F018FC002001F0AB
:1044B00015FC342001F012FC002001F00FFC562006
:1044C00001F00CFC002001F009FC762001F006FC54
:1044D000002001F003FC772001F000FC002001F037
:1044E000FDFB662001F0FAFB002001F0F7FB8820BD
:1044F00001F0F4FB002001F0F1FB992001F0EEFB4C
:10450000002001F0EBFBBB2001F0E8FB002001F0F4
:10451000E5FB992001F0E2FB002001F0DFFB6620C3
:1045200001F0DCFB002001F0D9FB552001F0D6FBA7
:10453000002001F0D3FB552001F0D0FB002001F05A
:10454000CDFB452001F0CAFB002001F0C7FB432052
:1045500001F0C4FB002001F0C1FB442001F0BEFBD0
:10456000002001F0BBFBE72001F0C4FB322001F08A
:10457000B5FB002001F0B2FB552001F0AFFB00209D
:1045800001F0ACFB762001F0A9FB002001F0A6FBB6
:10459000662001F0A3FB002001F0A0FB672001F0E2
:1045A0009DFB002001F09AFB672001F097FB0020A3
:1045B00001F094FB872001F091FB002001F08EFBBD
:1045C000992001F08BFB002001F088FBBB2001F05B
:1045D00085FB002001F082FB992001F07FFB002089
:1045E00001F07CFB772001F079FB002001F076FBE5
:1045F000442001F073FB002001F070FB562001F015
:104600006DFB002001F06AFB232001F067FB002016
:1046100001F064FB332001F061FB002001F05EFB40
:10462000452001F05BFB002001F058FBE82001F081
:1046300061FB002001F052FB002001F04FFB9920AC
:1046400001F04CFB002001F049FB872001F046FB04
:10465000002001F043FB882001F040FB002001F026
:104660003DFB772001F03AFB002001F037FB66208C
:1046700001F034FB002001F031FB882001F02EFB1B
:10468000002001F02BFBAA2001F028FB002001F004
:1046900025FBBB2001F022FB002001F01FFB99202D
:1046A00001F01CFB002001F019FB662001F016FB55
:1046B000002001F013FB552001F010FB002001F059
:1046C0000DFB552001F00AFB002001F007FB442000
:1046D00001F004FB002001F001FB442001F0FEFA90
:1046E000002001F0FBFA552001F0F8FA002001F05B
:1046F000F5FAE92001F0FEFAAA2001F0EFFA002015
:1047000001F0ECFA002001F0E9FA002001F0E6FAED
:10471000002001F0EFFAAA2001F0E0FACF2001F02A
:10472000E9FA002001F0DAFA002001F0D7FA0020BF
:1047300001F0D4FA002001F0D1FA002001F0CEFA05
:10474000002001F0CBFA002001F0C8FA002001F0AF
:10475000C5FA002001F0C2FA002001F0BFFA0020E3
:1047600001F0BCFA002001F0B9FA002001F0B6FA1D
:10477000002001F0B3FA002001F0B0FA002001F0AF
:10478000ADFA002001F0AAFAF02001F0B3FA0020FF
:1047900001F0A4FA502001F0A1FA002001F09EFAE5
:1047A000002001F09BFA002001F098FAF32001F0BC
:1047B000A1FA002001F092FAF92001F09BFA0620FC
:1047C00001F08CFA102001F089FA292001F086FA14
:1047D000002001F083FA3A2001F08CFA552001F014
:1047E0007DFA112001F086FA642003F001FD2920F2
:1047F00001F080FA352001F07DFA002001F06EFA18
:10480000512001F077FAFF2001F068FA532001F0FF
:1048100071FA2C2001F062FA552001F06BFA822027
:1048200001F05CFA2C20FDE3A0427DD14FF47043EF
:104830005521184601F074FA4FF20107AA213846B3
:1048400001F06EFA5221781C01F06AFA0821B81CB6
:1048500001F066FA0121F81C01F062FA0D214FF413
:10486000304001F05DFA0D214BF2010001F058FAE1
:104870000D214BF2020001F053FA34214FF436407F
:1048800001F04EFA34214BF2016001F049FA342173
:104890004BF2026001F044FA0D214FF4314001F077
:1048A0003FFA0D214BF2011001F03AFA0D214BF2C3
:1048B000021001F035FA34214FF4374001F030FA9C
:1048C00034214BF2017001F02BFA34214BF20270CB
:1048D00001F026FA00214FF4324001F021FA0021C4
:1048E0004BF2012001F01CFA00214BF2022001F0F2
:1048F00017FA24214FF4384001F012FA24214BF624
:10490000010001F00DFA24214BF6020001F008FA33
:1049100001214FF43F4001F003FA0F214FF43340DF
:1049200001F0FEF90F2100E0FEE34BF2013001F04F
:10493000F7F90F214BF2023001F0F2F934214FF474
:10494000394001F0EDF934214BF6011001F0E8F99E
:1049500034214BF6021001F0E3F908214FF4354001
:1049600001F0DEF908214BF2015001F0D9F90821DC
:104970004BF2025001F0D4F903214FF4424001F010
:10498000CFF924214FF43A4001F0CAF924214BF623
:10499000012001F0C5F924214BF6022001F0C0F9F5
:1049A00000214FF43C4001F0BBF978214BF6014067
:1049B00001F0B6F900214BF6024001F0B1F90021F7
:1049C0004FF43D4001F0ACF978214BF6015001F075
:1049D000A7F900214BF6025001F0A2F900214FF493
:1049E0003E4001F09DF964214BF6016001F098F919
:1049F00000214FF4514001F093F933214DF20110A1
:104A000001F08EF900214DF2021001F089F93421F4
:104A10004DF2031001F084F900214DF2041001F071
:104A20007FF93A214DF2051001F07AF900214DF29B
:104A3000061001F075F94A214DF2071001F070F9E6
:104A400000214DF2081001F06BF95C214DF20910C4
:104A500001F066F900214DF20A1001F061F981219F
:104A60004DF20B1001F05CF900214DF20C1001F039
:104A700057F9A6214DF20D1001F052F900214DF227
:104A80000E1001F04DF9E5214DF20F1001F048F93B
:104A900001214DF2101001F043F913214DF21110D4
:104AA00001F03EF901214DF2121001F039F95421C3
:104AB0004DF2131001F034F901214DF2141001F000
:104AC0002FF982214DF2151001F02AF901214DF242
:104AD000161001F025F9CA214DF2171001F020F946
:104AE00002214DF2181001F01BF900214DF21910AE
:104AF00001F016F902214DF21A1001F011F901210D
:104B00004DF21B1001F00CF902214DF21C1001F0C6
:104B100007F934214DF21D1001F002F902214DF286
:104B20001E1001F0FDF867214DF21F1001F0F8F89A
:104B300002214DF2201001F0F3F884214DF22110F2
:104B400001F0EEF802214DF2221001F0E9F8A42163
:104B50004DF2231001F0E4F802214DF2241001F08F
:104B6000DFF8B7214DF2251001F0DAF802214DF2FD
:104B7000261001F0D5F8CF214DF2271001F0D0F822
:104B800002214DF2281001F0CBF8DE214DF2291060
:104B900001F0C6F802214DF22A1001F0C1F8F2210D
:104BA0004DF22B1001F0BCF802214DF22C1001F057
:104BB000B7F8FE214DF22D1001F0B2F803214DF2AD
:104BC0002E1001F0ADF810214DF22F1001F0A8F8D1
:104BD00003214DF2301001F0A3F833214DF23110D2
:104BE00001F09EF803214DF2321001F099F86D2189
:104BF0004DF2331001F094F800214FF4524001F0CF
:104C00008FF833214DF2012001F08AF800214DF296
:104C1000022001F085F834214DF2032001F080F8E4
:104C200000214DF2042001F07BF83A214DF20520DD
:104C300001F076F800214DF2062001F071F84A21CA
:104C40004DF2072001F06CF800214DF2082001F030
:104C500067F85C214DF2092001F062F800214DF265
:104C60000A2001F05DF881214DF20B2001F058F887
:104C700000214DF20C2001F053F8A6214DF20D2039
:104C800001F04EF800214DF20E2001F049F8E52127
:104C90004DF20F2001F044F801214DF2102001F0F7
:104CA0003FF813214DF2112001F03AF801214DF2A5
:104CB000122001F035F854214DF2132001F030F8A4
:104CC00001214DF2142001F02BF882214DF2152024
:104CD00001F026F801214DF2162001F021F8CA2139
:104CE0004DF2172001F01CF802214DF2182001F0BE
:104CF00017F800214DF2192001F012F802214DF2AF
:104D00001A2001F00DF801214DF21B2001F008F8E6
:104D100002214DF21C2001F003F834214DF21D2038
:104D200000F0FEFF02214DF21E2000F0F9FF672186
:104D30004DF21F2000F0F4FF02214DF2202000F080
:104D4000EFFF84214DF2212000F0EAFF02214DF215
:104D5000222000F0E5FFA4214DF2232000F0E0FF27
:104D600002214DF2242000F0DBFFB7214DF2252077
:104D700000F0D6FF02214DF2262000F0D1FFCF2116
:104D80004DF2272000F0CCFF02214DF2282000F048
:104D9000C7FFDE214DF2292000F0C2FF02214DF2B3
:104DA0002A2000F0BDFFF2214DF22B2000F0B8FFC9
:104DB00002214DF22C2000F0B3FFFE214DF22D20F8
:104DC00000F0AEFF03214DF22E2000F0A9FF1021CC
:104DD0004DF22F2000F0A4FF03214DF2302000F00F
:104DE0009FFF33214DF2312000F09AFF03214DF255
:104DF000322000F095FF6D214DF2332000F090FF3E
:104E000000214FF4534000F08BFF33214DF201306D
:104E100000F086FF00214DF2023000F081FF3421C6
:104E20004DF2033000F07CFF00214DF2043000F021
:104E300077FF3A214DF2053000F072FF00214DF26C
:104E4000063000F06DFF4A214DF2073000F068FF98
:104E500000214DF2083000F063FF5C214DF2093073
:104E600000F05EFF00214DF20A3000F059FF812171
:104E70004DF20B3000F054FF00214DF20C3000F0E9
:104E80004FFFA6214DF20D3000F04AFF00214DF2F8
:104E90000E3000F045FFE5214DF20F3000F040FFED
:104EA00001214DF2103000F03BFF13214DF2113083
:104EB00000F036FF01214DF2123000F031FF542195
:104EC0004DF2133000F02CFF01214DF2143000F0B0
:104ED00027FF82214DF2153000F022FF01214DF213
:104EE000163000F01DFFCA214DF2173000F018FFF8
:104EF00002214DF2183000F013FF00214DF219305D
:104F000000F00EFF02214DF21A3000F009FF0121DE
:104F10004DF21B3000F004FF02214DF21C3000F076
:104F2000FFFE34214DF21D3000F0FAFE02214DF259
:104F30001E3000F0F5FE67214DF21F3000F0F0FE4C
:104F400002214DF2203000F0EBFE84214DF22130A1
:104F500000F0E6FE02214DF2223000F0E1FEA42135
:104F60004DF2233000F0DCFE02214DF2243000F03F
:104F7000D7FEB7214DF2253000F0D2FE02214DF2CE
:104F8000263000F0CDFECF214DF2273000F0C8FED4
:104F900002214DF2283000F0C3FEDE214DF229300F
:104FA00000F0BEFE02214DF22A3000F0B9FEF221DF
:104FB0004DF22B3000F0B4FE02214DF22C3000F007
:104FC000AFFEFE214DF22D3000F0AAFE03214DF27E
:104FD0002E3000F0A5FE10214DF22F3000F0A0FE83
:104FE00003214DF2303000F09BFE33214DF2313081
:104FF00000F096FE03214DF2323000F091FE6D215B
:105000004DF2333000F08CFE00214FF4544000F09C
:1050100087FE33214DF2014000F082FE00214DF267
:10502000024000E07CE300F07BFE34214DF20340BF
:1050300000F076FE00214DF2044000F071FE3A21AE
:105040004DF2054000F06CFE00214DF2064000F0EC
:1050500067FE4A214DF2074000F062FE00214DF24A
:10506000084000F05DFE5C214DF2094000F058FE62
:1050700000214DF20A4000F053FE81214DF20B4019
:1050800000F04EFE00214DF20C4000F049FEA6213A
:105090004DF20D4000F044FE00214DF20E4000F0B4
:1050A0003FFEE5214DF20F4000F03AFE01214DF2A6
:1050B000104000F035FE13214DF2114000F030FE9B
:1050C00001214DF2124000F02BFE54214DF213400D
:1050D00000F026FE01214DF2144000F021FE822155
:1050E0004DF2154000F01CFE01214DF2164000F07B
:1050F00017FECA214DF2174000F012FE02214DF2B8
:10510000184000F00DFE00214DF2194000F008FE9D
:1051100002214DF21A4000F003FE01214DF21B4026
:1051200000F0FEFD022100E0FDE24DF21C4000F027
:10513000F7FD34214DF21D4000F0F2FD02214DF249
:105140001E4000F0EDFD67214DF21F4000F0E8FD2C
:1051500002214DF2204000F0E3FD84214DF2214078
:1051600000F0DEFD02214DF2224000F0D9FDA42125
:105170004DF2234000F0D4FD02214DF2244000F016
:10518000CFFDB7214DF2254000F0CAFD02214DF2BE
:10519000264000F0C5FDCF214DF2274000F0C0FDB4
:1051A00002214DF2284000F0BBFDDE214DF22940E6
:1051B00000F0B6FD02214DF22A4000F0B1FDF221CF
:1051C0004DF22B4000F0ACFD02214DF22C4000F0DE
:1051D000A7FDFE214DF22D4000F0A2FD03214DF26E
:1051E0002E4000F09DFD10214DF22F4000F098FD63
:1051F00003214DF2304000F093FD33214DF2314058
:1052000000F08EFD03214DF2324000F089FD6D214A
:105210004DF2334000F084FD00214FF4554000F082
:105220007FFD33214DF2015000F07AFD00214DF257
:10523000025000F075FD34214DF2035000F070FD76
:1052400000214DF2045000F06BFD3A214DF2055063
:1052500000F066FD00214DF2065000F061FD4A218C
:105260004DF2075000F05CFD00214DF2085000F0B7
:1052700057FD5C214DF2095000F052FD00214DF226
:105280000A5000F04DFD81214DF20B5000F048FD19
:1052900000214DF20C5000F043FDA6214DF20D50BF
:1052A00000F03EFD00214DF20E5000F039FDE521E9
:1052B0004DF20F5000F034FD01214DF2105000F07E
:1052C0002FFD13214DF2115000F02AFD01214DF266
:1052D000125000F025FD54214DF2135000F020FD36
:1052E00001214DF2145000F01BFD82214DF21550AA
:1052F00000F016FD01214DF2165000F011FDCA21FB
:105300004DF2175000F00CFD02214DF2185000F044
:1053100007FD00214DF2195000F002FD02214DF26F
:105320001A5000F0FDFC01214DF21B5000F0F8FC7A
:1053300002214DF21C5000F0F3FC34214DF21D50BF
:1053400000F0EEFC02214DF21E5000F0E9FC672156
:105350004DF21F5000F0E4FC02214DF2205000F00D
:10536000DFFC84214DF2215000F0DAFC02214DF2E5
:10537000225000F0D5FCA4214DF2235000F0D0FCC7
:1053800002214DF2245000F0CBFCB7214DF2255004
:1053900000F0C6FC02214DF2265000F0C1FCCF21E6
:1053A0004DF2275000F0BCFC02214DF2285000F0D5
:1053B000B7FCDE214DF2295000F0B2FC02214DF283
:1053C0002A5000F0ADFCF2214DF22B5000F0A8FC69
:1053D00002214DF22C5000F0A3FCFE214DF22D5085
:1053E00000F09EFC03214DF22E5000F099FC10219C
:1053F0004DF22F5000F094FC03214DF2305000F09C
:105400008FFC33214DF2315000F08AFC03214DF224
:10541000325000F085FC6D214DF2335000F080FCDD
:1054200000214FF4564000F07BFC33214DF2016027
:1054300000F076FC00214DF2026000F071FC342196
:105440004DF2036000F06CFC00214DF2046000F0AE
:1054500067FC3A214DF2056000F062FC00214DF23C
:10546000066000F05DFC4A214DF2076000F058FC38
:1054700000214DF2086000F053FC5C214DF2096000
:1054800000F04EFC00214DF20A6000F049FC812141
:105490004DF20B6000F044FC00214DF20C6000F076
:1054A0003FFCA6214DF20D6000F03AFC00214DF2C8
:1054B0000E6000F035FCE5214DF20F6000F030FC8D
:1054C00001214DF2106000F02BFC13214DF2116010
:1054D00000F026FC01214DF2126000F021FC542165
:1054E0004DF2136000F01CFC01214DF2146000F03D
:1054F00017FC82214DF2156000F012FC01214DF2E3
:10550000166000F00DFCCA214DF2176000F008FC97
:1055100002214DF2186000F003FC00214DF21960E9
:1055200000F0FEFB02214DF21A6000F0F9FB0121B0
:105530004DF21B6000F0F4FB02214DF21C6000F004
:10554000EFFB34214DF21D6000F0EAFB02214DF229
:105550001E6000F0E5FB67214DF21F6000F0E0FBEC
:1055600002214DF2206000F0DBFB84214DF221602E
:1055700000F0D6FB02214DF2226000F0D1FBA42105
:105580004DF2236000F0CCFB02214DF2246000F0CC
:10559000C7FBB7214DF2256000F0C2FB02214DF29E
:1055A000266000F0BDFBCF214DF2276000F0B8FB74
:1055B00002214DF2286000F0B3FBDE214DF229609C
:1055C00000F0AEFB02214DF22A6000F0A9FBF221AF
:1055D0004DF22B6000F0A4FB02214DF22C6000F094
:1055E0009FFBFE214DF22D6000F09AFB03214DF24E
:1055F0002E6000F095FB10214DF22F6000F090FB23
:1056000003214DF2306000F08BFB33214DF231600D
:1056100000F086FB03214DF2326000F081FB6D212A
:105620004DF2336000F07CFB5521184600F078FB0A
:10563000AA21384600F074FB5221781C00F070FB60
:105640000821B81C00F06CFB0021F81C00F068FB7E
:10565000CC214FF4314000F063FB00214BF20110EC
:1056600000F05EFB05214FF4364000F059FB70213D
:105670004FF4374000F054FB70214BF2017000F002
:105680004FFB01214FF4384000F04AFB03214BF659
:10569000010000F045FB03214BF6020000F040FB47
:1056A00003214BF6030000F03BFB02214FF43C408A
:1056B00000F036FB00214BF6014000F031FB0021E9
:1056C0004BF6024000F02CFBD0214FF4494000F093
:1056D00027FB02214CF6011000F022FB50214CF672
:1056E000021000F01DFB50214CF6031000F018FBD7
:1056F00050214CF6041000F013FB00214FF45450DD
:1057000000F00EFB55214FF4685000F009FB4FF4F8
:10571000885000F0EFFA782002F078FD4FF4245022
:1057200000F0E8FAB9E04045FCD1E22000F0E2FAEE
:105730001D2000F0D3FA022000F0D0FA042000F07F
:10574000CDFA642002F062FDE02000F0D3FA0120DF
:1057500000F0C4FA0A2002F04BFDE02000F0CAFA83
:10576000032000F0BBFA0C2002F042FD012000F003
:10577000C1FA0A2002F03CFDE62000F0BBFA2F201F
:1057800000F0ACFAFF2000F0A9FAFF2000F0A6FA22
:10579000B02000F0AFFA202000F0A0FA002000F0C6
:1057A0009DFA032000F09AFA40F21F3000F096FABA
:1057B000012000F093FA40F2DF1000F08FFA002091
:1057C00000F08CFAB42000F095FA042000F086FA7C
:1057D00040F21F4000F082FA002000F07FFA2E20F5
:1057E00000F07CFA002000F079FA002000F076FA50
:1057F000002000F073FA002000F070FAB62000F0EC
:1058000079FA022000F06AFA4FF4037000F066FAA9
:10581000002000F063FA172000F060FA152000F075
:105820005DFA002000F05AFA002000F057FAF0204C
:1058300000F060FA032000F051FA292000F05AFA33
:10584000D02000F057FA002000F048FABE2000F007
:1058500051FA052000F042FAFE2000F03FFA012044
:1058600000F03CFA002000F039FA002000F036FA8F
:10587000002000F033FAB82000F03CFA032000F0DA
:105880002DFA012000F02AFABA2000F033FA0120A4
:1058900000F024FA642000F02DF8A888584505D0BF
:1058A000B04203D0A04201D0404509D1042002906B
:1058B0000490D9E9010202A9D9F83030FAF778FF4B
:1058C0000020FDF74FFD0549C1F894A24FF6FF7087
:1058D000FDF724FD15B0BDE8F08F000000804042C8
:1058E000034808B50088ADF80000BDF8000008BD09
:1058F0000000086010B50246BE2000F0FBF905204C
:1059000000F0ECF9104603F026F99FED0C1B53EC68
:10591000112B03F033F903F0F1F880B200F0DEF957
:10592000012000F0DBF9FF2000F0D8F9002000F0A2
:10593000D5F9BDE81040002000F0D0B96666666673
:1059400066660440F0B56C4D00232946AA79898823
:1059500041F66314012A01D01AB11BE0A14202D121
:1059600018E0A14216D1082814D2DFE800F004069E
:10597000080A0C0E101206200CE007200AE0042092
:1059800008E0052006E0012004E0002002E00320FA
:1059900000E00220A1F5134745F2103245F21056FF
:1059A000413F05D0914203D0B14201D0A14277D10D
:1059B000082812D2DFE800F0110406080A0C0E10C5
:1059C00080230AE0402308E0C02306E0202304E00F
:1059D000602302E0A02300E0E023B14202D14FF4B3
:1059E000585000E03620914205D0B14203D0A14288
:1059F00001D043F00803194600F092F9AA88A242A8
:105A00000AD098062888698802D5884202D303E024
:105A1000884201D9298068806889B24241D100F06A
:105A200069F9002000F05AF96889401C80B200F042
:105A300061F9002000F052F96889801C80B200F002
:105A400059F92888401EC0F30F2000F047F96889F3
:105A5000C01C80B200F04EF92878401EC0B200F0A1
:105A60003DF9A88900F046F9002000F037F9A8892F
:105A7000401C80B200F03EF9002000F02FF9A88908
:105A8000801C80B200F036F96888401EC0F30F20F9
:105A900000F024F9A889C01C80B200F02BF922E0A4
:105AA00028E000F027F9002000F018F9002000F0AD
:105AB00015F92888401EC0F30F2000F00FF9287850
:105AC000401EC0B200F00AF9A88900F013F90020C6
:105AD00000F004F9002000F001F96888401EC0F3CE
