:020000040800F2
:10000000F8C4022071020008516B0008D7320008C2
:100010009F610008C9070008997B000800000000E4
:100020000000000000000000000000003B77000816
:10003000CB07000800000000736B0008C1770008C0
:100040008B0200088B0200088B0200088B0200085C
:100050008B0200088B0200088B0200088B0200084C
:100060008B0200088B0200088B0200088B0200083C
:100070008B0200088B0200088B0200088B0200082C
:100080008B0200088B0200088B0200088B0200081C
:100090008B0200088B0200088B0200088B0200080C
:1000A0008B0200088B0200088B0200088B020008FC
:1000B0008B0200088B0200088B0200088B020008EC
:1000C0008B0200088B0200088B0200088B020008DC
:1000D0008B0200082D7B00088B0200088B020008B1
:1000E0008B0200088B0200088B0200088B020008BC
:1000F0008B0200088B0200088B0200088B020008AC
:100100008B0200088B0200088B0200088B0200089B
:100110008B0200088B0200088B0200088B0200088B
:100120008B0200088B0200088B0200088B0200087B
:100130008B0200088B0200088B0200088B0200086B
:100140008B0200088B0200088B0200088B0200085B
:100150008B0200088B0200088B0200088B0200084B
:100160008B0200088B0200088B0200088B0200083B
:100170008B0200088B0200088B02000800000000C0
:100180008B0200088B0200088B0200088B0200081B
:100190008B0200088B0200088B0200088B0200080B
:1001A0008B0200088B0200088B02000800F002F8A6
:1001B00000F047F80AA090E8000C82448344AAF1BA
:1001C0000107DA4501D100F03CF8AFF2090EBAE8B8
:1001D0000F0013F0010F18BFFB1A43F0010318477B
:1001E0007889000098890000103A24BF78C878C147
:1001F000FAD8520724BF30C830C144BF04680C602D
:10020000704700000023002400250026103A28BF74
:1002100078C1FBD8520728BF30C148BF0B60704778
:10022000642900F0B180782900F0EA80732900F099
:100230006682002070471FB508F056FC1FBD10B540
:1002400010BD00F08FFA1146FFF7F5FF08F096F9A0
:1002500000F0ADFA03B4FFF7F2FF03BC07F036FE7F
:1002600030BF72B6704762B6704780F30888704737
:100270000948804709480047FEE7FEE7FEE7FEE73A
:10028000FEE7FEE7FEE7FEE7FEE7FEE70448054976
:10029000054A064B70470000C5770008AD0100080D
:1002A000F8BE0220F8C40220F8C00220F8C00220E4
:1002B000704700000FB4044910B503AA029800F07B
:1002C00023FA10BC5DF814FB240000202DE9F04156
:1002D0000E460446002020622046E168884730B37D
:1002E000252805D0D4E901219047206A401CF2E777
:1002F000E168204600278847050018D0A5F1410095
:10030000192802D820354FF4006732462946204686
:100310002760FFF785FF40B1012804D0F61D26F0C5
:1003200007060836D8E7361DD6E72846DAE7206AFA
:10033000BDE8F08170B50C460546012A05D0287845
:10034000800600D5EA69002302E0012305E05B1C7A
:10035000934202D2E05C0028F9D1A869E618C01ADD
:10036000A861286A184428622846AFF3008004E098
:10037000D5E9012114F8010B9047B442F8D328467F
:10038000AFF3008070BD00002DE9F0410646002467
:1003900010687529314616A510D0AFF300800028EB
:1003A00002DA404213A507E031688A0701D512A599
:1003B00002E0490704D511A5012401E0AFF3008054
:1003C00000210A2206F1240709E0B0FBF2FCB0FB91
:1003D000F2F302FB1C00303078541846491C002808
:1003E000F3D123462A463046BDE8F04100F01CB95F
:1003F000000000002D0000002B0000002000000085
:1004000070B504460D4621461068AFF30080218880
:10041000090502D50F4A7A4402E00E4A7A440E32A8
:10042000002104F1240305E000F00F060009965DA9
:100430005E54491C0028F7D120780023000704D51A
:10044000702D02D009B1022311322046BDE8704060
:1004500000F0EAB81687000040EA0103024630B512
:100460009B0710D14FF0013400E008C208C91D1BE2
:100470009D4315EAC41FF8D013F0FF0102F8011BD9
:100480000DD01B0AF8E711F8013B002B02F8013BE5
:1004900005D011F8013B002B02F8013BF3D130BD30
:1004A000032A40F2308010F0030C00F0158011F8A0
:1004B000013BBCF1020F624498BF11F801CB00F878
:1004C000013B38BF11F8013BA2F1040298BF00F8CC
:1004D00001CB38BF00F8013B11F0030300F0258089
:1004E000083AC0F0088051F8043B083A51F804CBB0
:1004F000A0E80810F5E7121D5CBF51F8043B40F876
:10050000043BAFF30080D20724BF11F8013B11F880
:1005100001CB48BF11F8012B24BF00F8013B00F8C4
:1005200001CB48BF00F8012B704710B5203AC0F04E
:100530000B80B1E81850203AA0E81850B1E81850E4
:10054000A0E81850BFF4F5AF5FEA027C24BFB1E821
:100550001850A0E8185044BF18C918C0BDE8104092
:100560005FEA827C24BF51F8043B40F8043B08BF9B
:100570007047D20728BF31F8023B48BF11F8012B62
:1005800028BF20F8023B48BF00F8012B70474FF00E
:1005900000020429C0F0128010F0030C00F01B8050
:1005A000CCF1040CBCF1020F18BF00F8012BA8BF5E
:1005B00020F8022BA1EB0C0100F00DB85FEAC17C22
:1005C00024BF00F8012B00F8012B48BF00F8012BD5
:1005D00070474FF0000200B5134694469646203906
:1005E00022BFA0E80C50A0E80C50B1F12001BFF4EC
:1005F000F7AF090728BFA0E80C5048BF0CC05DF852
:1006000004EB890028BF40F8042B08BF704748BF9F
:1006100020F8022B11F0804F18BF00F8012B704713
:1006200070477047704770472DE9F0470D4699466F
:100630009246044600F124080168880604D5E06962
:1006400021F01001216000E00120A84201DD471BDC
:1006500000E00027A1697A1902EB0900081AA061DD
:100660002078C00602D42046AFF30080002608E0C0
:10067000D4E901211AF806009047206A401C761C34
:1006800020624E45F4DB2078C0060AD52046AFF341
:10069000008006E0D4E9012130209047206A401C08
:1006A0002062381EA7F10107F4DC07E0D4E901213C
:1006B00018F805009047206A401C2062281EA5F10A
:1006C0000105F3DC2046AFF300802078000602D558
:1006D0000220BDE8F0870120FBE710B5436913B1A4
:1006E000AFF3008001E0FFF725FE012010BD127876
:1006F00000F124010A7000224A700122EDE711681E
:100700004FF0FF32E9E70000074B70B50D467B4420
:1007100000F011F80446284600F020F810B14FF020
:10072000FF3070BD204670BDA37D000001694A1CEA
:1007300002610878704700B58FB0CDE90131002122
:10074000059105497944CDE9031011466846FFF744
:10075000BDFD0FB000BD0000E5FFFFFF007B00F016
:1007600080007047754600F02BF8AE4605006946DC
:10077000534620F00700854618B020B5FFF786FDE8
:10078000BDE820404FF000064FF000074FF0000892
:100790004FF0000B21F00701AC46ACE8C009ACE813
:1007A000C009ACE8C009ACE8C0098D46704710B577
:1007B0000446AFF300802046BDE81040FFF74ABD75
:1007C0000048704798BE0220FEE77047102A0FD0FD
:1007D000C26AD1E9002342EA03220B89097B4FEA6E
:1007E000034343EA016142EA010203D1C26002E02D
:1007F000C268EEE7C2624FF000007047102A0FD0C7
:10080000826AD1E9002342EA03220B89097B4FEA7D
:10081000034343EA016142EA010203D1826002E03C
:100820008268EEE782624FF00000704730B50A68D8
:10083000102A1AD0026A104B02EA0302D1E90134ED
:1008400043EA0403D1E9034544EA050443EA040307
:100850004C69896943EA442343EA413141EA020190
:1008600041F0080103D1016002E00268E3E70162A0
:100870004FF0000030BD00008101F0FF70B5B3F50E
:10088000804F05D06FF0704140F82210002070BDFD
:1008900050F82230084C2340D1E9004544EA0514C1
:1008A0008D688E892D0245EA064589692C430C43E3
:1008B0001C4340F82240E9E70000F0CFF0B50C6897
:1008C00050F82450194A1540D1E90123D1E90367B2
:1008D0001A433E4332434E6932438E693243CE69F6
:1008E00032430E6A32434E6A32438E6A3243CE6AD4
:1008F0003243CE6B32430E6B32434E6B32432A434C
:10090000082B01D142F0400240F824204A6BB2F596
:10091000801F08D10A6832B14FF480720A6104491D
:100920000268114301600020F0BD00008000E0FF7C
:1009300000011000F0B500EB820253688E8903F0CD
:100940004044D1E9003543EA05138D682D0245EA9C
:1009500006452B430E8A0D4D05EB065633430E7D9F
:100960006F0107EB066633438E69334323435360BD
:100970000268D20207D54268098A22F4700205EBA8
:100980000151114341600020F0BD00000000F0FF64
:1009900030B5D1E901231A43D1E9033423431A4383
:1009A0004B690D681A438B691A43D1E90734012D4D
:1009B000496A05686FF30E0505D01A4322430A43BE
:1009C0002A43026008E0234329430B434168036044
:1009D0006FF30E010A434260002030BD426942EAD3
:1009E0004101416100207047F8B514460546D1E940
:1009F000000210438A686FF01F03C96803EB4212BC
:100A000042EA412108430090286100F00BFD0646B0
:100A100009E0601C07D024B100F004FD801BA04257
:100A200001D90320F8BDA8698006F2D40020F8BDE2
:100A3000F0B56FF00F05D1E9003405EB04145B1E2F
:100A40002E0123438C682F0306EB04244FEA054C48
:100A500023430D8A8E8ACC68097E4FF07F4E07EBC8
:100A600005450CEB06560EEB0161012A0CD082689D
:100A70003F1107EB043423432B43334302F070420E
:100A80000B43134383600FE0C2682B430B4302F018
:100A900070428168134301F070422103A1F5805137
:100AA00031431143C36081600020F0BD38B5044676
:100AB000094D4FF0AA300090A879042360436A469C
:100AC000002106F035F8A879042360436A46002126
:100AD000401C06F02DF838BD181600202DE9FC4703
:100AE000254F89460646002500240DF1040810E034
:100AF000CDF80080798870438B084A46002105F0C4
:100B0000AFFE7888BDF80410B1EB900F04D1641CDF
:100B1000A4B2B879A042EBD8B879A04202D10020A3
:100B2000BDE8FC87304605F0BBFC20B1294613A088
:100B3000FFF7C0FB16E0B9F1FF3F13D000200AE039
:100B40007A8806FB001093080022114605F0C6FFC4
:100B5000BDF80400401CADF80400B879BDF80410DD
:100B60008842EDD86D1CADB2032DBDD3314609A02E
:100B7000FFF7A0FB0120D3E7181600206572726F03
:100B80007220657261736520626C6F636B3A2564D5
:100B90000D0A000062616420626C6F636B20636801
:100BA00065636B65643A25640D0A000038B5044638
:100BB000104D00208DF80000A879012360436A469B
:100BC000002105F081FE9DF80000FF2801D00220E1
:100BD00038BDA879012360436A460021401C05F016
:100BE00073FE9DF80000FF2801D0012038BD0020D1
:100BF00038BD0000181600202DE9F84F91462F4A05
:100C00008A461D469179B0FBF1F3B0FBF1F801FB88
:100C1000130B404600F0B8F8284907464889B84207
:100C200002D20120BDE8F88F002428E05C4516D3ED
:100C3000ADB14A88A2EB0A01A94201D28EB200E00E
:100C4000AEB207FB004108FB00404B4652460096FF
:100C500005F0A6FA4FF0000AB144AD1B05E007FB12
:100C6000004108FB004005F06FFB30B13846FFF74C
:100C70001DFF012000F024F8CBE7641CA4B20F494B
:100C80008879A042D2D80D46A879A04214D138461E
:100C900000F028FA404605F003FC00206A896969E3
:100CA00008E031F81040444502D121F8107003E00B
:100CB000401C80B28242F4D80020B3E7181600200E
:100CC000F8B506460021294D4FF6FF7003E06A692A
:100CD00022F81100491C6A898A42F8D80020A881AC
:100CE00004461CE0A879042360436A46002105F00D
:100CF000EBFD9DF80000FF280CD1B6B1A8790123C7
:100D000060436A460021401C05F0DEFD9DF80000AE
:100D1000FF280AD0214616A0FFF7CCFA641C698987
:100D2000A142DFD800206A6916E09DF802009DF814
:100D3000031000EB01206989814202D9696921F819
:100D40001040A889401CA881E8E732F810308B4297
:100D500001D3E88102E0401C8142F6D8E88964288A
:100D600001D20220F8BD0020F8BD000018160020B6
:100D700062616420626C6F636B20696E6465783AAF
:100D800025640D0A0000000070B5104E104C7189EA
:100D90002268491E914200D2216000F001052946D7
:100DA000206800F017F8411C0AD170892168401EA4
:100DB000884207D92946206000F00CF8411C01D078
:100DC000206070BD4FF0FF3070BD0000181600208D
:100DD00034000020F8B50D460021401C00910400AD
:100DE00012D00C4F012626EA0400A8420AD1B87995
:100DF000611E484304236A46002105F065FD009802
:100E0000401C04D0641EEED14FF0FF30F8BD601ED0
:100E1000F8BD000018160020F8B5254E00273C4606
:100E2000B78113E02046FFF7C1FE70B9204605F0F8
:100E300037FB38B121461FA0FFF73CFA2046FFF7E9
:100E400035FE02E0B089401CB081641C7089A0426C
:100E5000E8D8B1891BA0FFF72DFAB089642801D228
:100E60000120F8BDC0EB4010642100EB4000B0FB56
:100E7000F1F50024009710E02046FFF797FE58B9DF
:100E8000B079022360436A46194605F051FE009886
:100E9000401C0090A84203D0641C7089A042EBD88B
:100EA0000120FFF70DFF0028DBD00220F8BD000075
:100EB0001816002042616420626C6F636B3A2564EF
:100EC0000D0A0000676F6F645F626C6F636B6E7515
:100ED0006D3A25640D0A000010B505F00DFB00BB4E
:100EE000184C616911B1002007F062FC6089410073
:100EF000002007F069FC606161894900FFF747FB4A
:100F0000606970B10120FFF7DBFE60B10EA0FFF752
:100F1000D1F9FFF781FF90B111A0FFF7CBF90220C3
:100F200010BD012010BD618912A0FFF7C3F9A1898E
:100F300016A0FFF7BFF9E18919A0FFF7BBF9002060
:100F400010BD000018160020666F726D6174206E6F
:100F5000616E6420666C6173682E2E2E0D0A00008F
:100F6000666F726D6174206661696C6564210D0A3B
:100F700000000000746F74616C20626C6F636B2002
:100F80006E756D3A25640D0A00000000676F6F648E
:100F900020626C6F636B206E756D3A25640D0A00DC
:100FA00076616C696420626C6F636B206E756D3A5C
:100FB00025640D0A000000000549CA89824202D258
:100FC0004FF6FF707047496931F810007047000014
:100FD000181600202DE9FF5F9B4615468246002625
:100FE00079E03F4C6088B0FBF5F1A079414301986E
:100FF0008319B3FBF1F0FFF7DFFF6189814203D86A
:10100000012004B0BDE8F09F354C6188A479B1FBA4
:10101000F5F26243B3FBF2F702FB17326A43B2FB0D
:10102000F1F300FB0437B2FBF1F001FB1028A1EB58
:101030000800B0FBF5F084B2ABEB0600A04200D292
:1010400084B204FB05F91FFA89F31FFA88F15246AE
:10105000384605F0E7FA032809D11FFA89F31FFA89
:1010600088F15246384605F0DDFA032804D00428FA
:101070002ED068B30220C4E74B461FFA88F15246CF
:101080003846FFF7B9FDDFF858804FF0FF3198F888
:101090000600B7FBF0F0FFF721FD80B998F80600D5
:1010A0000021B7FBF0F0FFF719FD814698F8060024
:1010B000B7FBF0F005F0F4F9B9F1000F08D098F89B
:1010C0000600B7FBF0F0FFF7F1FC0120FFF7F8FD99
:1010D00005FB04AA26445E4583D3002091E7000067
:1010E0001816002008B5CC218DF800100449012302
:1010F0006A4689794843194605F01AFD08BD000083
:10110000181600202DE9FF4F85B0154600274FF037
:10111000FF3B7BE0404C6088A179B0FBF5F0484391
:101120000699CB19B3FBF0F0FFF746FF61898046C3
:10113000414503D8012009B0BDE8F08F364A5088F8
:101140009279B0FBF5F15143B3FBF1F401FB14319B
:1011500001FB05FABAFBF0F308FB0231BAFBF0F22F
:1011600000FB12A9A0EB090080B2B0FBF5F00291E0
:101170000899ADF80400C91B8CB20391844200D3D6
:10118000044601A804FB05F600901FFA89F1C6F396
:101190008F034FF0FF32029805F062FB08B1022086
:1011A000C9E7BDF80400B0EB960F0FD1B3B21FFA38
:1011B00089F1059A029805F0E5FB38B94146C34527
:1011C00020D00846FFF78EFFC346D8B11248817978
:1011D00040884143A1EB0A00B0FBF5F0039980B2CF
:1011E0008CB2ADF80400844200D3044604FB05F63B
:1011F0001FFA89F13346059A0298FFF7FDFC08B102
:10120000032098E7059827443044059008988742C2
:1012100080D300208FE700001816002031B500F0C1
:1012200001F9044600F0FEF80099001B8842F9D34A
:1012300038BD00002DE9F84FDFF8A091002209F138
:10124000040A0AF1040B4FF00F080BF1040E0126FB
:101250000B6896403340B34271D14C68022C01D0E8
:10126000122C11D1D40800EB84073D6A5407E40E18
:1012700008FA04FC25EA0C05D1F810C00CFA04FCAD
:101280004CEA050CC7F820C007685400032591F804
:1012900004C0A5400CF0030CAF430CFA04FC4CEA6C
:1012A000070CC0F800C04F68012F05D0022F03D0F3
:1012B000112F01D0122F11D18768D1F80CC0AF4384
:1012C0000CFA04FC4CEA070CC0F808C04768B743A6
:1012D0000E79C6F3001696403E434660C668AE439C
:1012E0008D68A5403543C5604C68E4006FD53C4C23
:1012F000256845F480452560246822F0030504F440
:1013000080440094374C2E19D6F808789407250F9E
:1013100008FA05F4A743344CA04201D100242EE082
:10132000324CA04201D1012429E0314CA04201D12C
:10133000022424E02F4CA04202D103241FE046E007
:101340002D4CA04201D1042419E02C4CA04201D123
:10135000052414E02A4CA04201D106240FE0294CB8
:10136000A04201D107240AE0274CA04201D1082461
:1013700005E0264CA04201D1092400E00A24AC403B
:101380003C43C6F80848D9F800404D464E689C4397
:10139000F60300D51C432C60DAF8004055464E6831
:1013A0009C43B60300D51C432C60DBF800405D462F
:1013B0004E689C43F60200D51C432C60DEF80040CA
:1013C00075464E689C43B60200D51C432C60521CE7
:1013D000102AFFF43CAFBDE8F88F0000003C01404C
:1013E0004438024000300140000002400004024046
:1013F00000080240000C02400010024000140240AD
:1014000000180240001C024000200240002402405C
:101410000069084000D0012070470AB1816170471F
:101420000904FBE70148006870470000180000202D
:1014300002480168491C0160704700001800002044
:101440000B4810B5016841F400710160016841F476
:1014500080610160016841F480710160052000F045
:1014600049FA0F2000F006F800F08AF9002010BDBC
:10147000003C024010B5044600F0EAFC4FF47A71DB
:10148000B0FBF1F001F0B8FD00222146501E00F043
:1014900011FA002010BD2DE9F041044690F8A0009B
:1014A00015460F4601281DD0012684F8A0600220B1
:1014B00084F8A10005EB850000EBC50004EB80007B
:1014C00034223830FFF731F82A463946204604F0F6
:1014D000B5FD2068466284F8A160002084F8A00071
:1014E000BDE8F0810220FBE770B5040004D094F859
:1014F000A100002510B106E0012070BD84F8A050C5
:10150000204600F06FF8022084F8A100206881696D
:1015100021F070418161D4E901100143D4E9030253
:101520001043014320688269114381612068826809
:101530002B490A408260A08A020420688368A66959
:101540003343134383602068C2680A40C260A08BA3
:1015500002042068C368266A33431343C3602068CB
:1015600002690A400261A08C020420680369A66A2D
:10157000334313430361206842690A404261A08DEE
:10158000010420684269236B1A430A43426194F8BC
:101590003500020294F8360001042068C36A03F0A3
:1015A0007F43C3622068C36A94F8346011433343B5
:1015B0000B43C3622068416B41F004014163206822
:1015C000416B41F0020141632068816941F00101F2
:1015D0008161C4F8A450012084F8A100002070BDEE
:1015E00000F800F030B5364887B00025016841F0BA
:1015F00080610160006800F0806005903048143818
:10160000016841F400010160016801F400010591E5
:10161000016841F002010160016801F002010591D9
:10162000016841F020010160016801F0200105918D
:10163000016841F040010160016801F0400105913D
:10164000016841F080010160016801F080010591AD
:10165000016841F4807101600068032400F4807027
:101660000590202000900120CDE9020401906946F8
:101670001448FFF7DFFD4FF4806000900220CDE9B1
:1016800001050E20CDE9034069460F48FFF7D2FD62
:101690004FF40C60009069460C48FFF7CBFD4FF407
:1016A0007E40009069460A48FFF7C4FD40F2F760AB
:1016B000009069460748FFF7BDFD07B030BD000048
:1016C0004438024000040240001402400018024066
:1016D000001C02400020024070B5044690F8A000B3
:1016E0000E46012820D0012584F8A050022084F85D
:1016F000A10003EB830000EBC30004EB800141F881
:10170000386F886A3044C1E90102C86A1044C86071
:101710001A46204604F092FC2068456284F8A150E5
:10172000002084F8A00070BD022070BD2DE9F041BA
:10173000044690F8A0000F4601281FD0012584F828
:10174000A050022084F8A10003EB830000EBC3004B
:1017500004EB80010026E1E90E672046C1E9026240
:10176000C1E90A721A4604F069FC2068456284F8EF
:10177000A15084F8A0600020BDE8F0810220FBE7C2
:1017800008B50020009008BD70B515460E4604004F
:1017900003D094F8210010B107E0012070BD0020B3
:1017A00084F82000204600F021F8211D2068FFF772
:1017B0003DF8D4E900023146FFF720F8D4E90002F1
:1017C0002946FFF703F860681028206808D0016AEE
:1017D00041F004010162012084F82100002070BD65
:1017E000016841F004010160F5E7000070B5274889
:1017F00086B00024016841F001010160006800F03A
:101800000100059021480838016841F00801016095
:10181000016801F008010591016841F010010160C3
:10182000016801F010010591016841F0400101607B
:101830000068032500F0400005904020CDE9000439
:101840000120CDE90205124E69463046FFF7F2FC51
:101850007015009001A9022081E831000C2004904D
:1018600069460C48FFF7E6FC4DF6330000906946E8
:1018700002943046FFF7DEFC4FF4F06000906946BA
:101880000548FFF7D7FC06B070BD000038380240AD
:10189000000C0240001802400010024000F01F023D
:1018A000012191404009800000F1E020C0F80011C2
:1018B00070470000F0B40E4B1B68C3F30223C3F162
:1018C0000704042C00D904241D1D072D01D2002378
:1018D00000E0DB1E012606FA04F56D1E0D409D405A
:1018E0009E40761E164045EA0601F0BC05F031B96F
:1018F0000CED00E0064A00F0070110684FF6FF0308
:10190000184040EA01200349084310607047000076
:101910000CED00E00000FA052DE9F8431D480168D0
:1019200041F0805101600068012700F08050009074
:10193000380490FAA0F0DFF86080B0FA80F048F840
:101940002070FFF76FFD04464FF47A75134E04E0E4
:10195000FFF768FD001BA84213D87068C003F7D5D5
:101960004FF4003090FAA0F0B0FA80F048F8207000
:10197000FFF758FD044607E0FFF754FD001BA8429F
:1019800002D90320BDE8F88370688003F4D50020F5
:10199000F8E700004038024000000E4200700040AE
:1019A0002DE9F84F04460068DFF878829E4DC107A4
:1019B00047F6C07A4FF0E0464FF0010B4FF00009B8
:1019C00001D180074BD59949C1F86890FFF72AFDEE
:1019D000074604E0FFF726FDC01B64287ED8286870
:1019E0000001F7D420789249C0070DD09AFAAAF2E4
:1019F0006068B2FA82F2904096FAA6F3A268B3FA4F
:101A000083F39A40104308602078800718D508684F
:101A100096FAA6F200F0E040B2FA82F2D040626894
:101A2000237B920142EA036242EA00700860D8F820
:101A30000010E26921F01F01521E1143C8F8001086
:101A40007A49C1F868B0FFF7EDFC074604E0FFF7FC
:101A5000E9FCC01B642841D828680001F7D520683C
:101A6000410701D4000776D57049C1F87090FFF79F
:101A7000D9FC074604E0FFF7D5FCC01B64282DD82D
:101A80002868C0438000F6D520786A4F40074FF0A1
:101A9000706C29D5386896FAA6F100F0E040B1FAEA
:101AA00081F1C8409AFAAAF22169B2FA82F2914011
:101AB0009CFAACF36269B3FA83F39A40114396FA45
:101AC000A6F2B2FA82F2904001433960D8F80010D1
:101AD0006FF0FF0321F4F851226A00E079E003EB94
:101AE00002221143C8F800102078000723D5386877
:101AF0009CFAACF100F07060B1FA81F1C8409AFA3A
:101B0000AAF22169B2FA82F291409CFAACF2B2FADE
:101B100082F29040014396FAA6F2A069B2FA82F2EC
:101B2000904001433960D8F80010626A21F44031D6
:101B30001143C8F800103D49C1F870B0FFF772FCBE
:101B4000064604E0FFF76EFC801B642841D8286835
:101B5000C0438000F6D42078800651D532484F46E5
:101B60004030016841F0805101600068324E00F061
:101B700080500090306840F480703060FFF752FC75
:101B8000054604E0FFF74EFC401B642821D830686E
:101B9000C005F7D5264E143E3068218D00F4407004
:101BA00001F4407188422BD03068244920F4407001
:101BB000C1F800B00F603060800710D5FFF732FC2D
:101BC000054641F2883707E0FFF72CFC401BB8427E
:101BD00002D90320BDE8F88F30688007F4D5A06AE9
:101BE0001149C0F301220831032A13D0086820F4F8
:101BF000F81008603068218DC1F30B010843306094
:101C00002078C00604D50E4994F82C00C1F8E001F4
:101C10000020DFE70A680B4B22F4F8121840024359
:101C20000A60E7E78C380240003802400000474273
:101C3000843802408838024000700040400E47421D
:101C400000104742FFFCFF0F2DE9F05FDFF8F8A11D
:101C500004460F46DAF80000DFF8F08100F00F02CA
:101C6000C8B27A49814641F2883608F10808BA427A
:101C700061D202468AF80020DAF8000000F00F0076
:101C8000B8427DD12078800707D5D8F80020A36816
:101C900022F0F0021A43C8F800202078C0072DD0A7
:101CA000606801281AD002281BD0032819D00968BF
:101CB0008907002964DAD8F80010474621F00301AB
:101CC0000143C8F80010FFF7ADFB05466068012826
:101CD0000FD0022818D003281CD027E009688903F8
:101CE000E7E709688901E4E7FFF79CFB401BB04286
:101CF00058D83868C0F381000128F5D188E0FFF793
:101D000091FB401BB0424DD83868C0F381000228D7
:101D1000F5D17DE03868FFF785FB401BB042F9D96B
:101D200040E0FFF77FFB401BB0423BD8386810F023
:101D30000C0FF6D16CE02078800707D5D8F800208A
:101D4000A36822F0F0021A43C8F800202078C007E8
:101D50004CD06068012828D0022829D0032827D039
:101D600009688907002949DAD8F8002022F003021F
:101D70000243C8F80020FFF755FB0546606800E005
:101D80003CE001281DD0022829D0032838D0B346D2
:101D90004646306810F00C0F28D0FFF743FB411B7C
:101DA0005945F6D90320BDE8F09F09688903D9E7B2
:101DB00009688901D6E7FFF735FB411B594502D970
:101DC000F0E7B34646463068C0F381000128F2D1FF
:101DD0000CE0FFF727FB411B594502D9E2E7B34668
:101DE00046463068C0F381000228F2D18AF800909C
:101DF000DAF8000000F00F00B84209D00120D2E765
:101E000044462068FFF70EFB401BB042F9D9C9E7F2
:101E10002078400707D5D8F80010E26821F4E05197
:101E20001143C8F800102078000708D5D8F8001032
:101E3000226921F4604141EAC201C8F800100F2074
:101E4000FFF718FB0020AEE7003C024000380240DC
:101E500010B500F043F808490968F02292FAA2F29E
:101E600001F0F001B2FA82F2D140044A515CC8405C
:101E70000349086010BD000008380240FC8A0008D1
:101E80000000002010B5FFF7E3FF074909684FF491
:101E9000E05292FAA2F201F4E051B2FA82F2D14099
:101EA000024A515CC84010BD08380240FC8A000854
:101EB00010B5FFF7CDFF074909684FF4604292FA69
:101EC000A2F201F46041B2FA82F2D140024A515CBE
:101ED000C84010BD08380240FC8A000830B51948D7
:101EE000006810F00C01184812D0184C04290ED0CC
:101EF00008290DD1134A121F1168136801F03F0120
:101F00005D0247F6C07304D5B4FBF1F003E0204650
:101F100030BDB0FBF1F01168194093FAA3F3B3FAA6
:101F200083F3D940484311684FF4403292FAA2F249
:101F300001F44031B2FA82F2D140491C4900B0FBB1
:101F4000F1F030BD083802400024F40040787D01F3
:101F50002DE9F84F04460078DFF8FCA2BF4DC0071A
:101F60004FF0000648D0DAF800105046C1F3810166
:101F7000012908D00068C0F3810002280AD1281D79
:101F80000068400206D52868800335D560680028BF
:101F900073D031E0DFF8C49209F1020989F80060DA
:101FA000FFF740FA074641F2883804E0FFF73AFAB3
:101FB000C11B41457AD828688003F7D4207989F875
:101FC0000000606860B1FFF72DFA074604E0FFF7F4
:101FD00029FAC11B4145EDD828688003F7D50BE0ED
:101FE000FFF720FA074604E0FFF71CFAC11B414542
:101FF000E0D828688003F7D42078DFF8649280075F
:1020000044D5DAF80010504611F00C0F4FF0F808E4
:1020100009D00068C0F3810002280BD18E48001F50
:102020000068400206D42868800714D5E0680128BB
:1020300023D110E0E068D0B10120C9F80000FFF71B
:10204000F1F9074604E0FFF7EDF9C01B6428B1D8A9
:1020500028688007F7D5286898FAA8F22169B2FAAB
:1020600082F220F0F8009140084328600EE0C9F8A1
:102070000060FFF7D7F9074605E0EAE0FFF7D2F97D
:10208000C01B642812D828688007F7D4207800077E
:1020900025D5DFF8C4817348616908F16C0881B106
:1020A00001210160FFF7BEF9074605E07EE0FFF77A
:1020B000B9F9C01B642879D8D8F800008007F6D594
:1020C0000DE00660FFF7AEF9074604E0FFF7AAF956
:1020D000C01B64286AD8D8F800008007F6D420789E
:1020E000400753D55C483830016841F080510160A9
:1020F0000068DFF8748100F080500090D8F800107C
:1021000041F48071C8F80010FFF78CF9074604E02D
:10211000FFF788F9C01B642848D8D8F80000C0052C
:10212000F6D5DFF834B10BF1680B8BF80060FFF7E0
:1021300079F9074641F2883804E0FFF773F9C11BCB
:1021400041457ED8DBF800008007F6D4207A8BF872
:102150000000A06868B1FFF765F9074604E0FFF7E3
:1021600061F9C11B41456CD8DBF800008007F6D54A
:102170000CE0FFF757F9074604E0FFF753F9C11BDE
:1021800041455ED8DBF800008007F6D4A069E8B3CB
:10219000DAF80010C1F3810102295AD0022806D0D2
:1021A000C9F86060FFF73EF904464DE049E04F464C
:1021B000C9F86060FFF736F9064604E0FFF732F928
:1021C000801B64283DD828688001F7D4D4E9070132
:1021D000084347F6C07191FAA1F1626AB1FA81F140
:1021E0008A40A16A4FF0FF3303EB51014FF44033B3
:1021F00093FAA3F3B3FA83F399400A4310434FF0E1
:10220000706292FAA2F2B2FA82F200E01FE0E16A92
:10221000914008431049091F086001203866FFF704
:1022200001F9044604E0FFF7FDF8001B642808D814
:1022300028688001F7D50AE0FFF7F4F8001B64284E
:1022400002D90320BDE8F88F28688001F4D400206B
:10225000F8E70120F6E700000838024000380240A5
:1022600000004742800E47420070004070B50D46A6
:10227000040003D094F82C0010B107E0012070BDD9
:10228000002084F82D00204600F012F8022084F887
:102290002C00211D2068FEF77BFBD4E900022946B3
:1022A000FEF7C6FB012084F82C00002070BD000062
:1022B000304800B5016887B041F001010160006855
:1022C00000F0010005902B480838016841F0040136
:1022D0000160016801F004010591016841F0080105
:1022E0000160016801F008010591016841F01001E9
:1022F0000160016801F010010591016841F02001C1
:102300000160016801F020010591016841F0400180
:1023100001600068694600F0400005900D200090C3
:102320000220019001200290032003900C200490D1
:102330001148FEF77FFF4CF20370009069460F488A
:10234000FEF778FF4FF68370009069460C48FEF761
:1023500071FF4FF63F00009069460A48FEF76AFF9A
:1023600048F23710009069460748FEF763FF07B050
:1023700000BD00003838024000080240000C024056
:1023800000100240001402400018024010B504463C
:1023900090F82C00022809D0022084F82C00206834
:1023A000FEF71CFB012084F82C00002010BD70B546
:1023B000044690F82C000D4602280CD0022084F828
:1023C0002C002068FEF710FB2868022804D00120AA
:1023D00084F82C00002070BD0520F9E72DE9F047B6
:1023E00090F8202081F85620828CA1F85420826A2F
:1023F0000023120E94090C70C2F383044C7002F097
:1024000003028A70826A120CCA70028D120A0A7163
:1024100090F828204A71C26A4FF6FF7A120E0AEA33
:102420000212CA80C26ACC88C2F3074244EA12147C
:10243000CC8002F00F020A72828DC2F30722D40907
:102440004C72C2F380148C72C2F34014CC72C2F38B
:1024500000140C7300264E73046A4FF00109002C1F
:102460007DD0012CFCD0022C7AD02923C2F3801419
:102470004C769206520E01F81A2F10F8302F0C7875
:1024800044EAD21401F8014B02F07F0201F8012B5B
:1024900050F8042F120ED4090C70C2F341144C7082
:1024A000C2F382048C709207120FCA7004C8CC78F1
:1024B000C2F3074244EA9214CC70C2F340140C7188
:1024C0004E7102F001028A7130F8042CC2F3072227
:1024D000D409CC71C2F380140C72C2F340144C7254
:1024E000C2F300148C72C2F38104CC7202F00302B6
:1024F0000A7310F8042C52084A734C4681F80E9067
:1025000050F8082B120E0A7450F8082C120C0AEA24
:1025100002224A8230F8082C4D8AC2F30722154362
:102520004D8210F8082C120641F8142F50F8042C94
:102530000D68120E45EA02420A6050F8042C0D683C
:10254000C2F3074245EA02220A6030F8042C0D6803
:10255000C2F30722154320C110F8042C01E034E037
:1025600076E001F8012B0268120E01F8032B0268D5
:10257000120C12060A6002880D68C2F3072245EAAF
:1025800002420A6002780D6845EA02220A60426847
:102590000D6845EA126520C142680D78C2F3074212
:1025A00045EA121501F8025B1207120D0A808288B3
:1025B0000D88C2F30722154321F8025B0079400819
:1025C00008704C701846BDE8F0879207120D0A613A
:1025D00090F82C200C6944EA82020A61026B0C69B3
:1025E000120E44EA92140C61C2F3C2040C7502F09C
:1025F00007024A75026BC2F3074254098C75C2F395
:102600008204CC759207520F0A76028E0C7EC2F3BA
:10261000072244EAD2140C760C690F7EBF1C09FA1B
:1026200007F5641CA4FB05784FEAE57C06FB0585ED
:1026300004FB0C5591F808C009FA0CF4A7FB04C878
:102640000C6505FB048407FB0644C1E912C40DE7D1
:1026500090F82C209206920A0A61026B0C69120E05
:1026600044EA02220A61026B0C69C2F30742144376
:102670000C61028E0C69C2F30722641C46F100054E
:10268000ED0445EA5435E404C1E912454FF4007401
:102690000C65EBE670B586B000250E4604468DF855
:1026A0000C50057700F046F876200095CDE90150F2
:1026B0002B462A462946206804F0B0FA204604F04A
:1026C000E7FD8DF80C009DF80C0038B9204604F0A9
:1026D000D3FC8DF80C009DF80C0018B19DF80C008F
:1026E00006B070BD31462046FFF778FE8DF80C002D
:1026F0009DF80C00A0B9B6F854006946000400909B
:10270000072001904020CDE90205000104902068D7
:1027100004F09DFA0721204604F020FB8DF80C0000
:1027200004F1100007C88DE8070094E80F0004F0DA
:1027300075FAD3E71D4800B5016887B041F4006120
:102740000160006800F400600590184814380168C2
:1027500041F480010160016801F480010591016884
:1027600041F004010160016801F004010591016874
:1027700041F0080101600068694600F0080005901A
:102780004FF4F850009002200190012002900320A5
:1027900003900C2004900648FEF74CFD04200090A6
:1027A00069460448FEF746FD07B000BD44380240C4
:1027B00000080240000C02402DE9F04F8BB00446A7
:1027C0000D46DDE91478216800201646C862216AAA
:1027D000022903D10F02560A46EAC3561021CDE959
:1027E00000714021834608010291CDE903B069469A
:1027F000206804F02CFA1021204604F0AFFA0028DB
:102800006DD14FF0FF3A08FB07F0CDE905A007A90D
:1028100090204FF0020981E8010A01200A9005A9E1
:10282000206804F0D9F9B8F1010F01D9122000E0B5
:102830001120CDE900606946206804F008FAB8F17B
:10284000010F1AD91221204604F088FA070046D158
:1028500040F22A3B2068416B11EA0B0F28D1406BF4
:102860000004F7D50026206804F0EEF945F82600AC
:10287000761C082EF7D32035ECE71121204604F012
:102880006DFA07002BD140F22A6B2068416B11EAE8
:102890000B0F0DD1406B0004F7D50026206804F023
:1028A000D3F945F82600761C082EF7D32035ECE73F
:1028B000406BC0050CD5B8F1010F09D9206A18B1D9
:1028C000012801D0022803D1204600F033F8074642
:1028D0002168486B000705D50820886304200BB0E9
:1028E000BDE8F08F486B800703D54846C1F83890A3
:1028F000F5E7486B800603D5202088630620EEE7C5
:10290000486B800504D54FF4007088630720E6E724
:10291000564603E004F098F901C5761E2068416B25
:10292000890201D5002EF5D1216840F2FF5088635D
:102930003846D4E710B586B0044600200C21CDE916
:1029400000014021CDE90210080104906946206889
:1029500004F07DF90C21204604F000FA06B010BD09
:10296000FEB50446006A00250E46032805D030B1A6
:10297000012804D0022802D01FE02720FEBDB6F5B2
:10298000805F05D0B6F5006F04D03EB1262514E077
:10299000272512E0204604F0B6FD02E0204604F0B0
:1029A00079FD050009D1211DD4E905070EC9CDE93E
:1029B00000600297206804F031F92846FEBD2DE939
:1029C000F04F8DB0064600250C468DF82C50DDE901
:1029D0001698316817462846CD62316A4FF4007B5D
:1029E000022903D1570AD94647EAC3571021CDE936
:1029F00000914021824608010291CDE903A0694679
:102A0000306804F024F91021304604F0A7F90028BA
:102A10006ED1B8F1010F01D9192000E01820CDE9DD
:102A200000706946306804F012F9B8F1010F01D95D
:102A3000192100E01821304604F090F900287FD1D8
:102A4000411E09FB08F99020CDE906900591CDF8CB
:102A500020A00120CDE909A005A9306804F0BCF848
:102A6000B8F1010F24D84FE0406B400420D5A9EB0A
:102A70000500202811D281074FEA900000D0401CA9
:102A80008246002706E02146306804F0F0F8241D55
:102A90002D1D7F1C57450BD2F5E7002704EB87015E
:102AA000306804F0E4F87F1C082FF7D32034203579
:102AB0003068416B40F21A321142D5D02AE0406BA7
:102AC000400421D5A9EB0500202812D281074FEA46
:102AD000900000D0401C8246002706E02146306866
:102AE00004F0C5F8241D2D1D7F1C57450CD2F5E7B9
:102AF00026E0002704EB8701306804F0B8F87F1C5B
:102B0000082FF7D3203420353068416B40F21A6229
:102B10001142D4D0406BC0050BD5B8F1010F08D9D4
:102B2000306A18B1012801D0022802D13046FFF7DF
:102B300001FF3168486B000705D508208863042031
:102B40000DB0BDE8F08F486B800702D50220886386
:102B5000F6E7486BC00603D5102088630520EFE731
:102B6000486B800503D5C1F838B00720E8E740F28C
:102B7000FF5088630BA9304604F0ECFA0028DFD13F
:102B80009DF82C100729F5D00629F3D0D8E770B5A9
:102B9000040004D094F85100002510B106E0012093
:102BA00070BD84F85050204600F034F8022084F8BC
:102BB00051002068016821F040010160D4E9010161
:102BC0000843D4E903121143084361690843218B88
:102BD00001F400710843E1690843216A0843A16ACE
:102BE000084321680860A069042101EA1040616A75
:102BF0000843216848602168E06A08612068C1696B
:102C000021F40061C1616565012084F85100002054
:102C100070BD0000124800B5016887B041F0200186
:102C20000160006800F0200005900D481430016834
:102C300041F4801101600068012100F480100590CA
:102C40004FF4607000900220CDE90101039005204F
:102C5000049069460348FEF7EDFA07B000BD000096
:102C600030380240001402402DE9F843044690F841
:102C70005100DDF82080012801D022287ED169B1E1
:102C800062B15BB194F85000012877D0012784F835
:102C9000507094F85100012803D005E00120BDE8F0
:102CA000F883322084F8510000266665A263A3876A
:102CB000E3872163A386E386A664E664A06A4FF4F3
:102CC0000055A84209D12068016821F40051016033
:102CD0002068016841F400510160206801684906DC
:102CE00003D4016841F040010160E0684FF4827153
:102CF000B0F5006F606807D0002867D088426ED1B9
:102D0000E08E012862D06AE020B188420CD1E08ECA
:102D1000012809D1206B21680088C860206B801CC5
:102D20002063E08E401EE086E08E80B9A06AA84253
:102D300044D12068016841F4805101603EE0206880
:102D4000C068A16B0880A06B801CA0639EE0434616
:102D500000220221204604F0A1FC002874D1206B3F
:102D600021680088C860206B801C2063E08E401EB4
:102D70000004000CE08609D1A06A00E0C7E0A84288
:102D800004D12068016841F480510160434600226B
:102D90000121204604F082FC00286FD12068C06821
:102DA000A16B0880A06B801CA063E08F401EE087B1
:102DB000E08E0028CBD1606800286AD1434600220B
:102DC0000121204604F06AFCF0BBB8E7206B411CEF
:102DD000216321680078C860E08E401EE086E08EA6
:102DE00098B9A06AA84204D12068016841F48051D2
:102DF0000160434600220121204604F04FFC18BB2D
:102E00002068C068A16B087040E0434600220221A0
:102E1000204604F043FCB8B9206B411C21632168B3
:102E20000078C860E08E401E0004000CE08607D1E8
:102E3000A06AA84204D12068016841F48051016071
:102E400000224346012100E018E0204604F026FC61
:102E5000A0B92068C168A06B421CA2630170E08F1A
:102E6000401EE087E08E0028CFD1606888B94346D5
:102E700000220121204604F011FC08B103200EE7D6
:102E80002068C168A06B421CA2630170E08F401EE5
:102E9000E087A06AA84210D14346002201212046C3
:102EA00004F0FCFB18B1606D40F002000FE02068F8
:102EB000C068ADF80000BDF8000043460122802143
:102EC000204604F0EBFB20B1606D40F0200060650F
:102ED000D4E784F8517020688168A26AC1F30011B8
:102EE000AA4210D179B1616D41F0020161650168BA
:102EF00021F4005101602068016841F40051016033
:102F000084F85060CAE684F850600020C7E60220CA
:102F1000C5E670B515460E46040003D094F8490086
:102F200010B107E0012070BD002084F84800204661
:102F300000F01AF804F108012068FDF7BFFC3146E3
:102F4000A2682068FDF7F6FCD4E901022946236B4C
:102F5000FDF794FCA168206850F8212042F001029E
:102F600040F82120002070BD1A4800B5016887B0E4
:102F700041F001010160006800F001000590154872
:102F80000838016841F008010160016801F008019A
:102F90000591016841F0100101600068694600F088
:102FA000100005904EF2B3700090022001900120B5
:102FB0000290032003900C2004900748FEF73AF992
:102FC0004FF68070009069460448FEF733F907B069
:102FD00000BD000038380240000C024000100240E2
:102FE0004FF0E0210428086903D020F004000861B4
:102FF000704740F00400FAE710B5401EB0F1807F42
:1030000001D3012010BD4FF0E02460610F21601753
:1030100003F09FFD0020A06107202061002010BD6B
:10302000704738B5016804460868CA68C0F30000F4
:1030300002F4807238B132B1086848680090E06BE1
:1030400040F00100E06308684A69C0F3400002F004
:10305000010238B132B1086848680090E06B40F076
:103060000400E06308684A69C0F3800002F00102CE
:1030700038B132B1086848680090E06B40F0020057
:10308000E06308684A69C0F3C00002F0010238B189
:1030900032B1086848680090E06B40F00800E063D7
:1030A0000868C968C0F3401001F0200118B111B1DF
:1030B000204604F0B1FB20680168C068C1F3C0116C
:1030C00000F0800019B110B1204604F0B3FC216873
:1030D0000868CA68C0F3801002F04002012568B198
:1030E00062B1CA68204622F04002CA6094F83910E2
:1030F00032290CD080F8395000F0ECF8E06B002851
:1031000004D084F839502046FFF78AFF38BD2221C9
:1031100080F83910F0E770B5040004D094F8390055
:10312000002510B106E0012070BD84F8385020461B
:1031300000F020F8022084F839002068C16821F4EA
:103140000051C160204604F0BBFB2068016921F4F6
:10315000904101612068416921F02A0141612068A4
:10316000C16841F40051C160E563012084F8390071
:10317000002070BD30B504460068204987B0884201
:1031800039D11F48016841F001010160006800F079
:10319000010005901A481430016841F010010160E7
:1031A0000068012100F0100005904FF400700090BD
:1031B0000220CDE9010103900720124D04906946D9
:1031C0002846FEF737F82815009069462846FEF78E
:1031D00031F82068C16821F04001C1602068C168F1
:1031E00041F02001C1602520FEF758FB0322114663
:1031F0002520FEF75FFB07B030BD00000010014046
:1032000030380240000002402DE9F047044690F8B3
:10321000390099460D46012801D0122857D125B30F
:103220001AB394F83800012851D0012684F8386088
:103230000027E76394F83900122819D0222084F877
:103240003900A285E2854FF48058E08D4B46401E40
:10325000E085A0684FF0000240454FF02001204675
:1032600016D104F01AFCB0B904E00120BDE8F087E3
:103270003220E4E7206900282068406803D0C1B20A
:1032800025F8011B12E0C0F3080125F8021B0DE030
:1032900004F003FC08B10320E8E720690028206857
:1032A000406801D000F07F0005F8010BE08D002898
:1032B000CBD194F83900322805D084F8396084F8ED
:1032C00038700020D2E7122084F83900F7E7022096
:1032D000CCE770477047FEE770B51B4886B0002505
:1032E000016841F001010160016801F001010591EF
:1032F000016841F004010160016801F004010591D9
:10330000016841F0800101600068032400F0800042
:10331000059002200126CDE90204CDE90065694649
:103320000A48FDF787FF700303948DE86100694642
:103330000748FDF77FFF0C20009069460548FDF720
:1033400079FF06B070BD0000303802400000024036
:1033500000080240001C024070B50E490E4A0646A5
:1033600008881268002422B13046BDE8704002F09F
:1033700037BC4D8800214543084602F05FFB02F050
:10338000F7FBB1B2054801E00180641CAC42FBD3FD
:1033900070BD0000C4010020B002002000000860E1
:1033A0002DE9F05F394C3A4DA071296839B102F02E
:1033B00037FCE88A2080288B6080BDE8F09F334985
:1033C0002C232A2589884FF0F00949F2413A2B260F
:1033D00045F2105B4FF4305E4FF448774FF4A0781D
:1033E00045F2103C4FF4F07258B1A4F80080A4F8F4
:1033F0000290514501D0614529D123816581A68183
:1034000039E0A4F80090A4F80280514501D061454C
:1034100008D123816581A681614531D1A4F800805E
:1034200062802DE0594508D1A4F808E04FF42850F7
:1034300060814FF42C50A08106E0A1F5C85063389C
:103440001ED123816681A5812280678018E05945BD
:1034500008D1A4F808E04FF4285060814FF42C50B4
:10346000A08106E0A1F5C850633804D123816581AD
:10347000A68127806280614502D12280A4F8028063
:10348000BDE8F05F002002F0FDB90000C40100209B
:10349000B00200202DE9F04F95B002F073FDFE4D13
:1034A0004FF0010AA5F15009A88049F2413B45F2CD
:1034B000103645F2105441F6631818B102F01EFCA4
:1034C00002F08BB9F5480027016841F00201016064
:1034D000006810A900F0020000902020CDE9100A39
:1034E0000320CDE912A0EE48FDF7A4FE4FF02041E5
:1034F0004846C9F80010EB49C0E901171021C9F886
:103500000C70C0E90471C9F818700902C9F81C7080
:10351000C0E909718900C0E90B71C9F834708901EB
:10352000C9E90E7146210B910F20CDE90907CDE9BC
:1035300002070490D8480F9702AA09A908975038A3
:10354000FFF7E7FC322004F013FDD32002F004FB68
:1035500002F066F9A88002F063F9A88002F060F931
:103560004FF6FF7202EA0020A88002F059F9A988FC
:103570005F460843A880B84248D0D42002F0ECFA55
:1035800002F04EF9A88002F04BF9A88002F048F949
:1035900002EA0020A88002F043F9A9880843A88025
:1035A000B04233D04FF45A4002F0D6FA02F038F964
:1035B000A8804FF45B4002F0CFFA02F031F902EA42
:1035C0000020A8804FF45C4002F0C6FA02F028F90F
:1035D000A9880843A880B0F5004F7DD0A04215D03F
:1035E000A12002F0B9FA02F01BF9A88002F018F944
:1035F00002EA0020A88002F013F9A9880843A0F588
:10360000AE41A880613901D1A5F80480A988A6A09F
:10361000FCF750FEA888B8427ED1CF2002F09CFA79
:10362000002002F08DFAC12002F08AFA302002F068
:1036300087FAED2002F090FA642002F081FA03206C
:1036400002F07EFA122002F07BFA812002F078FA72
:10365000E82002F081FA852002F072FA102002F0D0
:103660006FFA7A2002F06CFACB2002F075FA39205A
:1036700002F066FA2C2002F063FA002002F060FAF1
:10368000342002F05DFA022002F05AFAF72002F02C
:1036900063FA202002F054FAEA2002F05DFA0020DA
:1036A00002F04EFA002002F04BFAC02002F054FA69
:1036B0001B2002F045FAC12002F04EFA012002F070
:1036C0003FFAC52002F048FA302002F039FA3020E3
:1036D00002F036FAC72000E0B7E002F03DFAB7206A
:1036E00002F02EFA362002F037FA482002F028FACB
:1036F0003A2002F031FA552002F022FAB12002F00D
:103700002BFA002002F01CFA1A2002F019FAB62057
:1037100002F022FA0A2000E099E002F011FAA22059
:1037200002F00EFAF22002F017FA002002F008FA76
:10373000262002F011FA012002F002FAE02002F045
:103740000BFA0F2002F0FCF92A2002F0F9F92820E8
:1037500002F0F6F9082002F0F3F90E2002F0F0F979
:10376000082002F0EDF9542002F0EAF9A92002F055
:10377000E7F9432002F0E4F90A2002F0E1F90F2012
:1037800002F0DEF9002002F0DBF9002002F0D8F9A7
:10379000002002F0D5F9002002F0D2F9E12002F079
:1037A000DBF9002002F0CCF9152002F0C9F917204E
:1037B00002F0C6F9072002F0C3F9112002F0C0F9A7
:1037C000062002F0BDF92B2002F0BAF9562002F0D3
:1037D000B7F93C2002F0B4F9052002F0B1F910204D
:1037E00002F0AEF90F2002F0ABF93F2002F0A8F989
:1037F0003F2002F0A5F90F2002F0A2F92B2002F0E1
:10380000ABF9002002F09CF9002002F099F90120A8
:1038100002F096F93F2002F093F92A2002F09CF979
:10382000002002F08DF9002002F08AF9002002F059
:1038300087F9EF2002F084F9112002F08DF9782049
:1038400004F096FB292001F00BBFAC80DEE6B0420D
:103850007ED1ED2002F080F9012002F071F9FE2006
:1038600002F06EF9EE2002F077F9DE2002F068F93E
:10387000212002F065F9F12002F06EF9012002F03A
:103880005FF9DF2002F068F9102002F059F9C42036
:1038900002F062F98F200FE0C401002030380240AE
:1038A00000040240040100A0204C43442049443A53
:1038B00025780D0A0000000002F042F9C62002F04F
:1038C0004BF9002002F03CF9E22002F039F9E22045
:1038D00002F036F9E22002F033F9BF2002F03CF9A1
:1038E000AA2002F02DF9B02002F036F90D2002F0E6
:1038F00027F9002002F024F90D2002F021F9002020
:1039000002F01EF9112002F01BF9002002F018F954
:10391000192002F015F9002002F012F9212002F01E
:103920000FF9002002F00CF92D2002F009F9002017
:1039300002F006F93D2002F003F9002002F000F940
:103940005D2002F0FDF8002002F0FAF85D2000E0B2
:10395000FEE302F0F5F8002002F0F2F8B12002F0E8
:10396000FBF8802002F0ECF8002002F0E9F88B2050
:1039700002F0E6F8002002F0E3F8962002F0E0F80A
:10398000002002F0DDF8B22002F0E6F8002002F09C
:10399000D7F8002002F0D4F8022002F0D1F800207D
:1039A00002F0CEF8032002F0CBF8002002F0C8F8B5
:1039B000B32002F0D1F8002002F0C2F8002002F09B
:1039C000BFF8002002F0BCF8002002F0B9F8002097
:1039D00002F0B6F8002002F0B3F8002002F0B0F8D0
:1039E000002002F0ADF8002002F0AAF8002002F05A
:1039F000A7F8002002F0A4F8002002F0A1F80020AF
:103A000002F09EF8002002F09BF8002002F098F8E7
:103A1000002002F095F8002002F092F8002002F059
:103A20008FF8002002F08CF8002002F089F80020C6
:103A300002F086F8002002F083F8002002F080F8FF
:103A4000002002F07DF8B42002F086F88B2002F00E
:103A500077F8002002F074F8962002F071F8002048
:103A600002F06EF8A12002F06BF8002002F068F876
:103A7000B52002F071F8022002F062F8002002F096
:103A80005FF8032002F05CF8002002F059F80420EF
:103A900002F056F8002002F053F8B62002F05CF86D
:103AA000002002F04DF8002002F04AF8B72002F0A2
:103AB00053F8002002F044F8002002F041F83F20C3
:103AC00002F03EF8002002F03BF85E2002F038F8E9
:103AD000002002F035F8642002F032F8002002F0F5
:103AE0002FF88C2002F02CF8002002F029F8AC20EE
:103AF00002F026F8002002F023F8DC2002F020F883
:103B0000002002F01DF8702002F01AF8002002F0E8
:103B100017F8902002F014F8002002F011F8EB20C2
:103B200002F00EF8002002F00BF8DC2002F008F89A
:103B3000002002F005F8B82002F00EF8002001F095
:103B4000FFFF002001F0FCFF002001F0F9FF002042
:103B500001F0F6FF002001F0F3FF002001F0F0FF7C
:103B6000002001F0EDFF002001F0EAFFBA2001F093
:103B7000F3FF242001F0E4FF002001F0E1FF00202A
:103B800001F0DEFF002001F0DBFFC12001F0E4FFC7
:103B9000202001F0D5FF002001F0D2FF542001F0D9
:103BA000CFFF002001F0CCFFFF2001F0C9FF002073
:103BB00001F0C6FFC22001F0CFFF0A2001F0C0FFD4
:103BC000002001F0BDFF042001F0BAFF002001F049
:103BD000B7FFC32001F0C0FF3C2001F0B1FF00207F
:103BE00001F0AEFF3A2001F0ABFF002001F0A8FF8A
:103BF000392001F0A5FF002001F0A2FF372001F0DD
:103C00009FFF002001F09CFF3C2001F099FF002065
:103C100001F096FF362001F093FF002001F090FFA5
:103C2000322001F08DFF002001F08AFF2F2001F0EB
:103C300087FF002001F084FF2C2001F081FF00208D
:103C400001F07EFF292001F07BFF002001F078FFCA
:103C5000262001F075FF002001F072FF242001F002
:103C60006FFF002001F06CFF242001F069FF0020AD
:103C700001F066FF232001F063FF002001F060FFE8
:103C80003C2001F05DFF002001F05AFF362001F0DA
:103C900057FF002001F054FF322001F051FF0020B7
:103CA00001F04EFF2F2001F04BFF002001F048FFF4
:103CB0002C2001F045FF002001F042FF292001F0F7
:103CC0003FFF002001F03CFF262001F039FF0020DB
:103CD00001F036FF242001F033FF002001F030FF17
:103CE000242001F02DFF002001F02AFF232001F005
:103CF00027FF002001F024FFC42001F02DFF6220E7
:103D000001F01EFF002001F01BFF052001F018FF4D
:103D1000002001F015FF842001F012FF002001F0C7
:103D20000FFFF02001F00CFF002001F009FF182028
:103D300001F006FF002001F003FFA42001F000FFC6
:103D4000002001F0FDFE182001F0FAFE002001F035
:103D5000F7FE502001F0F4FE002001F0F1FE0C20EF
:103D600001F0EEFE002001F0EBFE172001F0E8FE6E
:103D7000002001F0E5FE952001F0E2FE002001F0B8
:103D8000DFFEF32001F0DCFE002001F0D9FEE6208A
:103D900001F0D6FE002001F0D3FEC52001F0DCFECC
:103DA000322001F0CDFE002001F0CAFE442001F0D7
:103DB000C7FE002001F0C4FE652001F0C1FE002016
:103DC00001F0BEFE762001F0BBFE002001F0B8FE3F
:103DD000882001F0B5FE002001F0B2FEC62001F0FF
:103DE000BBFE202001F0ACFE002001F0A9FE172050
:103DF00001F0A6FE002001F0A3FE012001F0A0FECC
:103E0000002001F09DFEC72001F0A6FE002001F079
:103E100097FE002001F094FE002001F091FE0020AA
:103E200001F08EFEC82001F097FE002001F088FE10
:103E3000002001F085FE002001F082FE002001F04C
:103E40007FFEC92001F088FE002001F079FE0020ED
:103E500001F076FE002001F073FE002001F070FEFC
:103E6000002001F06DFE002001F06AFE002001F04C
:103E700067FE002001F064FE002001F061FE0020DA
:103E800001F05EFE002001F05BFE002001F058FE14
:103E9000002001F055FE002001F052FE002001F04C
:103EA0004FFE002001F04CFEE02001F055FE1620F0
:103EB00001F046FE002001F043FE1C2001F040FE10
:103EC000002001F03DFE212001F03AFE002001F02B
:103ED00037FE362001F034FE002001F031FE46208E
:103EE00001F02EFE002001F02BFE522001F028FEF2
:103EF000002001F025FE642001F022FE002001F0E8
:103F00001FFE7A2001F01CFE002001F019FE8B201C
:103F100001F016FE002001F013FE992001F010FEC2
:103F2000002001F00DFEA82001F00AFE002001F0A3
:103F300007FEB92001F004FE002001F001FEC420BC
:103F400001F0FEFD002001F0FBFDCA2001F0F8FDAC
:103F5000002001F0F5FDD22001F0F2FD002001F07B
:103F6000EFFDD92001F0ECFD002001F0E9FDE0209B
:103F700001F0E6FD002001F0E3FDF32001F0E0FD9B
:103F8000002001F0DDFDE12001F0E6FD162001F04A
:103F9000D7FD002001F0D4FD1C2001F0D1FD002050
:103FA00001F0CEFD222001F0CBFD002001F0C8FD84
:103FB000362001F0C5FD002001F0C2FD452001F0D2
:103FC000BFFD002001F0BCFD522001F0B9FD002032
:103FD00001F0B6FD642001F0B3FD002001F0B0FD5A
:103FE0007A2001F0ADFD002001F0AAFD8B2001F048
:103FF000A7FD002001F0A4FD992001F0A1FD002003
:1040000001F09EFDA82001F09BFD002001F098FD2D
:10401000B92001F095FD002001F092FDC42001F0CF
:104020008FFD002001F08CFDCA2001F089FD0020E9
:1040300001F086FDD22001F083FD002001F080FD1B
:10404000D82001F07DFD002001F07AFDE02001F094
:1040500077FD002001F074FDF32001F071FD0020D8
:1040600001F06EFDE22001F077FD052001F068FD12
:10407000002001F065FD0B2001F062FD002001F041
:104080005FFD1B2001F05CFD002001F059FD342094
:1040900001F056FD002001F053FD442001F050FDD9
:1040A000002001F04DFD4F2001F04AFD002001F0FD
:1040B00047FD612001F044FD002001F041FD792021
:1040C00001F03EFD002001F03BFD882001F038FDAD
:1040D000002001F035FD972001F032FD002001F0B5
:1040E0002FFDA62001F02CFD002001F029FDB720B6
:1040F00001F026FD002001F023FDC22001F020FD8B
:10410000002001F01DFDC72001F01AFD002001F084
:1041100017FDD12001F014FD002001F011FDD62083
:1041200001F00EFD002001F00BFDDD2001F008FD87
:10413000002001F005FDF32001F002FD002001F058
:10414000FFFCE32001F008FD052001F0F9FC00E090
:104150000AE3002001F0F4FC0A2001F0F1FC002049
:1041600001F0EEFC1C2001F0EBFC002001F0E8FC6B
:10417000332001F0E5FC002001F0E2FC442001F0D6
:10418000DFFC002001F0DCFC502001F0D9FC002015
:1041900001F0D6FC622001F0D3FC002001F0D0FC3D
:1041A000782001F0CDFC002001F0CAFC882001F04D
:1041B000C7FC002001F0C4FC972001F0C1FC0020E6
:1041C00001F0BEFCA62001F0BBFC002001F0B8FC11
:1041D000B72001F0B5FC002001F0B2FCC22001F0D4
:1041E000AFFC002001F0ACFCC72001F0A9FC0020CE
:1041F00001F0A6FCD12001F0A3FC002001F0A0FCFE
:10420000D52001F09DFC002001F09AFCDD2001F09A
:1042100097FC002001F094FCF32001F091FC0020B9
:1042200001F08EFCE42001F097FC012001F088FCF5
:10423000002001F085FC012001F082FC002001F04B
:104240007FFC022001F07CFC002001F079FC2A2098
:1042500001F076FC002001F073FC3C2001F070FCC2
:10426000002001F06DFC4B2001F06AFC002001F001
:1042700067FC5D2001F064FC002001F061FC74200B
:1042800001F05EFC002001F05BFC842001F058FC92
:10429000002001F055FC932001F052FC002001F0B9
:1042A0004FFCA22001F04CFC002001F049FCB3209F
:1042B00001F046FC002001F043FCBE2001F040FC70
:1042C000002001F03DFCC42001F03AFC002001F088
:1042D00037FCCD2001F034FC002001F031FCD3206C
:1042E00001F02EFC002001F02BFCDD2001F028FC69
:1042F000002001F025FCF32001F022FC002001F059
:104300001FFCE52001F028FC002001F019FC002032
:1043100001F016FC002001F013FC002001F010FC5D
:10432000022001F00DFC002001F00AFC292001F020
:1043300007FC002001F004FC3C2001F001FC0020FF
:1043400001F0FEFB4B2001F0FBFB002001F0F8FB2D
:104350005D2001F0F5FB002001F0F2FB742001F07C
:10436000EFFB002001F0ECFB842001F0E9FB0020D2
:1043700001F0E6FB932001F0E3FB002001F0E0FBFD
:10438000A22001F0DDFB002001F0DAFBB32001F0F8
:10439000D7FB002001F0D4FBBE2001F0D1FB0020B0
:1043A00001F0CEFBC42001F0CBFB002001F0C8FBE4
:1043B000CD2001F0C5FB002001F0C2FBD32001F0AD
:1043C000BFFB002001F0BCFBDC2001F0B9FB0020AA
:1043D00001F0B6FBF32001F0B3FB002001F0B0FBCD
:1043E000E62001F0B9FB112001F0AAFB002001F04A
:1043F000A7FB342001F0A4FB002001F0A1FB562014
:1044000001F09EFB002001F09BFB762001F098FB61
:10441000002001F095FB772001F092FB002001F0D5
:104420008FFB662001F08CFB002001F089FB8820C7
:1044300001F086FB002001F083FB992001F080FB56
:10444000002001F07DFBBB2001F07AFB002001F091
:1044500077FB992001F074FB002001F071FB6620CE
:1044600001F06EFB002001F06BFB552001F068FBB2
:10447000002001F065FB552001F062FB002001F0F7
:104480005FFB452001F05CFB002001F059FB43205D
:1044900001F056FB002001F053FB442001F050FBDB
:1044A000002001F04DFBE72001F056FB322001F027
:1044B00047FB002001F044FB552001F041FB0020A8
:1044C00001F03EFB762001F03BFB002001F038FBC1
:1044D000662001F035FB002001F032FB672001F07F
:1044E0002FFB002001F02CFB672001F029FB0020AE
:1044F00001F026FB872001F023FB002001F020FBC8
:10450000992001F01DFB002001F01AFBBB2001F0F7
:1045100017FB002001F014FB992001F011FB002093
:1045200001F00EFB772001F00BFB002001F008FBEF
:10453000442001F005FB002001F002FB562001F0B1
:10454000FFFA002001F0FCFA232001F0F9FA002024
:1045500001F0F6FA332001F0F3FA002001F0F0FA4E
:10456000452001F0EDFA002001F0EAFAE82001F020
:10457000F3FA002001F0E4FA002001F0E1FA9920BA
:1045800001F0DEFA002001F0DBFA872001F0D8FA12
:10459000002001F0D5FA882001F0D2FA002001F0C5
:1045A000CFFA772001F0CCFA002001F0C9FA66209A
:1045B00001F0C6FA002001F0C3FA882001F0C0FA29
:1045C000002001F0BDFAAA2001F0BAFA002001F0A3
:1045D000B7FABB2001F0B4FA002001F0B1FA99203B
:1045E00001F0AEFA002001F0ABFA662001F0A8FA63
:1045F000002001F0A5FA552001F0A2FA002001F0F8
:104600009FFA552001F09CFA002001F099FA44200D
:1046100001F096FA002001F093FA442001F090FA9C
:10462000002001F08DFA552001F08AFA002001F0F7
:1046300087FAE92001F090FAAA2001F081FA00201F
:1046400001F07EFA002001F07BFA002001F078FAF8
:10465000002001F081FAAA2001F072FACF2001F0C7
:104660007BFA002001F06CFA002001F069FA0020CA
:1046700001F066FA002001F063FA002001F060FA10
:10468000002001F05DFA002001F05AFA002001F04C
:1046900057FA002001F054FA002001F051FA0020EE
:1046A00001F04EFA002001F04BFA002001F048FA28
:1046B000002001F045FA002001F042FA002001F04C
:1046C0003FFA002001F03CFAF02001F045FA00200A
:1046D00001F036FA502001F033FA002001F030FAF0
:1046E000002001F02DFA002001F02AFAF32001F059
:1046F00033FA002001F024FAF92001F02DFA062007
:1047000001F01EFA102001F01BFA292001F018FA1E
:10471000002001F015FA3A2001F01EFA552001F0B0
:104720000FFA112001F018FA642003F021FC29206F
:1047300001F012FA352001F00FFA002001F000FA22
:10474000512001F009FAFF2001F0FAF9532001F09D
:1047500003FA2C2001F0F4F9552001F0FDF9822034
:1047600001F0EEF92C20FDE3A0427DD14FF470431F
:104770005521184601F006FA4FF20107AA213846E2
:1047800001F000FA5221781C01F0FCF90821B81C54
:1047900001F0F8F90121F81C01F0F4F90D214FF4B2
:1047A000304001F0EFF90D214BF2010001F0EAF980
:1047B0000D214BF2020001F0E5F934214FF43640AF
:1047C00001F0E0F934214BF2016001F0DBF9342112
:1047D0004BF2026001F0D6F90D214FF4314001F0A7
:1047E000D1F90D214BF2011001F0CCF90D214BF262
:1047F000021001F0C7F934214FF4374001F0C2F93B
:1048000034214BF2017001F0BDF934214BF20270FA
:1048100001F0B8F900214FF4324001F0B3F9002162
:104820004BF2012001F0AEF900214BF2022001F021
:10483000A9F924214FF4384001F0A4F924214BF6C2
:10484000010001F09FF924214BF6020001F09AF9D2
:1048500001214FF43F4001F095F90F214FF433400F
:1048600001F090F90F2100E0FEE34BF2013001F07E
:1048700089F90F214BF2023001F084F934214FF411
:10488000394001F07FF934214BF6011001F07AF93B
:1048900034214BF6021001F075F908214FF4354030
:1048A00001F070F908214BF2015001F06BF9082179
:1048B0004BF2025001F066F903214FF4424001F03F
:1048C00061F924214FF43A4001F05CF924214BF6C0
:1048D000012001F057F924214BF6022001F052F992
:1048E00000214FF43C4001F04DF978214BF6014096
:1048F00001F048F900214BF6024001F043F9002194
:104900004FF43D4001F03EF978214BF6015001F0A3
:1049100039F900214BF6025001F034F900214FF42F
:104920003E4001F02FF964214BF6016001F02AF9B5
:1049300000214FF4514001F025F933214DF20110CF
:1049400001F020F900214DF2021001F01BF9342191
:104950004DF2031001F016F900214DF2041001F0A0
:1049600011F93A214DF2051001F00CF900214DF238
:10497000061001F007F94A214DF2071001F002F983
:1049800000214DF2081001F0FDF85C214DF20910F4
:1049900001F0F8F800214DF20A1001F0F3F881213E
:1049A0004DF20B1001F0EEF800214DF20C1001F069
:1049B000E9F8A6214DF20D1001F0E4F800214DF2C6
:1049C0000E1001F0DFF8E5214DF20F1001F0DAF8DA
:1049D00001214DF2101001F0D5F813214DF2111004
:1049E00001F0D0F801214DF2121001F0CBF8542162
:1049F0004DF2131001F0C6F801214DF2141001F030
:104A0000C1F882214DF2151001F0BCF801214DF2E0
:104A1000161001F0B7F8CA214DF2171001F0B2F8E4
:104A200002214DF2181001F0ADF800214DF21910DD
:104A300001F0A8F802214DF21A1001F0A3F80121AB
:104A40004DF21B1001F09EF802214DF21C1001F0F6
:104A500099F834214DF21D1001F094F802214DF225
:104A60001E1001F08FF867214DF21F1001F08AF837
:104A700002214DF2201001F085F884214DF2211021
:104A800001F080F802214DF2221001F07BF8A42100
:104A90004DF2231001F076F802214DF2241001F0BE
:104AA00071F8B7214DF2251001F06CF802214DF29A
:104AB000261001F067F8CF214DF2271001F062F8BF
:104AC00002214DF2281001F05DF8DE214DF229108F
:104AD00001F058F802214DF22A1001F053F8F221AA
:104AE0004DF22B1001F04EF802214DF22C1001F086
:104AF00049F8FE214DF22D1001F044F803214DF24A
:104B00002E1001F03FF810214DF22F1001F03AF86D
:104B100003214DF2301001F035F833214DF2311000
:104B200001F030F803214DF2321001F02BF86D2125
:104B30004DF2331001F026F800214FF4524001F0FD
:104B400021F833214DF2012001F01CF800214DF233
:104B5000022001F017F834214DF2032001F012F881
:104B600000214DF2042001F00DF83A214DF205200C
:104B700001F008F800214DF2062001F003F84A2167
:104B80004DF2072000F0FEFF00214DF2082000F05A
:104B9000F9FF5C214DF2092000F0F4FF00214DF2F5
:104BA0000A2000F0EFFF81214DF20B2000F0EAFF18
:104BB00000214DF20C2000F0E5FFA6214DF20D2062
:104BC00000F0E0FF00214DF20E2000F0DBFFE521B8
:104BD0004DF20F2000F0D6FF01214DF2102000F021
:104BE000D1FF13214DF2112000F0CCFF01214DF235
:104BF000122000F0C7FF54214DF2132000F0C2FF35
:104C000001214DF2142000F0BDFF82214DF215204C
:104C100000F0B8FF01214DF2162000F0B3FFCA21C9
:104C20004DF2172000F0AEFF02214DF2182000F0E7
:104C3000A9FF00214DF2192000F0A4FF02214DF23E
:104C40001A2000F09FFF01214DF21B2000F09AFF77
:104C500002214DF21C2000F095FF34214DF21D2061
:104C600000F090FF02214DF21E2000F08BFF672123
:104C70004DF21F2000F086FF02214DF2202000F0AF
:104C800081FF84214DF2212000F07CFF02214DF2B2
:104C9000222000F077FFA4214DF2232000F072FFC4
:104CA00002214DF2242000F06DFFB7214DF22520A6
:104CB00000F068FF02214DF2262000F063FFCF21B3
:104CC0004DF2272000F05EFF02214DF2282000F077
:104CD00059FFDE214DF2292000F054FF02214DF250
:104CE0002A2000F04FFFF2214DF22B2000F04AFF66
:104CF00002214DF22C2000F045FFFE214DF22D2027
:104D000000F040FF03214DF22E2000F03BFF102168
:104D10004DF22F2000F036FF03214DF2302000F03D
:104D200031FF33214DF2312000F02CFF03214DF2F1
:104D3000322000F027FF6D214DF2332000F022FFDA
:104D400000214FF4534000F01DFF33214DF201309C
:104D500000F018FF00214DF2023000F013FF342163
:104D60004DF2033000F00EFF00214DF2043000F050
:104D700009FF3A214DF2053000F004FF00214DF209
:104D8000063000F0FFFE4A214DF2073000F0FAFE37
:104D900000214DF2083000F0F5FE5C214DF20930A3
:104DA00000F0F0FE00214DF20A3000F0EBFE812110
:104DB0004DF20B3000F0E6FE00214DF20C3000F019
:104DC000E1FEA6214DF20D3000F0DCFE00214DF297
:104DD0000E3000F0D7FEE5214DF20F3000F0D2FE8C
:104DE00001214DF2103000F0CDFE13214DF21130B3
:104DF00000F0C8FE01214DF2123000F0C3FE542134
:104E00004DF2133000F0BEFE01214DF2143000F0DF
:104E1000B9FE82214DF2153000F0B4FE01214DF2B1
:104E2000163000F0AFFECA214DF2173000F0AAFE96
:104E300002214DF2183000F0A5FE00214DF219308C
:104E400000F0A0FE02214DF21A3000F09BFE01217D
:104E50004DF21B3000F096FE02214DF21C3000F0A6
:104E600091FE34214DF21D3000F08CFE02214DF2F6
:104E70001E3000F087FE67214DF21F3000F082FEE9
:104E800002214DF2203000F07DFE84214DF22130D0
:104E900000F078FE02214DF2223000F073FEA421D2
:104EA0004DF2233000F06EFE02214DF2243000F06E
:104EB00069FEB7214DF2253000F064FE02214DF26B
:104EC000263000F05FFECF214DF2273000F05AFE71
:104ED00002214DF2283000F055FEDE214DF229303E
:104EE00000F050FE02214DF22A3000F04BFEF2217C
:104EF0004DF22B3000F046FE02214DF22C3000F036
:104F000041FEFE214DF22D3000F03CFE03214DF21A
:104F10002E3000F037FE10214DF22F3000F032FE1F
:104F200003214DF2303000F02DFE33214DF23130AF
:104F300000F028FE03214DF2323000F023FE6D21F7
:104F40004DF2333000F01EFE00214FF4544000F0CB
:104F500019FE33214DF2014000F014FE00214DF204
:104F6000024000E07CE300F00DFE34214DF20340EE
:104F700000F008FE00214DF2044000F003FE3A214B
:104F80004DF2054000F0FEFD00214DF2064000F01C
:104F9000F9FD4A214DF2074000F0F4FD00214DF2E9
:104FA000084000F0EFFD5C214DF2094000F0EAFD01
:104FB00000214DF20A4000F0E5FD81214DF20B4049
:104FC00000F0E0FD00214DF20C4000F0DBFDA621D9
:104FD0004DF20D4000F0D6FD00214DF20E4000F0E4
:104FE000D1FDE5214DF20F4000F0CCFD01214DF245
:104FF000104000F0C7FD13214DF2114000F0C2FD3A
:1050000001214DF2124000F0BDFD54214DF213403C
:1050100000F0B8FD01214DF2144000F0B3FD8221F3
:105020004DF2154000F0AEFD01214DF2164000F0AA
:10503000A9FDCA214DF2174000F0A4FD02214DF256
:10504000184000F09FFD00214DF2194000F09AFD3C
:1050500002214DF21A4000F095FD01214DF21B4056
:1050600000F090FD022100E0FDE24DF21C4000F056
:1050700089FD34214DF21D4000F084FD02214DF2E6
:105080001E4000F07FFD67214DF21F4000F07AFDC9
:1050900002214DF2204000F075FD84214DF22140A7
:1050A00000F070FD02214DF2224000F06BFDA421C2
:1050B0004DF2234000F066FD02214DF2244000F045
:1050C00061FDB7214DF2254000F05CFD02214DF25B
:1050D000264000F057FDCF214DF2274000F052FD51
:1050E00002214DF2284000F04DFDDE214DF2294015
:1050F00000F048FD02214DF22A4000F043FDF2216C
:105100004DF22B4000F03EFD02214DF22C4000F00C
:1051100039FDFE214DF22D4000F034FD03214DF20A
:105120002E4000F02FFD10214DF22F4000F02AFDFF
:1051300003214DF2304000F025FD33214DF2314086
:1051400000F020FD03214DF2324000F01BFD6D21E7
:105150004DF2334000F016FD00214FF4554000F0B1
:1051600011FD33214DF2015000F00CFD00214DF2F4
:10517000025000F007FD34214DF2035000F002FD13
:1051800000214DF2045000F0FDFC3A214DF2055093
:1051900000F0F8FC00214DF2065000F0F3FC4A212B
:1051A0004DF2075000F0EEFC00214DF2085000F0E7
:1051B000E9FC5C214DF2095000F0E4FC00214DF2C5
:1051C0000A5000F0DFFC81214DF20B5000F0DAFCB8
:1051D00000214DF20C5000F0D5FCA6214DF20D50EF
:1051E00000F0D0FC00214DF20E5000F0CBFCE52188
:1051F0004DF20F5000F0C6FC01214DF2105000F0AE
:10520000C1FC13214DF2115000F0BCFC01214DF204
:10521000125000F0B7FC54214DF2135000F0B2FCD4
:1052200001214DF2145000F0ADFC82214DF21550D9
:1052300000F0A8FC01214DF2165000F0A3FCCA2199
:105240004DF2175000F09EFC02214DF2185000F074
:1052500099FC00214DF2195000F094FC02214DF20E
:105260001A5000F08FFC01214DF21B5000F08AFC17
:1052700002214DF21C5000F085FC34214DF21D50EE
:1052800000F080FC02214DF21E5000F07BFC6721F3
:105290004DF21F5000F076FC02214DF2205000F03C
:1052A00071FC84214DF2215000F06CFC02214DF282
:1052B000225000F067FCA4214DF2235000F062FC64
:1052C00002214DF2245000F05DFCB7214DF2255033
:1052D00000F058FC02214DF2265000F053FCCF2183
:1052E0004DF2275000F04EFC02214DF2285000F004
:1052F00049FCDE214DF2295000F044FC02214DF220
:105300002A5000F03FFCF2214DF22B5000F03AFC05
:1053100002214DF22C5000F035FCFE214DF22D50B3
:1053200000F030FC03214DF22E5000F02BFC102138
:105330004DF22F5000F026FC03214DF2305000F0CA
:1053400021FC33214DF2315000F01CFC03214DF2C1
:10535000325000F017FC6D214DF2335000F012FC7A
:1053600000214FF4564000F00DFC33214DF2016056
:1053700000F008FC00214DF2026000F003FC342133
:105380004DF2036000F0FEFB00214DF2046000F0DE
:10539000F9FB3A214DF2056000F0F4FB00214DF2DB
:1053A000066000F0EFFB4A214DF2076000F0EAFBD7
:1053B00000214DF2086000F0E5FB5C214DF2096030
:1053C00000F0E0FB00214DF20A6000F0DBFB8121E0
:1053D0004DF20B6000F0D6FB00214DF20C6000F0A6
:1053E000D1FBA6214DF20D6000F0CCFB00214DF267
:1053F0000E6000F0C7FBE5214DF20F6000F0C2FB2C
:1054000001214DF2106000F0BDFB13214DF211603F
:1054100000F0B8FB01214DF2126000F0B3FB542103
:105420004DF2136000F0AEFB01214DF2146000F06C
:10543000A9FB82214DF2156000F0A4FB01214DF281
:10544000166000F09FFBCA214DF2176000F09AFB36
:1054500002214DF2186000F095FB00214DF2196019
:1054600000F090FB02214DF21A6000F08BFB01214D
:105470004DF21B6000F086FB02214DF21C6000F033
:1054800081FB34214DF21D6000F07CFB02214DF2C6
:105490001E6000F077FB67214DF21F6000F072FB89
:1054A00002214DF2206000F06DFB84214DF221605D
:1054B00000F068FB02214DF2226000F063FBA421A2
:1054C0004DF2236000F05EFB02214DF2246000F0FB
:1054D00059FBB7214DF2256000F054FB02214DF23B
:1054E000266000F04FFBCF214DF2276000F04AFB11
:1054F00002214DF2286000F045FBDE214DF22960CB
:1055000000F040FB02214DF22A6000F03BFBF2214B
:105510004DF22B6000F036FB02214DF22C6000F0C2
:1055200031FBFE214DF22D6000F02CFB03214DF2EA
:105530002E6000F027FB10214DF22F6000F022FBBF
:1055400003214DF2306000F01DFB33214DF231603C
:1055500000F018FB03214DF2326000F013FB6D21C7
:105560004DF2336000F00EFB5521184600F00AFBA7
:10557000AA21384600F006FB5221781C00F002FBFD
:105580000821B81C00F0FEFA0021F81C00F0FAFA1D
:10559000CC214FF4314000F0F5FA00214BF201101C
:1055A00000F0F0FA05214FF4364000F0EBFA7021DC
:1055B0004FF4374000F0E6FA70214BF2017000F032
:1055C000E1FA01214FF4384000F0DCFA03214BF6F8
:1055D000010000F0D7FA03214BF6020000F0D2FAE6
:1055E00003214BF6030000F0CDFA02214FF43C40BA
:1055F00000F0C8FA00214BF6014000F0C3FA002188
:105600004BF6024000F0BEFAD0214FF4494000F0C2
:10561000B9FA02214CF6011000F0B4FA50214CF610
:10562000021000F0AFFA50214CF6031000F0AAFA75
:1056300050214CF6041000F0A5FA00214FF454500C
:1056400000F0A0FA55214FF4685000F09BFA4FF497
:10565000885000F081FA782002F098FC4FF4245032
:1056600000F07AFAB9E04045FCD1E22000F074FA8B
:105670001D2000F065FA022000F062FA042000F01C
:105680005FFA642002F082FCE02000F065FA01205D
:1056900000F056FA0A2002F06BFCE02000F05CFA01
:1056A000032000F04DFA0C2002F062FC012000F013
:1056B00053FA0A2002F05CFCE62000F04DFA2F209D
:1056C00000F03EFAFF2000F03BFAFF2000F038FA2D
:1056D000B02000F041FA202000F032FA002000F063
:1056E0002FFA032000F02CFA40F21F3000F028FAC5
:1056F000012000F025FA40F2DF1000F021FA00202E
:1057000000F01EFAB42000F027FA042000F018FA86
:1057100040F21F4000F014FA002000F011FA2E2091
:1057200000F00EFA002000F00BFA002000F008FA5A
:10573000002000F005FA002000F002FAB62000F088
:105740000BFA022000F0FCF94FF4037000F0F8F9B6
:10575000002000F0F5F9172000F0F2F9152000F014
:10576000EFF9002000F0ECF9002000F0E9F9F0205A
:1057700000F0F2F9032000F0E3F9292000F0ECF941
:10578000D02000F0E9F9002000F0DAF9BE2000F0A6
:10579000E3F9052000F0D4F9FE2000F0D1F9012052
:1057A00000F0CEF9002000F0CBF9002000F0C8F99D
:1057B000002000F0C5F9B82000F0CEF9032000F079
:1057C000BFF9012000F0BCF9BA2000F0C5F90120B2
:1057D00000F0B6F9642000F02DF8A888584505D0EF
:1057E000B04203D0A04201D0404509D1042002902C
:1057F0000490D9E9010202A9D9F83030FBF73EF84C
:105800000020FDF7CDFD0549C1F894A24FF6FF70C9
:10581000FDF7A2FD15B0BDE8F08F0000008040420A
:10582000034808B50088ADF80000BDF8000008BDC9
:105830000000086010B50246BE2000F08DF905207A
:1058400000F07EF9104603F03EF89FED0C1B53EC80
:10585000112B03F04BF803F009F880B200F070F957
:10586000012000F06DF9FF2000F06AF9002000F03F
:1058700067F9BDE81040002000F062B96666666610
:1058800066660440F0B56C4D00232946AA798988E4
:1058900041F66314012A01D01AB11BE0A14202D1E2
:1058A00018E0A14216D1082814D2DFE800F004065F
:1058B000080A0C0E101206200CE007200AE0042053
:1058C00008E0052006E0012004E0002002E00320BB
:1058D00000E00220A1F5134745F2103245F21056C0
:1058E000413F05D0914203D0B14201D0A14277D1CE
:1058F000082812D2DFE800F0110406080A0C0E1086
:1059000080230AE0402308E0C02306E0202304E0CF
:10591000602302E0A02300E0E023B14202D14FF473
:10592000585000E03620914205D0B14203D0A14248
:1059300001D043F00803194600F024F9AA88A242D6
:105940000AD098062888698802D5884202D303E0E5
:10595000884201D9298068806889B24241D100F02B
:10596000FBF8002000F0ECF86889401C80B200F0E1
:10597000F3F8002000F0E4F86889801C80B200F0A1
:10598000EBF82888401EC0F30F2000F0D9F8688992
:10599000C01C80B200F0E0F82878401EC0B200F0D1
:1059A000CFF8A88900F0D8F8002000F0C9F8A8893D
:1059B000401C80B200F0D0F8002000F0C1F8A889A7
:1059C000801C80B200F0C8F86888401EC0F30F2029
:1059D00000F0B6F8A889C01C80B200F0BDF822E043
:1059E00028E000F0B9F8002000F0AAF8002000F04C
:1059F000A7F82888401EC0F30F2000F0A1F82878EF
:105A0000401EC0B200F09CF8A88900F0A5F8002064
:105A100000F096F8002000F093F86888401EC0F36C
:105A20000F2000F08DF8A878BDE8F040401EC0B20D
:105A300000F086B8F0BD0000C4010020F0B53F4D75
:105A40000C460246060AA9882846270A4089A1F57D
:105A50001343413B28D0A1F5A643103B24D0A1F528
:105A6000C853633B2FD0A1F5AA43103B64D100F08B
:105A700073F8304600F064F86889401C80B200F08A
:105A80006BF8D0B200F05CF8A88900F065F83846F1
:105A900000F056F8A889401C80B200F05DF8E0B232
:105AA000BDE8F04000F04CB800F056F8304600F089
:105AB00047F8D0B200F044F8A88900F04DF8384615
:105AC00000F03EF8EBE7A97929B300F045F830463D
:105AD00000F036F8D0B200F033F82888401EC0F34A
