:020000040800F2
:10000000B8D00220A10200087D8200086B3D0008E4
:1000100063760008550A00084DCD00080000000076
:10002000000000000000000000000000A1850008A2
:10003000A90B000800000000C9820008E187000841
:10004000BB020008BB020008BB020008BB0200089C
:10005000BB020008BB020008BB020008BB0200088C
:10006000BB020008B70B0008C10B0008BB02000868
:10007000BB020008BB020008BB020008BB0200086C
:10008000BB020008BB020008BB020008BB0200085C
:10009000BB020008BB020008BB020008CB0B000833
:1000A000BB020008BB020008BB020008BB0200083C
:1000B000BB0200084D880008BB020008BB02000814
:1000C000BB020008BB020008BB020008BB0200081C
:1000D000BB020008BB020008D98C0008798D00081B
:1000E000AB0B0008BB020008BB020008BB02000803
:1000F000BB020008BB020008BB020008BB020008EC
:10010000BB020008BB020008BB020008BB020008DB
:10011000BB020008BB020008BB020008BB020008CB
:10012000BB020008BB020008BB020008BB020008BB
:10013000BB020008BB020008BB020008BB020008AB
:10014000BB020008BB020008BB020008B98200081D
:10015000BB020008BB020008BB020008BB0200088B
:10016000BB020008BB020008BB020008BB0200087B
:10017000BB020008BB020008BB0200080000000030
:10018000BB020008BB020008BB020008BB0200085B
:10019000BB020008BB020008BB020008BB0200084B
:1001A000BB020008BB020008BB02000800F002F816
:1001B00000F067F80AA090E8000C82448344AAF19A
:1001C0000107DA4501D100F05CF8AFF2090EBAE898
:1001D0000F0013F0010F18BFFB1A43F0010318477B
:1001E00030510100505101000A444FF0000C10F84A
:1001F000013B13F0070408BF10F8014B1D1108BFA5
:1002000010F8015B641E05D010F8016B641E01F844
:10021000016BF9D113F0080F1EBF10F8014BAD1C94
:100220000C1B09D16D1E58BF01F801CBFAD505E0B2
:1002300014F8016B01F8016B6D1EF9D59142D6D30C
:10024000704700000023002400250026103A28BF34
:1002500078C1FBD8520728BF30C148BF0B60704738
:10026000642900F01181782900F04A81732900F097
:100270008D83002070471FB510F0F4F91FBD10B535
:1002800010BD00F0B5FB1146FFF7F5FF0FF0C6F902
:1002900000F0D3FB03B4FFF7F2FF03BC0CF033FF15
:1002A0000948804709480047FEE7FEE7FEE7FEE70A
:1002B000FEE7FEE7FEE7FEE7FEE7FEE70448054946
:1002C000054A064B70470000E9870008AD010008A9
:1002D000B8CA0220B8D00220B8CC0220B8CC022084
:1002E000704753EA020C00F069802DE9F04B4FF0A3
:1002F0000006002B1FBFB3FA83F503FA05F424FAB6
:1003000005F65E4012BF1643B2FA82F502FA05F412
:10031000C5F120051EBF22FA05FC44EA0C04203575
:1003200056EA044C4FEA144418BF641C4FF000080E
:100330004FF00009904271EB030C39D3002919BF2B
:10034000B1FA81F701FA07F6B0FA80F700FA07F67A
:10035000C7F120071EBF20FA07FC46EA0C0620372B
:10036000B6FBF4FCA7EB0507103F07F01F0BCBF122
:1003700020060CFA0BFB2CFA06F644BFB346002607
:10038000202FA4BF5E464FF0000B5BEA060C08BFAF
:100390004FF0010B19EB0B09ABFB027C48EB060895
:1003A000C01B06FB02CC0BFB03CC71EB0C01C1E7BD
:1003B0000B46024641464846BDE8F08B13B54FF068
:1003C00000004FF00001AFF30080BDE81C40704713
:1003D0000FB4044910B503AA029800F0DBFA10BC70
:1003E0005DF814FB1C00002070B5044685690068A8
:1003F000C10601D5302600E02026C00707D070BD19
:10040000D4E9012130469047206A401C20626D1ECD
:10041000F6D570BD70B5044685690078C00707D170
:1004200070BDD4E9012120209047206A401C206241
:100430006D1EF6D570BD70B50C460546012A05D077
:100440002878800600D5EA69002302E0012305E050
:100450005B1C934202D2E05C0028F9D1A869E6183F
:10046000C01AA861286A184428622846FFF7BCFF12
:1004700004E0D5E9012114F8010B9047B442F8D308
:100480002846FFF7C7FF70BD2DE9F041064600245E
:1004900010687529314616A510D0AFF300800028EA
:1004A00002DA404213A507E031688A0701D512A598
:1004B00002E0490704D511A5012401E0AFF3008053
:1004C00000210A2206F1240709E0B0FBF2FCB0FB90
:1004D000F2F302FB1C00303078541846491C002807
:1004E000F3D123462A463046BDE8F04100F0E3B997
:1004F000000000002D0000002B0000002000000084
:1005000070B504460D4621461068AFF3008021887F
:10051000090502D50F4A7A4402E00E4A7A440E32A7
:10052000002104F1240305E000F00F060009965DA8
:100530005E54491C0028F7D120780023000704D519
:10054000702D02D009B1022311322046BDE870405F
:1005500000F0B1B9EC4C01002DE9F05F894604468A
:100560004FF0000ADFF824B1FB44C0F820A0204679
:10057000E168884700287DD0252806D0D4E90121EC
:100580009047206A401C2062F1E700255F46204624
:10059000E16888472028064607DB312E05D2B819C6
:1005A00010F8200C08B10543F1E7A80701D525F0A4
:1005B0000405C4F81CA00027C4F818A02A2E09D0EE
:1005C00030460CF099FD38B304EB8708303EC8F88C
:1005D000186019E059F8041B204604EB870291616A
:1005E000E1688847012F064618D1E069002820DA23
:1005F00025F020051DE0D8F8180000EB800006EB80
:1006000040003038C8F818002046E16888470646A0
:100610000CF072FD0028EED1012F0AD02E2E08D149
:100620002046E16888477F1C0646022F45F02005DA
:10063000C4DBA069002803DA404245F00105A0614F
:10064000E80701D025F01005A6B1A6F14100192850
:1006500002D8203645F400654A46314620462560DA
:100660004D46FFF7FDFD60B1012807D0ED1D25F0D7
:10067000070000E007E000F1080978E705F1040948
:1006800075E730467AE7206ABDE8F09FC24C01006A
:1006900040EA0103024630B59B0710D14FF0013408
:1006A00000E008C208C91D1B9D4315EAC41FF8D00D
:1006B00013F0FF0102F8011B0DD01B0AF8E711F837
:1006C000013B002B02F8013B05D011F8013B002B48
:1006D00002F8013BF3D130BD10B5431C02E010F825
:1006E000011B71B18107FAD14FF0013202C88C1A97
:1006F0008C4314EAC211F9D0C01A0A0603D0C01EF6
:1007000010BDC01A10BD0A0401D0801E10BD090220
:10071000FCD0401E10BD421E12F8013F002BFBD141
:1007200011F8013B002B02F8013BF9D17047032A75
:1007300040F2308010F0030C00F0158011F8013BFE
:10074000BCF1020F624498BF11F801CB00F8013BE5
:1007500038BF11F8013BA2F1040298BF00F801CBA9
:1007600038BF00F8013B11F0030300F02580083A80
:10077000C0F0088051F8043B083A51F804CBA0E8D7
:100780000810F5E7121D5CBF51F8043B40F8043B2C
:10079000AFF30080D20724BF11F8013B11F801CB61
:1007A00048BF11F8012B24BF00F8013B00F801CB32
:1007B00048BF00F8012B704710B5203AC0F00B80FD
:1007C000B1E81850203AA0E81850B1E81850A0E855
:1007D0001850BFF4F5AF5FEA027C24BFB1E81850AF
:1007E000A0E8185044BF18C918C0BDE810405FEA1F
:1007F000827C24BF51F8043B40F8043B08BF70479B
:10080000D20728BF31F8023B48BF11F8012B28BF9F
:1008100020F8023B48BF00F8012B70474FF0000260
:100820000429C0F0128010F0030C00F01B80CCF102
:10083000040CBCF1020F18BF00F8012BA8BF20F870
:10084000022BA1EB0C0100F00DB85FEAC17C24BFC4
:1008500000F8012B00F8012B48BF00F8012B70476E
:100860004FF0000200B5134694469646203922BF49
:10087000A0E80C50A0E80C50B1F12001BFF4F7AF94
:10088000090728BFA0E80C5048BF0CC05DF804EB76
:10089000890028BF40F8042B08BF704748BF20F8E4
:1008A000022B11F0804F18BF00F8012B70477047E2
:1008B0007047704770472DE9F0470D4699469246BC
:1008C000044600F124080168880604D5E06921F097
:1008D0001001216000E00120A84201DD471B00E07B
:1008E0000027A1697A1902EB0900081AA061207893
:1008F000C00602D42046FFF777FD002608E0D4E9C1
:1009000001211AF806009047206A401C761C2062DC
:100910004E45F4DB2078C0060AD52046FFF764FD7B
:1009200006E0D4E9012130209047206A401C206273
:10093000381EA7F10107F4DC07E0D4E9012118F81B
:1009400005009047206A401C2062281EA5F1010581
:10095000F3DC2046FFF75EFD2078000602D502207A
:10096000BDE8F0870120FBE710B5436913B1AFF391
:10097000008001E0FFF75FFD012010BD127800F15B
:1009800024010A7000224A700122EDE711684FF03D
:10099000FF32E9E7074B70B50D467B4400F011F8D4
:1009A0000446284600F020F810B14FF0FF3070BD2B
:1009B000204670BD6FE7000001694A1C026108789B
:1009C000704700B58FB0CDE901310021059105498F
:1009D0007944CDE9031011466846FFF7BDFD0FB01D
:1009E00000BD0000E5FFFFFF007B00F080007047C6
:1009F000754600F02BF8AE4605006946534620F0D8
:100A00000700854618B020B5FFF758FCBDE8204028
:100A10004FF000064FF000074FF000084FF0000BBA
:100A200021F00701AC46ACE8C009ACE8C009ACE86D
:100A3000C009ACE8C0098D46704710B50446AFF355
:100A400000802046BDE81040FFF724BC00487047F6
:100A500058CA022000BFFEE710B500221021064848
:100A600001F0E4F80A200CF0A5FE01221021024852
:100A700001F0DCF810BD00000020024000B587B096
:100A80001748184908604FF4E130486000211548C4
:100A90008160C160016181610C21416102F020FF30
:100AA00000BF002001901048006840F480700E499B
:100AB00008600846006800F48070019000BF00BF25
:100AC000102002900120039004900220059002A9BA
:100AD000064800F095FFFFF7BFFF07B000BD00001C
:100AE00000480040800800203038024000200240CA
:100AF00008B500200090FD208DF8000000208DF842
:100B0000010001208DF8020021208DF803004FF430
:100B10007A7304226946064803F045F800BF04488A
:100B200000680068C0F380100028F8D008BD0000FD
:100B300080080020F0B5B3B006460F461546C82120
:100B400001A8FFF78DFE2846FFF7C6FDC4B2601D61
:100B5000C82801DD33B0F0BDFD208DF80400002071
:100B60008DF80500A01CC0B28DF806008DF8076056
:100B70008DF80870224629460DF10900FFF7D7FDD0
:100B80004FF47A73621D01A9064803F00CF800BF08
:100B9000044800680068C0F380100028F8D000BF47
:100BA000D8E7000080080020704710B54FF480603F
:100BB00000F018FF10BD10B5082000F013FF10BDA5
:100BC00010B5102000F00EFF10BD10B5202000F071
:100BD00009FF402000F006FF10BD30B50346002499
:100BE000102A01D1DC6800E0DC6A0024D1E90005AC
:100BF00040EA05200D8940EA05400D7B40EA05608A
:100C00000443102A01D1DC6000E0DC62002030BD2A
:100C100030B503460024102A01D19C6800E09C6A8C
:100C20000024D1E9000540EA05200D8940EA05408D
:100C30000D7B40EA05600443102A01D19C6000E06E
:100C40009C62002030BD000010B5024600230868F9
:100C5000102801D1136800E0136A0D48034048686A
:100C600040F008008C682043CC6820430C69204386
:100C70004C6940EA44208C6940EA443003430868E8
:100C8000102801D1136000E01362002010BD0000A5
:100C90008101F0FF70B504461D460023B5F5804F75
:100CA00013D154F822300C480340D1E9000640EA41
:100CB00006108E6840EA06208E8940EA06408E695A
:100CC0003043034344F8223003E06FF0704044F8AF
:100CD0002200002070BD00000000F0CF10B50246D9
:100CE0000023086852F820301B480340D1E9010472
:100CF0002043CC6820430C6920434C6920438C6915
:100D00002043CC6920430C6A20434C6A20438C6A00
:100D10002043CC6A2043CC6B20430C6B20434C6BAC
:100D2000204303438868082801D143F04003086842
:100D300042F82030486BB0F5801F0AD1086840B1F6
:100D40004FF4807008614C6B08692043146820439D
:100D50001060002010BD00008000E0FF30B50346A9
:100D600014460022601C53F8202002F04042D1E9D2
:100D7000000540EA05108D6840EA05208D8940EAAB
:100D80000545088A401E45EA0055087D801E45EA53
:100D900000608D6928430243601C43F820201868D6
:100DA00000F4801038B1586820F47002088A401EA0
:100DB00042EA00525A60002030BD30B5024600239E
:100DC00000240868012816D013686FF30E03D1E9D8
:100DD00001052843CD6828430D6928434D69284300
:100DE0008D692843CD6928430D6A28434D6A2843FD
:100DF0000343136019E013686FF30E03D1E907058D
:100E000028434D6A2843034354686FF30E04D1E925
:100E100001052843CD6828430D6928434D692843BF
:100E20008D692843044313605460002030BD02469E
:100E3000506940EA4100506100207047F8B506460D
:100E40000C461546002000900027D4E90001084315
:100E5000A168491E40EA4110E16840EA4120009043
:100E60000098306100F0E8FE074609E0681C38B1E0
:100E700025B100F0E1FEC01BA84201D90320F8BD56
:100E8000B06900F020000028F0D100BFF7E770B58E
:100E90000346154600220024012D1FD09A6802F057
:100EA00070420868401E4E68761E40EA0616886842
:100EB000401E46EA0026C868401E46EA0036088AF8
:100EC000401E46EA0046888A401E46EA0056087ED2
:100ED000401E46EA006002439A6022E0DA6802F0AF
:100EE00070420868401E4E68761E40EA0616886802
:100EF000401E46EA0026088A401E46EA0046087E52
:100F0000401E46EA006002439C6804F07044C868D2
:100F1000401E0603888A401E46EA00500443DA60F9
:100F20009C60002070BD000038B504464FF0AA3028
:100F300000900949897901FB04F004236A460021E5
:100F400007F07CF9044989796143481C04236A4607
:100F5000002107F073F938BD281B00202DE9FC475C
:100F600004460D4600275DE04FF0000820E001A890
:100F700030490090B1F802904FEAE97109EB9171A4
:100F80008B102C49897901FB04F02A46002106F0D8
:100F90009FFF28494888C11700EB9171BDF80420D4
:100FA000B2EBA10F00D007E008F101001FFA80F8B2
:100FB000204880794045DADC00BF1E4880794045F2
:100FC00002D10020BDE8FC87204606F041FD064620
:100FD00026B1394618A0FFF7FBF921E0681CF8B1EB
:100FE0000020019016E01349B1F802904FEAE97130
:100FF00009EB91718B100F498979BDF8042004FB2E
:1010000001200022114607F0E3F8BDF80400401C5F
:1010100080B2019007488079BDF804108842E2DC74
:10102000781C87B2032F9FDB214609A0FFF7D0F978
:101030000120C7E7281B00206572726F722065725D
:1010400061736520626C6F636B3A25640D0A000062
:1010500062616420626C6F636B20636865636B65BB
:10106000643A25640D0A000038B50446002000905B
:101070000F49897901FB04F001236A46002106F03B
:101080006FFF9DF80000FF2810D10949897961435D
:10109000481C01236A46002106F062FF9DF800000B
:1010A000FF2801D1002038BD0120FCE70220FAE72B
:1010B000281B00202DE9FE4F81460F4692461D4613
:1010C0000024002002908046019000263B48807951
:1010D000B9FBF0F839488079B9FBF0F100FB1190C9
:1010E000019000BF404600F0E1F8064633484089D1
:1010F000B04202D20120BDE8FE8F00243AE0019800
:10110000844221D305B32D484088C01BA84205D294
:101110002A484088C01B1FFA80FB01E01FFA85FBAC
:10112000264ACDF800B0927906FB0241234A927913
:1011300008FB024053463A4606F096FA0290002712
:10114000DA44A5EB0B050AE01C4A927906FB024142
:101150001A4A927908FB024006F08CFB0290029832
:1011600030B13046FFF7E0FE012000F029F8B9E782
:10117000601C84B211488079A042C0DC0F4880799D
:10118000A04219D1304600F0ADFA404606F060FCAE
:1011900000240CE00948406930F81400404504D1AF
:1011A0000649496921F8146005E0601C84B20348CF
:1011B0004089A042EEDC00BF00209CE7281B0020F5
:1011C000F8B505460026002406E04FF6FF703049CA
:1011D000496921F81400641C2D484089A042F4D8C4
:1011E00000202B498881002433E02949897901FBBB
:1011F00004F004236A46002106F0B2FE9DF80000C8
:10120000FF2809D145B1224989796143481C01234E
:101210006A46002106F0A4FE9DF80000FF2813D1C5
:101220009DF802009DF8031000EB01261848408944
:10123000B04203D91649496921F8164014488089FB
:10124000401C1349888103E0214612A0FFF7C0F833
:10125000641C0F484089A042C7D800240BE00C480A
:10126000406930F814000A494989884202DB08497C
:10127000CC8104E0641C06484089A042EFD800BF3E
:101280000348C089642801DA0220F8BD0020FCE789
:10129000281B002062616420626C6F636B20696EA2
:1012A0006465783A25640D0A0000000070B50546B3
:1012B000002418484089401E17490968884204D212
:1012C00014484089401E1449086005F00101124885
:1012D000006800F023F80446601C90B90D4840896E
:1012E000401E0D49096888420BD90A484089401EB2
:1012F0000949086005F001010748006800F00EF890
:101300000446601C10B94FF0FF3070BD0248046005
:101310002046FAE7281B00203C000020F8B50546CF
:101320000E460020009000246C1C14E0601E00F0AB
:101330000100B0420ED1611E094A927901FB02F010
:1013400004236A46002106F00BFE0098401C08B9F1
:10135000601EF8BD641E002CE8D1601EF9E7000095
:10136000281B0020F8B5002600202D498881002484
:1013700017E02046FFF778FE05468DB9204606F0B7
:1013800067FB05463DB1214626A0FFF721F8204620
:10139000FFF7CAFD04E022488089401C204988816B
:1013A000641C1F484089A042E3D81D48818921A0C0
:1013B000FFF70EF81A488089642801DA0120F8BD89
:1013C00017488089C0EB401000EB4000642190FB7F
:1013D000F1F600200090002415E02046FFF744FEBF
:1013E00005467DB90E49897901FB04F002236A465E
:1013F000194606F023FF0098401C00900098B04268
:1014000000D104E0641C06484089A042E5D800BF32
:101410000120FFF7D5FE08B10220D0E70020CEE77B
:10142000281B002042616420626C6F636B3A256464
:101430000D0A0000676F6F645F626C6F636B6E759F
:101440006D3A25640D0A000010B506F031FB20B19D
:1014500023A0FEF7BDFF012010BD2548406920B143
:101460002348416900200EF047FA21484089410095
:1014700000200EF053FA1E4948610A465289510075
:101480001B4A5069FFF7CAF91948406920B919A0E9
:10149000FEF79EFF0120DFE70120FFF791FE0446E3
:1014A00064B117A0FEF794FFFFF75CFF0446002C21
:1014B00013D019A0FEF78CFF0220CDE70C4841891C
:1014C0001AA0FEF785FF0A4881891EA0FEF780FF5B
:1014D0000748C18920A0FEF77BFF0020BCE7000081
:1014E0006E616E64206572726F720D0A00000000FA
:1014F000281B00206C7574206572726F720D0A00D3
:10150000666F726D6174206E616E6420666C6173CB
:10151000682E2E2E0D0A0000666F726D61742066B3
:1015200061696C6564210D0A00000000746F7461CC
:101530006C20626C6F636B206E756D3A25640D0ACA
:1015400000000000676F6F6420626C6F636B206E39
:10155000756D3A25640D0A0076616C696420626CD1
:101560006F636B206E756D3A25640D0A00000000F4
:10157000014600220648C089884202D24FF6FF7019
:1015800070470348406930F811201046F8E7000022
:10159000281B00202DE9FF4F83B014469A460026F1
:1015A000002500BF97E04E48408890FBF4F04C497E
:1015B0008979484304992944B1FBF0F002900298DC
:1015C000FFF7D6FF834646484189594503D8012095
:1015D00007B0BDE8F08F4248408890FBF4F04049E6
:1015E0008979484304992944B1FBF0F200FB1210B9
:1015F000604301903A4841880198B0FBF1F03849C6
:1016000089790BFB0108364841880198B0FBF1F25B
:1016100001FB120932484088A0EB0900B0FBF4F04E
:1016200087B2AAEB0500B84202D2AAEB050087B246
:1016300007FB04F083B21FFA89F14046039A06F0D3
:10164000F9FA0646032E39D107FB04F083B21FFADC
:1016500089F14046039A06F0EDFA0646032E2DD195
:1016600007FB04F31FFA89F14046039AFFF722FDB6
:101670001B488079B8FBF0F0311F0090FFF76EFC3B
:1016800006467EB916488079B8FBF0F0002100903C
:10169000FFF764FC064612488079B8FBF0F0009032
:1016A00006F0D6F94EB10E488079B8FBF0F0009004
:1016B000FFF73AFC0120FFF783FD0026042E00D13E
:1016C00000260EB1022083E7039804FB0700039075
:1016D000781E05446D1C5545FFF465AF002077E783
:1016E000281B002038B50446CC2000900025064970
:1016F000897901FB04F001236A46194606F09EFD34
:101700000546284638BD0000281B00202DE9FF4F64
:1017100087B014469A464FF0000B0025681E0290D1
:1017200000BFA7E05648408890FBF4F054498979FF
:10173000484308992944B1FBF0F005900598FFF75C
:1017400017FF06464E484189B14203D801200BB02D
:10175000BDE8F08F4A48408890FBF4F04849897909
:10176000484308992944B1FBF0F200FB1210604392
:101770000390434841880398B0FBF1F040498979D0
:1017800006FB010004903E4841880398B0FBF1F24B
:1017900001FB12093A484088A0EB090080B206908C
:1017A000BDF8180090FBF4F080B20690AAEB05009B
:1017B00087B2BDF81800874201DBBDF8187007FB3F
:1017C00004F806A81FFA89F1C8F38F034FF0FF321F
:1017D0000090049806F07CFB8346BBF1000F01D01B
:1017E0000220B4E7BDF81800B0EB980F09D11FFA3A
:1017F00088F31FFA89F1079A049806F025FC8346BE
:1018000001E04FF0010BBBF1000F07D10298B0428D
:1018100004D03046FFF766FF83460296BBF1000F07
:1018200022D0174880791649498848430399401ABD
:10183000B0FBF4F080B20690AAEB050087B2BDF8C9
:101840001800874201DBBDF8187007FB04F81FFA87
:1018500089F14346079A0498FFF72CFC8346BBF1B5
:10186000000F01D0032072E7781E0544079840441A
:1018700007906D1C5545FFF455AF002067E7000049
:10188000281B00202DE9F04780460D4614464FF0F6
:1018900000092046E21704EB5272D2102146E317EA
:1018A00004EB5373DB10A4EBC3030BB1012300E083
:1018B00000231A446243D6B2B8F80070B7F5803FEF
:1018C0000DDB4FF0000906E0002005F8010B09F1DF
:1018D000010000F0FF09B145F6DBBDE8F08707FB2A
:1018E00006FA0548D0F8110000EB0A0132462846F6
:1018F0000BF0A6FA00BFF0E7A0C3022010B5044623
:10190000202C21D004DC082C08D0102C40D10DE074
:10191000402C24D0B4F5806F3AD12CE00A200BF093
:1019200049FF08211B4800F079F931E00A200BF04B
:1019300041FF1021174800F071F920B916A20121CA
:101940000846FFF7F7F823E00A200BF033FF2021C9
:10195000104800F063F908B9FFF7CAF818E00A2048
:101960000BF028FF40210B4800F058F910B911A0E6
:10197000FEF72EFD0CE00A200BF01CFF4FF48061F7
:10198000114800F04BF910B910A0FEF721FD00BF7F
:1019900000BF10BD00100240C4E368656C6C6F2C82
:1019A000206D79206E616D65206973204A6F686EC5
:1019B000000000004B45595F4E4558542050524599
:1019C000535345440D0A0000002002404B45595F27
:1019D000424F4F4B4D41524B20505245535345447B
:1019E0000D0A000010B5044604480068204020B1EC
:1019F000024804602046FFF781FF10BD143C0140FF
:101A0000F8B502460B460025002400200021E6E040
:101A1000012606FA01F51E6806EA0504AC4273D1F8
:101A20005E68022E02D05E68122E13D1CF0802F13A
:101A3000200656F827004E07F70E0F26BE40B0438B
:101A40004F07FF0E1E69BE403043CF0802F120064B
:101A500046F8270010684F000326BE40B0431E79A9
:101A600006F003064F00BE40304310605E68012E52
:101A700008D05E68022E05D05E68112E02D05E6826
:101A8000122E13D190684F000326BE40B0434F0082
:101A9000DE68BE4030439060506801268E40B043FF
:101AA0001E79C6F300168E4030435060D0684F0058
:101AB0000326BE40B0434F009E68BE403043D06016
:101AC0005E6806F08056B6F1805FA8D100BF0026A0
:101AD0000096454E366846F48046434F3E603E468B
:101AE000366806F48046009600BF00BF3F4E8F0860
:101AF00056F827008E07370F0F26BE40B0433C4EE6
:101B0000B24202D100262EE068E03A4EB24201D144
:101B1000012628E0384EB24201D1022623E0374E9A
:101B2000B24201D103261EE0354EB24201D1042655
:101B300019E0344EB24201D1052614E0324EB242D1
:101B400001D106260FE0314EB24201D107260AE04C
:101B50002F4EB24201D1082605E02E4EB24201D1ED
:101B6000092600E00A268F073F0FBE4030431F4E74
:101B70008F0846F82700284E3068A0435E6806F4B8
:101B80008036B6F5803F00D12043234E3060361DAD
:101B90003068A0435E6806F40036B6F5003F00D119
:101BA00020431D4E361D3060361D3068A0435E68F0
:101BB00006F48016B6F5801F00D12043164E083675
:101BC0003060361D3068A0435E6806F40016B6F536
:101BD000001F00D12043104E0C363060491C1029E4
:101BE000FFF416AFF8BD0000443802400838014049
:101BF000000002400004024000080240000C0240C5
:101C0000001002400014024000180240001C024074
:101C10000020024000240240003C014002461369BB
:101C20000B400BB1012000E0002070470AB1816138
:101C300001E00B04836170470148006870470000B1
:101C40001400002002480068401C014908607047E9
:101C50001400002010B50D48006840F400700B49D6
:101C600008600846006840F4806008600846006824
:101C700040F480700860052000F0E0FA0F2000F0CA
:101C800007F800F0DFF9002010BD0000003C024022
:101C900070B5044600F044FE4FF47A71B0FBF1F5E4
:101CA000284601F089FC00222146501E00F087FAE8
:101CB000002070BD70B504460E46154600BF94F86E
:101CC000A000012801D1022070BD012084F8A000ED
:101CD00000BF022084F8A10005EB850101EBC502DD
:101CE00004F1380101EB820034223146FEF764FD35
:101CF0002A463146204605F0ABFB012021684862A8
:101D000084F8A10000BF002084F8A00000BF00BF3D
:101D1000DAE7000070B50446002500260CB9012062
:101D200070BD94F8A10028B9002084F8A0002046D6
:101D300000F084F8022084F8A1002068806920F077
:101D4000704021688861D4E901010843E1680843D3
:101D500021690843216889690843216888612068EE
:101D600080683549084021688860A08A0504206899
:101D70008068A16929430843216888602068C06899
:101D80002D4908402168C860A08B05042068C06800
:101D9000216A294308432168C860206800692649F0
:101DA000084021680861A08C050420680069A16AC8
:101DB0002943084321680861206840691E4908409A
:101DC00021684861A08D050420684069216B294382
:101DD00008432168486194F83500050294F83600FC
:101DE00006042068C06A00F07F402168C86246EAA5
:101DF000050094F8341008432168C96A0843216833
:101E0000C8622068406B40F0040021684863206885
:101E1000406B40F00200216848632068806940F010
:101E20000100216888610020C4F8A400012084F822
:101E3000A100002074E7000000F800F010B586B0A3
:101E4000044600BF002000904148006840F08060D8
:101E50003F4908600846006800F08060009000BFBD
:101E600000BF00BF0020009039481438006840F4DB
:101E700000003749143908600846006800F4000083
:101E8000009000BF00BF00BF00200090084600681F
:101E900040F0020008600846006800F00200009070
:101EA00000BF00BF00BF002000900846006840F45B
:101EB000007008600846006800F40070009000BFE1
:101EC00000BF00BF002000900846006840F480601A
:101ED00008600846006800F48060009000BF00BF02
:101EE00000BF002000900846006840F48070086041
:101EF0000846006800F48070009000BF00BF4815DD
:101F000001900120029003900320049001A9114840
:101F1000FFF776FD48F67C600190022002900020D9
:101F20000390032004900E20059001A90A48FFF7B2
:101F300067FDFF20019001A90848FFF761FD4FF4FC
:101F4000E040019001A90648FFF75AFD06B010BD18
:101F500044380240000402400024024000280240AD
:101F6000002002402DE9F04104460E4617469846EF
:101F700000BF94F8A000012802D10220BDE8F08142
:101F8000012084F8A00000BF022084F8A10008EB23
:101F9000880000EBC80104F1380000EB81052E60D9
:101FA000A86A30446860AF60E86A3844E860424636
:101FB0002946204605F04CFA01202168486284F841
:101FC000A10000BF002084F8A00000BF00BFD5E73B
:101FD0002DE9F04105460E461746984600BF95F894
:101FE000A000012802D10220BDE8F081012085F87F
:101FF000A00000BF022085F8A10008EB880000EBDC
:10200000C80105F1380000EB810400202060206841
:10201000304460600020A060A0683844E060A662A0
:10202000E76242462146284605F012FA0120296857
:10203000486285F8A10000BF002085F8A00000BF1D
:1020400000BFD1E708B50020009000BF08BD70B503
:1020500004460E4615460CB9012070BD94F82100C7
:1020600028B9002084F82000204600F023F8211D24
:102070002068FEF7E9FD3146D4E90002FEF7C8FD0D
:102080002946D4E90002FEF7A8FD6068102806D1B1
:102090002068006840F004002168086005E02068BE
:1020A000006A40F0040021680862012084F82100E1
:1020B0000020D2E710B586B0044600BF0020009093
:1020C0003448006840F00100324908600846006862
:1020D00000F00100009000BF00BF00BF0020009092
:1020E0002C480838006840F008002A490839086080
:1020F0000846006800F00800009000BF00BF00BF65
:10210000002000900846006840F010000860084673
:10211000006800F01000009000BF00BF00BF00206A
:1021200000900846006840F04000086008460068DB
:1021300000F04000009000BF00BF40200190002050
:102140000290012003900320049001A91248FFF798
:1021500057FC4FF400700190022002900020039081
:10216000032004900C20059001A90C48FFF748FCBF
:102170004DF6330001900020039001A90648FFF7B7
:102180003FFC4FF4F060019001A90548FFF738FCCF
:1021900006B010BD38380240000C02400018024062
:1021A0000010024000BF00F01F02012191404209CF
:1021B000920002F1E022C2F8001100BF70472DE941
:1021C000F05F80460D461646002706F059F8074690
:1021D00039462A46334601F00700C0F1070ABAF132
:1021E000040F02D94FF0040A01E0C0F1070AD146FA
:1021F00000F1040ABAF1070F02D24FF0000A01E021
:10220000A0F1030AD4464FF0010A0AFA09FAAAF12A
:10221000010A0AEA020A0AFA0CFA4FF0010B0BFA59
:102220000CFBABF1010B0BEA030B4AEA0B04214652
:10223000404606F02DF8BDE8F09F000000BF00F01A
:102240000702064B19684FF6FF031940044B0B4376
:1022500043EA0221014B196000BF70470CED00E01A
:102260000000FA0538B5002400BF00200090234884
:10227000006840F08050214908600846006800F07E
:102280008050009000BF00BF0120010491FAA1F12D
:10229000B1FA81F11A4A42F82100FFF7CDFC044659
:1022A00007E0FFF7C9FC001BB0F57A7F01D90320D6
:1022B00038BD1448406800F48030B0F5803FF0D15C
:1022C0000120410491FAA1F1B1FA81F10C4A42F8DE
:1022D0002100FFF7B1FC044607E0FFF7ADFC001B4F
:1022E000B0F57A7F01D90320E2E70648406800F4A0
:1022F0000030B0F5003FF0D10020D9E7403802406F
:1023000000000E4200700040F8B50446002500268B
:10231000207800F0010020B9207800F002000228A7
:1023200066D10020CC498866FFF786FC054606E0AA
:10233000FFF782FC401B642801D90320F8BDC74881
:102340000068C0F3C0600028F2D1207800F00100DE
:1023500098B147F6C07191FAA1F1B1FA81F16068C4
:1023600088404FF0E04292FAA2F2B2FA82F2A168FB
:1023700091400843B94984310860207800F0020098
:10238000022821D1B5488430006800F0E0404FF0C9
:10239000E04191FAA1F1B1FA81F120FA01F6606809
:1023A0008101207B41EA006040EA0670AB4984313C
:1023B0000860AA488C30006820F01F00E169491EBF
:1023C0000843A6498C3108600120A3498866FFF7BD
:1023D00033FC054606E0FFF72FFC401B642801D9BB
:1023E0000320ABE79D480068C0F3C0600028F2D02E
:1023F000207800F00400042804D0207800F00800C1
:1024000008287DD1002094490867FFF715FC054690
:1024100006E0FFF711FC401B642801D903208DE77B
:102420008E480068C0F340700028F2D1207800F098
:102430000400042834D189488830006800F0E04066
:102440004FF0E04191FAA1F1B1FA81F120FA01F6E1
:1024500047F6C07191FAA1F1B1FA81F12069884083
:102460004FF0706292FAA2F2B2FA82F26169914080
:1024700008434FF0E04191FAA1F1B1FA81F106FA77
:1024800001F10843754988310860081D006820F48F
:10249000F851206A401E41EA002070498C310860E2
:1024A000207800F00800082834D16C488830006893
:1024B00000F070604FF0706191FAA1F1B1FA81F112
:1024C00020FA01F647F6C07191FAA1F1B1FA81F153
:1024D000206988404FF0706191FAA1F1B1FA81F161
:1024E00006FA01F108434FF0E04292FAA2F2B2FA82
:1024F00082F2A1699140084358498831086000E0A0
:102500001CE0081D006820F44030616A084353490C
:102510008C310860012050490867FFF78DFB0546A4
:1025200006E0FFF789FB401B642801D9032005E77B
:102530004A480068C0F340700028F2D0207800F0CC
:10254000200020287DD100BF00200090434840306B
:10255000006840F0805041494031086008460068FA
:1025600000F08050009000BF00BF3D48006840F47C
:1025700080703B490860FFF75FFB054606E0FFF708
:102580005BFB401B642801D90320D7E63448006870
:1025900000F480700028F2D030487030006800F4F9
:1025A0004070218D01F4407188424AD02B48703030
:1025B000006820F4407601202A4908600020086065
:1025C00026487030066006F0020098B1FFF734FB31
:1025D000054608E0FFF730FB401B41F28831884296
:1025E00001D90320AAE61D4870300068C0F34000FE
:1025F0000028EFD000BF208D00F44070B0F5407F80
:102600000CD116480830006820F4F810164AA16A68
:102610001140084311490831086007E00F480830AD
:10262000006820F4F8100D49083108600B4870303C
:102630000068218DC1F30B0108430849703108601F
:1026400000BF207800F01000102803D194F82C006F
:1026500006490860002071E6000047420038024049
:1026600000700040400E4742FFFCFF0FE011474260
:1026700070B504460E460025A748006800F00F001C
:10268000B0426FD2A4490E700846006800F00F00F7
:10269000B04201D0012070BD207800F00200022875
:1026A00007D19E48006820F0F000A16808439B49CC
:1026B0000860207800F0010000283ED06068012802
:1026C00007D1964808380068C0F34040B8B90120E7
:1026D000E1E76068022802D06068032807D18F48CC
:1026E00008380068C0F3406048B90120D3E78B4840
:1026F00008380068C0F3400008B90120CBE78748DC
:10270000006820F003006168084384490860FFF70F
:1027100093FA05466068012810D108E0FFF78CFAAB
:10272000401B41F28831884201D90320B3E77B483E
:10273000006800F00C000428F0D1CDE060680228A9
:1027400011D108E0FFF778FA401B41F28831884246
:1027500001D903209FE77148006800F00C000828A9
:10276000F0D1B9E024E06068032810D108E0FFF759
:1027700063FA401B41F28831884201D903208AE77D
:102780006648006800F00C000328F0D1A4E008E0DF
:10279000FFF752FA401B41F28831884201D90320E9
:1027A00079E75E48006800F00C000028F0D193E063
:1027B000207800F00200022807D15848006820F075
:1027C000F000A168084355490860207800F0010036
:1027D000002877D06068012807D150480838006881
:1027E000C0F34040B8B9012055E76068022802D024
:1027F0006068032807D1494808380068C0F3406082
:1028000048B9012047E7454808380068C0F3400050
:1028100008B901203FE74148006820F003006168E3
:1028200008433E490860FFF707FA0546606801283B
:1028300010D108E0FFF700FA401B41F288318842CE
:1028400001D9032027E73548006800F00C00042870
:10285000F0D137E06068022810D108E0FFF7ECF90A
:10286000401B41F28831884201D9032013E72B48ED
:10287000006800F00C000828F0D123E0606803280D
:1028800010D108E0FFF7D8F9401B41F288318842A7
:1028900001D90320FFE62148006800F00C0003285E
:1028A000F0D10FE008E0FFF7C7F9401B41F2883193
:1028B000884201D90320EEE61848006800F00C00B9
:1028C0000028F0D114490E700846006800F00F008F
:1028D000B04201D00120DEE6207800F00400042898
:1028E00007D10E48006820F4E050E16808430B4926
:1028F0000860207800F00800082808D10748006820
:1029000020F46040216940EAC100044908600F20BA
:10291000FFF7BEF90020BEE6003C02400838024046
:1029200010B500F045F80949096801F0F001F022FE
:1029300092FAA2F2B2FA82F2D140054A515CC84042
:10294000044908600846006810BD000008380240CD
:102950007C0601080000002010B5FFF7E1FF0749E1
:10296000096801F4E0514FF4E05292FAA2F2B2FA8F
:1029700082F2D140024A515CC84010BD0838024082
:102980007C06010810B5FFF7CBFF0749096801F481
:1029900060414FF4604292FAA2F2B2FA82F2D14060
:1029A000024A515CC84010BD083802407C0601084C
:1029B00070B50021002200230020274C246804F079
:1029C0000C0424B1042C04D0082C41D103E023488A
:1029D00040E023483EE0204C241F246804F03F01DF
:1029E0001D4C241F246804F4800484B11C4CB4FBE7
:1029F000F1F5194C241F246847F6C076344096FA46
:102A0000A6F6B6FA86F6F44005FB04F20FE0134C86
:102A1000B4FBF1F5104C241F246847F6C07634400F
:102A200096FAA6F6B6FA86F6F44005FB04F20A4CCE
:102A3000241F246804F440344FF4403595FAA5F57A
:102A4000B5FA85F5EC40641C6300B2FBF3F001E0DD
:102A5000024800BF00BF70BD083802400024F400E7
:102A600000127A0038B504460025207800F00100F5
:102A7000002866D0F748006800F00C0004280DD04C
:102A8000F448006800F00C00082813D1F148001F3A
:102A9000006800F48000B0F5800F0BD1ED480838D5
:102AA0000068C0F3404000284BD06068002848D13F
:102AB000012038BD0020E749891F0870FFF7BCF8E6
:102AC000054608E0FFF7B8F8401B41F2883188421C
:102AD00001D90320EDE7DF4808380068C0F3404023
:102AE0000028EFD12079DB49891F08706068A0B108
:102AF000FFF7A2F8054608E0FFF79EF8401B41F2F9
:102B00008831884201D90320D3E7D24808380068C9
:102B1000C0F340400028EFD013E0FFF78DF80546E2
:102B200008E0FFF789F8401B41F28831884201D95B
:102B30000320BEE7C74808380068C0F340400028BB
:102B4000EFD1207800F00200022869D1C148006866
:102B500000F00C0058B1BF48006800F00C000828D5
:102B600021D1BC48001F006800F48000D8B9B948E2
:102B700008380068C0F3400020B1E068012801D0A7
:102B8000012096E7B3480838006820F0F800F822E2
:102B900092FAA2F2B2FA82F2216991400843AD4959
:102BA000083908603CE0E06828B30120AA490860C1
:102BB000FFF742F8054606E0FFF73EF8401B6428A1
:102BC00001D9032075E7A34808380068C0F3400026
:102BD0000028F1D09F480838006820F0F800F8225B
:102BE00092FAA2F2B2FA82F221699140084399491D
:102BF0000839086014E0002097490860FFF71CF8C6
:102C0000054606E0FFF718F8401B642801D90320A9
:102C10004FE7904808380068C0F340000028F1D121
:102C2000207800F0080008282CD16069A8B10120A4
:102C30008A490860FFF700F8054606E0FEF7FCFF4A
:102C4000401B642801D9032033E782486C300068B8
:102C5000C0F340000028F1D014E000207F49086054
:102C6000FEF7EAFF054606E0FEF7E6FF401B642894
:102C700001D903201DE777486C300068C0F340009D
:102C80000028F1D1207800F0040004286FD100BFA3
:102C9000002000906F483830006840F080506D4947
:102CA000383108600846006800F08050009000BF8E
:102CB00000BF6B48006840F4807069490860FEF707
:102CC000BBFF054606E0FEF7B7FF401B642801D9AD
:102CD0000320EEE66248006800F480700028F2D01D
:102CE00000205C4968310870FEF7A6FF054608E041
:102CF000FEF7A2FF401B41F28831884201D9032030
:102D0000D7E6544868300068C0F340000028EFD18F
:102D1000207A504968310870A068A0B1FEF78CFF96
:102D2000054608E0FEF788FF401B41F288318842E3
:102D300001D90320BDE6474868300068C0F3400071
:102D40000028EFD013E0FEF777FF054608E0FEF716
:102D500073FF401B41F28831884201D90320A8E665
:102D60003C4868300068C0F340000028EFD1A069FB
:102D7000F0B33848006800F00C00082872D0A06951
:102D8000022850D1002034490866FEF755FF054659
:102D900006E0FEF751FF401B642801D9032088E6B6
:102DA0002C4808380068C0F340600028F1D1D4E90D
:102DB0000701084347F6C07292FAA2F2B2FA82F211
:102DC000616A914008430122A16AC2EB51014FF4AC
:102DD000403292FAA2F2B2FA82F2914008434FF0E6
:102DE000706292FAA2F2B2FA82F2E16A914000E0D5
:102DF0003AE008431749091F086001201649086690
:102E0000FEF71AFF054606E0FEF716FF401B642892
:102E100001D903204DE60F4808380068C0F3406030
:102E20000028F1D020E000200B490866FEF704FFDF
:102E3000054606E0FEF700FF401B642801D9032089
:102E400037E6044808380068C0F340600028F1D134
:102E50000AE007E00838024000004742800E47427F
:102E600000700040012024E6002022E670B50446F0
:102E70000D460CB9012070BD94F82C0028B9002033
:102E800084F82D00204600F011F8022084F82C0070
:102E9000211D2068FDF791FF2946D4E90002FDF7C6
:102EA000F6FF012084F82C000020E4E710B586B07E
:102EB000044600BF002000904348006840F0010035
:102EC000414908600846006800F00100009000BF1A
:102ED00000BF00BF002000903B480838006840F069
:102EE00004003949083908600846006800F0040009
:102EF000009000BF00BF00BF00200090084600689F
:102F000040F0080008600846006800F008000090E3
:102F100000BF00BF00BF002000900846006840F0DE
:102F2000100008600846006800F01000009000BF24
:102F300000BF00BF002000900846006840F020005D
:102F400008600846006800F02000009000BF00BF45
:102F500000BF002000900846006840F04000086074
:102F60000846006800F04000009000BF00BF0D2040
:102F700001900220029001200390032004900C2075
:102F8000059001A91148FEF73BFD4CF2037001903A
:102F900001A90F48FEF734FD4FF68370019001A997
:102FA0000C48FEF72DFD4FF63F00019001A90A489D
:102FB000FEF726FD48F23710019001A90748FEF7F9
:102FC0001FFD06B010BD0000383802400008024066
:102FD000000C0240001002400014024000180240A1
:102FE00070B504460D4694F82C00022800D170BD3F
:102FF000022084F82C0029462068FDF718FF0120E4
:1030000084F82C000020F2E770B504460D46164601
:1030100094F82C00022800D170BD022084F82C0006
:10302000324629462068FDF709FF2868022803D1A7
:10303000052084F82C0002E0012084F82C000020F8
:10304000EAE710B504460CB9012010BD94F8510010
:1030500028B9002084F85000204600F037F80220FC
:1030600084F851002068006820F040002168086062
:10307000D4E901010843E168084321690843616913
:103080000843218B01F400710843E1690843216A78
:103090000843A16A0843216808600421A06901EA85
:1030A0001040616A0843216848602168E06A08614D
:1030B0002068C06920F400602168C8610020606554
:1030C000012084F851000020BFE7000010B586B051
:1030D000044600BF002000901748006840F0200020
:1030E000154908600846006800F02000009000BF05
:1030F00000BF00BF002000900F481430006840F46B
:1031000080100D49143108600846006800F48010F2
:10311000009000BF00BF4FF4607001900220029049
:1031200001200390022004900520059001A9034886
:10313000FEF766FC06B010BD3038024000140240B5
:103140002DE9F84F04460E4617461D46DDF8289037
:103150004FF00008C24694F85180B8F1010F02D038
:10316000B8F1220F76D10EB107B115B90120BDE833
:10317000F88F00BF94F85000012801D10220F6E733
:10318000012084F8500000BF94F85100012802D1BA
:10319000322084F8510000206065A763A587E58789
:1031A0002663A586E586A064E064A06AB0F5005FAA
:1031B0000DD100BF2068006820F40050216808602D
:1031C0002068006840F400502168086000BF206853
:1031D000006800F04000402805D02068006840F0FA
:1031E000400021680860E068B0F5006F75D1606844
:1031F00030B16068B0F5827F0CD1E08E012809D132
:10320000206B00882168C860206B801C2063E08EE2
:10321000401EE086E08EF0B9A06AB0F5005F05D1EF
:103220002068006840F48050216808604B46002206
:103230000121204605F02AF908B1032097E720680C
:10324000C068A16B0880A06B801CA063E08F401E4B
:10325000E087C7E01BE131E04B4600220221204617
:1032600005F014F908B1032081E7206B008821687C
:10327000C860206B801C2063E08E401EE086E08EDC
:1032800048B9A06AB0F5005F05D12068006840F435
:103290008050216808604B4600220121204605F03D
:1032A000F5F808B1032062E72068C068A16B0880C8
:1032B000A06B801CA063E08F401EE087E08E00289A
:1032C000CADC60680028C4D14B4600220121204698
:1032D00005F0DCF810B1032049E70AE02068C06877
:1032E000A16B0880A06B801CA063E08F401EE0876C
:1032F00078E0606830B16068B0F5827F0BD1E08E15
:10330000012808D1216B481C206308782168C86017
:10331000E08E401EE086E08ED0B9A06AB0F5005F76
:1033200005D12068006840F48050216808604B4651
:1033300000220121204605F0A9F808B1032016E774
:103340002068C068A16B0870E08F401EE08749E0EC
:1033500030E04B4600220221204605F097F808B1E4
:10336000032004E7216B481C206308782168C860AB
:10337000E08E401EE086E08E48B9A06AB0F5005F9E
:1033800005D12068006840F48050216808604B46F1
:1033900000220121204605F079F808B10320E6E675
:1033A0002068C068C1B2A26B501CA0631170E08F8E
:1033B000401EE087E08E0028CBDC606890B94B4669
:1033C00000220121204605F061F808B10320CEE675
:1033D0002068C068C1B2A26B501CA0631170E08F5E
:1033E000401EE087A06AB0F5005F12D14B46002274
:1033F0000121204605F04AF828B1606D40F0020036
:1034000060650320B3E62068C06880B20090BDF814
:1034100000004B4601228021204605F037F828B1F4
:10342000606D40F0200060650320A0E6012084F874
:10343000510020688068C0F3001AA06AB0F5005FF0
:103440001FD1BAF1000F1CD0606D40F00200606522
:10345000A06AB0F5005F0DD100BF2068006820F4BD
:103460000050216808602068006840F4005021681E
:10347000086000BF00BF002084F8500000BF01209A
:1034800075E600BF002084F8500000BF6FE6022000
:103490006DE670B504460E4615460CB9012070BDA8
:1034A00094F8490028B9002084F84800204600F02C
:1034B0001DF804F108012068FDF710FC3146A268F0
:1034C0002068FDF74BFC2946236BD4E90102FDF788
:1034D000E1FBA168206850F8210040F00100A268DB
:1034E000216841F822000020D9E7000010B586B01D
:1034F000044600BF002000902248006840F0010010
:10350000204908600846006800F00100009000BFF4
:1035100000BF00BF002000901A480838006840F043
:1035200008001849083908600846006800F00800DB
:10353000009000BF00BF00BF002000900846006858
:1035400040F0100008600846006800F0100000908D
:1035500000BF00BF4EF2B370019002200290012024
:103560000390032004900C20059001A90648FEF763
:1035700047FA4FF68070019001A90448FEF740FA1F
:1035800006B010BD38380240000C02400010024066
:10359000042808D14FF0E021096941F004014FF0FF
:1035A000E022116107E04FF0E021096921F00401F8
:1035B0004FF0E0221161704770B504462546681E41
:1035C000B0F1807F01D301200FE0681E4FF0E021B1
:1035D00048610F214FF0FF3004F05AFE00204FF0F9
:1035E000E021886107200861002070BD70477047A6
:1035F000704710B5044620680069C0F34000D8B198
:103600002068C068C0F34000B0B16FF002002168CC
:103610000861012020762068806900F0030018B15D
:103620002046FFF7E5FF05E0204600F0ADF8204614
:1036300000F0ABF80020207620680069C0F380001D
:10364000D8B12068C068C0F38000B0B16FF004004A
:1036500021680861022020762068806900F44070AB
:1036600018B12046FFF7C4FF05E0204600F08CF8B3
:10367000204600F08AF80020207620680069C0F318
:10368000C000D8B12068C068C0F3C000B0B16FF00E
:10369000080021680861042020762068C06900F0D5
:1036A000030018B12046FFF7A3FF05E0204600F015
:1036B0006BF8204600F069F8002020762068006949
:1036C000C0F30010D8B12068C068C0F30010B0B1DA
:1036D0006FF0100021680861082020762068C0691A
:1036E00000F4407018B12046FFF782FF05E0204645
:1036F00000F04AF8204600F048F8002020762068C4
:10370000006900F0010058B12068C06800F00100B5
:1037100030B16FF0010021680861204600F036F8F2
:1037200020680069C0F3C01058B12068C068C0F3B9
:10373000C01030B16FF08000216808612046FFF7AB
:1037400055FF20680069C0F3801058B12068C06838
:10375000C0F3801030B16FF040002168086120464E
:1037600000F024F820680069C0F3401058B12068C8
:10377000C068C0F3401030B16FF0200021680861CC
:103780002046FFF734FF10BD7047704710B5044660
:103790000348844202D103A0FCF71AFE10BD0000CA
:1037A000C008002068656C6C6F0D0A007047704798
:1037B000F8B50446002500262068006800F00105E1
:1037C0002068C06800F480767DB176B100BF00202B
:1037D000009020680068009020684068009000BF5A
:1037E00000BFE06B40F00100E06320680068C0F3B8
:1037F00040052068406900F001067DB176B100BF48
:1038000000200090206800680090206840680090C8
:1038100000BF00BFE06B40F00400E0632068006878
:10382000C0F380052068406900F001067DB176B1E3
:1038300000BF002000902068006800902068406869
:10384000009000BF00BFE06B40F00200E063206822
:103850000068C0F3C0052068406900F001067DB132
:1038600076B100BF002000902068006800902068BA
:103870004068009000BF00BFE06B40F00800E063CC
:1038800020680068C0F340152068C06800F020067A
:103890001DB116B1204604F0F9FF20680068C0F39E
:1038A000C0152068C06800F080061DB116B1204622
:1038B00005F05CF920680068C0F380152068C068D6
:1038C00000F040061DB116B1204604F0C7FFE06BC2
:1038D00028B1012084F839002046FFF768FFF8BDC1
:1038E00010B504460CB9012010BDA06900B100E07C
:1038F00000BF94F8390028B9002084F83800204629
:1039000000F026F8022084F839002068C06820F40E
:1039100000502168C860204605F016F8206800694C
:1039200020F49040216808612068406920F02A0056
:10393000216848612068C06840F400502168C86070
:103940000020E063012084F839000020CCE700006B
:1039500010B586B004465049206888424AD100BF5D
:10396000002000904D48006840F001004B4908607D
:103970000846006800F00100009000BF00BF00BFD3
:103980000020009045481030006840F40030434962
:10399000103108600846006800F40030009000BF55
:1039A00000BF042001900220029001200390022019
:1039B00004900720059001A93948FEF721F8082056
:1039C000019001A93648FEF71BF82068C06820F076
:1039D00040002168C8602068C06840F0200021686D
:1039E000C8602620FEF7DEFB032211462620FEF7E4
:1039F000E6FB4EE02B49206888424AD100BF0020F8
:103A000000902648006840F00200244908600846FB
:103A1000006800F00200009000BF00BF00BF00205F
:103A200000901E481030006840F480201B4910317F
:103A300008600846006800F48020009000BF00BFC6
:103A400008150190022002900120039002200490AA
:103A50000720059001A91448FDF7D2FF4FF400603C
:103A6000019001A91048FDF7CBFF2068C06820F045
:103A700040002168C8602068C06840F020002168CC
:103A8000C8602720FEF78EFB022203212720FEF7C5
:103A900096FB06B010BD00000044004030380240E4
:103AA0000000024000480040000402402DE9F047B9
:103AB00004460D46164699464FF0000894F83980A2
:103AC000B8F1010F02D0B8F1120F69D105B116B9E2
:103AD0000120BDE8F08700BF94F83800012801D12B
:103AE0000220F6E7012084F8380000BF0020E063E0
:103AF00094F83900122803D1322084F8390002E00A
:103B0000222084F83900A685E68535E0E08D401E48
:103B1000E085A068B0F5805F18D14B4600222021D7
:103B2000204605F05BF808B10320D2E72F46206954
:103B300030B920684068C0F308003880AD1C1BE035
:103B400020684068C0B238806D1C15E04B460022EA
:103B50002021204605F042F808B10320B9E720698A
:103B600020B92068406805F8010B05E0206840682E
:103B700000F07F0005F8010BE08D0028C6DC94F80A
:103B80003900322803D1122084F8390002E00120E4
:103B900084F8390000BF002084F8380000BF98E79F
:103BA000022096E770472DE9F04704460D46164679
:103BB00099464FF0000894F83980B8F1010F02D00F
:103BC000B8F1220F65D105B116B90120BDE8F08723
:103BD00000BF94F83800012801D10220F6E7012047
:103BE00084F8380000BF0020E06394F839002228F0
:103BF00003D1322084F8390002E0122084F8390021
:103C0000A684E68428E0E08C401EE084A068B0F53D
:103C1000805F14D14B4600228021204604F0DEFF55
:103C200008B10320D2E72F463888C0F30800216886
:103C30004860206908B9AD1C0EE06D1C0CE04B46D5
:103C400000228021204604F0C9FF08B10320BDE70F
:103C500015F8010B21684860E08C0028D3DC4B4646
:103C600000224021204604F0B9FF08B10320ADE74F
:103C700094F83900322803D1222084F8390002E078
:103C8000012084F8390000BF002084F8380000BF0C
:103C90009CE702209AE7704701464869806880B235
:103CA000704708B50146D1F8CC0000680090009834
:103CB000C0F3414008BD024602F29F30405C7047AD
:103CC000024602F5557050F82100704770B5044661
:103CD0000E4600250021C4F8101300BF0BE00021A0
:103CE00004F5467040F825103C3040F825103C3073
:103CF0004155681CC5B20F2DF1DB0821A4F8B6139D
:103D00003146204607F02CFF204607F01FFB2046D7
:103D100007F0E6F90121204607F08AFF204607F068
:103D200072FA204607F06BFB002070BD0146D1F807
:103D3000100370470146D1F81403704710B50446CC
:103D4000204607F0ECFE002010BD70B504460D467D
:103D5000002104F29F304155113000EB45104161C4
:103D60002946204607F08AFD70BD00BFFEE700002F
:103D700000B587B000BF002001901B48006840F0EC
:103D80001000194908600846006800F01000019012
:103D900000BF00BF00BF002001900846006840F44B
:103DA000807008600846006800F48070019000BFD1
:103DB00000BF78200290002003900120049003208F
:103DC000059002A90948FDF71BFE4FF4C060029060
:103DD00000200390012004900320059002A90448CC
:103DE000FDF70EFE07B000BD303802400010024063
:103DF0000020024010B50446012C01D14049087052
:103E00003F480078002852D020213E48FDF706FFA9
:103E1000D0B110213B48FDF701FFA8B10821394876
:103E2000FDF7FCFE80B140213648FDF7F7FE58B1A2
:103E30004FF480613448FDF7F1FE28B14FF4007172
:103E40003148FDF7EBFE88BB0A2009F0B3FC0020E7
:103E50002B49087020212B48FDF7E0FE08B901200E
:103E600010BD10212748FDF7D9FE08B90220F7E759
:103E700008212448FDF7D2FE08B90320F0E74021CD
:103E80002048FDF7CBFE08B90420E9E74FF4806134
:103E90001D48FDF7C3FE08B90520E1E74FF40071A6
:103EA0001948FDF7BBFE40BB0620D9E7FFE72021FC
:103EB0001448FDF7B3FE01281FD110211148FDF76A
:103EC000ADFE012819D108210E48FDF7A7FE0128F3
:103ED00013D140210B48FDF7A1FE01280DD181022D
:103EE0000948FDF79BFE012807D141020648FDF76E
:103EF00095FE012801D1024908700020B0E70000BA
:103F000025000020001002400020024000B587B0CC
:103F100000BF002001900D48006840F080000B4970
:103F200008600846006800F08000019000BF00BFF4
:103F3000102002900120039004900320059002A914
:103F40000348FDF75DFD07B000BD000030380240BA
:103F5000001C024070B5044600260D4805880D4837
:103F6000006818B1204602F037FF0FE0084840888B
:103F700045430021084602F04DFD02F01BFF0026DC
:103F800002E005490C80761CAE42FAD370BD0000F9
:103F9000880A0020180A00200000086010B50446B6
:103FA0005C4884715C48006850B1204602F03AFFDA
:103FB0005948C08A574908805748008B488010BD2F
:103FC000002C51D1F020534908804FF4A070488054
:103FD0000846808849F24131884205D04D488088A2
:103FE00045F21031884214D12C204A4908812A20F8
:103FF00048812B2088810846808845F2103188420C
:1040000006D14FF4A070434908804FF4F070488007
:104010007BE04048808845F21051884210D14FF42F
:1040200030503C4908814FF4285048814FF42C50BF
:1040300088814FF4F07008804FF44870488064E045
:104040003448808841F6631188425ED12C20314982
:1040500008812B2048812A2088814FF4F070088045
:104060004FF44870488050E04FF4A0702949088010
:10407000F02048800846808849F24131884205D0C6
:104080002448808845F21031884207D12C202149EC
:1040900008812A2048812B20888129E01D488088BA
:1040A00045F21051884210D14FF43050194908811F
:1040B0004FF4285048814FF42C5088814FF44870B9
:1040C00008804FF4F070488012E01248808841F672
:1040D000631188420CD12C200E4908812A20488186
:1040E0002B2088814FF4487008804FF4F07048808E
:1040F0000848808845F21031884206D14FF4F070AC
:10410000044908804FF4A0704880002002F048FB6A
:1041100000BF54E7880A0020180A002070B5044642
:104120000D4616464348006828B1324629462046C7
:1041300002F08EFE70BD4048808849F241318842CD
:1041400005D03D48808845F21031884214D13A4963
:10415000488902F023FE201202F014FEE0B202F0C1
:1041600011FE3549888902F019FE281202F00AFE74
:10417000E8B202F007FE54E02F48808845F2105163
:10418000884220D12C49488902F008FE201202F012
:10419000F9FD29494989491C88B202F0FFFDE0B2C6
:1041A00002F0F0FD2449888902F0F8FD281202F09F
:1041B000E9FD21498989491C88B202F0EFFDE8B286
:1041C00002F0E0FD2DE01C48808841F66311884232
:1041D00027D11948807920B917480088401E001B54
:1041E00084B21549488902F0D9FD201202F0CAFDB7
:1041F000E0B202F0C7FD201202F0C4FDE0B202F00E
:10420000C1FD0D49888902F0C9FD281202F0BAFDEE
:10421000E8B202F0B7FD281202F0B4FDE8B202F0F5
:10422000B1FD0548008905490880891C0E8000BF42
:1042300080E70000180A0020880A0020FEFF0760BF
:104240002DE9F84F05460E4617469846DDF82890AA
:104250004FF0000B1448006840B143463A463146DF
:104260002846CDF8009002F01BFE1BE0781B401C96
:104270001FFA80FB344613E02146284602F0CAFBB1
:1042800002F098FD4FF0000A06E00849A1F80090FE
:104290000AF101001FFA80FADA45F6DB601C84B2ED
:1042A0004445E9DDBDE8F88F180A002000000860E9
:1042B00000B595B003F05AF8FE498880084680881A
:1042C00018B102F09FFE02F0F0B900BF002001908B
:1042D000F948006840F00200F749086008460068A5
:1042E00000F00200019000BF00BF202010900120CC
:1042F000119012900320139010A9F048FDF780FB55
:104300004FF02040EE490860EE4848600020886089
:104310000021EB48C16001611021416100218161F0
:10432000C16141624FF4805181620021C1624FF44A
:10433000804101630021416381634FF48011C163B7
:104340000F20099000200A9046200B9000200F902B
:104350000F200290002003900F200490002008906E
:1043600002AA09A9D648FFF794F8322009F022FAE8
:10437000D32002F013FD02F0D9F9CE49888002F073
:10438000D5F9CC49888002F0D1F9CA49888008461D
:1043900080884FF6FF7101EA0020C649888002F04C
:1043A000C5F9C44989880843C2498880084680887D
:1043B00049F24131884278D0D42002F0EFFC02F07B
:1043C000B5F9BC49888002F0B1F9BA49888002F099
:1043D000ADF9B8498880084680884FF6FF7101EA38
:1043E0000020B449888002F0A1F9B24989880843C5
:1043F000B04988800846808845F21031884254D000
:104400004FF45A4002F0CAFC02F090F9A9498880A2
:104410004FF45B4002F0C2FC02F088F9A5498880A5
:10442000084680884FF6FF7101EA0020A149888084
:104430004FF45C4002F0B2FC02F078F99D498988A3
:1044400008439C49888008468088B0F5004F02D117
:1044500045F2105088809748808845F21051884274
:1044600023D0A12002F09AFC02F060F991498880E3
:1044700002F05CF98F498880084680884FF6FF710A
:1044800001EA00208B49888002F050F98949898827
:104490000843884988800846808845F261718842CF
:1044A00003D141F66310834988808248818886A0C1
:1044B000FBF78EFF7F48808849F2413188427CD1EA
:1044C000CF2002F06BFC002002F05CFCC12002F067
:1044D00059FC302002F056FCED2002F05FFC642015
:1044E00002F050FC032002F04DFC122002F04AFCC6
:1044F000812002F047FCE82002F050FC852002F009
:1045000041FC102002F03EFC7A2002F03BFCCB2064
:1045100002F044FC392002F035FC2C2002F032FC81
:10452000002002F02FFC342002F02CFC022002F0CC
:1045300029FCF72002F032FC202002F023FCEA20C4
:1045400002F02CFC002002F01DFC002002F01AFCFE
:10455000C02002F023FC1B2002F014FCC12002F05A
:104560001DFC012002F00EFCC52002F017FC3020DB
:1045700002F008FC302002F005FCC72002F00EFC1F
:10458000B72002F0FFFB362002F008FC482002F0C2
:10459000F9FB3A2002F002FC552002F0F3FBB120B7
:1045A00002F0FCFB002002F0EDFB1A2002F0EAFB17
:1045B000B62002F0F3FB0A2000E0ABE002F0E2FBE1
:1045C000A22002F0DFFBF22002F0E8FB002002F064
:1045D000D9FB262002F0E2FB012002F0D3FBE02011
:1045E00002F0DCFB0F2002F0CDFB2A2002F0CAFB18
:1045F000282002F0C7FB082002F0C4FB0E2002F0C6
:10460000C1FB082002F0BEFB542002F0BBFBA92036
:1046100002F0B8FB432002F0B5FB0A2002F0B2FB27
:104620000F2002F0AFFB002002F0ACFB002002F0F4
:10463000A9FB002002F0A6FB002002F0A3FBE12072
:1046400002F0ACFB002002F09DFB152002F09AFB6B
:10465000172002F097FB072002F094FB112002F0D4
:1046600091FB062002F08EFB2B2002F08BFB5620E4
:1046700002F088FB3C2002F085FB052002F082FB63
:10468000102002F07FFB0F2002F07CFB3F2002F0A5
:1046900079FB3F2002F076FB0F2002F073FB2B200A
:1046A00002F07CFB002002F06DFB002002F06AFBB0
:1046B000012011E0880A0020303802400004024046
:1046C000380A0020040100A0204C43442049443A09
:1046D00025780D0A0000000002F054FB3F2002F094
:1046E00051FB2A2002F05AFB002002F04BFB002075
:1046F00002F048FB002002F045FBEF2002F042FBF5
:10470000112002F04BFB782009F054F8292002F028
:1047100045FBD8E5FE48808845F21031884240F0DC
:104720007C87ED2002F03AFB012002F02BFBFE20FB
:1047300002F028FBEE2002F031FBDE2002F022FB2B
:10474000212002F01FFBF12002F028FB012002F0E3
:1047500019FBDF2002F022FB102002F013FBC42023
:1047600002F01CFB8F2002F00DFBC62002F016FBAE
:10477000002002F007FBE22002F004FBE22002F03E
:1047800001FBE22002F0FEFABF2002F007FBAA20A4
:1047900002F0F8FAB02002F001FB0D2002F0F2FA6C
:1047A000002002F0EFFA0D2002F0ECFA002002F0F7
:1047B000E9FA112002F0E6FA002002F0E3FA1920EB
:1047C00002F0E0FA002002F0DDFA212002F0DAFA2D
:1047D000002002F0D7FA2D2002F0D4FA002002F0D7
:1047E000D1FA3D2002F0CEFA002002F0CBFA5D2093
:1047F00002F0C8FA002002F0C5FA5D2002F0C2FA09
:10480000002002F0BFFAB12002F0C8FA802002F0C6
:10481000B9FA002002F0B6FA8B2002F0B3FA0020B9
:1048200002F0B0FA962002F0ADFA002002F0AAFAE7
:10483000B22002F0B3FA002002F0A4FA002002F045
:10484000A1FA022002F09EFA002002F09BFA032057
:1048500002F098FA002002F095FAB32002F09EFAD6
:10486000002002F08FFA002002F08CFA002002F003
:1048700089FA002002F086FA002002F083FA002074
:1048800002F080FA002002F07DFA002002F07AFAAD
:10489000002002F077FA002002F074FA002002F003
:1048A00071FA002002F06EFA002002F06BFA00208C
:1048B00002F068FA002002F065FA002002F062FAC5
:1048C000002002F05FFA002002F05CFA002002F003
:1048D00059FA002002F056FA002002F053FA0020A4
:1048E00002F050FA002002F04DFA002002F04AFADD
:1048F000B42002F053FA8B2002F044FA002002F0B8
:1049000041FA962002F03EFA002002F03BFAA12084
:1049100002F038FA002002F035FAB52002F03EFA33
:10492000022002F02FFA002002F02CFA032002F0FD
:1049300029FA002002F026FA042002F023FA0020CF
:1049400002F020FAB62002F029FA002002F01AFA4A
:10495000002002F017FAB72002F020FA002002F03F
:1049600011FA002002F00EFA3F2002F00BFA0020AC
:1049700002F008FA5E2002F005FA002002F002FAC6
:10498000642002F0FFF9002002F0FCF98C2002F014
:10499000F9F9002002F0F6F9AC2002F0F3F900205A
:1049A00002F0F0F9DC2002F0EDF9002002F0EAF963
:1049B000702002F0E7F9002002F0E4F9902002F004
:1049C000E1F9002002F0DEF9EB2002F0DBF9002033
:1049D00002F0D8F9DC2002F0D5F9002002F0D2F97B
:1049E000B82002F0DBF9002002F0CCF9002002F040
:1049F000C9F9002002F0C6F9002002F0C3F9002036
:104A000002F0C0F9002002F0BDF9002002F0BAF96E
:104A1000002002F0B7F9BA2002F0C0F9242002F019
:104A2000B1F9002002F0AEF9002002F0ABF900204D
:104A300002F0A8F9C12002F0B1F9202002F0A2F999
:104A4000002002F09FF9542002F09CF9002002F0AF
:104A500099F9FF2002F096F9002002F093F9C220A4
:104A600002F09CF90A2002F08DF9002002F08AF988
:104A7000042002F087F9002002F084F9C32002F03C
:104A80008DF93C2002F07EF9002002F07BF93A20FB
:104A900002F078F9002002F075F9392002F072F97D
:104AA000002002F06FF9372002F06CF9002002F0CC
:104AB00069F93C2002F066F9002002F063F9362023
:104AC00002F060F9002002F05DF9322002F05AF99C
:104AD000002002F057F92F2002F054F9002002F0D4
:104AE00051F92C2002F04EF9002002F04BF9292058
:104AF00002F048F9002002F045F9262002F042F9C0
:104B0000002002F03FF9242002F03CF9002001E0EF
:104B1000880A002002F036F9242002F033F9002040
:104B200002F030F9232002F02DF9002002F02AF9DA
:104B30003C2002F027F9002002F024F9362002F090
:104B400021F9002002F01EF9322002F01BF90020AA
:104B500002F018F92F2002F015F9002002F012F9E6
:104B60002C2002F00FF9002002F00CF9292002F0AD
:104B700009F9002002F006F9262002F003F90020CE
:104B800002F000F9242002F0FDF8002002F0FAF80B
:104B9000242002F0F7F8002002F0F4F8232002F0BD
:104BA000F1F8002002F0EEF8C42002F0F7F86220DD
:104BB00002F0E8F8002002F0E5F8052002F0E2F843
:104BC000002002F0DFF8842002F0DCF8002002F080
:104BD000D9F8F02002F0D6F8002002F0D3F818201F
:104BE00002F0D0F8002002F0CDF8A42002F0CAF8BC
:104BF000002002F0C7F8182002F0C4F8002002F0EC
:104C0000C1F8502002F0BEF8002002F0BBF80C20E2
:104C100002F0B8F8002002F0B5F8172002F0B2F860
:104C2000002002F0AFF8952002F0ACF8002002F06E
:104C3000A9F8F32002F0A6F8002002F0A3F8E6207D
:104C400002F0A0F8002002F09DF8C52002F0A6F8BE
:104C5000322002F097F8002002F094F8442002F08D
:104C600091F8002002F08EF8652002F08BF8002009
:104C700002F088F8762002F085F8002002F082F831
:104C8000882002F07FF8002002F07CF8C62002F0B5
:104C900085F8202002F076F8002002F073F8172043
:104CA00002F070F8002002F06DF8012002F06AF8BE
:104CB000002002F067F8C72002F070F8002002F030
:104CC00061F8002002F05EF8002002F05BF800209E
:104CD00002F058F8C82002F061F8002002F052F803
:104CE000002002F04FF8002002F04CF8002002F003
:104CF00049F8C92002F052F8002002F043F80020E1
:104D000002F040F8002002F03DF8002002F03AF8EE
:104D1000002002F037F8002002F034F8002002F002
:104D200031F8002002F02EF8002002F02BF80020CD
:104D300002F028F8002002F025F8002002F022F806
:104D4000002002F01FF8002002F01CF8002002F002
:104D500019F8002002F016F8E02002F01FF81620E3
:104D600002F010F8002002F00DF81C2002F00AF802
:104D7000002002F007F8212002F004F8002002F0E1
:104D800001F8362001F0FEFF002001F0FBFF462075
:104D900001F0F8FF002001F0F5FF522001F0F2FFD2
:104DA000002001F0EFFF642001F0ECFF002001F093
:104DB000E9FF7A2001F0E6FF002001F0E3FF8B20FD
:104DC00001F0E0FF002001F0DDFF992001F0DAFFA3
:104DD000002001F0D7FFA82001F0D4FF002001F04F
:104DE000D1FFB92001F0CEFF002001F0CBFFC4209D
:104DF00001F0C8FF002001F0C5FFCA2001F0C2FF8A
:104E0000002001F0BFFFD22001F0BCFF002001F024
:104E1000B9FFD92001F0B6FF002001F0B3FFE02078
:104E200001F0B0FF002001F0ADFFF32001F0AAFF78
:104E3000002001F0A7FFE12001F0B0FF162001F0F3
:104E4000A1FF002001F09EFF1C2001F09BFF00202D
:104E500001F098FF222001F095FF002001F092FF61
:104E6000362001F08FFF002001F08CFF452001F07B
:104E700089FF002001F086FF522001F083FF00200F
:104E800001F080FF642001F07DFF002001F07AFF37
:104E90007A2001F077FF002001F074FF8B2001F0F1
:104EA00071FF002001F06EFF992001F06BFF0020E0
:104EB00001F068FFA82001F065FF002001F062FF0B
:104EC000B92001F05FFF002001F05CFFC42001F079
:104ED00059FF002001F056FFCA2001F053FF0020C7
:104EE00001F050FFD22001F04DFF002001F04AFFF9
:104EF000D82001F047FF002001F044FFE02001F03E
:104F000041FF002001F03EFFF32001F03BFF0020B5
:104F100001F038FFE22001F041FF052001F032FFEF
:104F2000002001F02FFF0B2001F02CFF002001F0EA
:104F300029FF1B2001F026FF002001F023FF342071
:104F400001F020FF002001F01DFF442001F01AFFB6
:104F5000002001F017FF4F2001F014FF002001F0A6
:104F600011FF612001F00EFF002001F00BFF7920FE
:104F700001F008FF002001F005FF882001F002FF8A
:104F8000002001F0FFFE972001F0FCFE002001F060
:104F9000F9FEA62001F0F6FE002001F0F3FEB72096
:104FA00001F0F0FE002001F0EDFEC22001F0EAFE6B
:104FB000002001F0E7FEC72001F0E4FE002001F030
:104FC000E1FED12001F0DEFE002001F0DBFED62064
:104FD00001F0D8FE002001F0D5FEDD2001F0D2FE68
:104FE000002001F0CFFEF32001F0CCFE002001F004
:104FF000C9FEE32001F0D2FE052001F0C3FE00202F
:1050000001F0C0FE0A2001F0BDFE002001F0BAFE52
:105010001C2001F0B7FE002001F0B4FE332001F0A7
:10502000B1FE002001F0AEFE442001F0ABFE0020F6
:1050300001F0A8FE502001F0A5FE002001F0A2FE24
:10504000622001F09FFE002001F09CFE782001F01C
:1050500099FE002001F096FE882001F093FE0020CA
:1050600001F090FE972001F08DFE002001F08AFEF5
:10507000A62001F087FE002001F084FEB72001F099
:1050800081FE002001F07EFEC22001F07BFE0020A8
:1050900001F078FEC72001F075FE002001F072FEDD
:1050A000D12001F06FFE002001F06CFED52001F050
:1050B00069FE002001F066FEDD2001F063FE0020A5
:1050C00001F060FEF32001F05DFE002001F05AFEC9
:1050D000E42001F063FE012001F054FE002001F005
:1050E00051FE012001F04EFE002001F04BFE022097
:1050F00001F048FE002001F045FE2A2001F042FEAA
:10510000002001F03FFE3C2001F03CFE002001F0B9
:1051100039FE4B2001F036FE002001F033FE5D2009
:1051200001F030FE002001F02DFE742001F02AFE77
:10513000002001F027FE842001F024FE002001F071
:1051400021FE932001F01EFE002001F01BFEA22094
:1051500001F018FE002001F015FEB32001F012FE50
:10516000002001F00FFEBE2001F00CFE002001F037
:1051700009FEC42001F006FE002001F003FECD2050
:1051800001F000FE002001F0FDFDD32001F0FAFD4A
:10519000002001F0F7FDDD2001F0F4FD002001F01A
:1051A000F1FDF32001F0EEFD002001F0EBFDE52024
:1051B00001F0F4FD002001F0E5FD002001F0E2FD2A
:1051C000002001F0DFFD002001F0DCFD022001F0F5
:1051D000D9FD002001F0D6FD292001F0D3FD0020EB
:1051E00001F0D0FD3C2001F0CDFD002001F0CAFD12
:1051F0004B2001F0C7FD002001F0C4FD5D2001F04F
:10520000C1FD002001F0BEFD742001F0BBFD0020B7
:1052100001F0B8FD842001F0B5FD002001F0B2FDE1
:10522000932001F0AFFD002001F0ACFDA22001F0C1
:10523000A9FD002001F0A6FDB32001F0A3FD002090
:1052400001F0A0FDBE2001F09DFD002001F09AFDBF
:10525000C42001F097FD002001F094FDCD2001F065
:1052600091FD002001F08EFDD32001F08BFD002088
:1052700001F088FDDC2001F085FD002001F082FDB9
:10528000F32001F07FFD002001F07CFDE62001F01D
:1052900085FD112001F076FD002001F073FD342022
:1052A00001F070FD002001F06DFD562001F06AFD57
:1052B000002001F067FD762001F064FD002001F080
:1052C00061FD772001F05EFD002001F05BFD6620AE
:1052D00001F058FD002001F055FD882001F052FD3D
:1052E000002001F04FFD992001F04CFD002001F05D
:1052F00049FDBB2001F046FD002001F043FD99204F
:1053000001F040FD002001F03DFD662001F03AFD76
:10531000002001F037FD552001F034FD002001F0A0
:1053200031FD552001F02EFD002001F02BFD452020
:1053300001F028FD002001F025FD432001F022FDB1
:10534000002001F01FFD442001F01CFD002001F0B1
:1053500019FDE72001F022FD322001F013FD0020AD
:1053600001F010FD552001F00DFD002001F00AFDB7
:10537000762001F007FD002001F004FD662001F019
:1053800001FD002001F0FEFC672001F0FBFC002085
:1053900001F0F8FC672001F0F5FC002001F0F2FCC0
:1053A000872001F0EFFC002001F0ECFC992001F0D7
:1053B000E9FC002001F0E6FCBB2001F0E3FC00204A
:1053C00001F0E0FC992001F0DDFC002001F0DAFCA6
:1053D000772001F0D7FC002001F0D4FC442001F03C
:1053E000D1FC002001F0CEFC562001F0CBFC0020C7
:1053F00001F0C8FC232001F0C5FC002001F0C2FC34
:10540000332001F0BFFC002001F0BCFC452001F07E
:10541000B9FC002001F0B6FCE82001F0BFFC002040
:1054200001F0B0FC002001F0ADFC992001F0AAFCD5
:10543000002001F0A7FC872001F0A4FC002001F06F
:10544000A1FC882001F09EFC002001F09BFC77204D
:1054500001F098FC002001F095FC662001F092FC20
:10546000002001F08FFC882001F08CFC002001F06E
:1054700089FCAA2001F086FC002001F083FCBB20FF
:1054800001F080FC002001F07DFC992001F07AFC05
:10549000002001F077FC662001F074FC002001F090
:1054A00071FC552001F06EFC002001F06BFC5520D2
:1054B00001F068FC002001F065FC442001F062FC72
:1054C000002001F05FFC442001F05CFC002001F0B2
:1054D00059FC552001F056FC002001F053FCE92056
:1054E00001F05CFCAA2001F04DFC002001F04AFC18
:1054F000002001F047FC002001F044FC002001F0F6
:105500004DFCAA2001F03EFCCF2001F047FC00201A
:1055100001F038FC002001F035FC002001F032FCE5
:10552000002001F02FFC002001F02CFC002001F0F5
:1055300029FC002001F026FC002001F023FC0020C3
:1055400001F020FC002001F01DFC002001F01AFCFD
:10555000002001F017FC002001F014FC002001F0F5
:1055600011FC002001F00EFC002001F00BFC0020DB
:1055700001F008FCF02001F011FC002001F002FC19
:10558000502001F0FFFB002001F0FCFB002001F0A7
:10559000F9FB002001F0F6FBF32001F0FFFB0020F7
:1055A00001F0F0FBF92001F0F9FB062001F0EAFB25
:1055B000102001F0E7FB292001F0E4FB002001F0BE
:1055C000E1FB3A2001F0EAFB552001F0DBFB112062
:1055D00001F0E4FB642008F0EDF8292001F0DEFB87
:1055E000352001F0DBFB002001F0CCFB512001F065
:1055F000D5FBFF2001F0C6FB532001F0CFFB2C2090
:1056000001F0C0FB552001F0C9FB822001F0BAFB7C
:105610002C2001F0C3FB01F048B8FE48808845F219
:10562000105188427ED155214FF4704001F0CCFBDF
:10563000AA214FF2010001F0C7FB52214FF20200F4
:1056400001F0C2FB08214FF2030001F0BDFB012174
:105650004FF2040001F0B8FB0D214FF4304001F08F
:10566000B3FB0D214BF2010001F0AEFB0D214BF21B
:10567000020001F0A9FB34214FF4364001F0A4FBF5
:1056800034214BF2016001F09FFB34214BF20260A8
:1056900001F09AFB0D214FF4314001F095FB0D21F3
:1056A0004BF2011001F090FB0D214BF2021001F0C2
:1056B0008BFB34214FF4374001F086FB34214BF251
:1056C000017001F081FB34214BF2027001F07CFB90
:1056D00000214FF4324001F077FB00214BF2012012
:1056E00001F072FB00214BF2022001F06DFB24213E
:1056F0004FF4384001F068FB24214BF6010001F023
:1057000063FB24214BF6020001F05EFB01214FF404
:105710003F4001F059FB0F214FF4334001F054FB9F
:105720000F2100E0FEE34BF2013001F04DFB0F21B1
:105730004BF2023001F048FB34214FF4394001F0C4
:1057400043FB34214BF6011001F03EFB34214BF6B4
:10575000021001F039FB08214FF4354001F034FB11
:1057600008214BF2015001F02FFB08214BF20250AF
:1057700001F02AFB03214FF4424001F025FB2421D4
:105780004FF43A4001F020FB24214BF6012001F0B8
:105790001BFB24214BF6022001F016FB00214FF4E5
:1057A0003C4001F011FB78214BF6014001F00CFB6D
:1057B00000214BF6024001F007FB00214FF43D4071
:1057C00001F002FB78214BF6015001F0FDFA0021B7
:1057D0004BF6025001F0F8FA00214FF43E4001F080
:1057E000F3FA64214BF6016001F0EEFA00214FF468
:1057F000514001F0E9FA33214DF2011001F0E4FAD1
:1058000000214DF2021001F0DFFA34214DF20310B5
:1058100001F0DAFA00214DF2041001F0D5FA3A2134
:105820004DF2051001F0D0FA00214DF2061001F002
:10583000CBFA4A214DF2071001F0C6FA00214DF2D1
:10584000081001F0C1FA5C214DF2091001F0BCFA18
:1058500000214DF20A1001F0B7FA81214DF20B1030
:1058600001F0B2FA00214DF20C1001F0ADFAA621C0
:105870004DF20D1001F0A8FA00214DF20E1001F0CA
:10588000A3FAE5214DF20F1001F09EFA01214DF22D
:10589000101001F099FA13214DF2111001F094FA51
:1058A00001214DF2121001F08FFA54214DF2131024
:1058B00001F08AFA01214DF2141001F085FA8221DB
:1058C0004DF2151001F080FA01214DF2161001F091
:1058D0007BFACA214DF2171001F076FA02214DF23F
:1058E000181001F071FA00214DF2191001F06CFA54
:1058F00002214DF21A1001F067FA01214DF21B103E
:1059000001F062FA02214DF21C1001F05DFA34211F
:105910004DF21D1001F058FA02214DF21E1001F057
:1059200053FA67214DF21F1001F04EFA02214DF299
:10593000201001F049FA84214DF2211001F044FABF
:1059400002214DF2221001F03FFAA4214DF2231062
:1059500001F03AFA02214DF2241001F035FAB72194
:105960004DF2251001F030FA02214DF2261001F01F
:105970002BFACF214DF2271001F026FA02214DF229
:10598000281001F021FADE214DF2291001F01CFA55
:1059900002214DF22A1001F017FAF2214DF22B10DC
:1059A00001F012FA02214DF22C1001F00DFAFE2145
:1059B0004DF22D1001F008FA03214DF22E1001F0E6
:1059C00003FA10214DF22F1001F0FEF903214DF2E0
:1059D000301001F0F9F933214DF2311001F0F4F9F2
:1059E00003214DF2321001F0EFF96D214DF2331029
:1059F00001F0EAF900214FF4524001F0E5F93321BA
:105A00004DF2012001F0E0F900214DF2022001F0F9
:105A1000DBF901E0880A002034214DF2032001F077
:105A2000D3F900214DF2042001F0CEF93A214DF2D4
:105A3000052001F0C9F900214DF2062001F0C4F95A
:105A40004A214DF2072001F0BFF900214DF2082054
:105A500001F0BAF95C214DF2092001F0B5F90021FD
:105A60004DF20A2001F0B0F981214DF20B2001F036
:105A7000ABF900214DF20C2001F0A6F9A6214DF260
:105A80000D2001F0A1F900214DF20E2001F09CF94A
:105A9000E5214DF20F2001F097F901214DF2102080
:105AA00001F092F913214DF2112001F08DF901213D
:105AB0004DF2122001F088F954214DF2132001F02B
:105AC00083F901214DF2142001F07EF982214DF27B
:105AD000152001F079F901214DF2162001F074F939
