:020000040800F2
:1000000018C502206D02000869700008F33300086B
:10001000B766000849080008E182000800000000F7
:10002000000000000000000000000000EF7B00085E
:100030004B080008000000008B700008097F0008D2
:10004000870200088702000887020008870200086C
:10005000870200088702000887020008870200085C
:10006000870200088702000887020008870200084C
:10007000870200088702000887020008870200083C
:10008000870200088702000887020008870200082C
:10009000870200088702000887020008870200081C
:1000A000870200088702000887020008870200080C
:1000B00087020008870200088702000887020008FC
:1000C00087020008870200088702000887020008EC
:1000D000870200087582000887020008870200086E
:1000E00087020008870200088702000887020008CC
:1000F00087020008870200088702000887020008BC
:1001000087020008870200088702000887020008AB
:10011000870200088702000887020008870200089B
:10012000870200088702000887020008870200088B
:10013000870200088702000887020008870200087B
:10014000870200088702000887020008870200086B
:10015000870200088702000887020008870200085B
:10016000870200088702000887020008870200084B
:1001700087020008870200088702000800000000CC
:10018000870200088702000887020008870200082B
:10019000870200088702000887020008870200081B
:1001A00087020008870200088702000800F002F8B2
:1001B00000F044F80AA090E8000C82448344AAF1BD
:1001C0000107DA4501D100F039F8AFF2090EBAE8BB
:1001D0000F0013F0010F18BFFB1A43F0010318477B
:1001E00054E5000074E50000103A24BF78C878C1D7
:1001F000FAD8520724BF30C830C144BF04680C602D
:10020000704700000023002400250026103A28BF74
:1002100078C1FBD8520728BF30C148BF0B60704778
:10022000642900F0FB80782900F0348100207047B9
:100230001FB50BF04FF81FBD10B510BD00F0D2FA7E
:100240001146FFF7F5FF0AF09FF800F0F0FA03B44B
:10025000FFF7F2FF03BC08F0DDF9000030BF72B613
:10026000704762B6704780F3088870470948804736
:1002700009480047FEE7FEE7FEE7FEE7FEE7FEE788
:10028000FEE7FEE7FEE7FEE704480549054A064BA0
:10029000704700000D7F0008AD01000818BF022064
:1002A00018C5022018C1022018C10220704753EA65
:1002B000020C00F069802DE9F04B4FF00006002B96
:1002C0001FBFB3FA83F503FA05F424FA05F65E407E
:1002D00012BF1643B2FA82F502FA05F4C5F1200501
:1002E0001EBF22FA05FC44EA0C04203556EA044CF1
:1002F0004FEA144418BF641C4FF000084FF0000987
:10030000904271EB030C39D3002919BFB1FA81F780
:1003100001FA07F6B0FA80F700FA07F6C7F12007EE
:100320001EBF20FA07FC46EA0C062037B6FBF4FC99
:10033000A7EB0507103F07F01F0BCBF120060CFAC7
:100340000BFB2CFA06F644BFB3460026202FA4BFB1
:100350005E464FF0000B5BEA060C08BF4FF0010B46
:1003600019EB0B09ABFB027C48EB0608C01B06FB34
:1003700002CC0BFB03CC71EB0C01C1E70B46024630
:1003800041464846BDE8F08B13B54FF000004FF0F2
:100390000001AFF30080BDE81C4070470FB4044972
:1003A00010B503AA029800F0EFF910BC5DF814FB39
:1003B000200000202DE9F0410E4604460020206276
:1003C0002046E168884730B3252805D0D4E90121CB
:1003D0009047206A401CF2E7E168204600278847E2
:1003E000050018D0A5F14100192802D820354FF496
:1003F00000673246294620462760FFF711FF40B1CB
:10040000012804D0F61D26F007060836D8E7361D69
:10041000D6E72846DAE7206ABDE8F0812DE9F04109
:100420000646002410687529314616A510D0AFF392
:100430000080002802DA404213A507E031688A07ED
:1004400001D512A502E0490704D511A5012401E058
:10045000AFF3008000210A2206F1240709E0B0FB77
:10046000F2FCB0FBF2F302FB1C003030785418466B
:10047000491C0028F3D123462A463046BDE8F04106
:1004800000F028B9000000002D0000002B00000043
:100490002000000070B504460D4621461068AFF3F9
:1004A00000802188090502D50F4A7A4402E00E4AED
:1004B0007A440E32002104F1240305E000F00F0617
:1004C0000009965D5E54491C0028F7D1207800236E
:1004D000000704D5702D02D009B102231132204645
:1004E000BDE8704000F0F6B80AE2000040EA0103FF
:1004F000024630B59B0710D14FF0013400E008C22E
:1005000008C91D1B9D4315EAC41FF8D013F0FF0155
:1005100002F8011B0DD01B0AF8E711F8013B002B74
:1005200002F8013B05D011F8013B002B02F8013B1A
:10053000F3D130BD421E12F8013F002BFBD111F860
:10054000013B002B02F8013BF9D17047032A40F22E
:10055000308010F0030C00F0158011F8013BBCF165
:10056000020F624498BF11F801CB00F8013B38BF7D
:1005700011F8013BA2F1040298BF00F801CB38BF8B
:1005800000F8013B11F0030300F02580083AC0F0A9
:10059000088051F8043B083A51F804CBA0E8081051
:1005A000F5E7121D5CBF51F8043B40F8043BAFF384
:1005B0000080D20724BF11F8013B11F801CB48BFDE
:1005C00011F8012B24BF00F8013B00F801CB48BF14
:1005D00000F8012B704710B5203AC0F00B80B1E84D
:1005E0001850203AA0E81850B1E81850A0E8185068
:1005F000BFF4F5AF5FEA027C24BFB1E81850A0E871
:10060000185044BF18C918C0BDE810405FEA827C8A
:1006100024BF51F8043B40F8043B08BF7047D207A1
:1006200028BF31F8023B48BF11F8012B28BF20F842
:10063000023B48BF00F8012B70474FF0000204292D
:10064000C0F0128010F0030C00F01B80CCF1040C01
:10065000BCF1020F18BF00F8012BA8BF20F8022B35
:10066000A1EB0C0100F00DB85FEAC17C24BF00F8DB
:10067000012B00F8012B48BF00F8012B70474FF009
:10068000000200B5134694469646203922BFA0E8E2
:100690000C50A0E80C50B1F12001BFF4F7AF0907EE
:1006A00028BFA0E80C5048BF0CC05DF804EB8900DF
:1006B00028BF40F8042B08BF704748BF20F8022B22
:1006C00011F0804F18BF00F8012B7047704770473A
:1006D000704770472DE9F0470D469946924604460B
:1006E00000F124080168880604D5E06921F01001B2
:1006F000216000E00120A84201DD471B00E0002747
:10070000A1697A1902EB0900081AA0612078C006D5
:1007100002D42046AFF30080002608E0D4E901218E
:100720001AF806009047206A401C761C20624E454D
:10073000F4DB2078C0060AD52046AFF3008006E03F
:10074000D4E9012130209047206A401C2062381EE5
:10075000A7F10107F4DC07E0D4E9012118F805004E
:100760009047206A401C2062281EA5F10105F3DC99
:100770002046AFF300802078000602D50220BDE8B5
:10078000F0870120FBE70000074B70B50D467B4466
:1007900000F011F80446284600F020F810B14FF0A0
:1007A000FF3070BD204670BDEF97000001694A1C04
:1007B00002610878704700B58FB0CDE901310021A2
:1007C000059105497944CDE9031011466846FFF7C4
:1007D000F1FD0FB000BD0000E5FFFFFF007B00F062
:1007E00080007047754600F02BF8AE46050069465C
:1007F000534620F00700854618B020B5FFF744FDAA
:10080000BDE820404FF000064FF000074FF0000811
:100810004FF0000B21F00701AC46ACE8C009ACE892
:10082000C009ACE8C009ACE8C0098D46704710B5F6
:100830000446AFF300802046BDE81040FFF707BD37
:1008400000487047B4BE0220FEE77047102A0FD060
:10085000C26AD1E9002342EA03220B89097B4FEAED
:10086000034343EA016142EA010203D1C26002E0AC
:10087000C268EEE7C2624FF000007047102A0FD046
:10088000826AD1E9002342EA03220B89097B4FEAFD
:10089000034343EA016142EA010203D1826002E0BC
:1008A0008268EEE782624FF00000704730B50A6858
:1008B000102A1AD0026A104B02EA0302D1E901346D
:1008C00043EA0403D1E9034544EA050443EA040387
:1008D0004C69896943EA442343EA413141EA020110
:1008E00041F0080103D1016002E00268E3E7016220
:1008F0004FF0000030BD00008101F0FF70B5B3F58E
:10090000804F05D06FF0704140F82210002070BD7C
:1009100050F82230084C2340D1E9004544EA051440
:100920008D688E892D0245EA064589692C430C4362
:100930001C4340F82240E9E70000F0CFF0B50C6816
:1009400050F82450194A1540D1E90123D1E9036731
:100950001A433E4332434E6932438E693243CE6975
:1009600032430E6A32434E6A32438E6A3243CE6A53
:100970003243CE6B32430E6B32434E6B32432A43CB
:10098000082B01D142F0400240F824204A6BB2F516
:10099000801F08D10A6832B14FF480720A6104499D
:1009A0000268114301600020F0BD00008000E0FFFC
:1009B00000011000F0B500EB820253688E8903F04D
:1009C0004044D1E9003543EA05138D682D0245EA1C
:1009D00006452B430E8A0D4D05EB065633430E7D1F
:1009E0006F0107EB066633438E693343234353603D
:1009F0000268D20207D54268098A22F4700205EB28
:100A00000151114341600020F0BD00000000F0FFE3
:100A100030B5D1E901231A43D1E9033423431A4302
:100A20004B690D681A438B691A43D1E90734012DCC
:100A3000496A05686FF30E0505D01A4322430A433D
:100A40002A43026008E0234329430B4341680360C3
:100A50006FF30E010A434260002030BD426942EA52
:100A60004101416100207047F8B514460546D1E9BF
:100A7000000210438A686FF01F03C96803EB42123B
:100A800042EA412108430090286100F059FD0646E2
:100A900009E0601C07D024B100F052FD801BA04289
:100AA00001D90320F8BDA8698006F2D40020F8BD62
:100AB000F0B56FF00F05D1E9003405EB04145B1EAF
:100AC0002E0123438C682F0306EB04244FEA054CC8
:100AD00023430D8A8E8ACC68097E4FF07F4E07EB48
:100AE00005450CEB06560EEB0161012A0CD082681D
:100AF0003F1107EB043423432B43334302F070428E
:100B00000B43134383600FE0C2682B430B4302F097
:100B100070428168134301F070422103A1F58051B6
:100B200031431143C36081600020F0BD38B50446F5
:100B3000094D4FF0AA300090A879042360436A461B
:100B4000002106F081FAA879042360436A46002157
:100B5000401C06F079FA38BD201600202DE9FC472C
:100B6000254F89460646002500240DF1040810E0B3
:100B7000CDF80080798870438B084A46002106F042
:100B8000FBF87888BDF80410B1EB900F04D1641C19
:100B9000A4B2B879A042EBD8B879A04202D1002023
:100BA000BDE8FC87304605F007FF20B1294613A0B9
:100BB000FFF7F4FB16E0B9F1FF3F13D000200AE085
:100BC0007A8806FB001093080022114606F012FAFC
:100BD000BDF80400401CADF80400B879BDF804105D
:100BE0008842EDD86D1CADB2032DBDD3314609A0AE
:100BF000FFF7D4FB0120D3E7201600206572726F47
:100C00007220657261736520626C6F636B3A256454
:100C10000D0A000062616420626C6F636B20636880
:100C200065636B65643A25640D0A000038B50446B7
:100C3000104D00208DF80000A879012360436A461A
:100C4000002106F0CDF89DF80000FF2801D0022019
:100C500038BDA879012360436A460021401C06F094
:100C6000BFF89DF80000FF2801D0012038BD00200A
:100C700038BD0000201600202DE9F84F91462F4A7C
:100C80008A461D469179B0FBF1F3B0FBF1F801FB08
:100C9000130B404600F0B8F8284907464889B84287
:100CA00002D20120BDE8F88F002428E05C4516D36D
:100CB000ADB14A88A2EB0A01A94201D28EB200E08E
:100CC000AEB207FB004108FB00404B46524600967F
:100CD00005F0F2FC4FF0000AB144AD1B05E007FB44
:100CE000004108FB004005F0BBFD30B13846FFF77E
:100CF0001DFF012000F024F8CBE7641CA4B20F49CB
:100D00008879A042D2D80D46A879A04214D138469D
:100D100000F028FA404605F04FFE00206A89696914
:100D200008E031F81040444502D121F8107003E08A
:100D3000401C80B28242F4D80020B3E72016002085
:100D4000F8B506460021294D4FF6FF7003E06A69A9
:100D500022F81100491C6A898A42F8D80020A8812B
:100D600004461CE0A879042360436A46002106F08B
:100D700037F89DF80000FF280CD1B6B1A8790123FF
:100D800060436A460021401C06F02AF89DF80000E6
:100D9000FF280AD0214616A0FFF700FB641C6989D2
:100DA000A142DFD800206A6916E09DF802009DF894
:100DB000031000EB01206989814202D9696921F899
:100DC0001040A889401CA881E8E732F810308B4217
:100DD00001D3E88102E0401C8142F6D8E88964280A
:100DE00001D20220F8BD0020F8BD0000201600202E
:100DF00062616420626C6F636B20696E6465783A2F
:100E000025640D0A0000000070B5104E104C718969
:100E10002268491E914200D2216000F00105294656
:100E2000206800F017F8411C0AD170892168401E23
:100E3000884207D92946206000F00CF8411C01D0F7
:100E4000206070BD4FF0FF3070BD00002016002004
:100E50003C000020F8B50D460021401C0091040024
:100E600012D00C4F012626EA0400A8420AD1B87914
:100E7000611E484304236A46002105F0B1FF009833
:100E8000401C04D0641EEED14FF0FF30F8BD601E50
:100E9000F8BD000020160020F8B5254E00273C467E
:100EA000B78113E02046FFF7C1FE70B9204605F078
:100EB00083FD38B121461FA0FFF770FA2046FFF7E7
:100EC00035FE02E0B089401CB081641C7089A042EC
:100ED000E8D8B1891BA0FFF761FAB089642801D274
:100EE0000120F8BDC0EB4010642100EB4000B0FBD6
:100EF000F1F50024009710E02046FFF797FE58B95F
:100F0000B079022360436A46194606F09DF80098BE
:100F1000401C0090A84203D0641C7089A042EBD80A
:100F20000120FFF70DFF0028DBD00220F8BD0000F4
:100F30002016002042616420626C6F636B3A256466
:100F40000D0A0000676F6F645F626C6F636B6E7594
:100F50006D3A25640D0A000010B505F059FD00BB7F
:100F6000184C616911B1002009F018FC608941003A
:100F7000002009F01FFC606161894900FFF75DFBFB
:100F8000606970B10120FFF7DBFE60B10EA0FFF7D2
:100F900005FAFFF781FF90B111A0FFF7FFF90220DA
:100FA00010BD012010BD618912A0FFF7F7F9A189DA
:100FB00016A0FFF7F3F9E18919A0FFF7EFF9002078
:100FC00010BD000020160020666F726D6174206EE7
:100FD000616E6420666C6173682E2E2E0D0A00000F
:100FE000666F726D6174206661696C6564210D0ABB
:100FF00000000000746F74616C20626C6F636B2082
:101000006E756D3A25640D0A00000000676F6F640D
:1010100020626C6F636B206E756D3A25640D0A005B
:1010200076616C696420626C6F636B206E756D3ADB
:1010300025640D0A000000000549CA89824202D2D7
:101040004FF6FF707047496931F810007047000093
:10105000201600202DE9FF5F9B461546824600269C
:1010600079E03F4C6088B0FBF5F1A07941430198ED
:101070008319B3FBF1F0FFF7DFFF6189814203D8E9
:10108000012004B0BDE8F09F354C6188A479B1FB24
:10109000F5F26243B3FBF2F702FB17326A43B2FB8D
:1010A000F1F300FB0437B2FBF1F001FB1028A1EBD8
:1010B0000800B0FBF5F084B2ABEB0600A04200D212
:1010C00084B204FB05F91FFA89F31FFA88F152462E
:1010D000384605F033FD032809D11FFA89F31FFABA
:1010E00088F15246384605F029FD032804D004282B
:1010F0002ED068B30220C4E74B461FFA88F152464F
:101100003846FFF7B9FDDFF858804FF0FF3198F807
:101110000600B7FBF0F0FFF721FD80B998F8060054
:101120000021B7FBF0F0FFF719FD814698F80600A3
:10113000B7FBF0F005F040FCB9F1000F08D098F8CB
:101140000600B7FBF0F0FFF7F1FC0120FFF7F8FD18
:1011500005FB04AA26445E4583D3002091E70000E6
:101160002016002008B5CC218DF800100449012379
:101170006A4689794843194605F066FF08BD0000B4
:10118000201600202DE9FF4F85B0154600274FF0AF
:10119000FF3B7BE0404C6088A179B0FBF5F0484311
:1011A0000699CB19B3FBF0F0FFF746FF6189804643
:1011B000414503D8012009B0BDE8F08F364A508878
:1011C0009279B0FBF5F15143B3FBF1F401FB14311B
:1011D00001FB05FABAFBF0F308FB0231BAFBF0F2AF
:1011E00000FB12A9A0EB090080B2B0FBF5F0029160
:1011F0000899ADF80400C91B8CB20391844200D356
:10120000044601A804FB05F600901FFA89F1C6F315
:101210008F034FF0FF32029805F0AEFD08B10220B7
:10122000C9E7BDF80400B0EB960F0FD1B3B21FFAB7
:1012300089F1059A029805F031FE38B94146C34557
:1012400020D00846FFF78EFFC346D8B112488179F7
:1012500040884143A1EB0A00B0FBF5F0039980B24E
:101260008CB2ADF80400844200D3044604FB05F6BA
:101270001FFA89F13346059A0298FFF7FDFC08B181
:10128000032098E705982744304405900898874242
:1012900080D300208FE700002016002030B40C46D9
:1012A0000146500700D0012000EBD20010FB02F0F5
:1012B000C2B208784B78812809D3402B07D3FF2B83
:1012C00005D0FF2803D07F2B0CD2403B0BE000233E
:1012D000184603E05B1C04F8010BDBB29342F9D320
:1012E00030BC7047413B8138D9B2C0B2C0EB40132B
:1012F00003EB801001EB400004495043D1F8091082
:101300000144204630BC07F057B8000098BE0220C8
:101310000B46510700D0012101EBD20111FB02F174
:10132000CAB2018803485143D0F81100014418465D
:1013300007F042B898BE022031B500F001F904462A
:1013400000F0FEF80099001B8842F9D338BD000078
:101350002DE9F84FDFF8A091002209F1040A0AF103
:10136000040B4FF00F080BF1040E01260B6896409A
:101370003340B34271D14C68022C01D0122C11D1F0
:10138000D40800EB84073D6A5407E40E08FA04FC15
:1013900025EA0C05D1F810C00CFA04FC4CEA050C47
:1013A000C7F820C007685400032591F804C0A54081
:1013B0000CF0030CAF430CFA04FC4CEA070CC0F829
:1013C00000C04F68012F05D0022F03D0112F01D08C
:1013D000122F11D18768D1F80CC0AF430CFA04FC6E
:1013E0004CEA070CC0F808C04768B7430E79C6F34B
:1013F000001696403E434660C668AE438D68A540E1
:101400003543C5604C68E4006FD53C4C256845F415
:1014100080452560246822F0030504F4804400948C
:10142000374C2E19D6F808789407250F08FA05F4DA
:10143000A743344CA04201D100242EE0324CA042FC
:1014400001D1012429E0314CA04201D1022424E041
:101450002F4CA04202D103241FE046E02D4CA042B5
:1014600001D1042419E02C4CA04201D1052414E040
:101470002A4CA04201D106240FE0294CA04201D100
:1014800007240AE0274CA04201D1082405E0264C9D
:10149000A04201D1092400E00A24AC403C43C6F834
:1014A0000848D9F800404D464E689C43F60300D5E5
:1014B0001C432C60DAF8004055464E689C43B60346
:1014C00000D51C432C60DBF800405D464E689C4311
:1014D000F60200D51C432C60DEF8004075464E68CD
:1014E0009C43B60200D51C432C60521C102AFFF40A
:1014F0003CAFBDE8F88F0000003C0140443802409A
:101500000030014000000240000402400008024098
:10151000000C02400010024000140240001802407B
:10152000001C0240002002400024024000690840E4
:1015300000D0012070470AB1816170470904FBE7C0
:10154000014800687047000014000020024801684C
:10155000491C016070470000140000200B4810B5C2
:10156000016841F400710160016841F4806101602B
:10157000016841F480710160052000F049FA0F20F4
:1015800000F006F800F08AF9002010BD003C02408F
:1015900010B5044600F0EAFC4FF47A71B0FBF1F0AC
:1015A00001F0B8FD00222146501E00F011FA002083
:1015B00010BD2DE9F041044690F8A00015460F46F5
:1015C00001281DD0012684F8A060022084F8A10023
:1015D00005EB850000EBC50004EB800034223830B9
:1015E000FEF7F9FF2A463946204604F0B3FF20688B
:1015F000466284F8A160002084F8A000BDE8F08174
:101600000220FBE770B5040004D094F8A100002587
:1016100010B106E0012070BD84F8A050204600F013
:101620006FF8022084F8A1002068816921F07041E0
:101630008161D4E901100143D4E90302104301435D
:101640002068826911438161206882682B490A40C1
:101650008260A08A020420688368A669334313432A
:1016600083602068C2680A40C260A08B02042068C0
:10167000C368266A33431343C360206802690A4083
:101680000261A08C020420680369A66A33431343F5
:101690000361206842690A404261A08D010420680C
:1016A0004269236B1A430A43426194F835000202EF
:1016B00094F8360001042068C36A03F07F43C362D4
:1016C0002068C36A94F83460114333430B43C36208
:1016D0002068416B41F0040141632068416B41F097
:1016E000020141632068816941F001018161C4F810
:1016F000A450012084F8A100002070BD00F800F083
:1017000030B5364887B00025016841F0806101603E
:10171000006800F08060059030481438016841F49A
:1017200000010160016801F400010591016841F0C8
:1017300002010160016801F002010591016841F0B8
:1017400020010160016801F020010591016841F06C
:1017500040010160016801F040010591016841F01C
:1017600080010160016801F080010591016841F488
:10177000807101600068032400F4807005902020CF
:1017800000900120CDE90204019069461448FFF75A
:10179000DFFD4FF4806000900220CDE901050E20AE
:1017A000CDE9034069460F48FFF7D2FD4FF40C60C6
:1017B000009069460C48FFF7CBFD4FF47E40009047
:1017C00069460A48FFF7C4FD40F2F7600090694699
:1017D0000748FFF7BDFD07B030BD000044380240A8
:1017E000000402400014024000180240001C0240A5
:1017F0000020024070B5044690F8A0000E46012873
:1018000020D0012584F8A050022084F8A10003EB29
:10181000830000EBC30004EB800141F8386F886A55
:101820003044C1E90102C86A1044C8601A46204623
:1018300004F090FE2068456284F8A150002084F8EE
:10184000A00070BD022070BD2DE9F041044690F863
:10185000A0000F4601281FD0012584F8A0500220C7
:1018600084F8A10003EB830000EBC30004EB8001CC
:101870000026E1E90E672046C1E90262C1E90A7269
:101880001A4604F067FE2068456284F8A15084F887
:10189000A0600020BDE8F0810220FBE708B5002031
:1018A000009008BD70B515460E46040003D094F8AC
:1018B000210010B107E0012070BD002084F8200055
:1018C000204600F021F8211D2068FEF7EFFFD4E943
:1018D00000023146FEF7D2FFD4E900022946FEF7A6
:1018E000B5FF60681028206808D0016A41F0040143
:1018F0000162012084F82100002070BD016841F0E0
:1019000004010160F5E7000070B5274886B00024A7
:10191000016841F001010160006800F001000590DC
:1019200021480838016841F008010160016801F0B0
:1019300008010591016841F010010160016801F0A2
:1019400010010591016841F0400101600068032524
:1019500000F0400005904020CDE900040120CDE9D1
:101960000205124E69463046FFF7F2FC70150090F2
:1019700001A9022081E831000C20049069460C483E
:10198000FFF7E6FC4DF633000090694602943046BE
:10199000FFF7DEFC4FF4F060009069460548FFF762
:1019A000D7FC06B070BD000038380240000C024081
:1019B000001802400010024000F01F020121914077
:1019C0004009800000F1E020C0F8001170470000DD
:1019D000F0B40E4B1B68C3F30223C3F10704042CBD
:1019E00000D904241D1D072D01D2002300E0DB1EB9
:1019F000012606FA04F56D1E0D409D409E40761EA0
:101A0000164045EA0601F0BC05F02FBB0CED00E0E6
:101A1000064A00F0070110684FF6FF03184040EA3D
:101A20000120034908431060704700000CED00E0FE
:101A30000000FA052DE9F8431D48016841F0805186
:101A400001600068012700F080500090380490FA8F
:101A5000A0F0DFF86080B0FA80F048F82070FFF75F
:101A60006FFD04464FF47A75134E04E0FFF768FDEE
:101A7000001BA84213D87068C003F7D54FF400309C
:101A800090FAA0F0B0FA80F048F82070FFF758FD07
:101A9000044607E0FFF754FD001BA84202D90320CB
:101AA000BDE8F88370688003F4D50020F8E70000F3
:101AB0004038024000000E42007000402DE9F84F0F
:101AC00004460068DFF878829E4DC10747F6C07A69
:101AD0004FF0E0464FF0010B4FF0000901D18007B5
:101AE0004BD59949C1F86890FFF72AFD074604E0F5
:101AF000FFF726FDC01B64287ED828680001F7D4B4
:101B000020789249C0070DD09AFAAAF26068B2FA1A
:101B100082F2904096FAA6F3A268B3FA83F39A4051
:101B2000104308602078800718D5086896FAA6F256
:101B300000F0E040B2FA82F2D0406268237B92016A
:101B400042EA036242EA00700860D8F80010E269D5
:101B500021F01F01521E1143C8F800107A49C1F844
:101B600068B0FFF7EDFC074604E0FFF7E9FCC01B97
:101B7000642841D828680001F7D52068410701D4BE
:101B8000000776D57049C1F87090FFF7D9FC074679
:101B900004E0FFF7D5FCC01B64282DD82868C0439B
:101BA0008000F6D520786A4F40074FF0706C29D539
:101BB000386896FAA6F100F0E040B1FA81F1C84029
:101BC0009AFAAAF22169B2FA82F291409CFAACF335
:101BD0006269B3FA83F39A40114396FAA6F2B2FA15
:101BE00082F2904001433960D8F800106FF0FF0393
:101BF00021F4F851226A00E079E003EB022211435C
:101C0000C8F800102078000723D538689CFAACF19A
:101C100000F07060B1FA81F1C8409AFAAAF2216925
:101C2000B2FA82F291409CFAACF2B2FA82F290409F
:101C3000014396FAA6F2A069B2FA82F290400143FB
:101C40003960D8F80010626A21F440311143C8F8B5
:101C500000103D49C1F870B0FFF772FC064604E081
:101C6000FFF76EFC801B642841D82868C0438000C1
:101C7000F6D42078800651D532484F46403001686E
:101C800041F0805101600068324E00F080500090B9
:101C9000306840F480703060FFF752FC054604E085
:101CA000FFF74EFC401B642821D83068C005F7D5EB
:101CB000264E143E3068218D00F4407001F44071CE
:101CC00088422BD03068244920F44070C1F800B01D
:101CD0000F603060800710D5FFF732FC054641F2F7
:101CE000883707E0FFF72CFC401BB84202D90320DD
:101CF000BDE8F88F30688007F4D5A06A1149C0F3B9
:101D000001220831032A13D0086820F4F810086073
:101D10003068218DC1F30B01084330602078C00684
:101D200004D50E4994F82C00C1F8E0010020DFE74B
:101D30000A680B4B22F4F812184002430A60E7E7E6
:101D40008C3802400038024000004742843802408C
:101D50008838024000700040400E47420010474261
:101D6000FFFCFF0F2DE9F05FDFF8F8A104460F46F6
:101D7000DAF80000DFF8F08100F00F02C8B27A490B
:101D8000814641F2883608F10808BA4261D202461B
:101D90008AF80020DAF8000000F00F00B8427DD188
:101DA0002078800707D5D8F80020A36822F0F00239
:101DB0001A43C8F800202078C0072DD06068012899
:101DC0001AD002281BD0032819D0096889070029D6
:101DD00064DAD8F80010474621F003010143C8F83F
:101DE0000010FFF7ADFB0546606801280FD0022800
:101DF00018D003281CD027E009688903E7E70968A1
:101E00008901E4E7FFF79CFB401BB04258D83868D3
:101E1000C0F381000128F5D188E0FFF791FB401B5A
:101E2000B0424DD83868C0F381000228F5D17DE07A
:101E30003868FFF785FB401BB042F9D940E0FFF757
:101E40007FFB401BB0423BD8386810F00C0FF6D136
:101E50006CE02078800707D5D8F80020A36822F02E
:101E6000F0021A43C8F800202078C0074CD0606800
:101E7000012828D0022829D0032827D009688907FB
:101E8000002949DAD8F8002022F003020243C8F8FA
:101E90000020FFF755FB0546606800E03CE00128A4
:101EA0001DD0022829D0032838D0B34646463068D2
:101EB00010F00C0F28D0FFF743FB411B5945F6D912
:101EC0000320BDE8F09F09688903D9E70968890103
:101ED000D6E7FFF735FB411B594502D9F0E7B3467A
:101EE00046463068C0F381000128F2D10CE0FFF7CC
:101EF00027FB411B594502D9E2E7B3464646306805
:101F0000C0F381000228F2D18AF80090DAF80000CC
:101F100000F00F00B84209D00120D2E74446206803
:101F2000FFF70EFB401BB042F9D9C9E72078400704
:101F300007D5D8F80010E26821F4E0511143C8F841
:101F400000102078000708D5D8F80010226921F485
:101F5000604141EAC201C8F800100F20FFF718FBEA
:101F60000020AEE7003C02400038024010B500F00F
:101F700043F808490968F02292FAA2F201F0F00150
:101F8000B2FA82F2D140044A515CC8400349086069
:101F900010BD000008380240ECB20008000000202C
:101FA00010B5FFF7E3FF074909684FF4E05292FAD2
:101FB000A2F201F4E051B2FA82F2D140024A515C3D
:101FC000C84010BD08380240ECB2000810B5FFF759
:101FD000CDFF074909684FF4604292FAA2F201F47A
:101FE0006041B2FA82F2D140024A515CC84010BD51
:101FF00008380240ECB2000830B51948006810F00B
:102000000C01184812D0184C04290ED008290DD103
:10201000134A121F1168136801F03F015D0247F671
:10202000C07304D5B4FBF1F003E0204630BDB0FB33
:10203000F1F01168194093FAA3F3B3FA83F3D9408E
:10204000484311684FF4403292FAA2F201F4403151
:10205000B2FA82F2D140491C4900B0FBF1F030BD28
:10206000083802400024F40040787D012DE9F84F43
:1020700004460078DFF8FCA2BF4DC0074FF0000611
:1020800048D0DAF800105046C1F38101012908D088
:102090000068C0F3810002280AD1281D00684002B0
:1020A00006D52868800335D56068002873D031E0F4
:1020B000DFF8C49209F1020989F80060FFF740FADD
:1020C000074641F2883804E0FFF73AFAC11B414560
:1020D0007AD828688003F7D4207989F800006068EE
:1020E00060B1FFF72DFA074604E0FFF729FAC11B9C
:1020F0004145EDD828688003F7D50BE0FFF720FABB
:10210000074604E0FFF71CFAC11B4145E0D82868E8
:102110008003F7D42078DFF86492800744D5DAF89A
:102120000010504611F00C0F4FF0F80809D000686D
:10213000C0F3810002280BD18E48001F00684002C6
:1021400006D42868800714D5E068012823D110E060
:10215000E068D0B10120C9F80000FFF7F1F90746A7
:1021600004E0FFF7EDF9C01B6428B1D828688007A8
:10217000F7D5286898FAA8F22169B2FA82F220F01D
:10218000F8009140084328600EE0C9F80060FFF7AE
:10219000D7F9074605E0EAE0FFF7D2F9C01B64284B
:1021A00012D828688007F7D42078000725D5DFF8F3
:1021B000C4817348616908F16C0881B10121016033
:1021C000FFF7BEF9074605E07EE0FFF7B9F9C01B4F
:1021D000642879D8D8F800008007F6D50DE00660AD
:1021E000FFF7AEF9074604E0FFF7AAF9C01B642821
:1021F0006AD8D8F800008007F6D42078400753D575
:102200005C483830016841F0805101600068DFF8B7
:10221000748100F080500090D8F8001041F4807173
:10222000C8F80010FFF78CF9074604E0FFF788F9BB
:10223000C01B642848D8D8F80000C005F6D5DFF8E0
:1022400034B10BF1680B8BF80060FFF779F90746A2
:1022500041F2883804E0FFF773F9C11B41457ED88D
:10226000DBF800008007F6D4207A8BF80000A06825
:1022700068B1FFF765F9074604E0FFF761F9C11B94
:1022800041456CD8DBF800008007F6D50CE0FFF77D
:1022900057F9074604E0FFF753F9C11B41455ED8E3
:1022A000DBF800008007F6D4A069E8B3DAF8001084
:1022B000C1F3810102295AD0022806D0C9F8606012
:1022C000FFF73EF904464DE049E04F46C9F860602B
:1022D000FFF736F9064604E0FFF732F9801B642861
:1022E0003DD828688001F7D4D4E90701084347F6B0
:1022F000C07191FAA1F1626AB1FA81F18A40A16AD2
:102300004FF0FF3303EB51014FF4403393FAA3F343
:10231000B3FA83F399400A4310434FF0706292FA84
:10232000A2F2B2FA82F200E01FE0E16A91400843B3
:102330001049091F086001203866FFF701F90446BB
:1023400004E0FFF7FDF8001B642808D82868800126
:10235000F7D50AE0FFF7F4F8001B642802D9032040
:10236000BDE8F88F28688001F4D40020F8E7012048
:10237000F6E70000083802400038024000004742FB
:10238000800E47420070004070B50D46040003D037
:1023900094F82C0010B107E0012070BD002084F8F3
:1023A0002D00204600F012F8022084F82C00211D98
:1023B0002068FEF72DFBD4E900022946FEF778FBE2
:1023C000012084F82C00002070BD0000304800B5CA
:1023D000016887B041F001010160006800F0010070
:1023E00005902B480838016841F00401016001683C
:1023F00001F004010591016841F0080101600168E4
:1024000001F008010591016841F0100101600168C7
:1024100001F010010591016841F02001016001689F
:1024200001F020010591016841F040010160006860
:10243000694600F0400005900D20009002200190B8
:1024400001200290032003900C2004901148FEF715
:102450007FFF4CF20370009069460F48FEF778FF4B
:102460004FF68370009069460C48FEF771FF4FF6F7
:102470003F00009069460A48FEF76AFF48F23710AD
:10248000009069460748FEF763FF07B000BD0000F3
:102490003838024000080240000C024000100240A0
:1024A000001402400018024010B5044690F82C00B9
:1024B000022809D0022084F82C002068FEF7CEFA0A
:1024C000012084F82C00002010BD70B5044690F85F
:1024D0002C000D4602280CD0022084F82C00206825
:1024E000FEF7C2FA2868022804D0012084F82C00E4
:1024F000002070BD0520F9E72DE9F04790F8202075
:1025000081F85620828CA1F85420826A0023120E92
:1025100094090C70C2F383044C7002F003028A70B9
:10252000826A120CCA70028D120A0A7190F8282071
:102530004A71C26A4FF6FF7A120E0AEA0212CA8084
:10254000C26ACC88C2F3074244EA1214CC8002F07B
:102550000F020A72828DC2F30722D4094C72C2F3B1
:1025600080148C72C2F34014CC72C2F300140C734A
:1025700000264E73046A4FF00109002C7DD0012C17
:10258000FCD0022C7AD02923C2F380144C76920618
:10259000520E01F81A2F10F8302F0C7844EAD2149A
:1025A00001F8014B02F07F0201F8012B50F8042FD3
:1025B000120ED4090C70C2F341144C70C2F38204A1
:1025C0008C709207120FCA7004C8CC78C2F307420D
:1025D00044EA9214CC70C2F340140C714E7102F0B4
:1025E00001028A7130F8042CC2F30722D409CC719D
:1025F000C2F380140C72C2F340144C72C2F3001484
:102600008C72C2F38104CC7202F003020A7310F8D8
:10261000042C52084A734C4681F80E9050F8082B4F
:10262000120E0A7450F8082C120C0AEA02224A828E
:1026300030F8082C4D8AC2F3072215434D8210F85A
:10264000082C120641F8142F50F8042C0D68120EB5
:1026500045EA02420A6050F8042C0D68C2F30742B2
:1026600045EA02220A6030F8042C0D68C2F3072202
:10267000154320C110F8042C01E034E076E001F8A5
:10268000012B0268120E01F8032B0268120C1206CD
:102690000A6002880D68C2F3072245EA02420A6016
:1026A00002780D6845EA02220A6042680D6845EA30
:1026B000126520C142680D78C2F3074245EA12153F
:1026C00001F8025B1207120D0A8082880D88C2F39E
:1026D0000722154321F8025B0079400808704C700E
:1026E0001846BDE8F0879207120D0A6190F82C2079
:1026F0000C6944EA82020A61026B0C69120E44EA18
:1027000092140C61C2F3C2040C7502F007024A7500
:10271000026BC2F3074254098C75C2F38204CC7574
:102720009207520F0A76028E0C7EC2F3072244EA09
:10273000D2140C760C690F7EBF1C09FA07F5641CD5
:10274000A4FB05784FEAE57C06FB058504FB0C55E8
:1027500091F808C009FA0CF4A7FB04C80C6505FB46
:10276000048407FB0644C1E912C40DE790F82C204D
:102770009206920A0A61026B0C69120E44EA022266
:102780000A61026B0C69C2F3074214430C61028EAA
:102790000C69C2F30722641C46F10005ED0445EA0A
:1027A0005435E404C1E912454FF400740C65EBE6BE
:1027B00070B586B000250E4604468DF80C5005779E
:1027C00000F046F876200095CDE901502B462A46C8
:1027D0002946206804F07CFC204604F0B3FF8DF805
:1027E0000C009DF80C0038B9204604F09FFE8DF8CF
:1027F0000C009DF80C0018B19DF80C0006B070BDDF
:1028000031462046FFF778FE8DF80C009DF80C004D
:10281000A0B9B6F854006946000400900720019062
:102820004020CDE9020500010490206804F069FC15
:102830000721204604F0ECFC8DF80C0004F1100098
:1028400007C88DE8070094E80F0004F041FCD3E7C7
:102850001D4800B5016887B041F40061016000685F
:1028600000F40060059018481438016841F48001B4
:102870000160016801F480010591016841F00401E3
:102880000160016801F004010591016841F008014F
:1028900001600068694600F0080005904FF4F850A8
:1028A00000900220019001200290032003900C2050
:1028B00004900648FEF74CFD042000906946044849
:1028C000FEF746FD07B000BD443802400008024054
:1028D000000C02402DE9F04F8BB004460D46DDE9B7
:1028E0001478216800201646C862216A022903D1A3
:1028F0000F02560A46EAC3561021CDE90071402165
:10290000834608010291CDE903B06946206804F0CE
:10291000F8FB1021204604F07BFC00286DD14FF01D
:10292000FF3A08FB07F0CDE905A007A990204FF07A
:10293000020981E8010A01200A9005A9206804F033
:10294000A5FBB8F1010F01D9122000E01120CDE95B
:1029500000606946206804F0D4FBB8F1010F1AD971
:102960001221204604F054FC070046D140F22A3BD5
:102970002068416B11EA0B0F28D1406B0004F7D59A
:102980000026206804F0BAFB45F82600761C082EC5
:10299000F7D32035ECE71121204604F039FC07007D
:1029A0002BD140F22A6B2068416B11EA0B0F0DD13D
:1029B000406B0004F7D50026206804F09FFB45F823
:1029C0002600761C082EF7D32035ECE7406BC005B7
:1029D0000CD5B8F1010F09D9206A18B1012801D02E
:1029E000022803D1204600F033F807462168486BDF
:1029F000000705D50820886304200BB0BDE8F08FE0
:102A0000486B800703D54846C1F83890F5E7486B16
:102A1000800603D5202088630620EEE7486B8005FA
:102A200004D54FF4007088630720E6E7564603E0BC
:102A300004F064FB01C5761E2068416B890201D554
:102A4000002EF5D1216840F2FF5088633846D4E764
:102A500010B586B0044600200C21CDE900014021CC
:102A6000CDE90210080104906946206804F049FB92
:102A70000C21204604F0CCFB06B010BDFEB5044688
:102A8000006A00250E46032805D030B1012804D085
:102A9000022802D01FE02720FEBDB6F5805F05D0DA
:102AA000B6F5006F04D03EB1262514E0272512E0CC
:102AB000204604F082FF02E0204604F045FF0500B6
:102AC00009D1211DD4E905070EC9CDE9006002979F
:102AD000206804F0FDFA2846FEBD2DE9F04F8DB0C8
:102AE000064600250C468DF82C50DDE91698316815
:102AF00017462846CD62316A4FF4007B022903D184
:102B0000570AD94647EAC3571021CDE90091402121
:102B1000824608010291CDE903A06946306804F0BD
:102B2000F0FA1021304604F073FB00286ED1B8F1A2
:102B3000010F01D9192000E01820CDE90070694685
:102B4000306804F0DEFAB8F1010F01D9192100E074
:102B50001821304604F05CFB00287FD1411E09FBA0
:102B600008F99020CDE906900591CDF820A001202C
:102B7000CDE909A005A9306804F088FAB8F1010F81
:102B800024D84FE0406B400420D5A9EB0500202855
:102B900011D281074FEA900000D0401C82460027E6
:102BA00006E02146306804F0BCFA241D2D1D7F1C70
:102BB00057450BD2F5E7002704EB8701306804F096
:102BC000B0FA7F1C082FF7D3203420353068416BD2
:102BD00040F21A321142D5D02AE0406B400421D590
:102BE000A9EB0500202812D281074FEA900000D0FF
:102BF000401C8246002706E02146306804F091FA26
:102C0000241D2D1D7F1C57450CD2F5E726E000271B
:102C100004EB8701306804F084FA7F1C082FF7D397
:102C2000203420353068416B40F21A621142D4D012
:102C3000406BC0050BD5B8F1010F08D9306A18B147
:102C4000012801D0022802D13046FFF701FF316888
:102C5000486B000705D50820886304200DB0BDE847
:102C6000F08F486B800702D502208863F6E7486B37
:102C7000C00603D5102088630520EFE7486B800568
:102C800003D5C1F838B00720E8E740F2FF50886369
:102C90000BA9304604F0B8FC0028DFD19DF82C10B9
:102CA0000729F5D00629F3D0D8E770B5040004D081
:102CB00094F85100002510B106E0012070BD84F8A1
:102CC0005050204600F034F8022084F8510020686B
:102CD000016821F040010160D4E901010843D4E911
:102CE00003121143084361690843218B01F4007109
:102CF0000843E1690843216A0843A16A084321683F
:102D00000860A069042101EA1040616A0843216853
:102D100048602168E06A08612068C16921F40061A7
:102D2000C1616565012084F85100002070BD00007C
:102D3000124800B5016887B041F0200101600068C9
:102D400000F0200005900D481430016841F4801116
:102D500001600068012100F4801005904FF460705C
:102D600000900220CDE901010390052004906946FE
:102D70000348FEF7EDFA07B000BD0000303802400E
:102D8000001402402DE9F843044690F85100DDF8A4
:102D90002080012801D022287ED169B162B15BB1C7
:102DA00094F85000012877D0012784F8507094F8E7
:102DB0005100012803D005E00120BDE8F88332204E
:102DC00084F8510000266665A263A387E387216328
:102DD000A386E386A664E664A06A4FF40055A84281
:102DE00009D12068016821F4005101602068016860
:102DF00041F40051016020680168490603D401686C
:102E000041F040010160E0684FF48271B0F5006F5D
:102E1000606807D0002867D088426ED1E08E012814
:102E200062D06AE020B188420CD1E08E012809D13D
:102E3000206B21680088C860206B801C2063E08EB6
:102E4000401EE086E08E80B9A06AA84244D1206886
:102E5000016841F4805101603EE02068C068A16BC8
:102E60000880A06B801CA0639EE0434600220221E4
:102E7000204604F06DFE002874D1206B2168008884
:102E8000C860206B801C2063E08E401E0004000C94
:102E9000E08609D1A06A00E0C7E0A84204D120681A
:102EA000016841F48051016043460022012120461F
:102EB00004F04EFE00286FD12068C068A16B088026
:102EC000A06B801CA063E08F401EE087E08E00288E
:102ED000CBD1606800286AD14346002201212046F8
:102EE00004F036FEF0BBB8E7206B411C216321687B
:102EF0000078C860E08E401EE086E08E98B9A06A37
:102F0000A84204D12068016841F480510160434621
:102F100000220121204604F01BFE18BB2068C06877
:102F2000A16B087040E0434600220221204604F0D5
:102F30000FFEB8B9206B411C216321680078C8607E
:102F4000E08E401E0004000CE08607D1A06AA84273
:102F500004D12068016841F4805101600022434699
:102F6000012100E018E0204604F0F2FDA0B920683D
:102F7000C168A06B421CA2630170E08F401EE08715
:102F8000E08E0028CFD1606888B943460022012135
:102F9000204604F0DDFD08B103200EE72068C1687B
:102FA000A06B421CA2630170E08F401EE087A06A04
:102FB000A84210D1434600220121204604F0C8FD5A
:102FC00018B1606D40F002000FE02068C068ADF8F5
:102FD0000000BDF80000434601228021204604F095
:102FE000B7FD20B1606D40F020006065D4E784F843
:102FF000517020688168A26AC1F30011AA4210D101
:1030000079B1616D41F002016165016821F40051FF
:1030100001602068016841F40051016084F850604B
:10302000CAE684F850600020C7E60220C5E670B505
:1030300015460E46040003D094F8490010B107E08D
:10304000012070BD002084F84800204600F01AF8E6
:1030500004F108012068FDF771FC3146A268206880
:10306000FDF7A8FCD4E901022946236BFDF746FCD5
:10307000A168206850F8212042F0010240F8212088
:10308000002070BD1A4800B5016887B041F0010109
:103090000160006800F001000590154808380168DB
:1030A00041F008010160016801F008010591016823
:1030B00041F0100101600068694600F010000590C1
:1030C0004EF2B37000900220019001200290032084
:1030D00003900C2004900748FEF73AF94FF68070F1
:1030E000009069460448FEF733F907B000BD0000C0
:1030F00038380240000C0240001002404FF0E0213E
:103100000428086903D020F004000861704740F0EB
:103110000400FAE710B5401EB0F1807F01D3012012
:1031200010BD4FF0E02460610F21601703F09DFF98
:103130000020A06107202061002010BD704738B535
:10314000016804460868CA68C0F3000002F480728F
:1031500038B132B1086848680090E06B40F0010077
:10316000E06308684A69C0F3400002F0010238B128
:1031700032B1086848680090E06B40F00400E063FA
:1031800008684A69C0F3800002F0010238B132B128
:10319000086848680090E06B40F00200E06308684F
:1031A0004A69C0F3C00002F0010238B132B10868C8
:1031B00048680090E06B40F00800E0630868C96868
:1031C000C0F3401001F0200118B111B1204604F005
:1031D000C7FE20680168C068C1F3C01100F080001C
:1031E00019B110B1204604F0C9FF21680868CA6807
:1031F000C0F3801002F04002012568B162B1CA68D4
:10320000204622F04002CA6094F8391032290CD0CE
:1032100080F8395000F0ECF8E06B002804D084F816
:1032200039502046FFF78AFF38BD222180F8391037
:10323000F0E770B5040004D094F83900002510B10F
:1032400006E0012070BD84F83850204600F020F8D8
:10325000022084F839002068C16821F40051C1605F
:10326000204604F0D1FE2068016921F490410161FB
:103270002068416921F02A0141612068C16841F458
:103280000051C160E563012084F83900002070BD61
:1032900030B504460068204987B0884239D11F48BC
:1032A000016841F001010160006800F00100059033
:1032B0001A481430016841F01001016000680121D2
:1032C00000F0100005904FF4007000900220CDE94E
:1032D000010103900720124D049069462846FEF72D
:1032E00037F82815009069462846FEF731F820681F
:1032F000C16821F04001C1602068C16841F020012F
:10330000C1602520FEF758FB032211462520FEF759
:103310005FFB07B030BD00000010014030380240B4
:10332000000002402DE9F047044690F83900994624
:103330000D46012801D0122857D125B31AB394F8AD
:103340003800012851D0012684F838600027E7634F
:1033500094F83900122819D0222084F83900A28567
:10336000E2854FF48058E08D4B46401EE085A06812
:103370004FF0000240454FF02001204616D104F0E6
:1033800030FFB0B904E00120BDE8F0873220E4E767
:10339000206900282068406803D0C1B225F8011BCD
:1033A00012E0C0F3080125F8021B0DE004F019FF3C
:1033B00008B10320E8E7206900282068406801D0B0
:1033C00000F07F0005F8010BE08D0028CBD194F8C8
:1033D0003900322805D084F8396084F8387000202C
:1033E000D2E7122084F83900F7E70220CCE77047D3
:1033F0007047FEE770B51B4886B00025016841F0B4
:1034000001010160016801F001010591016841F0CD
:1034100004010160016801F004010591016841F0B7
:10342000800101600068032400F080000590022004
:103430000126CDE90204CDE9006569460A48FDF799
:1034400087FF700303948DE8610069460748FDF724
:103450007FFF0C20009069460548FDF779FF06B014
:1034600070BD0000303802400000024000080240F9
:10347000001C02402DE9F0470126304C7703DFF8AD
:10348000C080DFF8C090304D01281DD02078A0B159
:1034900008212846FEF74AF8C0B104212846FEF765
:1034A00045F898B139464046FEF740F870B1012121
:1034B0004846FEF73BF8012808D008212846FEF7C9
:1034C00035F8012826D037E02670E1E70A2005F01C
:1034D00063FB0020207008212846FEF727F880B102
:1034E00004212846FEF722F870B139464046FEF71F
:1034F0001DF858B101214846FEF718F8012807D0F9
:103500001AE00120BDE8F0870220FBE70320F9E77D
:103510000420F7E704212846FEF708F801280BD11C
:1035200039464046FEF702F8012805D101214846F8
:10353000FDF7FCFF00B926700020E3E7240000201F
:103540000008024000000240001C024070B50E4915
:103550000E4A064608881268002422B13046BDE8AB
:10356000704002F0ABBD4D8800214543084602F093
:1035700015FC02F06BFDB1B2054801E00180641C4E
:10358000AC42FBD370BD0000CC010020B80200208B
:10359000000008602DE9F05F394C3A4DA0712968B0
:1035A00039B102F0ABFDE88A2080288B6080BDE84D
:1035B000F09F33492C232A2589884FF0F00949F2DE
:1035C000413A2B2645F2105B4FF4305E4FF44877BA
:1035D0004FF4A07845F2103C4FF4F07258B1A4F8C3
:1035E0000080A4F80290514501D0614529D1238182
:1035F0006581A68139E0A4F80090A4F802805145C5
:1036000001D0614508D123816581A681614531D111
:10361000A4F8008062802DE0594508D1A4F808E0A4
:103620004FF4285060814FF42C50A08106E0A1F5A2
:10363000C85063381ED123816681A58122806780AE
:1036400018E0594508D1A4F808E04FF428506081EB
:103650004FF42C50A08106E0A1F5C850633804D186
:1036600023816581A68127806280614502D1228005
:10367000A4F80280BDE8F05F002002F0B3BA0000B9
:10368000CC010020B80200202DE9F04104463A4860
:103690000D46006820B12046BDE8F04102F042BD71
:1036A000364E270A3146B0884989A0F513434FEAC0
:1036B0001528413B0CD0A0F5A643103B08D0A0F53F
:1036C000AA43103B11D0A0F5C853633B27D04BE071
:1036D000084602F0AFFC384602F0A0FCE0B202F06F
:1036E0009DFCB08902F0A6FC38E0084602F0A2FC7E
:1036F000384602F093FC7089401C80B202F09AFCBC
:10370000E0B202F08BFCB08902F094FC404602F07B
:1037100085FCB089401C80B202F08CFC21E0B079BD
:1037200018B93088001B401E84B2084602F082FCA3
:10373000270A384602F072FCE0B202F06FFC38460D
:1037400002F06CFCE0B202F069FCB08902F072FC9D
:10375000404602F063FCE8B202F060FC404602F032
:103760005DFCE8B202F05AFC054930890880881CEB
:103770000280BDE8F0810000B8020020CC010020EA
:10378000FEFF07602DE9F8431F46144B804608985A
:103790001B6833B100903B46404602F0E1FCBDE8B7
:1037A000F883A2EB0802521C96B20C4685B2DFF8F1
:1037B00030900FE02146404602F0F0FA02F046FC5D
:1037C0000020494602E00D80401C80B2B042FAD38E
:1037D000641CA4B2BC42EDD9E1E70000B8020020AD
:1037E000000008602DE9F04F95B002F057FEFE4D45
:1037F0004FF0010AA5F15009A88049F2413B45F27A
:10380000103645F2105441F6631818B102F002FD6B
:1038100002F08BB9F5480027016841F00201016010
:10382000006810A900F0020000902020CDE9100AE5
:103830000320CDE912A0EE48FDF78AFD4FF02041AC
:103840004846C9F80010EB49C0E901171021C9F832
:103850000C70C0E90471C9F818700902C9F81C702D
:10386000C0E909718900C0E90B71C9F83470890198
:10387000C9E90E7146210B910F20CDE90907CDE969
:1038800002070490D8480F9702AA09A90897503850
:10389000FFF7CDFB322005F07FF9D32002F0CAFB01
:1038A00002F06EF9A88002F06BF9A88002F068F9C6
:1038B0004FF6FF7202EA0020A88002F061F9A988A1
:1038C0005F460843A880B84248D0D42002F0B2FB3B
:1038D00002F056F9A88002F053F9A88002F050F9DE
:1038E00002EA0020A88002F04BF9A9880843A880CA
:1038F000B04233D04FF45A4002F09CFB02F040F942
:10390000A8804FF45B4002F095FB02F039F902EA1F
:103910000020A8804FF45C4002F08CFB02F030F9EC
:10392000A9880843A880B0F5004F7DD0A04215D0EB
:10393000A12002F07FFB02F023F9A88002F020F919
:1039400002EA0020A88002F01BF9A9880843A0F52C
:10395000AE41A880613901D1A5F80480A988A6A04C
:10396000FCF71CFDA888B8427ED1CF2002F062FB94
:10397000002002F053FBC12002F050FB302002F087
:103980004DFBED2002F056FB642002F047FB0320C4
:1039900002F044FB122002F041FB812002F03EFBCA
:1039A000E82002F047FB852002F038FB102002F0EF
:1039B00035FB7A2002F032FBCB2002F03BFB3920B2
:1039C00002F02CFB2C2002F029FB002002F026FB49
:1039D000342002F023FB022002F020FBF72002F04B
:1039E00029FB202002F01AFBEA2002F023FB002032
:1039F00002F014FB002002F011FBC02002F01AFBC1
:103A00001B2002F00BFBC12002F014FB012002F08E
:103A100005FBC52002F00EFB302002F0FFFA30203B
:103A200002F0FCFAC72000E0B7E002F003FBB72089
:103A300002F0F4FA362002F0FDFA482002F0EEFA25
:103A40003A2002F0F7FA552002F0E8FAB12002F02D
:103A5000F1FA002002F0E2FA1A2002F0DFFAB620B2
:103A600002F0E8FA0A2000E099E002F0D7FAA2207A
:103A700002F0D4FAF22002F0DDFA002002F0CEFAD1
:103A8000262002F0D7FA012002F0C8FAE02002F066
:103A9000D1FA0F2002F0C2FA2A2002F0BFFA282041
:103AA00002F0BCFA082002F0B9FA0E2002F0B6FAD1
:103AB000082002F0B3FA542002F0B0FAA92002F074
:103AC000ADFA432002F0AAFA0A2002F0A7FA0F206A
:103AD00002F0A4FA002002F0A1FA002002F09EFAFF
:103AE000002002F09BFA002002F098FAE12002F098
:103AF000A1FA002002F092FA152002F08FFA1720A6
:103B000002F08CFA072002F089FA112002F086FAFE
:103B1000062002F083FA2B2002F080FA562002F0F1
:103B20007DFA3C2002F07AFA052002F077FA1020A4
:103B300002F074FA0F2002F071FA3F2002F06EFAE0
:103B40003F2002F06BFA0F2002F068FA2B2002F0FF
:103B500071FA002002F062FA002002F05FFA012000
:103B600002F05CFA3F2002F059FA2A2002F062FAD1
:103B7000002002F053FA002002F050FA002002F078
:103B80004DFAEF2002F04AFA112002F053FA7820A1
:103B900005F002F8292001F00BBFAC80DEE6B04250
:103BA0007ED1ED2002F046FA012002F037FAFE2025
:103BB00002F034FAEE2002F03DFADE2002F02EFA96
:103BC000212002F02BFAF12002F034FA012002F059
:103BD00025FADF2002F02EFA102002F01FFAC4208E
:103BE00002F028FA8F200FE0CC010020303802408C
:103BF00000040240040100A0204C43442049443A00
:103C000025780D0A0000000002F008FAC62002F034
:103C100011FA002002F002FAE22002F0FFF9E2209D
:103C200002F0FCF9E22002F0F9F9BF2002F002FAFA
:103C3000AA2002F0F3F9B02002F0FCF90D2002F006
:103C4000EDF9002002F0EAF90D2002F0E7F900207A
:103C500002F0E4F9112002F0E1F9002002F0DEF9AF
:103C6000192002F0DBF9002002F0D8F9212002F03F
:103C7000D5F9002002F0D2F92D2002F0CFF9002072
:103C800002F0CCF93D2002F0C9F9002002F0C6F99B
:103C90005D2002F0C3F9002002F0C0F95D2000E0D1
:103CA000FEE302F0BBF9002002F0B8F9B12002F007
:103CB000C1F9802002F0B2F9002002F0AFF98B20A8
:103CC00002F0ACF9002002F0A9F9962002F0A6F962
:103CD000002002F0A3F9B22002F0ACF9002002F0BB
:103CE0009DF9002002F09AF9022002F097F90020D5
:103CF00002F094F9032002F091F9002002F08EF90D
:103D0000B32002F097F9002002F088F9002002F0B9
:103D100085F9002002F082F9002002F07FF90020EE
:103D200002F07CF9002002F079F9002002F076F927
:103D3000002002F073F9002002F070F9002002F078
:103D40006DF9002002F06AF9002002F067F9002006
:103D500002F064F9002002F061F9002002F05EF93F
:103D6000002002F05BF9002002F058F9002002F078
:103D700055F9002002F052F9002002F04FF900201E
:103D800002F04CF9002002F049F9002002F046F957
:103D9000002002F043F9B42002F04CF98B2002F02D
:103DA0003DF9002002F03AF9962002F037F90020A0
:103DB00002F034F9A12002F031F9002002F02EF9CE
:103DC000B52002F037F9022002F028F9002002F0B5
:103DD00025F9032002F022F9002002F01FF9042047
:103DE00002F01CF9002002F019F9B62002F022F9C5
:103DF000002002F013F9002002F010F9B72002F0C1
:103E000019F9002002F00AF9002002F007F93F201A
:103E100002F004F9002002F001F95E2002F0FEF841
:103E2000002002F0FBF8642002F0F8F8002002F015
:103E3000F5F88C2002F0F2F8002002F0EFF8AC2048
:103E400002F0ECF8002002F0E9F8DC2002F0E6F8DD
:103E5000002002F0E3F8702002F0E0F8002002F009
:103E6000DDF8902002F0DAF8002002F0D7F8EB201D
:103E700002F0D4F8002002F0D1F8DC2002F0CEF8F5
:103E8000002002F0CBF8B82002F0D4F8002002F0B5
:103E9000C5F8002002F0C2F8002002F0BFF80020B0
:103EA00002F0BCF8002002F0B9F8002002F0B6F8E9
:103EB000002002F0B3F8002002F0B0F8BA2002F0BF
:103EC000B9F8242002F0AAF8002002F0A7F8002098
:103ED00002F0A4F8002002F0A1F8C12002F0AAF834
:103EE000202002F09BF8002002F098F8542002F005
:103EF00095F8002002F092F8FF2002F08FF80020E1
:103F000002F08CF8C22002F095F80A2002F086F840
:103F1000002002F083F8042002F080F8002002F074
:103F20007DF8C32002F086F83C2002F077F80020EC
:103F300002F074F83A2002F071F8002002F06EF8F6
:103F4000392002F06BF8002002F068F8372002F008
:103F500065F8002002F062F83C2002F05FF80020D3
:103F600002F05CF8362002F059F8002002F056F812
:103F7000322002F053F8002002F050F82F2002F017
:103F80004DF8002002F04AF82C2002F047F80020FB
:103F900002F044F8292002F041F8002002F03EF837
:103FA000262002F03BF8002002F038F8242002F02E
:103FB00035F8002002F032F8242002F02FF800201B
:103FC00002F02CF8232002F029F8002002F026F855
:103FD0003C2002F023F8002002F020F8362002F006
:103FE0001DF8002002F01AF8322002F017F8002025
:103FF00002F014F82F2002F011F8002002F00EF861
:104000002C2002F00BF8002002F008F8292002F022
:1040100005F8002002F002F8262001F0FFFF002042
:1040200001F0FCFF242001F0F9FF002001F0F6FF71
:10403000242001F0F3FF002001F0F0FF232001F025
:10404000EDFF002001F0EAFFC42001F0F3FF622041
:1040500001F0E4FF002001F0E1FF052001F0DEFFA8
:10406000002001F0DBFF842001F0D8FF002001F0E8
:10407000D5FFF02001F0D2FF002001F0CFFF182083
:1040800001F0CCFF002001F0C9FFA42001F0C6FF21
:10409000002001F0C3FF182001F0C0FF002001F054
:1040A000BDFF502001F0BAFF002001F0B7FF0C2047
:1040B00001F0B4FF002001F0B1FF172001F0AEFFC6
:1040C000002001F0ABFF952001F0A8FF002001F0D7
:1040D000A5FFF32001F0A2FF002001F09FFFE620E2
:1040E00001F09CFF002001F099FFC52001F0A2FF24
:1040F000322001F093FF002001F090FF442001F0F6
:104100008DFF002001F08AFF652001F087FF00206D
:1041100001F084FF762001F081FF002001F07EFF96
:10412000882001F07BFF002001F078FFC62001F01D
:1041300081FF202001F072FF002001F06FFF1720A7
:1041400001F06CFF002001F069FF012001F066FF23
:10415000002001F063FFC72001F06CFF002001F098
:104160005DFF002001F05AFF002001F057FF002002
:1041700001F054FFC82001F05DFF002001F04EFF68
:10418000002001F04BFF002001F048FF002001F06B
:1041900045FFC92001F04EFF002001F03FFF002045
:1041A00001F03CFF002001F039FF002001F036FF54
:1041B000002001F033FF002001F030FF002001F06B
:1041C0002DFF002001F02AFF002001F027FF002032
:1041D00001F024FF002001F021FF002001F01EFF6C
:1041E000002001F01BFF002001F018FF002001F06B
:1041F00015FF002001F012FFE02001F01BFF162048
:1042000001F00CFF002001F009FF1C2001F006FF67
:10421000002001F003FF212001F000FF002001F049
:10422000FDFE362001F0FAFE002001F0F7FE4620E8
:1042300001F0F4FE002001F0F1FE522001F0EEFE4C
:10424000002001F0EBFE642001F0E8FE002001F008
:10425000E5FE7A2001F0E2FE002001F0DFFE8B2077
:1042600001F0DCFE002001F0D9FE992001F0D6FE1D
:10427000002001F0D3FEA82001F0D0FE002001F0C4
:10428000CDFEB92001F0CAFE002001F0C7FEC42017
:1042900001F0C4FE002001F0C1FECA2001F0BEFE04
:1042A000002001F0BBFED22001F0B8FE002001F09A
:1042B000B5FED92001F0B2FE002001F0AFFEE020F3
:1042C00001F0ACFE002001F0A9FEF32001F0A6FEF3
:1042D000002001F0A3FEE12001F0ACFE162001F069
:1042E0009DFE002001F09AFE1C2001F097FE0020A8
:1042F00001F094FE222001F091FE002001F08EFEDC
:10430000362001F08BFE002001F088FE452001F0F0
:1043100085FE002001F082FE522001F07FFE002089
:1043200001F07CFE642001F079FE002001F076FEB1
:104330007A2001F073FE002001F070FE8B2001F066
:104340006DFE002001F06AFE992001F067FE00205A
:1043500001F064FEA82001F061FE002001F05EFE85
:10436000B92001F05BFE002001F058FEC42001F0EE
:1043700055FE002001F052FECA2001F04FFE002041
:1043800001F04CFED22001F049FE002001F046FE73
:10439000D82001F043FE002001F040FEE02001F0B3
:1043A0003DFE002001F03AFEF32001F037FE002030
:1043B00001F034FEE22001F03DFE052001F02EFE6A
:1043C000002001F02BFE0B2001F028FE002001F060
:1043D00025FE1B2001F022FE002001F01FFE3420EC
:1043E00001F01CFE002001F019FE442001F016FE31
:1043F000002001F013FE4F2001F010FE002001F01C
:104400000DFE612001F00AFE002001F007FE792078
:1044100001F004FE002001F001FE882001F0FEFD05
:10442000002001F0FBFD972001F0F8FD002001F0D5
:10443000F5FDA62001F0F2FD002001F0EFFDB72010
:1044400001F0ECFD002001F0E9FDC22001F0E6FDE5
:10445000002001F0E3FDC72001F0E0FD002001F0A5
:10446000DDFDD12001F0DAFD002001F0D7FDD620DE
:1044700001F0D4FD002001F0D1FDDD2001F0CEFDE2
:10448000002001F0CBFDF32001F0C8FD002001F079
:10449000C5FDE32001F0CEFD052001F0BFFD00E0E9
:1044A0000AE3002001F0BAFD0A2001F0B7FD002068
:1044B00001F0B4FD1C2001F0B1FD002001F0AEFDC3
:1044C000332001F0ABFD002001F0A8FD442001F0F5
:1044D000A5FD002001F0A2FD502001F09FFD00206D
:1044E00001F09CFD622001F099FD002001F096FD95
:1044F000782001F093FD002001F090FD882001F06C
:104500008DFD002001F08AFD972001F087FD00203D
:1045100001F084FDA62001F081FD002001F07EFD68
:10452000B72001F07BFD002001F078FDC22001F0F2
:1045300075FD002001F072FDC72001F06FFD002025
:1045400001F06CFDD12001F069FD002001F066FD55
:10455000D52001F063FD002001F060FDDD2001F0B9
:104560005DFD002001F05AFDF32001F057FD002011
:1045700001F054FDE42001F05DFD012001F04EFD4D
:10458000002001F04BFD012001F048FD002001F06A
:1045900045FD022001F042FD002001F03FFD2A20F0
:1045A00001F03CFD002001F039FD3C2001F036FD1A
:1045B000002001F033FD4B2001F030FD002001F020
:1045C0002DFD5D2001F02AFD002001F027FD742063
:1045D00001F024FD002001F021FD842001F01EFDEA
:1045E000002001F01BFD932001F018FD002001F0D8
:1045F00015FDA22001F012FD002001F00FFDB320F7
:1046000001F00CFD002001F009FDBE2001F006FDC7
:10461000002001F003FDC42001F000FD002001F0A6
:10462000FDFCCD2001F0FAFC002001F0F7FCD320C6
:1046300001F0F4FC002001F0F1FCDD2001F0EEFCC3
:10464000002001F0EBFCF32001F0E8FC002001F079
:10465000E5FCE52001F0EEFC002001F0DFFC00208D
:1046600001F0DCFC002001F0D9FC002001F0D6FCB8
:10467000022001F0D3FC002001F0D0FC292001F041
:10468000CDFC002001F0CAFC3C2001F0C7FC00205A
:1046900001F0C4FC4B2001F0C1FC002001F0BEFC85
:1046A0005D2001F0BBFC002001F0B8FC742001F09B
:1046B000B5FC002001F0B2FC842001F0AFFC00202A
:1046C00001F0ACFC932001F0A9FC002001F0A6FC55
:1046D000A22001F0A3FC002001F0A0FCB32001F017
:1046E0009DFC002001F09AFCBE2001F097FC002008
:1046F00001F094FCC42001F091FC002001F08EFC3C
:10470000CD2001F08BFC002001F088FCD32001F0CB
:1047100085FC002001F082FCDC2001F07FFC002001
:1047200001F07CFCF32001F079FC002001F076FC24
:10473000E62001F07FFC112001F070FC002001F068
:104740006DFC342001F06AFC002001F067FC56206B
:1047500001F064FC002001F061FC762001F05EFCB9
:10476000002001F05BFC772001F058FC002001F0F4
:1047700055FC662001F052FC002001F04FFC88201F
:1047800001F04CFC002001F049FC992001F046FCAE
:10479000002001F043FCBB2001F040FC002001F0B0
:1047A0003DFC992001F03AFC002001F037FC662026
:1047B00001F034FC002001F031FC552001F02EFC0A
:1047C000002001F02BFC552001F028FC002001F016
:1047D00025FC452001F022FC002001F01FFC4320B5
:1047E00001F01CFC002001F019FC442001F016FC33
:1047F000002001F013FCE72001F01CFC322001F046
:104800000DFC002001F00AFC552001F007FC0020FF
:1048100001F004FC762001F001FC002001F0FEFB19
:10482000662001F0FBFB002001F0F8FB672001F09F
:10483000F5FB002001F0F2FB672001F0EFFB002008
:1048400001F0ECFB872001F0E9FB002001F0E6FB22
:10485000992001F0E3FB002001F0E0FBBB2001F018
:10486000DDFB002001F0DAFB992001F0D7FB0020EE
:1048700001F0D4FB772001F0D1FB002001F0CEFB4A
:10488000442001F0CBFB002001F0C8FB562001F0D2
:10489000C5FB002001F0C2FB232001F0BFFB00207C
:1048A00001F0BCFB332001F0B9FB002001F0B6FBA6
:1048B000452001F0B3FB002001F0B0FBE82001F03F
:1048C000B9FB002001F0AAFB002001F0A7FB992012
:1048D00001F0A4FB002001F0A1FB872001F09EFB6A
:1048E000002001F09BFB882001F098FB002001F0E4
:1048F00095FB772001F092FB002001F08FFB6620F2
:1049000001F08CFB002001F089FB882001F086FB80
:10491000002001F083FBAA2001F080FB002001F0C1
:104920007DFBBB2001F07AFB002001F077FB992092
:1049300001F074FB002001F071FB662001F06EFBBA
:10494000002001F06BFB552001F068FB002001F016
:1049500065FB552001F062FB002001F05FFB442065
:1049600001F05CFB002001F059FB442001F056FBF4
:10497000002001F053FB552001F050FB002001F016
:104980004DFBE92001F056FBAA2001F047FB002077
:1049900001F044FB002001F041FB002001F03EFB50
:1049A000002001F047FBAA2001F038FBCF2001F0E6
:1049B00041FB002001F032FB002001F02FFB002022
:1049C00001F02CFB002001F029FB002001F026FB68
:1049D000002001F023FB002001F020FB002001F06B
:1049E0001DFB002001F01AFB002001F017FB002046
:1049F00001F014FB002001F011FB002001F00EFB80
:104A0000002001F00BFB002001F008FB002001F06A
:104A100005FB002001F002FBF02001F00BFB002061
:104A200001F0FCFA502001F0F9FA002001F0F6FA4A
:104A3000002001F0F3FA002001F0F0FAF32001F079
:104A4000F9FA002001F0EAFAF92001F0F3FA062061
:104A500001F0E4FA102001F0E1FA292001F0DEFA79
:104A6000002001F0DBFA3A2001F0E4FA552001F0D1
:104A7000D5FA112001F0DEFA642004F08DF8292027
:104A800001F0D8FA352001F0D5FA002001F0C6FA7D
:104A9000512001F0CFFAFF2001F0C0FA532001F0BD
:104AA000C9FA2C2001F0BAFA552001F0C3FA82208D
:104AB00001F0B4FA2C20FDE3A0427DD14FF4704305
:104AC0005521184601F0CCFA4FF20107AA213846C9
:104AD00001F0C6FA5221781C01F0C2FA0821B81C74
:104AE00001F0BEFA0121F81C01F0BAFA0D214FF4D1
:104AF000304001F0B5FA0D214BF2010001F0B0FA9F
:104B00000D214BF2020001F0ABFA34214FF4364094
:104B100001F0A6FA34214BF2016001F0A1FA342130
:104B20004BF2026001F09CFA0D214FF4314001F08C
:104B300097FA0D214BF2011001F092FA0D214BF280
:104B4000021001F08DFA34214FF4374001F088FA59
:104B500034214BF2017001F083FA34214BF20270E0
:104B600001F07EFA00214FF4324001F079FA002181
:104B70004BF2012001F074FA00214BF2022001F007
:104B80006FFA24214FF4384001F06AFA24214BF6E1
:104B9000010001F065FA24214BF6020001F060FAF1
:104BA00001214FF43F4001F05BFA0F214FF43340F5
:104BB00001F056FA0F2100E0FEE34BF2013001F064
:104BC0004FFA0F214BF2023001F04AFA34214FF430
:104BD000394001F045FA34214BF6011001F040FA5A
:104BE00034214BF6021001F03BFA08214FF4354016
:104BF00001F036FA08214BF2015001F031FA082198
:104C00004BF2025001F02CFA03214FF4424001F024
:104C100027FA24214FF43A4001F022FA24214BF6DE
:104C2000012001F01DFA24214BF6022001F018FAB0
:104C300000214FF43C4001F013FA78214BF601407B
:104C400001F00EFA00214BF6024001F009FA0021B2
:104C50004FF43D4001F004FA78214BF6015001F089
:104C6000FFF900214BF6025001F0FAF900214FF450
:104C70003E4001F0F5F964214BF6016001F0F0F9D6
:104C800000214FF4514001F0EBF933214DF20110B6
:104C900001F0E6F900214DF2021001F0E1F93421B2
:104CA0004DF2031001F0DCF900214DF2041001F087
:104CB000D7F93A214DF2051001F0D2F900214DF259
:104CC000061001F0CDF94A214DF2071001F0C8F9A4
:104CD00000214DF2081001F0C3F95C214DF20910DA
:104CE00001F0BEF900214DF20A1001F0B9F981215D
:104CF0004DF20B1001F0B4F900214DF20C1001F04F
:104D0000AFF9A6214DF20D1001F0AAF900214DF2E4
:104D10000E1001F0A5F9E5214DF20F1001F0A0F9F8
:104D200001214DF2101001F09BF913214DF21110E9
:104D300001F096F901214DF2121001F091F9542180
:104D40004DF2131001F08CF901214DF2141001F015
:104D500087F982214DF2151001F082F901214DF2FF
:104D6000161001F07DF9CA214DF2171001F078F903
:104D700002214DF2181001F073F900214DF21910C3
:104D800001F06EF902214DF21A1001F069F90121CA
:104D90004DF21B1001F064F902214DF21C1001F0DC
:104DA0005FF934214DF21D1001F05AF902214DF244
:104DB0001E1001F055F967214DF21F1001F050F956
:104DC00002214DF2201001F04BF984214DF2211007
:104DD00001F046F902214DF2221001F041F9A4211F
:104DE0004DF2231001F03CF902214DF2241001F0A4
:104DF00037F9B7214DF2251001F032F902214DF2B9
:104E0000261001F02DF9CF214DF2271001F028F9DD
:104E100002214DF2281001F023F9DE214DF2291074
:104E200001F01EF902214DF22A1001F019F9F221C8
:104E30004DF22B1001F014F902214DF22C1001F06B
:104E40000FF9FE214DF22D1001F00AF903214DF268
:104E50002E1001F005F910214DF22F1001F000F98C
:104E600003214DF2301001F0FBF833214DF23110E7
:104E700001F0F6F803214DF2321001F0F1F86D2146
:104E80004DF2331001F0ECF800214FF4524001F0E4
:104E9000E7F833214DF2012001F0E2F800214DF254
:104EA000022001F0DDF834214DF2032001F0D8F8A2
:104EB00000214DF2042001F0D3F83A214DF20520F3
:104EC00001F0CEF800214DF2062001F0C9F84A2188
:104ED0004DF2072001F0C4F800214DF2082001F046
:104EE000BFF85C214DF2092001F0BAF800214DF223
:104EF0000A2001F0B5F881214DF20B2001F0B0F845
:104F000000214DF20C2001F0ABF8A6214DF20D204E
:104F100001F0A6F800214DF20E2001F0A1F8E521E4
:104F20004DF20F2001F09CF801214DF2102001F00C
:104F300097F813214DF2112001F092F801214DF262
:104F4000122001F08DF854214DF2132001F088F861
:104F500001214DF2142001F083F882214DF2152039
:104F600001F07EF801214DF2162001F079F8CA21F6
:104F70004DF2172001F074F802214DF2182001F0D3
:104F80006FF800214DF2192001F06AF802214DF26C
:104F90001A2001F065F801214DF21B2001F060F8A4
:104FA00002214DF21C2001F05BF834214DF21D204E
:104FB00001F056F802214DF21E2001F051F8672150
:104FC0004DF21F2001F04CF802214DF2202001F09B
:104FD00047F884214DF2212001F042F802214DF2E0
:104FE000222001F03DF8A4214DF2232001F038F8F1
:104FF00002214DF2242001F033F8B7214DF2252093
:1050000001F02EF802214DF2262001F029F8CF21DF
:105010004DF2272001F024F802214DF2282001F062
:105020001FF8DE214DF2292001F01AF802214DF27D
:105030002A2001F015F8F2214DF22B2001F010F892
:1050400002214DF22C2001F00BF8FE214DF22D2013
:1050500001F006F803214DF22E2001F001F8102195
:105060004DF22F2000F0FCFF03214DF2302000F024
:10507000F7FF33214DF2312000F0F2FF03214DF212
:10508000322000F0EDFF6D214DF2332000F0E8FFFB
:1050900000214FF4534000F0E3FF33214DF2013083
:1050A00000F0DEFF00214DF2023000F0D9FF342184
:1050B0004DF2033000F0D4FF00214DF2043000F037
:1050C000CFFF3A214DF2053000F0CAFF00214DF22A
:1050D000063000F0C5FF4A214DF2073000F0C0FF56
:1050E00000214DF2083000F0BBFF5C214DF2093089
:1050F00000F0B6FF00214DF20A3000F0B1FF81212F
:105100004DF20B3000F0ACFF00214DF20C3000F0FE
:10511000A7FFA6214DF20D3000F0A2FF00214DF2B5
:105120000E3000F09DFFE5214DF20F3000F098FFAA
:1051300001214DF2103000F093FF13214DF2113098
:1051400000F08EFF01214DF2123000F089FF542152
:105150004DF2133000F084FF01214DF2143000F0C5
:105160007FFF82214DF2153000F07AFF01214DF2D0
:10517000163000F075FFCA214DF2173000F070FFB5
:1051800002214DF2183000F06BFF00214DF2193072
:1051900000F066FF02214DF21A3000F061FF01219C
:1051A0004DF21B3000F05CFF02214DF21C3000F08C
:1051B00057FF34214DF21D3000F052FF02214DF215
:1051C0001E3000F04DFF67214DF21F3000F048FF08
:1051D00002214DF2203000F043FF84214DF22130B6
:1051E00000F03EFF02214DF2223000F039FFA421F1
:1051F0004DF2233000F034FF02214DF2243000F054
:105200002FFFB7214DF2253000F02AFF02214DF289
:10521000263000F025FFCF214DF2273000F020FF8F
:1052200002214DF2283000F01BFFDE214DF2293023
:1052300000F016FF02214DF22A3000F011FFF2219A
:105240004DF22B3000F00CFF02214DF22C3000F01B
:1052500007FFFE214DF22D3000F002FF03214DF239
:105260002E3000F0FDFE10214DF22F3000F0F8FE40
:1052700003214DF2303000F0F3FE33214DF2313096
:1052800000F0EEFE03214DF2323000F0E9FE6D2118
:105290004DF2333000F0E4FE00214FF4544000F0B2
:1052A000DFFE33214DF2014000F0DAFE00214DF225
:1052B000024000E07CE300F0D3FE34214DF20340D5
:1052C00000F0CEFE00214DF2044000F0C9FE3A216C
:1052D0004DF2054000F0C4FE00214DF2064000F002
:1052E000BFFE4A214DF2074000F0BAFE00214DF208
:1052F000084000F0B5FE5C214DF2094000F0B0FE20
:1053000000214DF20A4000F0ABFE81214DF20B402E
:1053100000F0A6FE00214DF20C4000F0A1FEA621F7
:105320004DF20D4000F09CFE00214DF20E4000F0C9
:1053300097FEE5214DF20F4000F092FE01214DF263
:10534000104000F08DFE13214DF2114000F088FE58
:1053500001214DF2124000F083FE54214DF2134022
:1053600000F07EFE01214DF2144000F079FE822112
:105370004DF2154000F074FE01214DF2164000F090
:105380006FFECA214DF2174000F06AFE02214DF275
:10539000184000F065FE00214DF2194000F060FE5B
:1053A00002214DF21A4000F05BFE01214DF21B403C
:1053B00000F056FE022100E0FDE24DF21C4000F03C
:1053C0004FFE34214DF21D4000F04AFE02214DF205
:1053D0001E4000F045FE67214DF21F4000F040FEE8
:1053E00002214DF2204000F03BFE84214DF221408D
:1053F00000F036FE02214DF2224000F031FEA421E1
:105400004DF2234000F02CFE02214DF2244000F02A
:1054100027FEB7214DF2254000F022FE02214DF279
:10542000264000F01DFECF214DF2274000F018FE6F
:1054300002214DF2284000F013FEDE214DF22940FA
:1054400000F00EFE02214DF22A4000F009FEF2218A
:105450004DF22B4000F004FE02214DF22C4000F0F2
:10546000FFFDFE214DF22D4000F0FAFD03214DF22B
:105470002E4000F0F5FD10214DF22F4000F0F0FD20
:1054800003214DF2304000F0EBFD33214DF231406D
:1054900000F0E6FD03214DF2324000F0E1FD6D2108
:1054A0004DF2334000F0DCFD00214FF4554000F098
:1054B000D7FD33214DF2015000F0D2FD00214DF215
:1054C000025000F0CDFD34214DF2035000F0C8FD34
:1054D00000214DF2045000F0C3FD3A214DF2055079
:1054E00000F0BEFD00214DF2065000F0B9FD4A214A
:1054F0004DF2075000F0B4FD00214DF2085000F0CD
:10550000AFFD5C214DF2095000F0AAFD00214DF2E3
:105510000A5000F0A5FD81214DF20B5000F0A0FDD6
:1055200000214DF20C5000F09BFDA6214DF20D50D4
:1055300000F096FD00214DF20E5000F091FDE521A6
:105540004DF20F5000F08CFD01214DF2105000F093
:1055500087FD13214DF2115000F082FD01214DF223
:10556000125000F07DFD54214DF2135000F078FDF3
:1055700001214DF2145000F073FD82214DF21550BF
:1055800000F06EFD01214DF2165000F069FDCA21B8
:105590004DF2175000F064FD02214DF2185000F05A
:1055A0005FFD00214DF2195000F05AFD02214DF22D
:1055B0001A5000F055FD01214DF21B5000F050FD36
:1055C00002214DF21C5000F04BFD34214DF21D50D4
:1055D00000F046FD02214DF21E5000F041FD672112
:1055E0004DF21F5000F03CFD02214DF2205000F022
:1055F00037FD84214DF2215000F032FD02214DF2A1
:10560000225000F02DFDA4214DF2235000F028FD82
:1056100002214DF2245000F023FDB7214DF2255018
:1056200000F01EFD02214DF2265000F019FDCF21A1
:105630004DF2275000F014FD02214DF2285000F0E9
:105640000FFDDE214DF2295000F00AFD02214DF23E
:105650002A5000F005FDF2214DF22B5000F000FD24
:1056600002214DF22C5000F0FBFCFE214DF22D509A
:1056700000F0F6FC03214DF22E5000F0F1FC102159
:105680004DF22F5000F0ECFC03214DF2305000F0B1
:10569000E7FC33214DF2315000F0E2FC03214DF2E2
:1056A000325000F0DDFC6D214DF2335000F0D8FC9B
:1056B00000214FF4564000F0D3FC33214DF201603D
:1056C00000F0CEFC00214DF2026000F0C9FC342154
:1056D0004DF2036000F0C4FC00214DF2046000F0C4
:1056E000BFFC3A214DF2056000F0BAFC00214DF2FA
:1056F000066000F0B5FC4A214DF2076000F0B0FCF6
:1057000000214DF2086000F0ABFC5C214DF2096015
:1057100000F0A6FC00214DF20A6000F0A1FC8121FE
:105720004DF20B6000F09CFC00214DF20C6000F08B
:1057300097FCA6214DF20D6000F092FC00214DF285
:105740000E6000F08DFCE5214DF20F6000F088FC4A
:1057500001214DF2106000F083FC13214DF2116025
:1057600000F07EFC01214DF2126000F079FC542122
:105770004DF2136000F074FC01214DF2146000F052
:105780006FFC82214DF2156000F06AFC01214DF2A0
:10579000166000F065FCCA214DF2176000F060FC55
:1057A00002214DF2186000F05BFC00214DF21960FF
:1057B00000F056FC02214DF21A6000F051FC01216C
:1057C0004DF21B6000F04CFC02214DF21C6000F019
:1057D00047FC34214DF21D6000F042FC02214DF2E5
:1057E0001E6000F03DFC67214DF21F6000F038FCA8
:1057F00002214DF2206000F033FC84214DF2216043
:1058000000F02EFC02214DF2226000F029FCA421C0
:105810004DF2236000F024FC02214DF2246000F0E0
:105820001FFCB7214DF2256000F01AFC02214DF259
:10583000266000F015FCCF214DF2276000F010FC2F
:1058400002214DF2286000F00BFCDE214DF22960B0
:1058500000F006FC02214DF22A6000F001FCF2216A
:105860004DF22B6000F0FCFB02214DF22C6000F0A9
:10587000F7FBFE214DF22D6000F0F2FB03214DF20B
:105880002E6000F0EDFB10214DF22F6000F0E8FBE0
:1058900003214DF2306000F0E3FB33214DF2316023
:1058A00000F0DEFB03214DF2326000F0D9FB6D21E8
:1058B0004DF2336000F0D4FB5521184600F0D0FBC8
:1058C000AA21384600F0CCFB5221781C00F0C8FB1E
:1058D0000821B81C00F0C4FB0021F81C00F0C0FB3C
:1058E000CC214FF4314000F0BBFB00214BF2011002
:1058F00000F0B6FB05214FF4364000F0B1FB7021FB
:105900004FF4374000F0ACFB70214BF2017000F017
:10591000A7FB01214FF4384000F0A2FB03214BF616
:10592000010000F09DFB03214BF6020000F098FB04
:1059300003214BF6030000F093FB02214FF43C409F
:1059400000F08EFB00214BF6014000F089FB0021A6
:105950004BF6024000F084FBD0214FF4494000F0A8
:105960007FFB02214CF6011000F07AFB50214CF62F
:10597000021000F075FB50214CF6031000F070FB94
:1059800050214CF6041000F06BFB00214FF45450F2
:1059900000F066FB55214FF4685000F061FB4FF4B6
:1059A000885000F047FB782003F004F94FF42450AE
:1059B00000F040FBB9E04045FCD1E22000F03AFBAA
:1059C0001D2000F02BFB022000F028FB042000F03B
:1059D00025FB642003F0EEF8E02000F02BFB012013
:1059E00000F01CFB0A2003F0D7F8E02000F022FBB7
:1059F000032000F013FB0C2003F0CEF8012000F090
:105A000019FB0A2003F0C8F8E62000F013FB2F2052
:105A100000F004FBFF2000F001FBFF2000F0FEFA85
:105A2000B02000F007FB202000F0F8FA002000F082
:105A3000F5FA032000F0F2FA40F21F3000F0EEFA1F
:105A4000012000F0EBFA40F2DF1000F0E7FA00204E
:105A500000F0E4FAB42000F0EDFA042000F0DEFAE1
:105A600040F21F4000F0DAFA002000F0D7FA2E20B2
:105A700000F0D4FA002000F0D1FA002000F0CEFAB5
:105A8000002000F0CBFA002000F0C8FAB62000F0A9
:105A9000D1FA022000F0C2FA4FF4037000F0BEFA0F
:105AA000002000F0BBFA172000F0B8FA152000F033
:105AB000B5FA002000F0B2FA002000F0AFFAF020B2
:105AC00000F0B8FA032000F0A9FA292000F0B2FA99
:105AD000D02000F0AFFA002000F0A0FABE2000F0C5
